{
	"smartC/contracts/Governator.sol": {
		"ELECTION_SYSTEM": {
			"abi": [
				{
					"inputs": [],
					"stateMutability": "nonpayable",
					"type": "constructor"
				},
				{
					"anonymous": false,
					"inputs": [
						{
							"indexed": false,
							"internalType": "uint256",
							"name": "electionsCounter",
							"type": "uint256"
						}
					],
					"name": "electionStarted",
					"type": "event"
				},
				{
					"anonymous": false,
					"inputs": [
						{
							"indexed": true,
							"internalType": "address",
							"name": "newPerson",
							"type": "address"
						}
					],
					"name": "newPerson",
					"type": "event"
				},
				{
					"anonymous": false,
					"inputs": [
						{
							"indexed": true,
							"internalType": "address",
							"name": "nominator",
							"type": "address"
						},
						{
							"indexed": true,
							"internalType": "address",
							"name": "nominee",
							"type": "address"
						}
					],
					"name": "nomination",
					"type": "event"
				},
				{
					"inputs": [
						{
							"internalType": "uint256",
							"name": "",
							"type": "uint256"
						}
					],
					"name": "Elections",
					"outputs": [
						{
							"internalType": "uint256",
							"name": "Id",
							"type": "uint256"
						},
						{
							"internalType": "string",
							"name": "purpose",
							"type": "string"
						},
						{
							"internalType": "address",
							"name": "candidate1",
							"type": "address"
						},
						{
							"internalType": "address",
							"name": "candidate2",
							"type": "address"
						},
						{
							"internalType": "uint256",
							"name": "vote_candidate1",
							"type": "uint256"
						},
						{
							"internalType": "uint256",
							"name": "vote_candidate2",
							"type": "uint256"
						},
						{
							"internalType": "string",
							"name": "position",
							"type": "string"
						},
						{
							"internalType": "string",
							"name": "GEO",
							"type": "string"
						},
						{
							"internalType": "uint256",
							"name": "totalVotes",
							"type": "uint256"
						},
						{
							"internalType": "bool",
							"name": "exists",
							"type": "bool"
						}
					],
					"stateMutability": "view",
					"type": "function"
				},
				{
					"inputs": [
						{
							"internalType": "address",
							"name": "",
							"type": "address"
						}
					],
					"name": "Persons",
					"outputs": [
						{
							"internalType": "uint256",
							"name": "id",
							"type": "uint256"
						},
						{
							"internalType": "string",
							"name": "name",
							"type": "string"
						},
						{
							"internalType": "string",
							"name": "position",
							"type": "string"
						},
						{
							"internalType": "bool",
							"name": "exists",
							"type": "bool"
						},
						{
							"internalType": "bool",
							"name": "qualified",
							"type": "bool"
						}
					],
					"stateMutability": "view",
					"type": "function"
				},
				{
					"inputs": [
						{
							"internalType": "string",
							"name": "",
							"type": "string"
						}
					],
					"name": "Positions",
					"outputs": [
						{
							"internalType": "string",
							"name": "title",
							"type": "string"
						},
						{
							"internalType": "address",
							"name": "holder",
							"type": "address"
						}
					],
					"stateMutability": "view",
					"type": "function"
				},
				{
					"inputs": [
						{
							"internalType": "uint256",
							"name": "",
							"type": "uint256"
						},
						{
							"internalType": "address",
							"name": "",
							"type": "address"
						}
					],
					"name": "Votes",
					"outputs": [
						{
							"internalType": "uint256",
							"name": "votes",
							"type": "uint256"
						}
					],
					"stateMutability": "view",
					"type": "function"
				},
				{
					"inputs": [],
					"name": "candidateId",
					"outputs": [
						{
							"internalType": "uint256",
							"name": "",
							"type": "uint256"
						}
					],
					"stateMutability": "view",
					"type": "function"
				},
				{
					"inputs": [
						{
							"internalType": "uint256",
							"name": "_electionId",
							"type": "uint256"
						},
						{
							"internalType": "address",
							"name": "_candidate",
							"type": "address"
						}
					],
					"name": "castVote",
					"outputs": [],
					"stateMutability": "nonpayable",
					"type": "function"
				},
				{
					"inputs": [
						{
							"internalType": "uint256",
							"name": "_electionId",
							"type": "uint256"
						}
					],
					"name": "concludeElection",
					"outputs": [],
					"stateMutability": "nonpayable",
					"type": "function"
				},
				{
					"inputs": [],
					"name": "electionsCounter",
					"outputs": [
						{
							"internalType": "uint256",
							"name": "",
							"type": "uint256"
						}
					],
					"stateMutability": "view",
					"type": "function"
				},
				{
					"inputs": [],
					"name": "getAllPersons",
					"outputs": [
						{
							"components": [
								{
									"internalType": "uint256",
									"name": "id",
									"type": "uint256"
								},
								{
									"internalType": "string",
									"name": "name",
									"type": "string"
								},
								{
									"internalType": "string",
									"name": "position",
									"type": "string"
								},
								{
									"internalType": "bool",
									"name": "exists",
									"type": "bool"
								},
								{
									"internalType": "bool",
									"name": "qualified",
									"type": "bool"
								}
							],
							"internalType": "struct ELECTION_SYSTEM.Person[]",
							"name": "",
							"type": "tuple[]"
						}
					],
					"stateMutability": "view",
					"type": "function"
				},
				{
					"inputs": [
						{
							"internalType": "string",
							"name": "_purpose",
							"type": "string"
						},
						{
							"internalType": "address",
							"name": "_candidate1",
							"type": "address"
						},
						{
							"internalType": "address",
							"name": "_candidate2",
							"type": "address"
						},
						{
							"internalType": "string",
							"name": "_position",
							"type": "string"
						},
						{
							"internalType": "string",
							"name": "_geo",
							"type": "string"
						}
					],
					"name": "initiateElection",
					"outputs": [],
					"stateMutability": "nonpayable",
					"type": "function"
				},
				{
					"inputs": [
						{
							"internalType": "string",
							"name": "_name",
							"type": "string"
						}
					],
					"name": "registerPerson",
					"outputs": [
						{
							"internalType": "bool",
							"name": "",
							"type": "bool"
						}
					],
					"stateMutability": "nonpayable",
					"type": "function"
				}
			],
			"devdoc": {
				"kind": "dev",
				"methods": {},
				"version": 1
			},
			"evm": {
				"assembly": "    /* \"smartC/contracts/Governator.sol\":118:4270  contract ELECTION_SYSTEM {... */\n  mstore(0x40, 0x80)\n    /* \"smartC/contracts/Governator.sol\":4228:4229  0 */\n  0x00\n    /* \"smartC/contracts/Governator.sol\":4202:4229  uint public candidateId = 0 */\n  0x05\n  sstore\n    /* \"smartC/contracts/Governator.sol\":4266:4267  0 */\n  0x00\n    /* \"smartC/contracts/Governator.sol\":4235:4267  uint public electionsCounter = 0 */\n  0x06\n  sstore\n    /* \"smartC/contracts/Governator.sol\":150:388  constructor() {... */\n  callvalue\n  dup1\n  iszero\n  tag_1\n  jumpi\n  0x00\n  dup1\n  revert\ntag_1:\n  pop\n    /* \"smartC/contracts/Governator.sol\":174:381  initiateElection(\"National mid-term presidential election, 2027, PO vs BAT\",... */\n  tag_4\n  mload(0x40)\n  dup1\n  0x60\n  add\n  0x40\n  mstore\n  dup1\n  0x38\n  dup2\n  mstore\n  0x20\n  add\n  data_fa11efc11f5ee3a5e0c78371ebad876a884d8232ae986682045353c899e27ad9\n  0x38\n  swap2\n  codecopy\n    /* \"smartC/contracts/Governator.sol\":260:302  0x5B38Da6a701c568545dCfcB03FcB875f56beddC4 */\n  0x5b38da6a701c568545dcfcb03fcb875f56beddc4\n    /* \"smartC/contracts/Governator.sol\":314:356  0xAb8483F64d9C6d1EcF9b849Ae677dD3315835cb2 */\n  0xab8483f64d9c6d1ecf9b849ae677dd3315835cb2\n    /* \"smartC/contracts/Governator.sol\":174:381  initiateElection(\"National mid-term presidential election, 2027, PO vs BAT\",... */\n  mload(0x40)\n  dup1\n  0x40\n  add\n  0x40\n  mstore\n  dup1\n  0x09\n  dup2\n  mstore\n  0x20\n  add\n  0x507265736964656e740000000000000000000000000000000000000000000000\n  dup2\n  mstore\n  pop\n  mload(0x40)\n  dup1\n  0x40\n  add\n  0x40\n  mstore\n  dup1\n  0x07\n  dup2\n  mstore\n  0x20\n  add\n  0x4e69676572696100000000000000000000000000000000000000000000000000\n  dup2\n  mstore\n  pop\n    /* \"smartC/contracts/Governator.sol\":174:190  initiateElection */\n  shl(0x20, tag_5)\n    /* \"smartC/contracts/Governator.sol\":174:381  initiateElection(\"National mid-term presidential election, 2027, PO vs BAT\",... */\n  0x20\n  shr\n  jump\t// in\ntag_4:\n    /* \"smartC/contracts/Governator.sol\":118:4270  contract ELECTION_SYSTEM {... */\n  jump(tag_6)\n    /* \"smartC/contracts/Governator.sol\":2301:3083  function initiateElection(... */\ntag_5:\n    /* \"smartC/contracts/Governator.sol\":2510:2519  Elections */\n  0x04\n    /* \"smartC/contracts/Governator.sol\":2510:2537  Elections[electionsCounter] */\n  0x00\n    /* \"smartC/contracts/Governator.sol\":2520:2536  electionsCounter */\n  sload(0x06)\n    /* \"smartC/contracts/Governator.sol\":2510:2537  Elections[electionsCounter] */\n  dup2\n  mstore\n  0x20\n  add\n  swap1\n  dup2\n  mstore\n  0x20\n  add\n  0x00\n  keccak256\n    /* \"smartC/contracts/Governator.sol\":2510:2544  Elections[electionsCounter].exists */\n  0x09\n  add\n  0x00\n  swap1\n  sload\n  swap1\n  0x0100\n  exp\n  swap1\n  div\n  0xff\n  and\n    /* \"smartC/contracts/Governator.sol\":2509:2544  !Elections[electionsCounter].exists */\n  iszero\n    /* \"smartC/contracts/Governator.sol\":2501:2572  require(!Elections[electionsCounter].exists, \"Election already exists\") */\n  tag_8\n  jumpi\n  mload(0x40)\n  0x08c379a000000000000000000000000000000000000000000000000000000000\n  dup2\n  mstore\n  0x04\n  add\n  tag_9\n  swap1\n  tag_10\n  jump\t// in\ntag_9:\n  mload(0x40)\n  dup1\n  swap2\n  sub\n  swap1\n  revert\ntag_8:\n    /* \"smartC/contracts/Governator.sol\":2620:2621  1 */\n  0x01\n    /* \"smartC/contracts/Governator.sol\":2601:2617  electionsCounter */\n  sload(0x06)\n    /* \"smartC/contracts/Governator.sol\":2601:2621  electionsCounter + 1 */\n  tag_11\n  swap2\n  swap1\n  tag_12\n  jump\t// in\ntag_11:\n    /* \"smartC/contracts/Governator.sol\":2582:2598  electionsCounter */\n  0x06\n    /* \"smartC/contracts/Governator.sol\":2582:2621  electionsCounter = electionsCounter + 1 */\n  dup2\n  swap1\n  sstore\n  pop\n    /* \"smartC/contracts/Governator.sol\":2640:2668  Election storage newElection */\n  0x00\n    /* \"smartC/contracts/Governator.sol\":2671:2680  Elections */\n  0x04\n    /* \"smartC/contracts/Governator.sol\":2671:2698  Elections[electionsCounter] */\n  0x00\n    /* \"smartC/contracts/Governator.sol\":2681:2697  electionsCounter */\n  sload(0x06)\n    /* \"smartC/contracts/Governator.sol\":2671:2698  Elections[electionsCounter] */\n  dup2\n  mstore\n  0x20\n  add\n  swap1\n  dup2\n  mstore\n  0x20\n  add\n  0x00\n  keccak256\n    /* \"smartC/contracts/Governator.sol\":2640:2698  Election storage newElection = Elections[electionsCounter] */\n  swap1\n  pop\n    /* \"smartC/contracts/Governator.sol\":2725:2741  electionsCounter */\n  sload(0x06)\n    /* \"smartC/contracts/Governator.sol\":2708:2719  newElection */\n  dup2\n    /* \"smartC/contracts/Governator.sol\":2708:2722  newElection.Id */\n  0x00\n  add\n    /* \"smartC/contracts/Governator.sol\":2708:2741  newElection.Id = electionsCounter */\n  dup2\n  swap1\n  sstore\n  pop\n    /* \"smartC/contracts/Governator.sol\":2773:2781  _purpose */\n  dup6\n    /* \"smartC/contracts/Governator.sol\":2751:2762  newElection */\n  dup2\n    /* \"smartC/contracts/Governator.sol\":2751:2770  newElection.purpose */\n  0x01\n  add\n    /* \"smartC/contracts/Governator.sol\":2751:2781  newElection.purpose = _purpose */\n  swap1\n  dup2\n  tag_13\n  swap2\n  swap1\n  tag_14\n  jump\t// in\ntag_13:\n  pop\n    /* \"smartC/contracts/Governator.sol\":2816:2827  _candidate1 */\n  dup5\n    /* \"smartC/contracts/Governator.sol\":2791:2802  newElection */\n  dup2\n    /* \"smartC/contracts/Governator.sol\":2791:2813  newElection.candidate1 */\n  0x02\n  add\n  0x00\n    /* \"smartC/contracts/Governator.sol\":2791:2827  newElection.candidate1 = _candidate1 */\n  0x0100\n  exp\n  dup2\n  sload\n  dup2\n  0xffffffffffffffffffffffffffffffffffffffff\n  mul\n  not\n  and\n  swap1\n  dup4\n  0xffffffffffffffffffffffffffffffffffffffff\n  and\n  mul\n  or\n  swap1\n  sstore\n  pop\n    /* \"smartC/contracts/Governator.sol\":2862:2873  _candidate2 */\n  dup4\n    /* \"smartC/contracts/Governator.sol\":2837:2848  newElection */\n  dup2\n    /* \"smartC/contracts/Governator.sol\":2837:2859  newElection.candidate2 */\n  0x03\n  add\n  0x00\n    /* \"smartC/contracts/Governator.sol\":2837:2873  newElection.candidate2 = _candidate2 */\n  0x0100\n  exp\n  dup2\n  sload\n  dup2\n  0xffffffffffffffffffffffffffffffffffffffff\n  mul\n  not\n  and\n  swap1\n  dup4\n  0xffffffffffffffffffffffffffffffffffffffff\n  and\n  mul\n  or\n  swap1\n  sstore\n  pop\n    /* \"smartC/contracts/Governator.sol\":2906:2915  _position */\n  dup3\n    /* \"smartC/contracts/Governator.sol\":2883:2894  newElection */\n  dup2\n    /* \"smartC/contracts/Governator.sol\":2883:2903  newElection.position */\n  0x06\n  add\n    /* \"smartC/contracts/Governator.sol\":2883:2915  newElection.position = _position */\n  swap1\n  dup2\n  tag_15\n  swap2\n  swap1\n  tag_14\n  jump\t// in\ntag_15:\n  pop\n    /* \"smartC/contracts/Governator.sol\":2943:2947  _geo */\n  dup2\n    /* \"smartC/contracts/Governator.sol\":2925:2936  newElection */\n  dup2\n    /* \"smartC/contracts/Governator.sol\":2925:2940  newElection.GEO */\n  0x07\n  add\n    /* \"smartC/contracts/Governator.sol\":2925:2947  newElection.GEO = _geo */\n  swap1\n  dup2\n  tag_16\n  swap2\n  swap1\n  tag_14\n  jump\t// in\ntag_16:\n  pop\n    /* \"smartC/contracts/Governator.sol\":2983:2984  0 */\n  0x00\n    /* \"smartC/contracts/Governator.sol\":2958:2969  newElection */\n  dup2\n    /* \"smartC/contracts/Governator.sol\":2958:2980  newElection.totalVotes */\n  0x08\n  add\n    /* \"smartC/contracts/Governator.sol\":2958:2984  newElection.totalVotes = 0 */\n  dup2\n  swap1\n  sstore\n  pop\n    /* \"smartC/contracts/Governator.sol\":3015:3019  true */\n  0x01\n    /* \"smartC/contracts/Governator.sol\":2994:3005  newElection */\n  dup2\n    /* \"smartC/contracts/Governator.sol\":2994:3012  newElection.exists */\n  0x09\n  add\n  0x00\n    /* \"smartC/contracts/Governator.sol\":2994:3019  newElection.exists = true */\n  0x0100\n  exp\n  dup2\n  sload\n  dup2\n  0xff\n  mul\n  not\n  and\n  swap1\n  dup4\n  iszero\n  iszero\n  mul\n  or\n  swap1\n  sstore\n  pop\n    /* \"smartC/contracts/Governator.sol\":3043:3076  electionStarted(electionsCounter) */\n  0x878bb103e2c92788427ea47308fc2c171b1f607553d68c2e7c2e98e6cdb63181\n    /* \"smartC/contracts/Governator.sol\":3059:3075  electionsCounter */\n  sload(0x06)\n    /* \"smartC/contracts/Governator.sol\":3043:3076  electionStarted(electionsCounter) */\n  mload(0x40)\n  tag_17\n  swap2\n  swap1\n  tag_18\n  jump\t// in\ntag_17:\n  mload(0x40)\n  dup1\n  swap2\n  sub\n  swap1\n  log1\n    /* \"smartC/contracts/Governator.sol\":2491:3083  {... */\n  pop\n    /* \"smartC/contracts/Governator.sol\":2301:3083  function initiateElection(... */\n  pop\n  pop\n  pop\n  pop\n  pop\n  jump\t// out\n    /* \"#utility.yul\":7:176   */\ntag_19:\n    /* \"#utility.yul\":91:102   */\n  0x00\n    /* \"#utility.yul\":125:131   */\n  dup3\n    /* \"#utility.yul\":120:123   */\n  dup3\n    /* \"#utility.yul\":113:132   */\n  mstore\n    /* \"#utility.yul\":165:169   */\n  0x20\n    /* \"#utility.yul\":160:163   */\n  dup3\n    /* \"#utility.yul\":156:170   */\n  add\n    /* \"#utility.yul\":141:170   */\n  swap1\n  pop\n    /* \"#utility.yul\":7:176   */\n  swap3\n  swap2\n  pop\n  pop\n  jump\t// out\n    /* \"#utility.yul\":182:355   */\ntag_20:\n    /* \"#utility.yul\":322:347   */\n  0x456c656374696f6e20616c726561647920657869737473000000000000000000\n    /* \"#utility.yul\":318:319   */\n  0x00\n    /* \"#utility.yul\":310:316   */\n  dup3\n    /* \"#utility.yul\":306:320   */\n  add\n    /* \"#utility.yul\":299:348   */\n  mstore\n    /* \"#utility.yul\":182:355   */\n  pop\n  jump\t// out\n    /* \"#utility.yul\":361:727   */\ntag_21:\n    /* \"#utility.yul\":503:506   */\n  0x00\n    /* \"#utility.yul\":524:591   */\n  tag_48\n    /* \"#utility.yul\":588:590   */\n  0x17\n    /* \"#utility.yul\":583:586   */\n  dup4\n    /* \"#utility.yul\":524:591   */\n  tag_19\n  jump\t// in\ntag_48:\n    /* \"#utility.yul\":517:591   */\n  swap2\n  pop\n    /* \"#utility.yul\":600:693   */\n  tag_49\n    /* \"#utility.yul\":689:692   */\n  dup3\n    /* \"#utility.yul\":600:693   */\n  tag_20\n  jump\t// in\ntag_49:\n    /* \"#utility.yul\":718:720   */\n  0x20\n    /* \"#utility.yul\":713:716   */\n  dup3\n    /* \"#utility.yul\":709:721   */\n  add\n    /* \"#utility.yul\":702:721   */\n  swap1\n  pop\n    /* \"#utility.yul\":361:727   */\n  swap2\n  swap1\n  pop\n  jump\t// out\n    /* \"#utility.yul\":733:1152   */\ntag_10:\n    /* \"#utility.yul\":899:903   */\n  0x00\n    /* \"#utility.yul\":937:939   */\n  0x20\n    /* \"#utility.yul\":926:935   */\n  dup3\n    /* \"#utility.yul\":922:940   */\n  add\n    /* \"#utility.yul\":914:940   */\n  swap1\n  pop\n    /* \"#utility.yul\":986:995   */\n  dup2\n    /* \"#utility.yul\":980:984   */\n  dup2\n    /* \"#utility.yul\":976:996   */\n  sub\n    /* \"#utility.yul\":972:973   */\n  0x00\n    /* \"#utility.yul\":961:970   */\n  dup4\n    /* \"#utility.yul\":957:974   */\n  add\n    /* \"#utility.yul\":950:997   */\n  mstore\n    /* \"#utility.yul\":1014:1145   */\n  tag_51\n    /* \"#utility.yul\":1140:1144   */\n  dup2\n    /* \"#utility.yul\":1014:1145   */\n  tag_21\n  jump\t// in\ntag_51:\n    /* \"#utility.yul\":1006:1145   */\n  swap1\n  pop\n    /* \"#utility.yul\":733:1152   */\n  swap2\n  swap1\n  pop\n  jump\t// out\n    /* \"#utility.yul\":1158:1235   */\ntag_22:\n    /* \"#utility.yul\":1195:1202   */\n  0x00\n    /* \"#utility.yul\":1224:1229   */\n  dup2\n    /* \"#utility.yul\":1213:1229   */\n  swap1\n  pop\n    /* \"#utility.yul\":1158:1235   */\n  swap2\n  swap1\n  pop\n  jump\t// out\n    /* \"#utility.yul\":1241:1421   */\ntag_23:\n    /* \"#utility.yul\":1289:1366   */\n  0x4e487b7100000000000000000000000000000000000000000000000000000000\n    /* \"#utility.yul\":1286:1287   */\n  0x00\n    /* \"#utility.yul\":1279:1367   */\n  mstore\n    /* \"#utility.yul\":1386:1390   */\n  0x11\n    /* \"#utility.yul\":1383:1384   */\n  0x04\n    /* \"#utility.yul\":1376:1391   */\n  mstore\n    /* \"#utility.yul\":1410:1414   */\n  0x24\n    /* \"#utility.yul\":1407:1408   */\n  0x00\n    /* \"#utility.yul\":1400:1415   */\n  revert\n    /* \"#utility.yul\":1427:1618   */\ntag_12:\n    /* \"#utility.yul\":1467:1470   */\n  0x00\n    /* \"#utility.yul\":1486:1506   */\n  tag_55\n    /* \"#utility.yul\":1504:1505   */\n  dup3\n    /* \"#utility.yul\":1486:1506   */\n  tag_22\n  jump\t// in\ntag_55:\n    /* \"#utility.yul\":1481:1506   */\n  swap2\n  pop\n    /* \"#utility.yul\":1520:1540   */\n  tag_56\n    /* \"#utility.yul\":1538:1539   */\n  dup4\n    /* \"#utility.yul\":1520:1540   */\n  tag_22\n  jump\t// in\ntag_56:\n    /* \"#utility.yul\":1515:1540   */\n  swap3\n  pop\n    /* \"#utility.yul\":1563:1564   */\n  dup3\n    /* \"#utility.yul\":1560:1561   */\n  dup3\n    /* \"#utility.yul\":1556:1565   */\n  add\n    /* \"#utility.yul\":1549:1565   */\n  swap1\n  pop\n    /* \"#utility.yul\":1584:1587   */\n  dup1\n    /* \"#utility.yul\":1581:1582   */\n  dup3\n    /* \"#utility.yul\":1578:1588   */\n  gt\n    /* \"#utility.yul\":1575:1611   */\n  iszero\n  tag_57\n  jumpi\n    /* \"#utility.yul\":1591:1609   */\n  tag_58\n  tag_23\n  jump\t// in\ntag_58:\n    /* \"#utility.yul\":1575:1611   */\ntag_57:\n    /* \"#utility.yul\":1427:1618   */\n  swap3\n  swap2\n  pop\n  pop\n  jump\t// out\n    /* \"#utility.yul\":1624:1723   */\ntag_24:\n    /* \"#utility.yul\":1676:1682   */\n  0x00\n    /* \"#utility.yul\":1710:1715   */\n  dup2\n    /* \"#utility.yul\":1704:1716   */\n  mload\n    /* \"#utility.yul\":1694:1716   */\n  swap1\n  pop\n    /* \"#utility.yul\":1624:1723   */\n  swap2\n  swap1\n  pop\n  jump\t// out\n    /* \"#utility.yul\":1729:1909   */\ntag_25:\n    /* \"#utility.yul\":1777:1854   */\n  0x4e487b7100000000000000000000000000000000000000000000000000000000\n    /* \"#utility.yul\":1774:1775   */\n  0x00\n    /* \"#utility.yul\":1767:1855   */\n  mstore\n    /* \"#utility.yul\":1874:1878   */\n  0x41\n    /* \"#utility.yul\":1871:1872   */\n  0x04\n    /* \"#utility.yul\":1864:1879   */\n  mstore\n    /* \"#utility.yul\":1898:1902   */\n  0x24\n    /* \"#utility.yul\":1895:1896   */\n  0x00\n    /* \"#utility.yul\":1888:1903   */\n  revert\n    /* \"#utility.yul\":1915:2095   */\ntag_26:\n    /* \"#utility.yul\":1963:2040   */\n  0x4e487b7100000000000000000000000000000000000000000000000000000000\n    /* \"#utility.yul\":1960:1961   */\n  0x00\n    /* \"#utility.yul\":1953:2041   */\n  mstore\n    /* \"#utility.yul\":2060:2064   */\n  0x22\n    /* \"#utility.yul\":2057:2058   */\n  0x04\n    /* \"#utility.yul\":2050:2065   */\n  mstore\n    /* \"#utility.yul\":2084:2088   */\n  0x24\n    /* \"#utility.yul\":2081:2082   */\n  0x00\n    /* \"#utility.yul\":2074:2089   */\n  revert\n    /* \"#utility.yul\":2101:2421   */\ntag_27:\n    /* \"#utility.yul\":2145:2151   */\n  0x00\n    /* \"#utility.yul\":2182:2183   */\n  0x02\n    /* \"#utility.yul\":2176:2180   */\n  dup3\n    /* \"#utility.yul\":2172:2184   */\n  div\n    /* \"#utility.yul\":2162:2184   */\n  swap1\n  pop\n    /* \"#utility.yul\":2229:2230   */\n  0x01\n    /* \"#utility.yul\":2223:2227   */\n  dup3\n    /* \"#utility.yul\":2219:2231   */\n  and\n    /* \"#utility.yul\":2250:2268   */\n  dup1\n    /* \"#utility.yul\":2240:2321   */\n  tag_63\n  jumpi\n    /* \"#utility.yul\":2306:2310   */\n  0x7f\n    /* \"#utility.yul\":2298:2304   */\n  dup3\n    /* \"#utility.yul\":2294:2311   */\n  and\n    /* \"#utility.yul\":2284:2311   */\n  swap2\n  pop\n    /* \"#utility.yul\":2240:2321   */\ntag_63:\n    /* \"#utility.yul\":2368:2370   */\n  0x20\n    /* \"#utility.yul\":2360:2366   */\n  dup3\n    /* \"#utility.yul\":2357:2371   */\n  lt\n    /* \"#utility.yul\":2337:2355   */\n  dup2\n    /* \"#utility.yul\":2334:2372   */\n  sub\n    /* \"#utility.yul\":2331:2415   */\n  tag_64\n  jumpi\n    /* \"#utility.yul\":2387:2405   */\n  tag_65\n  tag_26\n  jump\t// in\ntag_65:\n    /* \"#utility.yul\":2331:2415   */\ntag_64:\n    /* \"#utility.yul\":2152:2421   */\n  pop\n    /* \"#utility.yul\":2101:2421   */\n  swap2\n  swap1\n  pop\n  jump\t// out\n    /* \"#utility.yul\":2427:2568   */\ntag_28:\n    /* \"#utility.yul\":2476:2480   */\n  0x00\n    /* \"#utility.yul\":2499:2502   */\n  dup2\n    /* \"#utility.yul\":2491:2502   */\n  swap1\n  pop\n    /* \"#utility.yul\":2522:2525   */\n  dup2\n    /* \"#utility.yul\":2519:2520   */\n  0x00\n    /* \"#utility.yul\":2512:2526   */\n  mstore\n    /* \"#utility.yul\":2556:2560   */\n  0x20\n    /* \"#utility.yul\":2553:2554   */\n  0x00\n    /* \"#utility.yul\":2543:2561   */\n  keccak256\n    /* \"#utility.yul\":2535:2561   */\n  swap1\n  pop\n    /* \"#utility.yul\":2427:2568   */\n  swap2\n  swap1\n  pop\n  jump\t// out\n    /* \"#utility.yul\":2574:2667   */\ntag_29:\n    /* \"#utility.yul\":2611:2617   */\n  0x00\n    /* \"#utility.yul\":2658:2660   */\n  0x20\n    /* \"#utility.yul\":2653:2655   */\n  0x1f\n    /* \"#utility.yul\":2646:2651   */\n  dup4\n    /* \"#utility.yul\":2642:2656   */\n  add\n    /* \"#utility.yul\":2638:2661   */\n  div\n    /* \"#utility.yul\":2628:2661   */\n  swap1\n  pop\n    /* \"#utility.yul\":2574:2667   */\n  swap2\n  swap1\n  pop\n  jump\t// out\n    /* \"#utility.yul\":2673:2780   */\ntag_30:\n    /* \"#utility.yul\":2717:2725   */\n  0x00\n    /* \"#utility.yul\":2767:2772   */\n  dup3\n    /* \"#utility.yul\":2761:2765   */\n  dup3\n    /* \"#utility.yul\":2757:2773   */\n  shl\n    /* \"#utility.yul\":2736:2773   */\n  swap1\n  pop\n    /* \"#utility.yul\":2673:2780   */\n  swap3\n  swap2\n  pop\n  pop\n  jump\t// out\n    /* \"#utility.yul\":2786:3179   */\ntag_31:\n    /* \"#utility.yul\":2855:2861   */\n  0x00\n    /* \"#utility.yul\":2905:2906   */\n  0x08\n    /* \"#utility.yul\":2893:2903   */\n  dup4\n    /* \"#utility.yul\":2889:2907   */\n  mul\n    /* \"#utility.yul\":2928:3025   */\n  tag_70\n    /* \"#utility.yul\":2958:3024   */\n  0xffffffffffffffffffffffffffffffffffffffffffffffffffffffffffffffff\n    /* \"#utility.yul\":2947:2956   */\n  dup3\n    /* \"#utility.yul\":2928:3025   */\n  tag_30\n  jump\t// in\ntag_70:\n    /* \"#utility.yul\":3046:3085   */\n  tag_71\n    /* \"#utility.yul\":3076:3084   */\n  dup7\n    /* \"#utility.yul\":3065:3074   */\n  dup4\n    /* \"#utility.yul\":3046:3085   */\n  tag_30\n  jump\t// in\ntag_71:\n    /* \"#utility.yul\":3034:3085   */\n  swap6\n  pop\n    /* \"#utility.yul\":3118:3122   */\n  dup1\n    /* \"#utility.yul\":3114:3123   */\n  not\n    /* \"#utility.yul\":3107:3112   */\n  dup5\n    /* \"#utility.yul\":3103:3124   */\n  and\n    /* \"#utility.yul\":3094:3124   */\n  swap4\n  pop\n    /* \"#utility.yul\":3167:3171   */\n  dup1\n    /* \"#utility.yul\":3157:3165   */\n  dup7\n    /* \"#utility.yul\":3153:3172   */\n  and\n    /* \"#utility.yul\":3146:3151   */\n  dup5\n    /* \"#utility.yul\":3143:3173   */\n  or\n    /* \"#utility.yul\":3133:3173   */\n  swap3\n  pop\n    /* \"#utility.yul\":2862:3179   */\n  pop\n  pop\n    /* \"#utility.yul\":2786:3179   */\n  swap4\n  swap3\n  pop\n  pop\n  pop\n  jump\t// out\n    /* \"#utility.yul\":3185:3245   */\ntag_32:\n    /* \"#utility.yul\":3213:3216   */\n  0x00\n    /* \"#utility.yul\":3234:3239   */\n  dup2\n    /* \"#utility.yul\":3227:3239   */\n  swap1\n  pop\n    /* \"#utility.yul\":3185:3245   */\n  swap2\n  swap1\n  pop\n  jump\t// out\n    /* \"#utility.yul\":3251:3393   */\ntag_33:\n    /* \"#utility.yul\":3301:3310   */\n  0x00\n    /* \"#utility.yul\":3334:3387   */\n  tag_74\n    /* \"#utility.yul\":3352:3386   */\n  tag_75\n    /* \"#utility.yul\":3361:3385   */\n  tag_76\n    /* \"#utility.yul\":3379:3384   */\n  dup5\n    /* \"#utility.yul\":3361:3385   */\n  tag_22\n  jump\t// in\ntag_76:\n    /* \"#utility.yul\":3352:3386   */\n  tag_32\n  jump\t// in\ntag_75:\n    /* \"#utility.yul\":3334:3387   */\n  tag_22\n  jump\t// in\ntag_74:\n    /* \"#utility.yul\":3321:3387   */\n  swap1\n  pop\n    /* \"#utility.yul\":3251:3393   */\n  swap2\n  swap1\n  pop\n  jump\t// out\n    /* \"#utility.yul\":3399:3474   */\ntag_34:\n    /* \"#utility.yul\":3442:3445   */\n  0x00\n    /* \"#utility.yul\":3463:3468   */\n  dup2\n    /* \"#utility.yul\":3456:3468   */\n  swap1\n  pop\n    /* \"#utility.yul\":3399:3474   */\n  swap2\n  swap1\n  pop\n  jump\t// out\n    /* \"#utility.yul\":3480:3749   */\ntag_35:\n    /* \"#utility.yul\":3590:3629   */\n  tag_79\n    /* \"#utility.yul\":3621:3628   */\n  dup4\n    /* \"#utility.yul\":3590:3629   */\n  tag_33\n  jump\t// in\ntag_79:\n    /* \"#utility.yul\":3651:3742   */\n  tag_80\n    /* \"#utility.yul\":3700:3741   */\n  tag_81\n    /* \"#utility.yul\":3724:3740   */\n  dup3\n    /* \"#utility.yul\":3700:3741   */\n  tag_34\n  jump\t// in\ntag_81:\n    /* \"#utility.yul\":3692:3698   */\n  dup5\n    /* \"#utility.yul\":3685:3689   */\n  dup5\n    /* \"#utility.yul\":3679:3690   */\n  sload\n    /* \"#utility.yul\":3651:3742   */\n  tag_31\n  jump\t// in\ntag_80:\n    /* \"#utility.yul\":3645:3649   */\n  dup3\n    /* \"#utility.yul\":3638:3743   */\n  sstore\n    /* \"#utility.yul\":3556:3749   */\n  pop\n    /* \"#utility.yul\":3480:3749   */\n  pop\n  pop\n  pop\n  jump\t// out\n    /* \"#utility.yul\":3755:3828   */\ntag_36:\n    /* \"#utility.yul\":3800:3803   */\n  0x00\n    /* \"#utility.yul\":3755:3828   */\n  swap1\n  jump\t// out\n    /* \"#utility.yul\":3834:4023   */\ntag_37:\n    /* \"#utility.yul\":3911:3943   */\n  tag_84\n  tag_36\n  jump\t// in\ntag_84:\n    /* \"#utility.yul\":3952:4017   */\n  tag_85\n    /* \"#utility.yul\":4010:4016   */\n  dup2\n    /* \"#utility.yul\":4002:4008   */\n  dup5\n    /* \"#utility.yul\":3996:4000   */\n  dup5\n    /* \"#utility.yul\":3952:4017   */\n  tag_35\n  jump\t// in\ntag_85:\n    /* \"#utility.yul\":3887:4023   */\n  pop\n    /* \"#utility.yul\":3834:4023   */\n  pop\n  pop\n  jump\t// out\n    /* \"#utility.yul\":4029:4215   */\ntag_38:\n    /* \"#utility.yul\":4089:4209   */\ntag_87:\n    /* \"#utility.yul\":4106:4109   */\n  dup2\n    /* \"#utility.yul\":4099:4104   */\n  dup2\n    /* \"#utility.yul\":4096:4110   */\n  lt\n    /* \"#utility.yul\":4089:4209   */\n  iszero\n  tag_89\n  jumpi\n    /* \"#utility.yul\":4160:4199   */\n  tag_90\n    /* \"#utility.yul\":4197:4198   */\n  0x00\n    /* \"#utility.yul\":4190:4195   */\n  dup3\n    /* \"#utility.yul\":4160:4199   */\n  tag_37\n  jump\t// in\ntag_90:\n    /* \"#utility.yul\":4133:4134   */\n  0x01\n    /* \"#utility.yul\":4126:4131   */\n  dup2\n    /* \"#utility.yul\":4122:4135   */\n  add\n    /* \"#utility.yul\":4113:4135   */\n  swap1\n  pop\n    /* \"#utility.yul\":4089:4209   */\n  jump(tag_87)\ntag_89:\n    /* \"#utility.yul\":4029:4215   */\n  pop\n  pop\n  jump\t// out\n    /* \"#utility.yul\":4221:4764   */\ntag_39:\n    /* \"#utility.yul\":4322:4324   */\n  0x1f\n    /* \"#utility.yul\":4317:4320   */\n  dup3\n    /* \"#utility.yul\":4314:4325   */\n  gt\n    /* \"#utility.yul\":4311:4757   */\n  iszero\n  tag_92\n  jumpi\n    /* \"#utility.yul\":4356:4394   */\n  tag_93\n    /* \"#utility.yul\":4388:4393   */\n  dup2\n    /* \"#utility.yul\":4356:4394   */\n  tag_28\n  jump\t// in\ntag_93:\n    /* \"#utility.yul\":4440:4469   */\n  tag_94\n    /* \"#utility.yul\":4458:4468   */\n  dup5\n    /* \"#utility.yul\":4440:4469   */\n  tag_29\n  jump\t// in\ntag_94:\n    /* \"#utility.yul\":4430:4438   */\n  dup2\n    /* \"#utility.yul\":4426:4470   */\n  add\n    /* \"#utility.yul\":4623:4625   */\n  0x20\n    /* \"#utility.yul\":4611:4621   */\n  dup6\n    /* \"#utility.yul\":4608:4626   */\n  lt\n    /* \"#utility.yul\":4605:4654   */\n  iszero\n  tag_95\n  jumpi\n    /* \"#utility.yul\":4644:4652   */\n  dup2\n    /* \"#utility.yul\":4629:4652   */\n  swap1\n  pop\n    /* \"#utility.yul\":4605:4654   */\ntag_95:\n    /* \"#utility.yul\":4667:4747   */\n  tag_96\n    /* \"#utility.yul\":4723:4745   */\n  tag_97\n    /* \"#utility.yul\":4741:4744   */\n  dup6\n    /* \"#utility.yul\":4723:4745   */\n  tag_29\n  jump\t// in\ntag_97:\n    /* \"#utility.yul\":4713:4721   */\n  dup4\n    /* \"#utility.yul\":4709:4746   */\n  add\n    /* \"#utility.yul\":4696:4707   */\n  dup3\n    /* \"#utility.yul\":4667:4747   */\n  tag_38\n  jump\t// in\ntag_96:\n    /* \"#utility.yul\":4326:4757   */\n  pop\n  pop\n    /* \"#utility.yul\":4311:4757   */\ntag_92:\n    /* \"#utility.yul\":4221:4764   */\n  pop\n  pop\n  pop\n  jump\t// out\n    /* \"#utility.yul\":4770:4887   */\ntag_40:\n    /* \"#utility.yul\":4824:4832   */\n  0x00\n    /* \"#utility.yul\":4874:4879   */\n  dup3\n    /* \"#utility.yul\":4868:4872   */\n  dup3\n    /* \"#utility.yul\":4864:4880   */\n  shr\n    /* \"#utility.yul\":4843:4880   */\n  swap1\n  pop\n    /* \"#utility.yul\":4770:4887   */\n  swap3\n  swap2\n  pop\n  pop\n  jump\t// out\n    /* \"#utility.yul\":4893:5062   */\ntag_41:\n    /* \"#utility.yul\":4937:4943   */\n  0x00\n    /* \"#utility.yul\":4970:5021   */\n  tag_100\n    /* \"#utility.yul\":5018:5019   */\n  0x00\n    /* \"#utility.yul\":5014:5020   */\n  not\n    /* \"#utility.yul\":5006:5011   */\n  dup5\n    /* \"#utility.yul\":5003:5004   */\n  0x08\n    /* \"#utility.yul\":4999:5012   */\n  mul\n    /* \"#utility.yul\":4970:5021   */\n  tag_40\n  jump\t// in\ntag_100:\n    /* \"#utility.yul\":4966:5022   */\n  not\n    /* \"#utility.yul\":5051:5055   */\n  dup1\n    /* \"#utility.yul\":5045:5049   */\n  dup4\n    /* \"#utility.yul\":5041:5056   */\n  and\n    /* \"#utility.yul\":5031:5056   */\n  swap2\n  pop\n    /* \"#utility.yul\":4944:5062   */\n  pop\n    /* \"#utility.yul\":4893:5062   */\n  swap3\n  swap2\n  pop\n  pop\n  jump\t// out\n    /* \"#utility.yul\":5067:5362   */\ntag_42:\n    /* \"#utility.yul\":5143:5147   */\n  0x00\n    /* \"#utility.yul\":5289:5318   */\n  tag_102\n    /* \"#utility.yul\":5314:5317   */\n  dup4\n    /* \"#utility.yul\":5308:5312   */\n  dup4\n    /* \"#utility.yul\":5289:5318   */\n  tag_41\n  jump\t// in\ntag_102:\n    /* \"#utility.yul\":5281:5318   */\n  swap2\n  pop\n    /* \"#utility.yul\":5351:5354   */\n  dup3\n    /* \"#utility.yul\":5348:5349   */\n  0x02\n    /* \"#utility.yul\":5344:5355   */\n  mul\n    /* \"#utility.yul\":5338:5342   */\n  dup3\n    /* \"#utility.yul\":5335:5356   */\n  or\n    /* \"#utility.yul\":5327:5356   */\n  swap1\n  pop\n    /* \"#utility.yul\":5067:5362   */\n  swap3\n  swap2\n  pop\n  pop\n  jump\t// out\n    /* \"#utility.yul\":5367:6762   */\ntag_14:\n    /* \"#utility.yul\":5484:5521   */\n  tag_104\n    /* \"#utility.yul\":5517:5520   */\n  dup3\n    /* \"#utility.yul\":5484:5521   */\n  tag_24\n  jump\t// in\ntag_104:\n    /* \"#utility.yul\":5586:5604   */\n  0xffffffffffffffff\n    /* \"#utility.yul\":5578:5584   */\n  dup2\n    /* \"#utility.yul\":5575:5605   */\n  gt\n    /* \"#utility.yul\":5572:5628   */\n  iszero\n  tag_105\n  jumpi\n    /* \"#utility.yul\":5608:5626   */\n  tag_106\n  tag_25\n  jump\t// in\ntag_106:\n    /* \"#utility.yul\":5572:5628   */\ntag_105:\n    /* \"#utility.yul\":5652:5690   */\n  tag_107\n    /* \"#utility.yul\":5684:5688   */\n  dup3\n    /* \"#utility.yul\":5678:5689   */\n  sload\n    /* \"#utility.yul\":5652:5690   */\n  tag_27\n  jump\t// in\ntag_107:\n    /* \"#utility.yul\":5737:5804   */\n  tag_108\n    /* \"#utility.yul\":5797:5803   */\n  dup3\n    /* \"#utility.yul\":5789:5795   */\n  dup3\n    /* \"#utility.yul\":5783:5787   */\n  dup6\n    /* \"#utility.yul\":5737:5804   */\n  tag_39\n  jump\t// in\ntag_108:\n    /* \"#utility.yul\":5831:5832   */\n  0x00\n    /* \"#utility.yul\":5855:5859   */\n  0x20\n    /* \"#utility.yul\":5842:5859   */\n  swap1\n  pop\n    /* \"#utility.yul\":5887:5889   */\n  0x1f\n    /* \"#utility.yul\":5879:5885   */\n  dup4\n    /* \"#utility.yul\":5876:5890   */\n  gt\n    /* \"#utility.yul\":5904:5905   */\n  0x01\n    /* \"#utility.yul\":5899:6517   */\n  dup2\n  eq\n  tag_110\n  jumpi\n    /* \"#utility.yul\":6561:6562   */\n  0x00\n    /* \"#utility.yul\":6578:6584   */\n  dup5\n    /* \"#utility.yul\":6575:6652   */\n  iszero\n  tag_111\n  jumpi\n    /* \"#utility.yul\":6627:6636   */\n  dup3\n    /* \"#utility.yul\":6622:6625   */\n  dup8\n    /* \"#utility.yul\":6618:6637   */\n  add\n    /* \"#utility.yul\":6612:6638   */\n  mload\n    /* \"#utility.yul\":6603:6638   */\n  swap1\n  pop\n    /* \"#utility.yul\":6575:6652   */\ntag_111:\n    /* \"#utility.yul\":6678:6745   */\n  tag_112\n    /* \"#utility.yul\":6738:6744   */\n  dup6\n    /* \"#utility.yul\":6731:6736   */\n  dup3\n    /* \"#utility.yul\":6678:6745   */\n  tag_42\n  jump\t// in\ntag_112:\n    /* \"#utility.yul\":6672:6676   */\n  dup7\n    /* \"#utility.yul\":6665:6746   */\n  sstore\n    /* \"#utility.yul\":6534:6756   */\n  pop\n    /* \"#utility.yul\":5869:6756   */\n  jump(tag_109)\n    /* \"#utility.yul\":5899:6517   */\ntag_110:\n    /* \"#utility.yul\":5951:5955   */\n  0x1f\n    /* \"#utility.yul\":5947:5956   */\n  not\n    /* \"#utility.yul\":5939:5945   */\n  dup5\n    /* \"#utility.yul\":5935:5957   */\n  and\n    /* \"#utility.yul\":5985:6022   */\n  tag_113\n    /* \"#utility.yul\":6017:6021   */\n  dup7\n    /* \"#utility.yul\":5985:6022   */\n  tag_28\n  jump\t// in\ntag_113:\n    /* \"#utility.yul\":6044:6045   */\n  0x00\n    /* \"#utility.yul\":6058:6266   */\ntag_114:\n    /* \"#utility.yul\":6072:6079   */\n  dup3\n    /* \"#utility.yul\":6069:6070   */\n  dup2\n    /* \"#utility.yul\":6066:6080   */\n  lt\n    /* \"#utility.yul\":6058:6266   */\n  iszero\n  tag_116\n  jumpi\n    /* \"#utility.yul\":6151:6160   */\n  dup5\n    /* \"#utility.yul\":6146:6149   */\n  dup10\n    /* \"#utility.yul\":6142:6161   */\n  add\n    /* \"#utility.yul\":6136:6162   */\n  mload\n    /* \"#utility.yul\":6128:6134   */\n  dup3\n    /* \"#utility.yul\":6121:6163   */\n  sstore\n    /* \"#utility.yul\":6202:6203   */\n  0x01\n    /* \"#utility.yul\":6194:6200   */\n  dup3\n    /* \"#utility.yul\":6190:6204   */\n  add\n    /* \"#utility.yul\":6180:6204   */\n  swap2\n  pop\n    /* \"#utility.yul\":6249:6251   */\n  0x20\n    /* \"#utility.yul\":6238:6247   */\n  dup6\n    /* \"#utility.yul\":6234:6252   */\n  add\n    /* \"#utility.yul\":6221:6252   */\n  swap5\n  pop\n    /* \"#utility.yul\":6095:6099   */\n  0x20\n    /* \"#utility.yul\":6092:6093   */\n  dup2\n    /* \"#utility.yul\":6088:6100   */\n  add\n    /* \"#utility.yul\":6083:6100   */\n  swap1\n  pop\n    /* \"#utility.yul\":6058:6266   */\n  jump(tag_114)\ntag_116:\n    /* \"#utility.yul\":6294:6300   */\n  dup7\n    /* \"#utility.yul\":6285:6292   */\n  dup4\n    /* \"#utility.yul\":6282:6301   */\n  lt\n    /* \"#utility.yul\":6279:6458   */\n  iszero\n  tag_117\n  jumpi\n    /* \"#utility.yul\":6352:6361   */\n  dup5\n    /* \"#utility.yul\":6347:6350   */\n  dup10\n    /* \"#utility.yul\":6343:6362   */\n  add\n    /* \"#utility.yul\":6337:6363   */\n  mload\n    /* \"#utility.yul\":6395:6443   */\n  tag_118\n    /* \"#utility.yul\":6437:6441   */\n  0x1f\n    /* \"#utility.yul\":6429:6435   */\n  dup10\n    /* \"#utility.yul\":6425:6442   */\n  and\n    /* \"#utility.yul\":6414:6423   */\n  dup3\n    /* \"#utility.yul\":6395:6443   */\n  tag_41\n  jump\t// in\ntag_118:\n    /* \"#utility.yul\":6387:6393   */\n  dup4\n    /* \"#utility.yul\":6380:6444   */\n  sstore\n    /* \"#utility.yul\":6302:6458   */\n  pop\n    /* \"#utility.yul\":6279:6458   */\ntag_117:\n    /* \"#utility.yul\":6504:6505   */\n  0x01\n    /* \"#utility.yul\":6500:6501   */\n  0x02\n    /* \"#utility.yul\":6492:6498   */\n  dup9\n    /* \"#utility.yul\":6488:6502   */\n  mul\n    /* \"#utility.yul\":6484:6506   */\n  add\n    /* \"#utility.yul\":6478:6482   */\n  dup9\n    /* \"#utility.yul\":6471:6507   */\n  sstore\n    /* \"#utility.yul\":5906:6517   */\n  pop\n  pop\n  pop\n    /* \"#utility.yul\":5869:6756   */\ntag_109:\n  pop\n    /* \"#utility.yul\":5459:6762   */\n  pop\n  pop\n  pop\n    /* \"#utility.yul\":5367:6762   */\n  pop\n  pop\n  jump\t// out\n    /* \"#utility.yul\":6768:6886   */\ntag_43:\n    /* \"#utility.yul\":6855:6879   */\n  tag_120\n    /* \"#utility.yul\":6873:6878   */\n  dup2\n    /* \"#utility.yul\":6855:6879   */\n  tag_22\n  jump\t// in\ntag_120:\n    /* \"#utility.yul\":6850:6853   */\n  dup3\n    /* \"#utility.yul\":6843:6880   */\n  mstore\n    /* \"#utility.yul\":6768:6886   */\n  pop\n  pop\n  jump\t// out\n    /* \"#utility.yul\":6892:7114   */\ntag_18:\n    /* \"#utility.yul\":6985:6989   */\n  0x00\n    /* \"#utility.yul\":7023:7025   */\n  0x20\n    /* \"#utility.yul\":7012:7021   */\n  dup3\n    /* \"#utility.yul\":7008:7026   */\n  add\n    /* \"#utility.yul\":7000:7026   */\n  swap1\n  pop\n    /* \"#utility.yul\":7036:7107   */\n  tag_122\n    /* \"#utility.yul\":7104:7105   */\n  0x00\n    /* \"#utility.yul\":7093:7102   */\n  dup4\n    /* \"#utility.yul\":7089:7106   */\n  add\n    /* \"#utility.yul\":7080:7086   */\n  dup5\n    /* \"#utility.yul\":7036:7107   */\n  tag_43\n  jump\t// in\ntag_122:\n    /* \"#utility.yul\":6892:7114   */\n  swap3\n  swap2\n  pop\n  pop\n  jump\t// out\n    /* \"smartC/contracts/Governator.sol\":118:4270  contract ELECTION_SYSTEM {... */\ntag_6:\n  dataSize(sub_0)\n  dup1\n  dataOffset(sub_0)\n  0x00\n  codecopy\n  0x00\n  return\nstop\ndata_fa11efc11f5ee3a5e0c78371ebad876a884d8232ae986682045353c899e27ad9 4e6174696f6e616c206d69642d7465726d20707265736964656e7469616c20656c656374696f6e2c20323032372c20504f20767320424154\n\nsub_0: assembly {\n        /* \"smartC/contracts/Governator.sol\":118:4270  contract ELECTION_SYSTEM {... */\n      mstore(0x40, 0x80)\n      callvalue\n      dup1\n      iszero\n      tag_1\n      jumpi\n      0x00\n      dup1\n      revert\n    tag_1:\n      pop\n      jumpi(tag_2, lt(calldatasize, 0x04))\n      shr(0xe0, calldataload(0x00))\n      dup1\n      0x77df41b7\n      gt\n      tag_14\n      jumpi\n      dup1\n      0x77df41b7\n      eq\n      tag_8\n      jumpi\n      dup1\n      0x7fa4ba87\n      eq\n      tag_9\n      jumpi\n      dup1\n      0x9f91e6bf\n      eq\n      tag_10\n      jumpi\n      dup1\n      0xa9b692db\n      eq\n      tag_11\n      jumpi\n      dup1\n      0xf2630f37\n      eq\n      tag_12\n      jumpi\n      dup1\n      0xf544be40\n      eq\n      tag_13\n      jumpi\n      jump(tag_2)\n    tag_14:\n      dup1\n      0x027bbc43\n      eq\n      tag_3\n      jumpi\n      dup1\n      0x0fe91b5e\n      eq\n      tag_4\n      jumpi\n      dup1\n      0x1e9598e2\n      eq\n      tag_5\n      jumpi\n      dup1\n      0x46817041\n      eq\n      tag_6\n      jumpi\n      dup1\n      0x4fd2257b\n      eq\n      tag_7\n      jumpi\n    tag_2:\n      0x00\n      dup1\n      revert\n        /* \"smartC/contracts/Governator.sol\":892:937  mapping (string => Position) public Positions */\n    tag_3:\n      tag_15\n      0x04\n      dup1\n      calldatasize\n      sub\n      dup2\n      add\n      swap1\n      tag_16\n      swap2\n      swap1\n      tag_17\n      jump\t// in\n    tag_16:\n      tag_18\n      jump\t// in\n    tag_15:\n      mload(0x40)\n      tag_19\n      swap3\n      swap2\n      swap1\n      tag_20\n      jump\t// in\n    tag_19:\n      mload(0x40)\n      dup1\n      swap2\n      sub\n      swap1\n      return\n        /* \"smartC/contracts/Governator.sol\":1655:2161  function registerPerson(string memory _name) public returns (bool) {... */\n    tag_4:\n      tag_21\n      0x04\n      dup1\n      calldatasize\n      sub\n      dup2\n      add\n      swap1\n      tag_22\n      swap2\n      swap1\n      tag_17\n      jump\t// in\n    tag_22:\n      tag_23\n      jump\t// in\n    tag_21:\n      mload(0x40)\n      tag_24\n      swap2\n      swap1\n      tag_25\n      jump\t// in\n    tag_24:\n      mload(0x40)\n      dup1\n      swap2\n      sub\n      swap1\n      return\n        /* \"smartC/contracts/Governator.sol\":1558:1600  mapping(uint => Election) public Elections */\n    tag_5:\n      tag_26\n      0x04\n      dup1\n      calldatasize\n      sub\n      dup2\n      add\n      swap1\n      tag_27\n      swap2\n      swap1\n      tag_28\n      jump\t// in\n    tag_27:\n      tag_29\n      jump\t// in\n    tag_26:\n      mload(0x40)\n      tag_30\n      swap11\n      swap10\n      swap9\n      swap8\n      swap7\n      swap6\n      swap5\n      swap4\n      swap3\n      swap2\n      swap1\n      tag_31\n      jump\t// in\n    tag_30:\n      mload(0x40)\n      dup1\n      swap2\n      sub\n      swap1\n      return\n        /* \"smartC/contracts/Governator.sol\":4235:4267  uint public electionsCounter = 0 */\n    tag_6:\n      tag_32\n      tag_33\n      jump\t// in\n    tag_32:\n      mload(0x40)\n      tag_34\n      swap2\n      swap1\n      tag_35\n      jump\t// in\n    tag_34:\n      mload(0x40)\n      dup1\n      swap2\n      sub\n      swap1\n      return\n        /* \"smartC/contracts/Governator.sol\":3404:4196  function concludeElection(uint _electionId) public  {... */\n    tag_7:\n      tag_36\n      0x04\n      dup1\n      calldatasize\n      sub\n      dup2\n      add\n      swap1\n      tag_37\n      swap2\n      swap1\n      tag_28\n      jump\t// in\n    tag_37:\n      tag_38\n      jump\t// in\n    tag_36:\n      stop\n        /* \"smartC/contracts/Governator.sol\":3107:3368  function castVote(uint _electionId, address _candidate) public  {... */\n    tag_8:\n      tag_39\n      0x04\n      dup1\n      calldatasize\n      sub\n      dup2\n      add\n      swap1\n      tag_40\n      swap2\n      swap1\n      tag_41\n      jump\t// in\n    tag_40:\n      tag_42\n      jump\t// in\n    tag_39:\n      stop\n        /* \"smartC/contracts/Governator.sol\":2167:2264  function getAllPersons() public view returns (Person[] memory) {... */\n    tag_9:\n      tag_43\n      tag_44\n      jump\t// in\n    tag_43:\n      mload(0x40)\n      tag_45\n      swap2\n      swap1\n      tag_46\n      jump\t// in\n    tag_45:\n      mload(0x40)\n      dup1\n      swap2\n      sub\n      swap1\n      return\n        /* \"smartC/contracts/Governator.sol\":4202:4229  uint public candidateId = 0 */\n    tag_10:\n      tag_47\n      tag_48\n      jump\t// in\n    tag_47:\n      mload(0x40)\n      tag_49\n      swap2\n      swap1\n      tag_35\n      jump\t// in\n    tag_49:\n      mload(0x40)\n      dup1\n      swap2\n      sub\n      swap1\n      return\n        /* \"smartC/contracts/Governator.sol\":1012:1068  mapping (uint => mapping (address => Vote)) public Votes */\n    tag_11:\n      tag_50\n      0x04\n      dup1\n      calldatasize\n      sub\n      dup2\n      add\n      swap1\n      tag_51\n      swap2\n      swap1\n      tag_41\n      jump\t// in\n    tag_51:\n      tag_52\n      jump\t// in\n    tag_50:\n      mload(0x40)\n      tag_53\n      swap2\n      swap1\n      tag_35\n      jump\t// in\n    tag_53:\n      mload(0x40)\n      dup1\n      swap2\n      sub\n      swap1\n      return\n        /* \"smartC/contracts/Governator.sol\":2301:3083  function initiateElection(... */\n    tag_12:\n      tag_54\n      0x04\n      dup1\n      calldatasize\n      sub\n      dup2\n      add\n      swap1\n      tag_55\n      swap2\n      swap1\n      tag_56\n      jump\t// in\n    tag_55:\n      tag_57\n      jump\t// in\n    tag_54:\n      stop\n        /* \"smartC/contracts/Governator.sol\":730:771  mapping(address => Person) public Persons */\n    tag_13:\n      tag_58\n      0x04\n      dup1\n      calldatasize\n      sub\n      dup2\n      add\n      swap1\n      tag_59\n      swap2\n      swap1\n      tag_60\n      jump\t// in\n    tag_59:\n      tag_61\n      jump\t// in\n    tag_58:\n      mload(0x40)\n      tag_62\n      swap6\n      swap5\n      swap4\n      swap3\n      swap2\n      swap1\n      tag_63\n      jump\t// in\n    tag_62:\n      mload(0x40)\n      dup1\n      swap2\n      sub\n      swap1\n      return\n        /* \"smartC/contracts/Governator.sol\":892:937  mapping (string => Position) public Positions */\n    tag_18:\n      0x02\n      dup2\n      dup1\n      mload\n      0x20\n      dup2\n      add\n      dup3\n      add\n      dup1\n      mload\n      dup5\n      dup3\n      mstore\n      0x20\n      dup4\n      add\n      0x20\n      dup6\n      add\n      keccak256\n      dup2\n      dup4\n      mstore\n      dup1\n      swap6\n      pop\n      pop\n      pop\n      pop\n      pop\n      pop\n      0x00\n      swap2\n      pop\n      swap1\n      pop\n      dup1\n      0x00\n      add\n      dup1\n      sload\n      tag_64\n      swap1\n      tag_65\n      jump\t// in\n    tag_64:\n      dup1\n      0x1f\n      add\n      0x20\n      dup1\n      swap2\n      div\n      mul\n      0x20\n      add\n      mload(0x40)\n      swap1\n      dup2\n      add\n      0x40\n      mstore\n      dup1\n      swap3\n      swap2\n      swap1\n      dup2\n      dup2\n      mstore\n      0x20\n      add\n      dup3\n      dup1\n      sload\n      tag_66\n      swap1\n      tag_65\n      jump\t// in\n    tag_66:\n      dup1\n      iszero\n      tag_67\n      jumpi\n      dup1\n      0x1f\n      lt\n      tag_68\n      jumpi\n      0x0100\n      dup1\n      dup4\n      sload\n      div\n      mul\n      dup4\n      mstore\n      swap2\n      0x20\n      add\n      swap2\n      jump(tag_67)\n    tag_68:\n      dup3\n      add\n      swap2\n      swap1\n      0x00\n      mstore\n      keccak256(0x00, 0x20)\n      swap1\n    tag_69:\n      dup2\n      sload\n      dup2\n      mstore\n      swap1\n      0x01\n      add\n      swap1\n      0x20\n      add\n      dup1\n      dup4\n      gt\n      tag_69\n      jumpi\n      dup3\n      swap1\n      sub\n      0x1f\n      and\n      dup3\n      add\n      swap2\n    tag_67:\n      pop\n      pop\n      pop\n      pop\n      pop\n      swap1\n      dup1\n      0x01\n      add\n      0x00\n      swap1\n      sload\n      swap1\n      0x0100\n      exp\n      swap1\n      div\n      0xffffffffffffffffffffffffffffffffffffffff\n      and\n      swap1\n      pop\n      dup3\n      jump\t// out\n        /* \"smartC/contracts/Governator.sol\":1655:2161  function registerPerson(string memory _name) public returns (bool) {... */\n    tag_23:\n        /* \"smartC/contracts/Governator.sol\":1716:1720  bool */\n      0x00\n        /* \"smartC/contracts/Governator.sol\":1741:1748  Persons */\n      dup1\n        /* \"smartC/contracts/Governator.sol\":1741:1760  Persons[msg.sender] */\n      0x00\n        /* \"smartC/contracts/Governator.sol\":1749:1759  msg.sender */\n      caller\n        /* \"smartC/contracts/Governator.sol\":1741:1760  Persons[msg.sender] */\n      0xffffffffffffffffffffffffffffffffffffffff\n      and\n      0xffffffffffffffffffffffffffffffffffffffff\n      and\n      dup2\n      mstore\n      0x20\n      add\n      swap1\n      dup2\n      mstore\n      0x20\n      add\n      0x00\n      keccak256\n        /* \"smartC/contracts/Governator.sol\":1741:1767  Persons[msg.sender].exists */\n      0x03\n      add\n      0x00\n      swap1\n      sload\n      swap1\n      0x0100\n      exp\n      swap1\n      div\n      0xff\n      and\n        /* \"smartC/contracts/Governator.sol\":1740:1767  !Persons[msg.sender].exists */\n      iszero\n        /* \"smartC/contracts/Governator.sol\":1732:1794  require(!Persons[msg.sender].exists, \"CAN ONLY REGISTER ONCE\") */\n      tag_71\n      jumpi\n      mload(0x40)\n      0x08c379a000000000000000000000000000000000000000000000000000000000\n      dup2\n      mstore\n      0x04\n      add\n      tag_72\n      swap1\n      tag_73\n      jump\t// in\n    tag_72:\n      mload(0x40)\n      dup1\n      swap2\n      sub\n      swap1\n      revert\n    tag_71:\n        /* \"smartC/contracts/Governator.sol\":1804:1825  Person storage person */\n      0x00\n        /* \"smartC/contracts/Governator.sol\":1828:1835  Persons */\n      dup1\n        /* \"smartC/contracts/Governator.sol\":1828:1847  Persons[msg.sender] */\n      0x00\n        /* \"smartC/contracts/Governator.sol\":1836:1846  msg.sender */\n      caller\n        /* \"smartC/contracts/Governator.sol\":1828:1847  Persons[msg.sender] */\n      0xffffffffffffffffffffffffffffffffffffffff\n      and\n      0xffffffffffffffffffffffffffffffffffffffff\n      and\n      dup2\n      mstore\n      0x20\n      add\n      swap1\n      dup2\n      mstore\n      0x20\n      add\n      0x00\n      keccak256\n        /* \"smartC/contracts/Governator.sol\":1804:1847  Person storage person = Persons[msg.sender] */\n      swap1\n      pop\n        /* \"smartC/contracts/Governator.sol\":1910:1921  candidateId */\n      sload(0x05)\n        /* \"smartC/contracts/Governator.sol\":1898:1904  person */\n      dup2\n        /* \"smartC/contracts/Governator.sol\":1898:1907  person.id */\n      0x00\n      add\n        /* \"smartC/contracts/Governator.sol\":1898:1921  person.id = candidateId */\n      dup2\n      swap1\n      sstore\n      pop\n        /* \"smartC/contracts/Governator.sol\":1945:1950  _name */\n      dup3\n        /* \"smartC/contracts/Governator.sol\":1931:1937  person */\n      dup2\n        /* \"smartC/contracts/Governator.sol\":1931:1942  person.name */\n      0x01\n      add\n        /* \"smartC/contracts/Governator.sol\":1931:1950  person.name = _name */\n      swap1\n      dup2\n      tag_74\n      swap2\n      swap1\n      tag_75\n      jump\t// in\n    tag_74:\n      pop\n        /* \"smartC/contracts/Governator.sol\":1960:1980  person.position = \"\" */\n      mload(0x40)\n      dup1\n      0x20\n      add\n      0x40\n      mstore\n      dup1\n      0x00\n      dup2\n      mstore\n      pop\n        /* \"smartC/contracts/Governator.sol\":1960:1966  person */\n      dup2\n        /* \"smartC/contracts/Governator.sol\":1960:1975  person.position */\n      0x02\n      add\n        /* \"smartC/contracts/Governator.sol\":1960:1980  person.position = \"\" */\n      swap1\n      dup2\n      tag_76\n      swap2\n      swap1\n      tag_75\n      jump\t// in\n    tag_76:\n      pop\n        /* \"smartC/contracts/Governator.sol\":2006:2010  true */\n      0x01\n        /* \"smartC/contracts/Governator.sol\":1990:1996  person */\n      dup2\n        /* \"smartC/contracts/Governator.sol\":1990:2003  person.exists */\n      0x03\n      add\n      0x00\n        /* \"smartC/contracts/Governator.sol\":1990:2010  person.exists = true */\n      0x0100\n      exp\n      dup2\n      sload\n      dup2\n      0xff\n      mul\n      not\n      and\n      swap1\n      dup4\n      iszero\n      iszero\n      mul\n      or\n      swap1\n      sstore\n      pop\n        /* \"smartC/contracts/Governator.sol\":2021:2031  allPersons */\n      0x01\n        /* \"smartC/contracts/Governator.sol\":2037:2044  Persons */\n      0x00\n        /* \"smartC/contracts/Governator.sol\":2037:2056  Persons[msg.sender] */\n      dup1\n        /* \"smartC/contracts/Governator.sol\":2045:2055  msg.sender */\n      caller\n        /* \"smartC/contracts/Governator.sol\":2037:2056  Persons[msg.sender] */\n      0xffffffffffffffffffffffffffffffffffffffff\n      and\n      0xffffffffffffffffffffffffffffffffffffffff\n      and\n      dup2\n      mstore\n      0x20\n      add\n      swap1\n      dup2\n      mstore\n      0x20\n      add\n      0x00\n      keccak256\n        /* \"smartC/contracts/Governator.sol\":2021:2057  allPersons.push(Persons[msg.sender]) */\n      swap1\n      dup1\n      0x01\n      dup2\n      sload\n      add\n      dup1\n      dup3\n      sstore\n      dup1\n      swap2\n      pop\n      pop\n      0x01\n      swap1\n      sub\n      swap1\n      0x00\n      mstore\n      keccak256(0x00, 0x20)\n      swap1\n      0x04\n      mul\n      add\n      0x00\n      swap1\n      swap2\n      swap1\n      swap2\n      swap1\n      swap2\n      pop\n      0x00\n      dup3\n      add\n      sload\n      dup2\n      0x00\n      add\n      sstore\n      0x01\n      dup3\n      add\n      dup2\n      0x01\n      add\n      swap1\n      dup2\n      tag_78\n      swap2\n      swap1\n      tag_79\n      jump\t// in\n    tag_78:\n      pop\n      0x02\n      dup3\n      add\n      dup2\n      0x02\n      add\n      swap1\n      dup2\n      tag_80\n      swap2\n      swap1\n      tag_79\n      jump\t// in\n    tag_80:\n      pop\n      0x03\n      dup3\n      add\n      0x00\n      swap1\n      sload\n      swap1\n      0x0100\n      exp\n      swap1\n      div\n      0xff\n      and\n      dup2\n      0x03\n      add\n      exp(0x0100, 0x00)\n      dup2\n      sload\n      dup2\n      0xff\n      mul\n      not\n      and\n      swap1\n      dup4\n      iszero\n      iszero\n      mul\n      or\n      swap1\n      sstore\n      pop\n      0x03\n      dup3\n      add\n      0x01\n      swap1\n      sload\n      swap1\n      0x0100\n      exp\n      swap1\n      div\n      0xff\n      and\n      dup2\n      0x03\n      add\n      exp(0x0100, 0x01)\n      dup2\n      sload\n      dup2\n      0xff\n      mul\n      not\n      and\n      swap1\n      dup4\n      iszero\n      iszero\n      mul\n      or\n      swap1\n      sstore\n      pop\n      pop\n      pop\n        /* \"smartC/contracts/Governator.sol\":2083:2093  msg.sender */\n      caller\n        /* \"smartC/contracts/Governator.sol\":2073:2094  newPerson(msg.sender) */\n      0xffffffffffffffffffffffffffffffffffffffff\n      and\n      0xc31ba56fd6cd170bc9cdb46e35545da5631ea318d809d4651f661cbdd26bae01\n      mload(0x40)\n      mload(0x40)\n      dup1\n      swap2\n      sub\n      swap1\n      log2\n        /* \"smartC/contracts/Governator.sol\":2132:2133  1 */\n      0x01\n        /* \"smartC/contracts/Governator.sol\":2118:2129  candidateId */\n      sload(0x05)\n        /* \"smartC/contracts/Governator.sol\":2118:2133  candidateId + 1 */\n      tag_81\n      swap2\n      swap1\n      tag_82\n      jump\t// in\n    tag_81:\n        /* \"smartC/contracts/Governator.sol\":2104:2115  candidateId */\n      0x05\n        /* \"smartC/contracts/Governator.sol\":2104:2133  candidateId = candidateId + 1 */\n      dup2\n      swap1\n      sstore\n      pop\n        /* \"smartC/contracts/Governator.sol\":2150:2154  true */\n      0x01\n        /* \"smartC/contracts/Governator.sol\":2143:2154  return true */\n      swap2\n      pop\n      pop\n        /* \"smartC/contracts/Governator.sol\":1655:2161  function registerPerson(string memory _name) public returns (bool) {... */\n      swap2\n      swap1\n      pop\n      jump\t// out\n        /* \"smartC/contracts/Governator.sol\":1558:1600  mapping(uint => Election) public Elections */\n    tag_29:\n      mstore(0x20, 0x04)\n      dup1\n      0x00\n      mstore\n      keccak256(0x00, 0x40)\n      0x00\n      swap2\n      pop\n      swap1\n      pop\n      dup1\n      0x00\n      add\n      sload\n      swap1\n      dup1\n      0x01\n      add\n      dup1\n      sload\n      tag_83\n      swap1\n      tag_65\n      jump\t// in\n    tag_83:\n      dup1\n      0x1f\n      add\n      0x20\n      dup1\n      swap2\n      div\n      mul\n      0x20\n      add\n      mload(0x40)\n      swap1\n      dup2\n      add\n      0x40\n      mstore\n      dup1\n      swap3\n      swap2\n      swap1\n      dup2\n      dup2\n      mstore\n      0x20\n      add\n      dup3\n      dup1\n      sload\n      tag_84\n      swap1\n      tag_65\n      jump\t// in\n    tag_84:\n      dup1\n      iszero\n      tag_85\n      jumpi\n      dup1\n      0x1f\n      lt\n      tag_86\n      jumpi\n      0x0100\n      dup1\n      dup4\n      sload\n      div\n      mul\n      dup4\n      mstore\n      swap2\n      0x20\n      add\n      swap2\n      jump(tag_85)\n    tag_86:\n      dup3\n      add\n      swap2\n      swap1\n      0x00\n      mstore\n      keccak256(0x00, 0x20)\n      swap1\n    tag_87:\n      dup2\n      sload\n      dup2\n      mstore\n      swap1\n      0x01\n      add\n      swap1\n      0x20\n      add\n      dup1\n      dup4\n      gt\n      tag_87\n      jumpi\n      dup3\n      swap1\n      sub\n      0x1f\n      and\n      dup3\n      add\n      swap2\n    tag_85:\n      pop\n      pop\n      pop\n      pop\n      pop\n      swap1\n      dup1\n      0x02\n      add\n      0x00\n      swap1\n      sload\n      swap1\n      0x0100\n      exp\n      swap1\n      div\n      0xffffffffffffffffffffffffffffffffffffffff\n      and\n      swap1\n      dup1\n      0x03\n      add\n      0x00\n      swap1\n      sload\n      swap1\n      0x0100\n      exp\n      swap1\n      div\n      0xffffffffffffffffffffffffffffffffffffffff\n      and\n      swap1\n      dup1\n      0x04\n      add\n      sload\n      swap1\n      dup1\n      0x05\n      add\n      sload\n      swap1\n      dup1\n      0x06\n      add\n      dup1\n      sload\n      tag_88\n      swap1\n      tag_65\n      jump\t// in\n    tag_88:\n      dup1\n      0x1f\n      add\n      0x20\n      dup1\n      swap2\n      div\n      mul\n      0x20\n      add\n      mload(0x40)\n      swap1\n      dup2\n      add\n      0x40\n      mstore\n      dup1\n      swap3\n      swap2\n      swap1\n      dup2\n      dup2\n      mstore\n      0x20\n      add\n      dup3\n      dup1\n      sload\n      tag_89\n      swap1\n      tag_65\n      jump\t// in\n    tag_89:\n      dup1\n      iszero\n      tag_90\n      jumpi\n      dup1\n      0x1f\n      lt\n      tag_91\n      jumpi\n      0x0100\n      dup1\n      dup4\n      sload\n      div\n      mul\n      dup4\n      mstore\n      swap2\n      0x20\n      add\n      swap2\n      jump(tag_90)\n    tag_91:\n      dup3\n      add\n      swap2\n      swap1\n      0x00\n      mstore\n      keccak256(0x00, 0x20)\n      swap1\n    tag_92:\n      dup2\n      sload\n      dup2\n      mstore\n      swap1\n      0x01\n      add\n      swap1\n      0x20\n      add\n      dup1\n      dup4\n      gt\n      tag_92\n      jumpi\n      dup3\n      swap1\n      sub\n      0x1f\n      and\n      dup3\n      add\n      swap2\n    tag_90:\n      pop\n      pop\n      pop\n      pop\n      pop\n      swap1\n      dup1\n      0x07\n      add\n      dup1\n      sload\n      tag_93\n      swap1\n      tag_65\n      jump\t// in\n    tag_93:\n      dup1\n      0x1f\n      add\n      0x20\n      dup1\n      swap2\n      div\n      mul\n      0x20\n      add\n      mload(0x40)\n      swap1\n      dup2\n      add\n      0x40\n      mstore\n      dup1\n      swap3\n      swap2\n      swap1\n      dup2\n      dup2\n      mstore\n      0x20\n      add\n      dup3\n      dup1\n      sload\n      tag_94\n      swap1\n      tag_65\n      jump\t// in\n    tag_94:\n      dup1\n      iszero\n      tag_95\n      jumpi\n      dup1\n      0x1f\n      lt\n      tag_96\n      jumpi\n      0x0100\n      dup1\n      dup4\n      sload\n      div\n      mul\n      dup4\n      mstore\n      swap2\n      0x20\n      add\n      swap2\n      jump(tag_95)\n    tag_96:\n      dup3\n      add\n      swap2\n      swap1\n      0x00\n      mstore\n      keccak256(0x00, 0x20)\n      swap1\n    tag_97:\n      dup2\n      sload\n      dup2\n      mstore\n      swap1\n      0x01\n      add\n      swap1\n      0x20\n      add\n      dup1\n      dup4\n      gt\n      tag_97\n      jumpi\n      dup3\n      swap1\n      sub\n      0x1f\n      and\n      dup3\n      add\n      swap2\n    tag_95:\n      pop\n      pop\n      pop\n      pop\n      pop\n      swap1\n      dup1\n      0x08\n      add\n      sload\n      swap1\n      dup1\n      0x09\n      add\n      0x00\n      swap1\n      sload\n      swap1\n      0x0100\n      exp\n      swap1\n      div\n      0xff\n      and\n      swap1\n      pop\n      dup11\n      jump\t// out\n        /* \"smartC/contracts/Governator.sol\":4235:4267  uint public electionsCounter = 0 */\n    tag_33:\n      sload(0x06)\n      dup2\n      jump\t// out\n        /* \"smartC/contracts/Governator.sol\":3404:4196  function concludeElection(uint _electionId) public  {... */\n    tag_38:\n        /* \"smartC/contracts/Governator.sol\":3466:3491  Election storage election */\n      0x00\n        /* \"smartC/contracts/Governator.sol\":3494:3503  Elections */\n      0x04\n        /* \"smartC/contracts/Governator.sol\":3494:3516  Elections[_electionId] */\n      0x00\n        /* \"smartC/contracts/Governator.sol\":3504:3515  _electionId */\n      dup4\n        /* \"smartC/contracts/Governator.sol\":3494:3516  Elections[_electionId] */\n      dup2\n      mstore\n      0x20\n      add\n      swap1\n      dup2\n      mstore\n      0x20\n      add\n      0x00\n      keccak256\n        /* \"smartC/contracts/Governator.sol\":3466:3516  Election storage election = Elections[_electionId] */\n      swap1\n      pop\n        /* \"smartC/contracts/Governator.sol\":3526:3544  address candidate1 */\n      0x00\n        /* \"smartC/contracts/Governator.sol\":3547:3555  election */\n      dup2\n        /* \"smartC/contracts/Governator.sol\":3547:3566  election.candidate1 */\n      0x02\n      add\n      0x00\n      swap1\n      sload\n      swap1\n      0x0100\n      exp\n      swap1\n      div\n      0xffffffffffffffffffffffffffffffffffffffff\n      and\n        /* \"smartC/contracts/Governator.sol\":3526:3566  address candidate1 = election.candidate1 */\n      swap1\n      pop\n        /* \"smartC/contracts/Governator.sol\":3576:3594  address candidate2 */\n      0x00\n        /* \"smartC/contracts/Governator.sol\":3597:3605  election */\n      dup3\n        /* \"smartC/contracts/Governator.sol\":3597:3616  election.candidate2 */\n      0x03\n      add\n      0x00\n      swap1\n      sload\n      swap1\n      0x0100\n      exp\n      swap1\n      div\n      0xffffffffffffffffffffffffffffffffffffffff\n      and\n        /* \"smartC/contracts/Governator.sol\":3576:3616  address candidate2 = election.candidate2 */\n      swap1\n      pop\n        /* \"smartC/contracts/Governator.sol\":3627:3647  uint vote_candidate1 */\n      0x00\n        /* \"smartC/contracts/Governator.sol\":3650:3655  Votes */\n      0x03\n        /* \"smartC/contracts/Governator.sol\":3650:3668  Votes[_electionId] */\n      0x00\n        /* \"smartC/contracts/Governator.sol\":3656:3667  _electionId */\n      dup7\n        /* \"smartC/contracts/Governator.sol\":3650:3668  Votes[_electionId] */\n      dup2\n      mstore\n      0x20\n      add\n      swap1\n      dup2\n      mstore\n      0x20\n      add\n      0x00\n      keccak256\n        /* \"smartC/contracts/Governator.sol\":3650:3680  Votes[_electionId][candidate1] */\n      0x00\n        /* \"smartC/contracts/Governator.sol\":3669:3679  candidate1 */\n      dup5\n        /* \"smartC/contracts/Governator.sol\":3650:3680  Votes[_electionId][candidate1] */\n      0xffffffffffffffffffffffffffffffffffffffff\n      and\n      0xffffffffffffffffffffffffffffffffffffffff\n      and\n      dup2\n      mstore\n      0x20\n      add\n      swap1\n      dup2\n      mstore\n      0x20\n      add\n      0x00\n      keccak256\n        /* \"smartC/contracts/Governator.sol\":3650:3686  Votes[_electionId][candidate1].votes */\n      0x00\n      add\n      sload\n        /* \"smartC/contracts/Governator.sol\":3627:3686  uint vote_candidate1 = Votes[_electionId][candidate1].votes */\n      swap1\n      pop\n        /* \"smartC/contracts/Governator.sol\":3696:3716  uint vote_candidate2 */\n      0x00\n        /* \"smartC/contracts/Governator.sol\":3719:3724  Votes */\n      0x03\n        /* \"smartC/contracts/Governator.sol\":3719:3737  Votes[_electionId] */\n      0x00\n        /* \"smartC/contracts/Governator.sol\":3725:3736  _electionId */\n      dup8\n        /* \"smartC/contracts/Governator.sol\":3719:3737  Votes[_electionId] */\n      dup2\n      mstore\n      0x20\n      add\n      swap1\n      dup2\n      mstore\n      0x20\n      add\n      0x00\n      keccak256\n        /* \"smartC/contracts/Governator.sol\":3719:3749  Votes[_electionId][candidate2] */\n      0x00\n        /* \"smartC/contracts/Governator.sol\":3738:3748  candidate2 */\n      dup5\n        /* \"smartC/contracts/Governator.sol\":3719:3749  Votes[_electionId][candidate2] */\n      0xffffffffffffffffffffffffffffffffffffffff\n      and\n      0xffffffffffffffffffffffffffffffffffffffff\n      and\n      dup2\n      mstore\n      0x20\n      add\n      swap1\n      dup2\n      mstore\n      0x20\n      add\n      0x00\n      keccak256\n        /* \"smartC/contracts/Governator.sol\":3719:3755  Votes[_electionId][candidate2].votes */\n      0x00\n      add\n      sload\n        /* \"smartC/contracts/Governator.sol\":3696:3755  uint vote_candidate2 = Votes[_electionId][candidate2].votes */\n      swap1\n      pop\n        /* \"smartC/contracts/Governator.sol\":3766:3783  string memory GEO */\n      0x00\n        /* \"smartC/contracts/Governator.sol\":3786:3794  election */\n      dup6\n        /* \"smartC/contracts/Governator.sol\":3786:3798  election.GEO */\n      0x07\n      add\n        /* \"smartC/contracts/Governator.sol\":3766:3798  string memory GEO = election.GEO */\n      dup1\n      sload\n      tag_99\n      swap1\n      tag_65\n      jump\t// in\n    tag_99:\n      dup1\n      0x1f\n      add\n      0x20\n      dup1\n      swap2\n      div\n      mul\n      0x20\n      add\n      mload(0x40)\n      swap1\n      dup2\n      add\n      0x40\n      mstore\n      dup1\n      swap3\n      swap2\n      swap1\n      dup2\n      dup2\n      mstore\n      0x20\n      add\n      dup3\n      dup1\n      sload\n      tag_100\n      swap1\n      tag_65\n      jump\t// in\n    tag_100:\n      dup1\n      iszero\n      tag_101\n      jumpi\n      dup1\n      0x1f\n      lt\n      tag_102\n      jumpi\n      0x0100\n      dup1\n      dup4\n      sload\n      div\n      mul\n      dup4\n      mstore\n      swap2\n      0x20\n      add\n      swap2\n      jump(tag_101)\n    tag_102:\n      dup3\n      add\n      swap2\n      swap1\n      0x00\n      mstore\n      keccak256(0x00, 0x20)\n      swap1\n    tag_103:\n      dup2\n      sload\n      dup2\n      mstore\n      swap1\n      0x01\n      add\n      swap1\n      0x20\n      add\n      dup1\n      dup4\n      gt\n      tag_103\n      jumpi\n      dup3\n      swap1\n      sub\n      0x1f\n      and\n      dup3\n      add\n      swap2\n    tag_101:\n      pop\n      pop\n      pop\n      pop\n      pop\n      swap1\n      pop\n        /* \"smartC/contracts/Governator.sol\":3808:3830  string memory position */\n      0x00\n        /* \"smartC/contracts/Governator.sol\":3833:3841  election */\n      dup7\n        /* \"smartC/contracts/Governator.sol\":3833:3850  election.position */\n      0x06\n      add\n        /* \"smartC/contracts/Governator.sol\":3808:3850  string memory position = election.position */\n      dup1\n      sload\n      tag_104\n      swap1\n      tag_65\n      jump\t// in\n    tag_104:\n      dup1\n      0x1f\n      add\n      0x20\n      dup1\n      swap2\n      div\n      mul\n      0x20\n      add\n      mload(0x40)\n      swap1\n      dup2\n      add\n      0x40\n      mstore\n      dup1\n      swap3\n      swap2\n      swap1\n      dup2\n      dup2\n      mstore\n      0x20\n      add\n      dup3\n      dup1\n      sload\n      tag_105\n      swap1\n      tag_65\n      jump\t// in\n    tag_105:\n      dup1\n      iszero\n      tag_106\n      jumpi\n      dup1\n      0x1f\n      lt\n      tag_107\n      jumpi\n      0x0100\n      dup1\n      dup4\n      sload\n      div\n      mul\n      dup4\n      mstore\n      swap2\n      0x20\n      add\n      swap2\n      jump(tag_106)\n    tag_107:\n      dup3\n      add\n      swap2\n      swap1\n      0x00\n      mstore\n      keccak256(0x00, 0x20)\n      swap1\n    tag_108:\n      dup2\n      sload\n      dup2\n      mstore\n      swap1\n      0x01\n      add\n      swap1\n      0x20\n      add\n      dup1\n      dup4\n      gt\n      tag_108\n      jumpi\n      dup3\n      swap1\n      sub\n      0x1f\n      and\n      dup3\n      add\n      swap2\n    tag_106:\n      pop\n      pop\n      pop\n      pop\n      pop\n      swap1\n      pop\n        /* \"smartC/contracts/Governator.sol\":3861:3887  Position storage position_ */\n      0x00\n        /* \"smartC/contracts/Governator.sol\":3890:3899  Positions */\n      0x02\n        /* \"smartC/contracts/Governator.sol\":3900:3903  GEO */\n      dup4\n        /* \"smartC/contracts/Governator.sol\":3890:3904  Positions[GEO] */\n      mload(0x40)\n      tag_109\n      swap2\n      swap1\n      tag_110\n      jump\t// in\n    tag_109:\n      swap1\n      dup2\n      mstore\n      0x20\n      add\n      mload(0x40)\n      dup1\n      swap2\n      sub\n      swap1\n      keccak256\n        /* \"smartC/contracts/Governator.sol\":3861:3904  Position storage position_ = Positions[GEO] */\n      swap1\n      pop\n        /* \"smartC/contracts/Governator.sol\":3937:3952  vote_candidate2 */\n      dup4\n        /* \"smartC/contracts/Governator.sol\":3919:3934  vote_candidate1 */\n      dup6\n        /* \"smartC/contracts/Governator.sol\":3919:3952  vote_candidate1 > vote_candidate2 */\n      gt\n        /* \"smartC/contracts/Governator.sol\":3915:4148  if (vote_candidate1 > vote_candidate2) {... */\n      iszero\n      tag_111\n      jumpi\n        /* \"smartC/contracts/Governator.sol\":3987:3997  candidate1 */\n      dup7\n        /* \"smartC/contracts/Governator.sol\":3968:3977  position_ */\n      dup2\n        /* \"smartC/contracts/Governator.sol\":3968:3984  position_.holder */\n      0x01\n      add\n      0x00\n        /* \"smartC/contracts/Governator.sol\":3968:3997  position_.holder = candidate1 */\n      0x0100\n      exp\n      dup2\n      sload\n      dup2\n      0xffffffffffffffffffffffffffffffffffffffff\n      mul\n      not\n      and\n      swap1\n      dup4\n      0xffffffffffffffffffffffffffffffffffffffff\n      and\n      mul\n      or\n      swap1\n      sstore\n      pop\n        /* \"smartC/contracts/Governator.sol\":4029:4037  position */\n      dup2\n        /* \"smartC/contracts/Governator.sol\":4011:4020  position_ */\n      dup2\n        /* \"smartC/contracts/Governator.sol\":4011:4026  position_.title */\n      0x00\n      add\n        /* \"smartC/contracts/Governator.sol\":4011:4037  position_.title = position */\n      swap1\n      dup2\n      tag_112\n      swap2\n      swap1\n      tag_75\n      jump\t// in\n    tag_112:\n      pop\n        /* \"smartC/contracts/Governator.sol\":3915:4148  if (vote_candidate1 > vote_candidate2) {... */\n      jump(tag_113)\n    tag_111:\n        /* \"smartC/contracts/Governator.sol\":4087:4097  candidate2 */\n      dup6\n        /* \"smartC/contracts/Governator.sol\":4068:4077  position_ */\n      dup2\n        /* \"smartC/contracts/Governator.sol\":4068:4084  position_.holder */\n      0x01\n      add\n      0x00\n        /* \"smartC/contracts/Governator.sol\":4068:4097  position_.holder = candidate2 */\n      0x0100\n      exp\n      dup2\n      sload\n      dup2\n      0xffffffffffffffffffffffffffffffffffffffff\n      mul\n      not\n      and\n      swap1\n      dup4\n      0xffffffffffffffffffffffffffffffffffffffff\n      and\n      mul\n      or\n      swap1\n      sstore\n      pop\n        /* \"smartC/contracts/Governator.sol\":4129:4137  position */\n      dup2\n        /* \"smartC/contracts/Governator.sol\":4111:4120  position_ */\n      dup2\n        /* \"smartC/contracts/Governator.sol\":4111:4126  position_.title */\n      0x00\n      add\n        /* \"smartC/contracts/Governator.sol\":4111:4137  position_.title = position */\n      swap1\n      dup2\n      tag_114\n      swap2\n      swap1\n      tag_75\n      jump\t// in\n    tag_114:\n      pop\n        /* \"smartC/contracts/Governator.sol\":3915:4148  if (vote_candidate1 > vote_candidate2) {... */\n    tag_113:\n        /* \"smartC/contracts/Governator.sol\":4184:4189  false */\n      0x00\n        /* \"smartC/contracts/Governator.sol\":4166:4174  election */\n      dup9\n        /* \"smartC/contracts/Governator.sol\":4166:4181  election.exists */\n      0x09\n      add\n      0x00\n        /* \"smartC/contracts/Governator.sol\":4166:4189  election.exists = false */\n      0x0100\n      exp\n      dup2\n      sload\n      dup2\n      0xff\n      mul\n      not\n      and\n      swap1\n      dup4\n      iszero\n      iszero\n      mul\n      or\n      swap1\n      sstore\n      pop\n        /* \"smartC/contracts/Governator.sol\":3456:4196  {... */\n      pop\n      pop\n      pop\n      pop\n      pop\n      pop\n      pop\n      pop\n        /* \"smartC/contracts/Governator.sol\":3404:4196  function concludeElection(uint _electionId) public  {... */\n      pop\n      jump\t// out\n        /* \"smartC/contracts/Governator.sol\":3107:3368  function castVote(uint _electionId, address _candidate) public  {... */\n    tag_42:\n        /* \"smartC/contracts/Governator.sol\":3181:3206  Election storage election */\n      0x00\n        /* \"smartC/contracts/Governator.sol\":3209:3218  Elections */\n      0x04\n        /* \"smartC/contracts/Governator.sol\":3209:3231  Elections[_electionId] */\n      0x00\n        /* \"smartC/contracts/Governator.sol\":3219:3230  _electionId */\n      dup5\n        /* \"smartC/contracts/Governator.sol\":3209:3231  Elections[_electionId] */\n      dup2\n      mstore\n      0x20\n      add\n      swap1\n      dup2\n      mstore\n      0x20\n      add\n      0x00\n      keccak256\n        /* \"smartC/contracts/Governator.sol\":3181:3231  Election storage election = Elections[_electionId] */\n      swap1\n      pop\n        /* \"smartC/contracts/Governator.sol\":3241:3258  Vote storage vote */\n      0x00\n        /* \"smartC/contracts/Governator.sol\":3261:3266  Votes */\n      0x03\n        /* \"smartC/contracts/Governator.sol\":3261:3279  Votes[_electionId] */\n      0x00\n        /* \"smartC/contracts/Governator.sol\":3267:3278  _electionId */\n      dup6\n        /* \"smartC/contracts/Governator.sol\":3261:3279  Votes[_electionId] */\n      dup2\n      mstore\n      0x20\n      add\n      swap1\n      dup2\n      mstore\n      0x20\n      add\n      0x00\n      keccak256\n        /* \"smartC/contracts/Governator.sol\":3261:3291  Votes[_electionId][_candidate] */\n      0x00\n        /* \"smartC/contracts/Governator.sol\":3280:3290  _candidate */\n      dup5\n        /* \"smartC/contracts/Governator.sol\":3261:3291  Votes[_electionId][_candidate] */\n      0xffffffffffffffffffffffffffffffffffffffff\n      and\n      0xffffffffffffffffffffffffffffffffffffffff\n      and\n      dup2\n      mstore\n      0x20\n      add\n      swap1\n      dup2\n      mstore\n      0x20\n      add\n      0x00\n      keccak256\n        /* \"smartC/contracts/Governator.sol\":3241:3291  Vote storage vote = Votes[_electionId][_candidate] */\n      swap1\n      pop\n        /* \"smartC/contracts/Governator.sol\":3316:3317  1 */\n      0x01\n        /* \"smartC/contracts/Governator.sol\":3302:3306  vote */\n      dup2\n        /* \"smartC/contracts/Governator.sol\":3302:3312  vote.votes */\n      0x00\n      add\n      0x00\n        /* \"smartC/contracts/Governator.sol\":3302:3317  vote.votes += 1 */\n      dup3\n      dup3\n      sload\n      tag_116\n      swap2\n      swap1\n      tag_82\n      jump\t// in\n    tag_116:\n      swap3\n      pop\n      pop\n      dup2\n      swap1\n      sstore\n      pop\n        /* \"smartC/contracts/Governator.sol\":3351:3352  1 */\n      0x01\n        /* \"smartC/contracts/Governator.sol\":3328:3336  election */\n      dup3\n        /* \"smartC/contracts/Governator.sol\":3328:3347  election.totalVotes */\n      0x08\n      add\n      0x00\n        /* \"smartC/contracts/Governator.sol\":3328:3352  election.totalVotes += 1 */\n      dup3\n      dup3\n      sload\n      tag_117\n      swap2\n      swap1\n      tag_82\n      jump\t// in\n    tag_117:\n      swap3\n      pop\n      pop\n      dup2\n      swap1\n      sstore\n      pop\n        /* \"smartC/contracts/Governator.sol\":3171:3368  {... */\n      pop\n      pop\n        /* \"smartC/contracts/Governator.sol\":3107:3368  function castVote(uint _electionId, address _candidate) public  {... */\n      pop\n      pop\n      jump\t// out\n        /* \"smartC/contracts/Governator.sol\":2167:2264  function getAllPersons() public view returns (Person[] memory) {... */\n    tag_44:\n        /* \"smartC/contracts/Governator.sol\":2213:2228  Person[] memory */\n      0x60\n        /* \"smartC/contracts/Governator.sol\":2247:2257  allPersons */\n      0x01\n        /* \"smartC/contracts/Governator.sol\":2240:2257  return allPersons */\n      dup1\n      sload\n      dup1\n      0x20\n      mul\n      0x20\n      add\n      mload(0x40)\n      swap1\n      dup2\n      add\n      0x40\n      mstore\n      dup1\n      swap3\n      swap2\n      swap1\n      dup2\n      dup2\n      mstore\n      0x20\n      add\n      0x00\n      swap1\n    tag_119:\n      dup3\n      dup3\n      lt\n      iszero\n      tag_120\n      jumpi\n      dup4\n      dup3\n      swap1\n      0x00\n      mstore\n      keccak256(0x00, 0x20)\n      swap1\n      0x04\n      mul\n      add\n      mload(0x40)\n      dup1\n      0xa0\n      add\n      0x40\n      mstore\n      swap1\n      dup2\n      0x00\n      dup3\n      add\n      sload\n      dup2\n      mstore\n      0x20\n      add\n      0x01\n      dup3\n      add\n      dup1\n      sload\n      tag_122\n      swap1\n      tag_65\n      jump\t// in\n    tag_122:\n      dup1\n      0x1f\n      add\n      0x20\n      dup1\n      swap2\n      div\n      mul\n      0x20\n      add\n      mload(0x40)\n      swap1\n      dup2\n      add\n      0x40\n      mstore\n      dup1\n      swap3\n      swap2\n      swap1\n      dup2\n      dup2\n      mstore\n      0x20\n      add\n      dup3\n      dup1\n      sload\n      tag_123\n      swap1\n      tag_65\n      jump\t// in\n    tag_123:\n      dup1\n      iszero\n      tag_124\n      jumpi\n      dup1\n      0x1f\n      lt\n      tag_125\n      jumpi\n      0x0100\n      dup1\n      dup4\n      sload\n      div\n      mul\n      dup4\n      mstore\n      swap2\n      0x20\n      add\n      swap2\n      jump(tag_124)\n    tag_125:\n      dup3\n      add\n      swap2\n      swap1\n      0x00\n      mstore\n      keccak256(0x00, 0x20)\n      swap1\n    tag_126:\n      dup2\n      sload\n      dup2\n      mstore\n      swap1\n      0x01\n      add\n      swap1\n      0x20\n      add\n      dup1\n      dup4\n      gt\n      tag_126\n      jumpi\n      dup3\n      swap1\n      sub\n      0x1f\n      and\n      dup3\n      add\n      swap2\n    tag_124:\n      pop\n      pop\n      pop\n      pop\n      pop\n      dup2\n      mstore\n      0x20\n      add\n      0x02\n      dup3\n      add\n      dup1\n      sload\n      tag_127\n      swap1\n      tag_65\n      jump\t// in\n    tag_127:\n      dup1\n      0x1f\n      add\n      0x20\n      dup1\n      swap2\n      div\n      mul\n      0x20\n      add\n      mload(0x40)\n      swap1\n      dup2\n      add\n      0x40\n      mstore\n      dup1\n      swap3\n      swap2\n      swap1\n      dup2\n      dup2\n      mstore\n      0x20\n      add\n      dup3\n      dup1\n      sload\n      tag_128\n      swap1\n      tag_65\n      jump\t// in\n    tag_128:\n      dup1\n      iszero\n      tag_129\n      jumpi\n      dup1\n      0x1f\n      lt\n      tag_130\n      jumpi\n      0x0100\n      dup1\n      dup4\n      sload\n      div\n      mul\n      dup4\n      mstore\n      swap2\n      0x20\n      add\n      swap2\n      jump(tag_129)\n    tag_130:\n      dup3\n      add\n      swap2\n      swap1\n      0x00\n      mstore\n      keccak256(0x00, 0x20)\n      swap1\n    tag_131:\n      dup2\n      sload\n      dup2\n      mstore\n      swap1\n      0x01\n      add\n      swap1\n      0x20\n      add\n      dup1\n      dup4\n      gt\n      tag_131\n      jumpi\n      dup3\n      swap1\n      sub\n      0x1f\n      and\n      dup3\n      add\n      swap2\n    tag_129:\n      pop\n      pop\n      pop\n      pop\n      pop\n      dup2\n      mstore\n      0x20\n      add\n      0x03\n      dup3\n      add\n      0x00\n      swap1\n      sload\n      swap1\n      0x0100\n      exp\n      swap1\n      div\n      0xff\n      and\n      iszero\n      iszero\n      iszero\n      iszero\n      dup2\n      mstore\n      0x20\n      add\n      0x03\n      dup3\n      add\n      0x01\n      swap1\n      sload\n      swap1\n      0x0100\n      exp\n      swap1\n      div\n      0xff\n      and\n      iszero\n      iszero\n      iszero\n      iszero\n      dup2\n      mstore\n      pop\n      pop\n      dup2\n      mstore\n      0x20\n      add\n      swap1\n      0x01\n      add\n      swap1\n      jump(tag_119)\n    tag_120:\n      pop\n      pop\n      pop\n      pop\n      swap1\n      pop\n        /* \"smartC/contracts/Governator.sol\":2167:2264  function getAllPersons() public view returns (Person[] memory) {... */\n      swap1\n      jump\t// out\n        /* \"smartC/contracts/Governator.sol\":4202:4229  uint public candidateId = 0 */\n    tag_48:\n      sload(0x05)\n      dup2\n      jump\t// out\n        /* \"smartC/contracts/Governator.sol\":1012:1068  mapping (uint => mapping (address => Vote)) public Votes */\n    tag_52:\n      mstore(0x20, 0x03)\n      dup2\n      0x00\n      mstore\n      mstore(0x20, keccak256(0x00, 0x40))\n      dup1\n      0x00\n      mstore\n      keccak256(0x00, 0x40)\n      0x00\n      swap2\n      pop\n      swap2\n      pop\n      pop\n      dup1\n      0x00\n      add\n      sload\n      swap1\n      pop\n      dup2\n      jump\t// out\n        /* \"smartC/contracts/Governator.sol\":2301:3083  function initiateElection(... */\n    tag_57:\n        /* \"smartC/contracts/Governator.sol\":2510:2519  Elections */\n      0x04\n        /* \"smartC/contracts/Governator.sol\":2510:2537  Elections[electionsCounter] */\n      0x00\n        /* \"smartC/contracts/Governator.sol\":2520:2536  electionsCounter */\n      sload(0x06)\n        /* \"smartC/contracts/Governator.sol\":2510:2537  Elections[electionsCounter] */\n      dup2\n      mstore\n      0x20\n      add\n      swap1\n      dup2\n      mstore\n      0x20\n      add\n      0x00\n      keccak256\n        /* \"smartC/contracts/Governator.sol\":2510:2544  Elections[electionsCounter].exists */\n      0x09\n      add\n      0x00\n      swap1\n      sload\n      swap1\n      0x0100\n      exp\n      swap1\n      div\n      0xff\n      and\n        /* \"smartC/contracts/Governator.sol\":2509:2544  !Elections[electionsCounter].exists */\n      iszero\n        /* \"smartC/contracts/Governator.sol\":2501:2572  require(!Elections[electionsCounter].exists, \"Election already exists\") */\n      tag_133\n      jumpi\n      mload(0x40)\n      0x08c379a000000000000000000000000000000000000000000000000000000000\n      dup2\n      mstore\n      0x04\n      add\n      tag_134\n      swap1\n      tag_135\n      jump\t// in\n    tag_134:\n      mload(0x40)\n      dup1\n      swap2\n      sub\n      swap1\n      revert\n    tag_133:\n        /* \"smartC/contracts/Governator.sol\":2620:2621  1 */\n      0x01\n        /* \"smartC/contracts/Governator.sol\":2601:2617  electionsCounter */\n      sload(0x06)\n        /* \"smartC/contracts/Governator.sol\":2601:2621  electionsCounter + 1 */\n      tag_136\n      swap2\n      swap1\n      tag_82\n      jump\t// in\n    tag_136:\n        /* \"smartC/contracts/Governator.sol\":2582:2598  electionsCounter */\n      0x06\n        /* \"smartC/contracts/Governator.sol\":2582:2621  electionsCounter = electionsCounter + 1 */\n      dup2\n      swap1\n      sstore\n      pop\n        /* \"smartC/contracts/Governator.sol\":2640:2668  Election storage newElection */\n      0x00\n        /* \"smartC/contracts/Governator.sol\":2671:2680  Elections */\n      0x04\n        /* \"smartC/contracts/Governator.sol\":2671:2698  Elections[electionsCounter] */\n      0x00\n        /* \"smartC/contracts/Governator.sol\":2681:2697  electionsCounter */\n      sload(0x06)\n        /* \"smartC/contracts/Governator.sol\":2671:2698  Elections[electionsCounter] */\n      dup2\n      mstore\n      0x20\n      add\n      swap1\n      dup2\n      mstore\n      0x20\n      add\n      0x00\n      keccak256\n        /* \"smartC/contracts/Governator.sol\":2640:2698  Election storage newElection = Elections[electionsCounter] */\n      swap1\n      pop\n        /* \"smartC/contracts/Governator.sol\":2725:2741  electionsCounter */\n      sload(0x06)\n        /* \"smartC/contracts/Governator.sol\":2708:2719  newElection */\n      dup2\n        /* \"smartC/contracts/Governator.sol\":2708:2722  newElection.Id */\n      0x00\n      add\n        /* \"smartC/contracts/Governator.sol\":2708:2741  newElection.Id = electionsCounter */\n      dup2\n      swap1\n      sstore\n      pop\n        /* \"smartC/contracts/Governator.sol\":2773:2781  _purpose */\n      dup6\n        /* \"smartC/contracts/Governator.sol\":2751:2762  newElection */\n      dup2\n        /* \"smartC/contracts/Governator.sol\":2751:2770  newElection.purpose */\n      0x01\n      add\n        /* \"smartC/contracts/Governator.sol\":2751:2781  newElection.purpose = _purpose */\n      swap1\n      dup2\n      tag_137\n      swap2\n      swap1\n      tag_75\n      jump\t// in\n    tag_137:\n      pop\n        /* \"smartC/contracts/Governator.sol\":2816:2827  _candidate1 */\n      dup5\n        /* \"smartC/contracts/Governator.sol\":2791:2802  newElection */\n      dup2\n        /* \"smartC/contracts/Governator.sol\":2791:2813  newElection.candidate1 */\n      0x02\n      add\n      0x00\n        /* \"smartC/contracts/Governator.sol\":2791:2827  newElection.candidate1 = _candidate1 */\n      0x0100\n      exp\n      dup2\n      sload\n      dup2\n      0xffffffffffffffffffffffffffffffffffffffff\n      mul\n      not\n      and\n      swap1\n      dup4\n      0xffffffffffffffffffffffffffffffffffffffff\n      and\n      mul\n      or\n      swap1\n      sstore\n      pop\n        /* \"smartC/contracts/Governator.sol\":2862:2873  _candidate2 */\n      dup4\n        /* \"smartC/contracts/Governator.sol\":2837:2848  newElection */\n      dup2\n        /* \"smartC/contracts/Governator.sol\":2837:2859  newElection.candidate2 */\n      0x03\n      add\n      0x00\n        /* \"smartC/contracts/Governator.sol\":2837:2873  newElection.candidate2 = _candidate2 */\n      0x0100\n      exp\n      dup2\n      sload\n      dup2\n      0xffffffffffffffffffffffffffffffffffffffff\n      mul\n      not\n      and\n      swap1\n      dup4\n      0xffffffffffffffffffffffffffffffffffffffff\n      and\n      mul\n      or\n      swap1\n      sstore\n      pop\n        /* \"smartC/contracts/Governator.sol\":2906:2915  _position */\n      dup3\n        /* \"smartC/contracts/Governator.sol\":2883:2894  newElection */\n      dup2\n        /* \"smartC/contracts/Governator.sol\":2883:2903  newElection.position */\n      0x06\n      add\n        /* \"smartC/contracts/Governator.sol\":2883:2915  newElection.position = _position */\n      swap1\n      dup2\n      tag_138\n      swap2\n      swap1\n      tag_75\n      jump\t// in\n    tag_138:\n      pop\n        /* \"smartC/contracts/Governator.sol\":2943:2947  _geo */\n      dup2\n        /* \"smartC/contracts/Governator.sol\":2925:2936  newElection */\n      dup2\n        /* \"smartC/contracts/Governator.sol\":2925:2940  newElection.GEO */\n      0x07\n      add\n        /* \"smartC/contracts/Governator.sol\":2925:2947  newElection.GEO = _geo */\n      swap1\n      dup2\n      tag_139\n      swap2\n      swap1\n      tag_75\n      jump\t// in\n    tag_139:\n      pop\n        /* \"smartC/contracts/Governator.sol\":2983:2984  0 */\n      0x00\n        /* \"smartC/contracts/Governator.sol\":2958:2969  newElection */\n      dup2\n        /* \"smartC/contracts/Governator.sol\":2958:2980  newElection.totalVotes */\n      0x08\n      add\n        /* \"smartC/contracts/Governator.sol\":2958:2984  newElection.totalVotes = 0 */\n      dup2\n      swap1\n      sstore\n      pop\n        /* \"smartC/contracts/Governator.sol\":3015:3019  true */\n      0x01\n        /* \"smartC/contracts/Governator.sol\":2994:3005  newElection */\n      dup2\n        /* \"smartC/contracts/Governator.sol\":2994:3012  newElection.exists */\n      0x09\n      add\n      0x00\n        /* \"smartC/contracts/Governator.sol\":2994:3019  newElection.exists = true */\n      0x0100\n      exp\n      dup2\n      sload\n      dup2\n      0xff\n      mul\n      not\n      and\n      swap1\n      dup4\n      iszero\n      iszero\n      mul\n      or\n      swap1\n      sstore\n      pop\n        /* \"smartC/contracts/Governator.sol\":3043:3076  electionStarted(electionsCounter) */\n      0x878bb103e2c92788427ea47308fc2c171b1f607553d68c2e7c2e98e6cdb63181\n        /* \"smartC/contracts/Governator.sol\":3059:3075  electionsCounter */\n      sload(0x06)\n        /* \"smartC/contracts/Governator.sol\":3043:3076  electionStarted(electionsCounter) */\n      mload(0x40)\n      tag_140\n      swap2\n      swap1\n      tag_35\n      jump\t// in\n    tag_140:\n      mload(0x40)\n      dup1\n      swap2\n      sub\n      swap1\n      log1\n        /* \"smartC/contracts/Governator.sol\":2491:3083  {... */\n      pop\n        /* \"smartC/contracts/Governator.sol\":2301:3083  function initiateElection(... */\n      pop\n      pop\n      pop\n      pop\n      pop\n      jump\t// out\n        /* \"smartC/contracts/Governator.sol\":730:771  mapping(address => Person) public Persons */\n    tag_61:\n      mstore(0x20, 0x00)\n      dup1\n      0x00\n      mstore\n      keccak256(0x00, 0x40)\n      0x00\n      swap2\n      pop\n      swap1\n      pop\n      dup1\n      0x00\n      add\n      sload\n      swap1\n      dup1\n      0x01\n      add\n      dup1\n      sload\n      tag_141\n      swap1\n      tag_65\n      jump\t// in\n    tag_141:\n      dup1\n      0x1f\n      add\n      0x20\n      dup1\n      swap2\n      div\n      mul\n      0x20\n      add\n      mload(0x40)\n      swap1\n      dup2\n      add\n      0x40\n      mstore\n      dup1\n      swap3\n      swap2\n      swap1\n      dup2\n      dup2\n      mstore\n      0x20\n      add\n      dup3\n      dup1\n      sload\n      tag_142\n      swap1\n      tag_65\n      jump\t// in\n    tag_142:\n      dup1\n      iszero\n      tag_143\n      jumpi\n      dup1\n      0x1f\n      lt\n      tag_144\n      jumpi\n      0x0100\n      dup1\n      dup4\n      sload\n      div\n      mul\n      dup4\n      mstore\n      swap2\n      0x20\n      add\n      swap2\n      jump(tag_143)\n    tag_144:\n      dup3\n      add\n      swap2\n      swap1\n      0x00\n      mstore\n      keccak256(0x00, 0x20)\n      swap1\n    tag_145:\n      dup2\n      sload\n      dup2\n      mstore\n      swap1\n      0x01\n      add\n      swap1\n      0x20\n      add\n      dup1\n      dup4\n      gt\n      tag_145\n      jumpi\n      dup3\n      swap1\n      sub\n      0x1f\n      and\n      dup3\n      add\n      swap2\n    tag_143:\n      pop\n      pop\n      pop\n      pop\n      pop\n      swap1\n      dup1\n      0x02\n      add\n      dup1\n      sload\n      tag_146\n      swap1\n      tag_65\n      jump\t// in\n    tag_146:\n      dup1\n      0x1f\n      add\n      0x20\n      dup1\n      swap2\n      div\n      mul\n      0x20\n      add\n      mload(0x40)\n      swap1\n      dup2\n      add\n      0x40\n      mstore\n      dup1\n      swap3\n      swap2\n      swap1\n      dup2\n      dup2\n      mstore\n      0x20\n      add\n      dup3\n      dup1\n      sload\n      tag_147\n      swap1\n      tag_65\n      jump\t// in\n    tag_147:\n      dup1\n      iszero\n      tag_148\n      jumpi\n      dup1\n      0x1f\n      lt\n      tag_149\n      jumpi\n      0x0100\n      dup1\n      dup4\n      sload\n      div\n      mul\n      dup4\n      mstore\n      swap2\n      0x20\n      add\n      swap2\n      jump(tag_148)\n    tag_149:\n      dup3\n      add\n      swap2\n      swap1\n      0x00\n      mstore\n      keccak256(0x00, 0x20)\n      swap1\n    tag_150:\n      dup2\n      sload\n      dup2\n      mstore\n      swap1\n      0x01\n      add\n      swap1\n      0x20\n      add\n      dup1\n      dup4\n      gt\n      tag_150\n      jumpi\n      dup3\n      swap1\n      sub\n      0x1f\n      and\n      dup3\n      add\n      swap2\n    tag_148:\n      pop\n      pop\n      pop\n      pop\n      pop\n      swap1\n      dup1\n      0x03\n      add\n      0x00\n      swap1\n      sload\n      swap1\n      0x0100\n      exp\n      swap1\n      div\n      0xff\n      and\n      swap1\n      dup1\n      0x03\n      add\n      0x01\n      swap1\n      sload\n      swap1\n      0x0100\n      exp\n      swap1\n      div\n      0xff\n      and\n      swap1\n      pop\n      dup6\n      jump\t// out\n        /* \"#utility.yul\":7:82   */\n    tag_151:\n        /* \"#utility.yul\":40:46   */\n      0x00\n        /* \"#utility.yul\":73:75   */\n      0x40\n        /* \"#utility.yul\":67:76   */\n      mload\n        /* \"#utility.yul\":57:76   */\n      swap1\n      pop\n        /* \"#utility.yul\":7:82   */\n      swap1\n      jump\t// out\n        /* \"#utility.yul\":88:205   */\n    tag_152:\n        /* \"#utility.yul\":197:198   */\n      0x00\n        /* \"#utility.yul\":194:195   */\n      dup1\n        /* \"#utility.yul\":187:199   */\n      revert\n        /* \"#utility.yul\":211:328   */\n    tag_153:\n        /* \"#utility.yul\":320:321   */\n      0x00\n        /* \"#utility.yul\":317:318   */\n      dup1\n        /* \"#utility.yul\":310:322   */\n      revert\n        /* \"#utility.yul\":334:451   */\n    tag_154:\n        /* \"#utility.yul\":443:444   */\n      0x00\n        /* \"#utility.yul\":440:441   */\n      dup1\n        /* \"#utility.yul\":433:445   */\n      revert\n        /* \"#utility.yul\":457:574   */\n    tag_155:\n        /* \"#utility.yul\":566:567   */\n      0x00\n        /* \"#utility.yul\":563:564   */\n      dup1\n        /* \"#utility.yul\":556:568   */\n      revert\n        /* \"#utility.yul\":580:682   */\n    tag_156:\n        /* \"#utility.yul\":621:627   */\n      0x00\n        /* \"#utility.yul\":672:674   */\n      0x1f\n        /* \"#utility.yul\":668:675   */\n      not\n        /* \"#utility.yul\":663:665   */\n      0x1f\n        /* \"#utility.yul\":656:661   */\n      dup4\n        /* \"#utility.yul\":652:666   */\n      add\n        /* \"#utility.yul\":648:676   */\n      and\n        /* \"#utility.yul\":638:676   */\n      swap1\n      pop\n        /* \"#utility.yul\":580:682   */\n      swap2\n      swap1\n      pop\n      jump\t// out\n        /* \"#utility.yul\":688:868   */\n    tag_157:\n        /* \"#utility.yul\":736:813   */\n      0x4e487b7100000000000000000000000000000000000000000000000000000000\n        /* \"#utility.yul\":733:734   */\n      0x00\n        /* \"#utility.yul\":726:814   */\n      mstore\n        /* \"#utility.yul\":833:837   */\n      0x41\n        /* \"#utility.yul\":830:831   */\n      0x04\n        /* \"#utility.yul\":823:838   */\n      mstore\n        /* \"#utility.yul\":857:861   */\n      0x24\n        /* \"#utility.yul\":854:855   */\n      0x00\n        /* \"#utility.yul\":847:862   */\n      revert\n        /* \"#utility.yul\":874:1155   */\n    tag_158:\n        /* \"#utility.yul\":957:984   */\n      tag_223\n        /* \"#utility.yul\":979:983   */\n      dup3\n        /* \"#utility.yul\":957:984   */\n      tag_156\n      jump\t// in\n    tag_223:\n        /* \"#utility.yul\":949:955   */\n      dup2\n        /* \"#utility.yul\":945:985   */\n      add\n        /* \"#utility.yul\":1087:1093   */\n      dup2\n        /* \"#utility.yul\":1075:1085   */\n      dup2\n        /* \"#utility.yul\":1072:1094   */\n      lt\n        /* \"#utility.yul\":1051:1069   */\n      0xffffffffffffffff\n        /* \"#utility.yul\":1039:1049   */\n      dup3\n        /* \"#utility.yul\":1036:1070   */\n      gt\n        /* \"#utility.yul\":1033:1095   */\n      or\n        /* \"#utility.yul\":1030:1118   */\n      iszero\n      tag_224\n      jumpi\n        /* \"#utility.yul\":1098:1116   */\n      tag_225\n      tag_157\n      jump\t// in\n    tag_225:\n        /* \"#utility.yul\":1030:1118   */\n    tag_224:\n        /* \"#utility.yul\":1138:1148   */\n      dup1\n        /* \"#utility.yul\":1134:1136   */\n      0x40\n        /* \"#utility.yul\":1127:1149   */\n      mstore\n        /* \"#utility.yul\":917:1155   */\n      pop\n        /* \"#utility.yul\":874:1155   */\n      pop\n      pop\n      jump\t// out\n        /* \"#utility.yul\":1161:1290   */\n    tag_159:\n        /* \"#utility.yul\":1195:1201   */\n      0x00\n        /* \"#utility.yul\":1222:1242   */\n      tag_227\n      tag_151\n      jump\t// in\n    tag_227:\n        /* \"#utility.yul\":1212:1242   */\n      swap1\n      pop\n        /* \"#utility.yul\":1251:1284   */\n      tag_228\n        /* \"#utility.yul\":1279:1283   */\n      dup3\n        /* \"#utility.yul\":1271:1277   */\n      dup3\n        /* \"#utility.yul\":1251:1284   */\n      tag_158\n      jump\t// in\n    tag_228:\n        /* \"#utility.yul\":1161:1290   */\n      swap2\n      swap1\n      pop\n      jump\t// out\n        /* \"#utility.yul\":1296:1604   */\n    tag_160:\n        /* \"#utility.yul\":1358:1362   */\n      0x00\n        /* \"#utility.yul\":1448:1466   */\n      0xffffffffffffffff\n        /* \"#utility.yul\":1440:1446   */\n      dup3\n        /* \"#utility.yul\":1437:1467   */\n      gt\n        /* \"#utility.yul\":1434:1490   */\n      iszero\n      tag_230\n      jumpi\n        /* \"#utility.yul\":1470:1488   */\n      tag_231\n      tag_157\n      jump\t// in\n    tag_231:\n        /* \"#utility.yul\":1434:1490   */\n    tag_230:\n        /* \"#utility.yul\":1508:1537   */\n      tag_232\n        /* \"#utility.yul\":1530:1536   */\n      dup3\n        /* \"#utility.yul\":1508:1537   */\n      tag_156\n      jump\t// in\n    tag_232:\n        /* \"#utility.yul\":1500:1537   */\n      swap1\n      pop\n        /* \"#utility.yul\":1592:1596   */\n      0x20\n        /* \"#utility.yul\":1586:1590   */\n      dup2\n        /* \"#utility.yul\":1582:1597   */\n      add\n        /* \"#utility.yul\":1574:1597   */\n      swap1\n      pop\n        /* \"#utility.yul\":1296:1604   */\n      swap2\n      swap1\n      pop\n      jump\t// out\n        /* \"#utility.yul\":1610:1758   */\n    tag_161:\n        /* \"#utility.yul\":1708:1714   */\n      dup3\n        /* \"#utility.yul\":1703:1706   */\n      dup2\n        /* \"#utility.yul\":1698:1701   */\n      dup4\n        /* \"#utility.yul\":1685:1715   */\n      calldatacopy\n        /* \"#utility.yul\":1749:1750   */\n      0x00\n        /* \"#utility.yul\":1740:1746   */\n      dup4\n        /* \"#utility.yul\":1735:1738   */\n      dup4\n        /* \"#utility.yul\":1731:1747   */\n      add\n        /* \"#utility.yul\":1724:1751   */\n      mstore\n        /* \"#utility.yul\":1610:1758   */\n      pop\n      pop\n      pop\n      jump\t// out\n        /* \"#utility.yul\":1764:2189   */\n    tag_162:\n        /* \"#utility.yul\":1842:1847   */\n      0x00\n        /* \"#utility.yul\":1867:1933   */\n      tag_235\n        /* \"#utility.yul\":1883:1932   */\n      tag_236\n        /* \"#utility.yul\":1925:1931   */\n      dup5\n        /* \"#utility.yul\":1883:1932   */\n      tag_160\n      jump\t// in\n    tag_236:\n        /* \"#utility.yul\":1867:1933   */\n      tag_159\n      jump\t// in\n    tag_235:\n        /* \"#utility.yul\":1858:1933   */\n      swap1\n      pop\n        /* \"#utility.yul\":1956:1962   */\n      dup3\n        /* \"#utility.yul\":1949:1954   */\n      dup2\n        /* \"#utility.yul\":1942:1963   */\n      mstore\n        /* \"#utility.yul\":1994:1998   */\n      0x20\n        /* \"#utility.yul\":1987:1992   */\n      dup2\n        /* \"#utility.yul\":1983:1999   */\n      add\n        /* \"#utility.yul\":2032:2035   */\n      dup5\n        /* \"#utility.yul\":2023:2029   */\n      dup5\n        /* \"#utility.yul\":2018:2021   */\n      dup5\n        /* \"#utility.yul\":2014:2030   */\n      add\n        /* \"#utility.yul\":2011:2036   */\n      gt\n        /* \"#utility.yul\":2008:2120   */\n      iszero\n      tag_237\n      jumpi\n        /* \"#utility.yul\":2039:2118   */\n      tag_238\n      tag_155\n      jump\t// in\n    tag_238:\n        /* \"#utility.yul\":2008:2120   */\n    tag_237:\n        /* \"#utility.yul\":2129:2183   */\n      tag_239\n        /* \"#utility.yul\":2176:2182   */\n      dup5\n        /* \"#utility.yul\":2171:2174   */\n      dup3\n        /* \"#utility.yul\":2166:2169   */\n      dup6\n        /* \"#utility.yul\":2129:2183   */\n      tag_161\n      jump\t// in\n    tag_239:\n        /* \"#utility.yul\":1848:2189   */\n      pop\n        /* \"#utility.yul\":1764:2189   */\n      swap4\n      swap3\n      pop\n      pop\n      pop\n      jump\t// out\n        /* \"#utility.yul\":2209:2549   */\n    tag_163:\n        /* \"#utility.yul\":2265:2270   */\n      0x00\n        /* \"#utility.yul\":2314:2317   */\n      dup3\n        /* \"#utility.yul\":2307:2311   */\n      0x1f\n        /* \"#utility.yul\":2299:2305   */\n      dup4\n        /* \"#utility.yul\":2295:2312   */\n      add\n        /* \"#utility.yul\":2291:2318   */\n      slt\n        /* \"#utility.yul\":2281:2403   */\n      tag_241\n      jumpi\n        /* \"#utility.yul\":2322:2401   */\n      tag_242\n      tag_154\n      jump\t// in\n    tag_242:\n        /* \"#utility.yul\":2281:2403   */\n    tag_241:\n        /* \"#utility.yul\":2439:2445   */\n      dup2\n        /* \"#utility.yul\":2426:2446   */\n      calldataload\n        /* \"#utility.yul\":2464:2543   */\n      tag_243\n        /* \"#utility.yul\":2539:2542   */\n      dup5\n        /* \"#utility.yul\":2531:2537   */\n      dup3\n        /* \"#utility.yul\":2524:2528   */\n      0x20\n        /* \"#utility.yul\":2516:2522   */\n      dup7\n        /* \"#utility.yul\":2512:2529   */\n      add\n        /* \"#utility.yul\":2464:2543   */\n      tag_162\n      jump\t// in\n    tag_243:\n        /* \"#utility.yul\":2455:2543   */\n      swap2\n      pop\n        /* \"#utility.yul\":2271:2549   */\n      pop\n        /* \"#utility.yul\":2209:2549   */\n      swap3\n      swap2\n      pop\n      pop\n      jump\t// out\n        /* \"#utility.yul\":2555:3064   */\n    tag_17:\n        /* \"#utility.yul\":2624:2630   */\n      0x00\n        /* \"#utility.yul\":2673:2675   */\n      0x20\n        /* \"#utility.yul\":2661:2670   */\n      dup3\n        /* \"#utility.yul\":2652:2659   */\n      dup5\n        /* \"#utility.yul\":2648:2671   */\n      sub\n        /* \"#utility.yul\":2644:2676   */\n      slt\n        /* \"#utility.yul\":2641:2760   */\n      iszero\n      tag_245\n      jumpi\n        /* \"#utility.yul\":2679:2758   */\n      tag_246\n      tag_152\n      jump\t// in\n    tag_246:\n        /* \"#utility.yul\":2641:2760   */\n    tag_245:\n        /* \"#utility.yul\":2827:2828   */\n      0x00\n        /* \"#utility.yul\":2816:2825   */\n      dup3\n        /* \"#utility.yul\":2812:2829   */\n      add\n        /* \"#utility.yul\":2799:2830   */\n      calldataload\n        /* \"#utility.yul\":2857:2875   */\n      0xffffffffffffffff\n        /* \"#utility.yul\":2849:2855   */\n      dup2\n        /* \"#utility.yul\":2846:2876   */\n      gt\n        /* \"#utility.yul\":2843:2960   */\n      iszero\n      tag_247\n      jumpi\n        /* \"#utility.yul\":2879:2958   */\n      tag_248\n      tag_153\n      jump\t// in\n    tag_248:\n        /* \"#utility.yul\":2843:2960   */\n    tag_247:\n        /* \"#utility.yul\":2984:3047   */\n      tag_249\n        /* \"#utility.yul\":3039:3046   */\n      dup5\n        /* \"#utility.yul\":3030:3036   */\n      dup3\n        /* \"#utility.yul\":3019:3028   */\n      dup6\n        /* \"#utility.yul\":3015:3037   */\n      add\n        /* \"#utility.yul\":2984:3047   */\n      tag_163\n      jump\t// in\n    tag_249:\n        /* \"#utility.yul\":2974:3047   */\n      swap2\n      pop\n        /* \"#utility.yul\":2770:3057   */\n      pop\n        /* \"#utility.yul\":2555:3064   */\n      swap3\n      swap2\n      pop\n      pop\n      jump\t// out\n        /* \"#utility.yul\":3070:3169   */\n    tag_164:\n        /* \"#utility.yul\":3122:3128   */\n      0x00\n        /* \"#utility.yul\":3156:3161   */\n      dup2\n        /* \"#utility.yul\":3150:3162   */\n      mload\n        /* \"#utility.yul\":3140:3162   */\n      swap1\n      pop\n        /* \"#utility.yul\":3070:3169   */\n      swap2\n      swap1\n      pop\n      jump\t// out\n        /* \"#utility.yul\":3175:3344   */\n    tag_165:\n        /* \"#utility.yul\":3259:3270   */\n      0x00\n        /* \"#utility.yul\":3293:3299   */\n      dup3\n        /* \"#utility.yul\":3288:3291   */\n      dup3\n        /* \"#utility.yul\":3281:3300   */\n      mstore\n        /* \"#utility.yul\":3333:3337   */\n      0x20\n        /* \"#utility.yul\":3328:3331   */\n      dup3\n        /* \"#utility.yul\":3324:3338   */\n      add\n        /* \"#utility.yul\":3309:3338   */\n      swap1\n      pop\n        /* \"#utility.yul\":3175:3344   */\n      swap3\n      swap2\n      pop\n      pop\n      jump\t// out\n        /* \"#utility.yul\":3350:3489   */\n    tag_166:\n        /* \"#utility.yul\":3439:3445   */\n      dup3\n        /* \"#utility.yul\":3434:3437   */\n      dup2\n        /* \"#utility.yul\":3429:3432   */\n      dup4\n        /* \"#utility.yul\":3423:3446   */\n      mcopy\n        /* \"#utility.yul\":3480:3481   */\n      0x00\n        /* \"#utility.yul\":3471:3477   */\n      dup4\n        /* \"#utility.yul\":3466:3469   */\n      dup4\n        /* \"#utility.yul\":3462:3478   */\n      add\n        /* \"#utility.yul\":3455:3482   */\n      mstore\n        /* \"#utility.yul\":3350:3489   */\n      pop\n      pop\n      pop\n      jump\t// out\n        /* \"#utility.yul\":3495:3872   */\n    tag_167:\n        /* \"#utility.yul\":3583:3586   */\n      0x00\n        /* \"#utility.yul\":3611:3650   */\n      tag_254\n        /* \"#utility.yul\":3644:3649   */\n      dup3\n        /* \"#utility.yul\":3611:3650   */\n      tag_164\n      jump\t// in\n    tag_254:\n        /* \"#utility.yul\":3666:3737   */\n      tag_255\n        /* \"#utility.yul\":3730:3736   */\n      dup2\n        /* \"#utility.yul\":3725:3728   */\n      dup6\n        /* \"#utility.yul\":3666:3737   */\n      tag_165\n      jump\t// in\n    tag_255:\n        /* \"#utility.yul\":3659:3737   */\n      swap4\n      pop\n        /* \"#utility.yul\":3746:3811   */\n      tag_256\n        /* \"#utility.yul\":3804:3810   */\n      dup2\n        /* \"#utility.yul\":3799:3802   */\n      dup6\n        /* \"#utility.yul\":3792:3796   */\n      0x20\n        /* \"#utility.yul\":3785:3790   */\n      dup7\n        /* \"#utility.yul\":3781:3797   */\n      add\n        /* \"#utility.yul\":3746:3811   */\n      tag_166\n      jump\t// in\n    tag_256:\n        /* \"#utility.yul\":3836:3865   */\n      tag_257\n        /* \"#utility.yul\":3858:3864   */\n      dup2\n        /* \"#utility.yul\":3836:3865   */\n      tag_156\n      jump\t// in\n    tag_257:\n        /* \"#utility.yul\":3831:3834   */\n      dup5\n        /* \"#utility.yul\":3827:3866   */\n      add\n        /* \"#utility.yul\":3820:3866   */\n      swap2\n      pop\n        /* \"#utility.yul\":3587:3872   */\n      pop\n        /* \"#utility.yul\":3495:3872   */\n      swap3\n      swap2\n      pop\n      pop\n      jump\t// out\n        /* \"#utility.yul\":3878:4004   */\n    tag_168:\n        /* \"#utility.yul\":3915:3922   */\n      0x00\n        /* \"#utility.yul\":3955:3997   */\n      0xffffffffffffffffffffffffffffffffffffffff\n        /* \"#utility.yul\":3948:3953   */\n      dup3\n        /* \"#utility.yul\":3944:3998   */\n      and\n        /* \"#utility.yul\":3933:3998   */\n      swap1\n      pop\n        /* \"#utility.yul\":3878:4004   */\n      swap2\n      swap1\n      pop\n      jump\t// out\n        /* \"#utility.yul\":4010:4106   */\n    tag_169:\n        /* \"#utility.yul\":4047:4054   */\n      0x00\n        /* \"#utility.yul\":4076:4100   */\n      tag_260\n        /* \"#utility.yul\":4094:4099   */\n      dup3\n        /* \"#utility.yul\":4076:4100   */\n      tag_168\n      jump\t// in\n    tag_260:\n        /* \"#utility.yul\":4065:4100   */\n      swap1\n      pop\n        /* \"#utility.yul\":4010:4106   */\n      swap2\n      swap1\n      pop\n      jump\t// out\n        /* \"#utility.yul\":4112:4230   */\n    tag_170:\n        /* \"#utility.yul\":4199:4223   */\n      tag_262\n        /* \"#utility.yul\":4217:4222   */\n      dup2\n        /* \"#utility.yul\":4199:4223   */\n      tag_169\n      jump\t// in\n    tag_262:\n        /* \"#utility.yul\":4194:4197   */\n      dup3\n        /* \"#utility.yul\":4187:4224   */\n      mstore\n        /* \"#utility.yul\":4112:4230   */\n      pop\n      pop\n      jump\t// out\n        /* \"#utility.yul\":4236:4659   */\n    tag_20:\n        /* \"#utility.yul\":4377:4381   */\n      0x00\n        /* \"#utility.yul\":4415:4417   */\n      0x40\n        /* \"#utility.yul\":4404:4413   */\n      dup3\n        /* \"#utility.yul\":4400:4418   */\n      add\n        /* \"#utility.yul\":4392:4418   */\n      swap1\n      pop\n        /* \"#utility.yul\":4464:4473   */\n      dup2\n        /* \"#utility.yul\":4458:4462   */\n      dup2\n        /* \"#utility.yul\":4454:4474   */\n      sub\n        /* \"#utility.yul\":4450:4451   */\n      0x00\n        /* \"#utility.yul\":4439:4448   */\n      dup4\n        /* \"#utility.yul\":4435:4452   */\n      add\n        /* \"#utility.yul\":4428:4475   */\n      mstore\n        /* \"#utility.yul\":4492:4570   */\n      tag_264\n        /* \"#utility.yul\":4565:4569   */\n      dup2\n        /* \"#utility.yul\":4556:4562   */\n      dup6\n        /* \"#utility.yul\":4492:4570   */\n      tag_167\n      jump\t// in\n    tag_264:\n        /* \"#utility.yul\":4484:4570   */\n      swap1\n      pop\n        /* \"#utility.yul\":4580:4652   */\n      tag_265\n        /* \"#utility.yul\":4648:4650   */\n      0x20\n        /* \"#utility.yul\":4637:4646   */\n      dup4\n        /* \"#utility.yul\":4633:4651   */\n      add\n        /* \"#utility.yul\":4624:4630   */\n      dup5\n        /* \"#utility.yul\":4580:4652   */\n      tag_170\n      jump\t// in\n    tag_265:\n        /* \"#utility.yul\":4236:4659   */\n      swap4\n      swap3\n      pop\n      pop\n      pop\n      jump\t// out\n        /* \"#utility.yul\":4665:4755   */\n    tag_171:\n        /* \"#utility.yul\":4699:4706   */\n      0x00\n        /* \"#utility.yul\":4742:4747   */\n      dup2\n        /* \"#utility.yul\":4735:4748   */\n      iszero\n        /* \"#utility.yul\":4728:4749   */\n      iszero\n        /* \"#utility.yul\":4717:4749   */\n      swap1\n      pop\n        /* \"#utility.yul\":4665:4755   */\n      swap2\n      swap1\n      pop\n      jump\t// out\n        /* \"#utility.yul\":4761:4870   */\n    tag_172:\n        /* \"#utility.yul\":4842:4863   */\n      tag_268\n        /* \"#utility.yul\":4857:4862   */\n      dup2\n        /* \"#utility.yul\":4842:4863   */\n      tag_171\n      jump\t// in\n    tag_268:\n        /* \"#utility.yul\":4837:4840   */\n      dup3\n        /* \"#utility.yul\":4830:4864   */\n      mstore\n        /* \"#utility.yul\":4761:4870   */\n      pop\n      pop\n      jump\t// out\n        /* \"#utility.yul\":4876:5086   */\n    tag_25:\n        /* \"#utility.yul\":4963:4967   */\n      0x00\n        /* \"#utility.yul\":5001:5003   */\n      0x20\n        /* \"#utility.yul\":4990:4999   */\n      dup3\n        /* \"#utility.yul\":4986:5004   */\n      add\n        /* \"#utility.yul\":4978:5004   */\n      swap1\n      pop\n        /* \"#utility.yul\":5014:5079   */\n      tag_270\n        /* \"#utility.yul\":5076:5077   */\n      0x00\n        /* \"#utility.yul\":5065:5074   */\n      dup4\n        /* \"#utility.yul\":5061:5078   */\n      add\n        /* \"#utility.yul\":5052:5058   */\n      dup5\n        /* \"#utility.yul\":5014:5079   */\n      tag_172\n      jump\t// in\n    tag_270:\n        /* \"#utility.yul\":4876:5086   */\n      swap3\n      swap2\n      pop\n      pop\n      jump\t// out\n        /* \"#utility.yul\":5092:5169   */\n    tag_173:\n        /* \"#utility.yul\":5129:5136   */\n      0x00\n        /* \"#utility.yul\":5158:5163   */\n      dup2\n        /* \"#utility.yul\":5147:5163   */\n      swap1\n      pop\n        /* \"#utility.yul\":5092:5169   */\n      swap2\n      swap1\n      pop\n      jump\t// out\n        /* \"#utility.yul\":5175:5297   */\n    tag_174:\n        /* \"#utility.yul\":5248:5272   */\n      tag_273\n        /* \"#utility.yul\":5266:5271   */\n      dup2\n        /* \"#utility.yul\":5248:5272   */\n      tag_173\n      jump\t// in\n    tag_273:\n        /* \"#utility.yul\":5241:5246   */\n      dup2\n        /* \"#utility.yul\":5238:5273   */\n      eq\n        /* \"#utility.yul\":5228:5291   */\n      tag_274\n      jumpi\n        /* \"#utility.yul\":5287:5288   */\n      0x00\n        /* \"#utility.yul\":5284:5285   */\n      dup1\n        /* \"#utility.yul\":5277:5289   */\n      revert\n        /* \"#utility.yul\":5228:5291   */\n    tag_274:\n        /* \"#utility.yul\":5175:5297   */\n      pop\n      jump\t// out\n        /* \"#utility.yul\":5303:5442   */\n    tag_175:\n        /* \"#utility.yul\":5349:5354   */\n      0x00\n        /* \"#utility.yul\":5387:5393   */\n      dup2\n        /* \"#utility.yul\":5374:5394   */\n      calldataload\n        /* \"#utility.yul\":5365:5394   */\n      swap1\n      pop\n        /* \"#utility.yul\":5403:5436   */\n      tag_276\n        /* \"#utility.yul\":5430:5435   */\n      dup2\n        /* \"#utility.yul\":5403:5436   */\n      tag_174\n      jump\t// in\n    tag_276:\n        /* \"#utility.yul\":5303:5442   */\n      swap3\n      swap2\n      pop\n      pop\n      jump\t// out\n        /* \"#utility.yul\":5448:5777   */\n    tag_28:\n        /* \"#utility.yul\":5507:5513   */\n      0x00\n        /* \"#utility.yul\":5556:5558   */\n      0x20\n        /* \"#utility.yul\":5544:5553   */\n      dup3\n        /* \"#utility.yul\":5535:5542   */\n      dup5\n        /* \"#utility.yul\":5531:5554   */\n      sub\n        /* \"#utility.yul\":5527:5559   */\n      slt\n        /* \"#utility.yul\":5524:5643   */\n      iszero\n      tag_278\n      jumpi\n        /* \"#utility.yul\":5562:5641   */\n      tag_279\n      tag_152\n      jump\t// in\n    tag_279:\n        /* \"#utility.yul\":5524:5643   */\n    tag_278:\n        /* \"#utility.yul\":5682:5683   */\n      0x00\n        /* \"#utility.yul\":5707:5760   */\n      tag_280\n        /* \"#utility.yul\":5752:5759   */\n      dup5\n        /* \"#utility.yul\":5743:5749   */\n      dup3\n        /* \"#utility.yul\":5732:5741   */\n      dup6\n        /* \"#utility.yul\":5728:5750   */\n      add\n        /* \"#utility.yul\":5707:5760   */\n      tag_175\n      jump\t// in\n    tag_280:\n        /* \"#utility.yul\":5697:5760   */\n      swap2\n      pop\n        /* \"#utility.yul\":5653:5770   */\n      pop\n        /* \"#utility.yul\":5448:5777   */\n      swap3\n      swap2\n      pop\n      pop\n      jump\t// out\n        /* \"#utility.yul\":5783:5901   */\n    tag_176:\n        /* \"#utility.yul\":5870:5894   */\n      tag_282\n        /* \"#utility.yul\":5888:5893   */\n      dup2\n        /* \"#utility.yul\":5870:5894   */\n      tag_173\n      jump\t// in\n    tag_282:\n        /* \"#utility.yul\":5865:5868   */\n      dup3\n        /* \"#utility.yul\":5858:5895   */\n      mstore\n        /* \"#utility.yul\":5783:5901   */\n      pop\n      pop\n      jump\t// out\n        /* \"#utility.yul\":5907:7387   */\n    tag_31:\n        /* \"#utility.yul\":6306:6310   */\n      0x00\n        /* \"#utility.yul\":6344:6347   */\n      0x0140\n        /* \"#utility.yul\":6333:6342   */\n      dup3\n        /* \"#utility.yul\":6329:6348   */\n      add\n        /* \"#utility.yul\":6321:6348   */\n      swap1\n      pop\n        /* \"#utility.yul\":6358:6429   */\n      tag_284\n        /* \"#utility.yul\":6426:6427   */\n      0x00\n        /* \"#utility.yul\":6415:6424   */\n      dup4\n        /* \"#utility.yul\":6411:6428   */\n      add\n        /* \"#utility.yul\":6402:6408   */\n      dup14\n        /* \"#utility.yul\":6358:6429   */\n      tag_176\n      jump\t// in\n    tag_284:\n        /* \"#utility.yul\":6476:6485   */\n      dup2\n        /* \"#utility.yul\":6470:6474   */\n      dup2\n        /* \"#utility.yul\":6466:6486   */\n      sub\n        /* \"#utility.yul\":6461:6463   */\n      0x20\n        /* \"#utility.yul\":6450:6459   */\n      dup4\n        /* \"#utility.yul\":6446:6464   */\n      add\n        /* \"#utility.yul\":6439:6487   */\n      mstore\n        /* \"#utility.yul\":6504:6582   */\n      tag_285\n        /* \"#utility.yul\":6577:6581   */\n      dup2\n        /* \"#utility.yul\":6568:6574   */\n      dup13\n        /* \"#utility.yul\":6504:6582   */\n      tag_167\n      jump\t// in\n    tag_285:\n        /* \"#utility.yul\":6496:6582   */\n      swap1\n      pop\n        /* \"#utility.yul\":6592:6664   */\n      tag_286\n        /* \"#utility.yul\":6660:6662   */\n      0x40\n        /* \"#utility.yul\":6649:6658   */\n      dup4\n        /* \"#utility.yul\":6645:6663   */\n      add\n        /* \"#utility.yul\":6636:6642   */\n      dup12\n        /* \"#utility.yul\":6592:6664   */\n      tag_170\n      jump\t// in\n    tag_286:\n        /* \"#utility.yul\":6674:6746   */\n      tag_287\n        /* \"#utility.yul\":6742:6744   */\n      0x60\n        /* \"#utility.yul\":6731:6740   */\n      dup4\n        /* \"#utility.yul\":6727:6745   */\n      add\n        /* \"#utility.yul\":6718:6724   */\n      dup11\n        /* \"#utility.yul\":6674:6746   */\n      tag_170\n      jump\t// in\n    tag_287:\n        /* \"#utility.yul\":6756:6829   */\n      tag_288\n        /* \"#utility.yul\":6824:6827   */\n      0x80\n        /* \"#utility.yul\":6813:6822   */\n      dup4\n        /* \"#utility.yul\":6809:6828   */\n      add\n        /* \"#utility.yul\":6800:6806   */\n      dup10\n        /* \"#utility.yul\":6756:6829   */\n      tag_176\n      jump\t// in\n    tag_288:\n        /* \"#utility.yul\":6839:6912   */\n      tag_289\n        /* \"#utility.yul\":6907:6910   */\n      0xa0\n        /* \"#utility.yul\":6896:6905   */\n      dup4\n        /* \"#utility.yul\":6892:6911   */\n      add\n        /* \"#utility.yul\":6883:6889   */\n      dup9\n        /* \"#utility.yul\":6839:6912   */\n      tag_176\n      jump\t// in\n    tag_289:\n        /* \"#utility.yul\":6960:6969   */\n      dup2\n        /* \"#utility.yul\":6954:6958   */\n      dup2\n        /* \"#utility.yul\":6950:6970   */\n      sub\n        /* \"#utility.yul\":6944:6947   */\n      0xc0\n        /* \"#utility.yul\":6933:6942   */\n      dup4\n        /* \"#utility.yul\":6929:6948   */\n      add\n        /* \"#utility.yul\":6922:6971   */\n      mstore\n        /* \"#utility.yul\":6988:7066   */\n      tag_290\n        /* \"#utility.yul\":7061:7065   */\n      dup2\n        /* \"#utility.yul\":7052:7058   */\n      dup8\n        /* \"#utility.yul\":6988:7066   */\n      tag_167\n      jump\t// in\n    tag_290:\n        /* \"#utility.yul\":6980:7066   */\n      swap1\n      pop\n        /* \"#utility.yul\":7114:7123   */\n      dup2\n        /* \"#utility.yul\":7108:7112   */\n      dup2\n        /* \"#utility.yul\":7104:7124   */\n      sub\n        /* \"#utility.yul\":7098:7101   */\n      0xe0\n        /* \"#utility.yul\":7087:7096   */\n      dup4\n        /* \"#utility.yul\":7083:7102   */\n      add\n        /* \"#utility.yul\":7076:7125   */\n      mstore\n        /* \"#utility.yul\":7142:7220   */\n      tag_291\n        /* \"#utility.yul\":7215:7219   */\n      dup2\n        /* \"#utility.yul\":7206:7212   */\n      dup7\n        /* \"#utility.yul\":7142:7220   */\n      tag_167\n      jump\t// in\n    tag_291:\n        /* \"#utility.yul\":7134:7220   */\n      swap1\n      pop\n        /* \"#utility.yul\":7230:7303   */\n      tag_292\n        /* \"#utility.yul\":7298:7301   */\n      0x0100\n        /* \"#utility.yul\":7287:7296   */\n      dup4\n        /* \"#utility.yul\":7283:7302   */\n      add\n        /* \"#utility.yul\":7274:7280   */\n      dup6\n        /* \"#utility.yul\":7230:7303   */\n      tag_176\n      jump\t// in\n    tag_292:\n        /* \"#utility.yul\":7313:7380   */\n      tag_293\n        /* \"#utility.yul\":7375:7378   */\n      0x0120\n        /* \"#utility.yul\":7364:7373   */\n      dup4\n        /* \"#utility.yul\":7360:7379   */\n      add\n        /* \"#utility.yul\":7351:7357   */\n      dup5\n        /* \"#utility.yul\":7313:7380   */\n      tag_172\n      jump\t// in\n    tag_293:\n        /* \"#utility.yul\":5907:7387   */\n      swap12\n      swap11\n      pop\n      pop\n      pop\n      pop\n      pop\n      pop\n      pop\n      pop\n      pop\n      pop\n      pop\n      jump\t// out\n        /* \"#utility.yul\":7393:7615   */\n    tag_35:\n        /* \"#utility.yul\":7486:7490   */\n      0x00\n        /* \"#utility.yul\":7524:7526   */\n      0x20\n        /* \"#utility.yul\":7513:7522   */\n      dup3\n        /* \"#utility.yul\":7509:7527   */\n      add\n        /* \"#utility.yul\":7501:7527   */\n      swap1\n      pop\n        /* \"#utility.yul\":7537:7608   */\n      tag_295\n        /* \"#utility.yul\":7605:7606   */\n      0x00\n        /* \"#utility.yul\":7594:7603   */\n      dup4\n        /* \"#utility.yul\":7590:7607   */\n      add\n        /* \"#utility.yul\":7581:7587   */\n      dup5\n        /* \"#utility.yul\":7537:7608   */\n      tag_176\n      jump\t// in\n    tag_295:\n        /* \"#utility.yul\":7393:7615   */\n      swap3\n      swap2\n      pop\n      pop\n      jump\t// out\n        /* \"#utility.yul\":7621:7743   */\n    tag_177:\n        /* \"#utility.yul\":7694:7718   */\n      tag_297\n        /* \"#utility.yul\":7712:7717   */\n      dup2\n        /* \"#utility.yul\":7694:7718   */\n      tag_169\n      jump\t// in\n    tag_297:\n        /* \"#utility.yul\":7687:7692   */\n      dup2\n        /* \"#utility.yul\":7684:7719   */\n      eq\n        /* \"#utility.yul\":7674:7737   */\n      tag_298\n      jumpi\n        /* \"#utility.yul\":7733:7734   */\n      0x00\n        /* \"#utility.yul\":7730:7731   */\n      dup1\n        /* \"#utility.yul\":7723:7735   */\n      revert\n        /* \"#utility.yul\":7674:7737   */\n    tag_298:\n        /* \"#utility.yul\":7621:7743   */\n      pop\n      jump\t// out\n        /* \"#utility.yul\":7749:7888   */\n    tag_178:\n        /* \"#utility.yul\":7795:7800   */\n      0x00\n        /* \"#utility.yul\":7833:7839   */\n      dup2\n        /* \"#utility.yul\":7820:7840   */\n      calldataload\n        /* \"#utility.yul\":7811:7840   */\n      swap1\n      pop\n        /* \"#utility.yul\":7849:7882   */\n      tag_300\n        /* \"#utility.yul\":7876:7881   */\n      dup2\n        /* \"#utility.yul\":7849:7882   */\n      tag_177\n      jump\t// in\n    tag_300:\n        /* \"#utility.yul\":7749:7888   */\n      swap3\n      swap2\n      pop\n      pop\n      jump\t// out\n        /* \"#utility.yul\":7894:8368   */\n    tag_41:\n        /* \"#utility.yul\":7962:7968   */\n      0x00\n        /* \"#utility.yul\":7970:7976   */\n      dup1\n        /* \"#utility.yul\":8019:8021   */\n      0x40\n        /* \"#utility.yul\":8007:8016   */\n      dup4\n        /* \"#utility.yul\":7998:8005   */\n      dup6\n        /* \"#utility.yul\":7994:8017   */\n      sub\n        /* \"#utility.yul\":7990:8022   */\n      slt\n        /* \"#utility.yul\":7987:8106   */\n      iszero\n      tag_302\n      jumpi\n        /* \"#utility.yul\":8025:8104   */\n      tag_303\n      tag_152\n      jump\t// in\n    tag_303:\n        /* \"#utility.yul\":7987:8106   */\n    tag_302:\n        /* \"#utility.yul\":8145:8146   */\n      0x00\n        /* \"#utility.yul\":8170:8223   */\n      tag_304\n        /* \"#utility.yul\":8215:8222   */\n      dup6\n        /* \"#utility.yul\":8206:8212   */\n      dup3\n        /* \"#utility.yul\":8195:8204   */\n      dup7\n        /* \"#utility.yul\":8191:8213   */\n      add\n        /* \"#utility.yul\":8170:8223   */\n      tag_175\n      jump\t// in\n    tag_304:\n        /* \"#utility.yul\":8160:8223   */\n      swap3\n      pop\n        /* \"#utility.yul\":8116:8233   */\n      pop\n        /* \"#utility.yul\":8272:8274   */\n      0x20\n        /* \"#utility.yul\":8298:8351   */\n      tag_305\n        /* \"#utility.yul\":8343:8350   */\n      dup6\n        /* \"#utility.yul\":8334:8340   */\n      dup3\n        /* \"#utility.yul\":8323:8332   */\n      dup7\n        /* \"#utility.yul\":8319:8341   */\n      add\n        /* \"#utility.yul\":8298:8351   */\n      tag_178\n      jump\t// in\n    tag_305:\n        /* \"#utility.yul\":8288:8351   */\n      swap2\n      pop\n        /* \"#utility.yul\":8243:8361   */\n      pop\n        /* \"#utility.yul\":7894:8368   */\n      swap3\n      pop\n      swap3\n      swap1\n      pop\n      jump\t// out\n        /* \"#utility.yul\":8374:8510   */\n    tag_179:\n        /* \"#utility.yul\":8463:8469   */\n      0x00\n        /* \"#utility.yul\":8497:8502   */\n      dup2\n        /* \"#utility.yul\":8491:8503   */\n      mload\n        /* \"#utility.yul\":8481:8503   */\n      swap1\n      pop\n        /* \"#utility.yul\":8374:8510   */\n      swap2\n      swap1\n      pop\n      jump\t// out\n        /* \"#utility.yul\":8516:8722   */\n    tag_180:\n        /* \"#utility.yul\":8637:8648   */\n      0x00\n        /* \"#utility.yul\":8671:8677   */\n      dup3\n        /* \"#utility.yul\":8666:8669   */\n      dup3\n        /* \"#utility.yul\":8659:8678   */\n      mstore\n        /* \"#utility.yul\":8711:8715   */\n      0x20\n        /* \"#utility.yul\":8706:8709   */\n      dup3\n        /* \"#utility.yul\":8702:8716   */\n      add\n        /* \"#utility.yul\":8687:8716   */\n      swap1\n      pop\n        /* \"#utility.yul\":8516:8722   */\n      swap3\n      swap2\n      pop\n      pop\n      jump\t// out\n        /* \"#utility.yul\":8728:8882   */\n    tag_181:\n        /* \"#utility.yul\":8817:8821   */\n      0x00\n        /* \"#utility.yul\":8840:8843   */\n      dup2\n        /* \"#utility.yul\":8832:8843   */\n      swap1\n      pop\n        /* \"#utility.yul\":8870:8874   */\n      0x20\n        /* \"#utility.yul\":8865:8868   */\n      dup3\n        /* \"#utility.yul\":8861:8875   */\n      add\n        /* \"#utility.yul\":8853:8875   */\n      swap1\n      pop\n        /* \"#utility.yul\":8728:8882   */\n      swap2\n      swap1\n      pop\n      jump\t// out\n        /* \"#utility.yul\":8888:8996   */\n    tag_182:\n        /* \"#utility.yul\":8965:8989   */\n      tag_310\n        /* \"#utility.yul\":8983:8988   */\n      dup2\n        /* \"#utility.yul\":8965:8989   */\n      tag_173\n      jump\t// in\n    tag_310:\n        /* \"#utility.yul\":8960:8963   */\n      dup3\n        /* \"#utility.yul\":8953:8990   */\n      mstore\n        /* \"#utility.yul\":8888:8996   */\n      pop\n      pop\n      jump\t// out\n        /* \"#utility.yul\":9002:9161   */\n    tag_183:\n        /* \"#utility.yul\":9076:9087   */\n      0x00\n        /* \"#utility.yul\":9110:9116   */\n      dup3\n        /* \"#utility.yul\":9105:9108   */\n      dup3\n        /* \"#utility.yul\":9098:9117   */\n      mstore\n        /* \"#utility.yul\":9150:9154   */\n      0x20\n        /* \"#utility.yul\":9145:9148   */\n      dup3\n        /* \"#utility.yul\":9141:9155   */\n      add\n        /* \"#utility.yul\":9126:9155   */\n      swap1\n      pop\n        /* \"#utility.yul\":9002:9161   */\n      swap3\n      swap2\n      pop\n      pop\n      jump\t// out\n        /* \"#utility.yul\":9167:9524   */\n    tag_184:\n        /* \"#utility.yul\":9245:9248   */\n      0x00\n        /* \"#utility.yul\":9273:9312   */\n      tag_313\n        /* \"#utility.yul\":9306:9311   */\n      dup3\n        /* \"#utility.yul\":9273:9312   */\n      tag_164\n      jump\t// in\n    tag_313:\n        /* \"#utility.yul\":9328:9389   */\n      tag_314\n        /* \"#utility.yul\":9382:9388   */\n      dup2\n        /* \"#utility.yul\":9377:9380   */\n      dup6\n        /* \"#utility.yul\":9328:9389   */\n      tag_183\n      jump\t// in\n    tag_314:\n        /* \"#utility.yul\":9321:9389   */\n      swap4\n      pop\n        /* \"#utility.yul\":9398:9463   */\n      tag_315\n        /* \"#utility.yul\":9456:9462   */\n      dup2\n        /* \"#utility.yul\":9451:9454   */\n      dup6\n        /* \"#utility.yul\":9444:9448   */\n      0x20\n        /* \"#utility.yul\":9437:9442   */\n      dup7\n        /* \"#utility.yul\":9433:9449   */\n      add\n        /* \"#utility.yul\":9398:9463   */\n      tag_166\n      jump\t// in\n    tag_315:\n        /* \"#utility.yul\":9488:9517   */\n      tag_316\n        /* \"#utility.yul\":9510:9516   */\n      dup2\n        /* \"#utility.yul\":9488:9517   */\n      tag_156\n      jump\t// in\n    tag_316:\n        /* \"#utility.yul\":9483:9486   */\n      dup5\n        /* \"#utility.yul\":9479:9518   */\n      add\n        /* \"#utility.yul\":9472:9518   */\n      swap2\n      pop\n        /* \"#utility.yul\":9249:9524   */\n      pop\n        /* \"#utility.yul\":9167:9524   */\n      swap3\n      swap2\n      pop\n      pop\n      jump\t// out\n        /* \"#utility.yul\":9530:9629   */\n    tag_185:\n        /* \"#utility.yul\":9601:9622   */\n      tag_318\n        /* \"#utility.yul\":9616:9621   */\n      dup2\n        /* \"#utility.yul\":9601:9622   */\n      tag_171\n      jump\t// in\n    tag_318:\n        /* \"#utility.yul\":9596:9599   */\n      dup3\n        /* \"#utility.yul\":9589:9623   */\n      mstore\n        /* \"#utility.yul\":9530:9629   */\n      pop\n      pop\n      jump\t// out\n        /* \"#utility.yul\":9705:10885   */\n    tag_186:\n        /* \"#utility.yul\":9808:9811   */\n      0x00\n        /* \"#utility.yul\":9844:9848   */\n      0xa0\n        /* \"#utility.yul\":9839:9842   */\n      dup4\n        /* \"#utility.yul\":9835:9849   */\n      add\n        /* \"#utility.yul\":9929:9933   */\n      0x00\n        /* \"#utility.yul\":9922:9927   */\n      dup4\n        /* \"#utility.yul\":9918:9934   */\n      add\n        /* \"#utility.yul\":9912:9935   */\n      mload\n        /* \"#utility.yul\":9948:10011   */\n      tag_320\n        /* \"#utility.yul\":10005:10009   */\n      0x00\n        /* \"#utility.yul\":10000:10003   */\n      dup7\n        /* \"#utility.yul\":9996:10010   */\n      add\n        /* \"#utility.yul\":9982:9994   */\n      dup3\n        /* \"#utility.yul\":9948:10011   */\n      tag_182\n      jump\t// in\n    tag_320:\n        /* \"#utility.yul\":9859:10021   */\n      pop\n        /* \"#utility.yul\":10103:10107   */\n      0x20\n        /* \"#utility.yul\":10096:10101   */\n      dup4\n        /* \"#utility.yul\":10092:10108   */\n      add\n        /* \"#utility.yul\":10086:10109   */\n      mload\n        /* \"#utility.yul\":10156:10159   */\n      dup5\n        /* \"#utility.yul\":10150:10154   */\n      dup3\n        /* \"#utility.yul\":10146:10160   */\n      sub\n        /* \"#utility.yul\":10139:10143   */\n      0x20\n        /* \"#utility.yul\":10134:10137   */\n      dup7\n        /* \"#utility.yul\":10130:10144   */\n      add\n        /* \"#utility.yul\":10123:10161   */\n      mstore\n        /* \"#utility.yul\":10182:10255   */\n      tag_321\n        /* \"#utility.yul\":10250:10254   */\n      dup3\n        /* \"#utility.yul\":10236:10248   */\n      dup3\n        /* \"#utility.yul\":10182:10255   */\n      tag_184\n      jump\t// in\n    tag_321:\n        /* \"#utility.yul\":10174:10255   */\n      swap2\n      pop\n        /* \"#utility.yul\":10031:10266   */\n      pop\n        /* \"#utility.yul\":10352:10356   */\n      0x40\n        /* \"#utility.yul\":10345:10350   */\n      dup4\n        /* \"#utility.yul\":10341:10357   */\n      add\n        /* \"#utility.yul\":10335:10358   */\n      mload\n        /* \"#utility.yul\":10405:10408   */\n      dup5\n        /* \"#utility.yul\":10399:10403   */\n      dup3\n        /* \"#utility.yul\":10395:10409   */\n      sub\n        /* \"#utility.yul\":10388:10392   */\n      0x40\n        /* \"#utility.yul\":10383:10386   */\n      dup7\n        /* \"#utility.yul\":10379:10393   */\n      add\n        /* \"#utility.yul\":10372:10410   */\n      mstore\n        /* \"#utility.yul\":10431:10504   */\n      tag_322\n        /* \"#utility.yul\":10499:10503   */\n      dup3\n        /* \"#utility.yul\":10485:10497   */\n      dup3\n        /* \"#utility.yul\":10431:10504   */\n      tag_184\n      jump\t// in\n    tag_322:\n        /* \"#utility.yul\":10423:10504   */\n      swap2\n      pop\n        /* \"#utility.yul\":10276:10515   */\n      pop\n        /* \"#utility.yul\":10599:10603   */\n      0x60\n        /* \"#utility.yul\":10592:10597   */\n      dup4\n        /* \"#utility.yul\":10588:10604   */\n      add\n        /* \"#utility.yul\":10582:10605   */\n      mload\n        /* \"#utility.yul\":10618:10675   */\n      tag_323\n        /* \"#utility.yul\":10669:10673   */\n      0x60\n        /* \"#utility.yul\":10664:10667   */\n      dup7\n        /* \"#utility.yul\":10660:10674   */\n      add\n        /* \"#utility.yul\":10646:10658   */\n      dup3\n        /* \"#utility.yul\":10618:10675   */\n      tag_185\n      jump\t// in\n    tag_323:\n        /* \"#utility.yul\":10525:10685   */\n      pop\n        /* \"#utility.yul\":10772:10776   */\n      0x80\n        /* \"#utility.yul\":10765:10770   */\n      dup4\n        /* \"#utility.yul\":10761:10777   */\n      add\n        /* \"#utility.yul\":10755:10778   */\n      mload\n        /* \"#utility.yul\":10791:10848   */\n      tag_324\n        /* \"#utility.yul\":10842:10846   */\n      0x80\n        /* \"#utility.yul\":10837:10840   */\n      dup7\n        /* \"#utility.yul\":10833:10847   */\n      add\n        /* \"#utility.yul\":10819:10831   */\n      dup3\n        /* \"#utility.yul\":10791:10848   */\n      tag_185\n      jump\t// in\n    tag_324:\n        /* \"#utility.yul\":10695:10858   */\n      pop\n        /* \"#utility.yul\":10875:10879   */\n      dup1\n        /* \"#utility.yul\":10868:10879   */\n      swap2\n      pop\n        /* \"#utility.yul\":9813:10885   */\n      pop\n        /* \"#utility.yul\":9705:10885   */\n      swap3\n      swap2\n      pop\n      pop\n      jump\t// out\n        /* \"#utility.yul\":10891:11135   */\n    tag_187:\n        /* \"#utility.yul\":11004:11014   */\n      0x00\n        /* \"#utility.yul\":11039:11129   */\n      tag_326\n        /* \"#utility.yul\":11125:11128   */\n      dup4\n        /* \"#utility.yul\":11117:11123   */\n      dup4\n        /* \"#utility.yul\":11039:11129   */\n      tag_186\n      jump\t// in\n    tag_326:\n        /* \"#utility.yul\":11025:11129   */\n      swap1\n      pop\n        /* \"#utility.yul\":10891:11135   */\n      swap3\n      swap2\n      pop\n      pop\n      jump\t// out\n        /* \"#utility.yul\":11141:11276   */\n    tag_188:\n        /* \"#utility.yul\":11233:11237   */\n      0x00\n        /* \"#utility.yul\":11265:11269   */\n      0x20\n        /* \"#utility.yul\":11260:11263   */\n      dup3\n        /* \"#utility.yul\":11256:11270   */\n      add\n        /* \"#utility.yul\":11248:11270   */\n      swap1\n      pop\n        /* \"#utility.yul\":11141:11276   */\n      swap2\n      swap1\n      pop\n      jump\t// out\n        /* \"#utility.yul\":11356:12443   */\n    tag_189:\n        /* \"#utility.yul\":11519:11522   */\n      0x00\n        /* \"#utility.yul\":11548:11624   */\n      tag_329\n        /* \"#utility.yul\":11618:11623   */\n      dup3\n        /* \"#utility.yul\":11548:11624   */\n      tag_179\n      jump\t// in\n    tag_329:\n        /* \"#utility.yul\":11640:11748   */\n      tag_330\n        /* \"#utility.yul\":11741:11747   */\n      dup2\n        /* \"#utility.yul\":11736:11739   */\n      dup6\n        /* \"#utility.yul\":11640:11748   */\n      tag_180\n      jump\t// in\n    tag_330:\n        /* \"#utility.yul\":11633:11748   */\n      swap4\n      pop\n        /* \"#utility.yul\":11774:11777   */\n      dup4\n        /* \"#utility.yul\":11819:11823   */\n      0x20\n        /* \"#utility.yul\":11811:11817   */\n      dup3\n        /* \"#utility.yul\":11807:11824   */\n      mul\n        /* \"#utility.yul\":11802:11805   */\n      dup6\n        /* \"#utility.yul\":11798:11825   */\n      add\n        /* \"#utility.yul\":11849:11927   */\n      tag_331\n        /* \"#utility.yul\":11921:11926   */\n      dup6\n        /* \"#utility.yul\":11849:11927   */\n      tag_181\n      jump\t// in\n    tag_331:\n        /* \"#utility.yul\":11950:11957   */\n      dup1\n        /* \"#utility.yul\":11981:11982   */\n      0x00\n        /* \"#utility.yul\":11966:12398   */\n    tag_332:\n        /* \"#utility.yul\":11991:11997   */\n      dup6\n        /* \"#utility.yul\":11988:11989   */\n      dup2\n        /* \"#utility.yul\":11985:11998   */\n      lt\n        /* \"#utility.yul\":11966:12398   */\n      iszero\n      tag_334\n      jumpi\n        /* \"#utility.yul\":12062:12071   */\n      dup5\n        /* \"#utility.yul\":12056:12060   */\n      dup5\n        /* \"#utility.yul\":12052:12072   */\n      sub\n        /* \"#utility.yul\":12047:12050   */\n      dup10\n        /* \"#utility.yul\":12040:12073   */\n      mstore\n        /* \"#utility.yul\":12113:12119   */\n      dup2\n        /* \"#utility.yul\":12107:12120   */\n      mload\n        /* \"#utility.yul\":12141:12249   */\n      tag_335\n        /* \"#utility.yul\":12244:12248   */\n      dup6\n        /* \"#utility.yul\":12229:12242   */\n      dup3\n        /* \"#utility.yul\":12141:12249   */\n      tag_187\n      jump\t// in\n    tag_335:\n        /* \"#utility.yul\":12133:12249   */\n      swap5\n      pop\n        /* \"#utility.yul\":12272:12354   */\n      tag_336\n        /* \"#utility.yul\":12347:12353   */\n      dup4\n        /* \"#utility.yul\":12272:12354   */\n      tag_188\n      jump\t// in\n    tag_336:\n        /* \"#utility.yul\":12262:12354   */\n      swap3\n      pop\n        /* \"#utility.yul\":12383:12387   */\n      0x20\n        /* \"#utility.yul\":12378:12381   */\n      dup11\n        /* \"#utility.yul\":12374:12388   */\n      add\n        /* \"#utility.yul\":12367:12388   */\n      swap10\n      pop\n        /* \"#utility.yul\":12026:12398   */\n      pop\n        /* \"#utility.yul\":12013:12014   */\n      0x01\n        /* \"#utility.yul\":12010:12011   */\n      dup2\n        /* \"#utility.yul\":12006:12015   */\n      add\n        /* \"#utility.yul\":12001:12015   */\n      swap1\n      pop\n        /* \"#utility.yul\":11966:12398   */\n      jump(tag_332)\n    tag_334:\n        /* \"#utility.yul\":11970:11984   */\n      pop\n        /* \"#utility.yul\":12414:12418   */\n      dup3\n        /* \"#utility.yul\":12407:12418   */\n      swap8\n      pop\n        /* \"#utility.yul\":12434:12437   */\n      dup8\n        /* \"#utility.yul\":12427:12437   */\n      swap6\n      pop\n        /* \"#utility.yul\":11524:12443   */\n      pop\n      pop\n      pop\n      pop\n      pop\n        /* \"#utility.yul\":11356:12443   */\n      swap3\n      swap2\n      pop\n      pop\n      jump\t// out\n        /* \"#utility.yul\":12449:12910   */\n    tag_46:\n        /* \"#utility.yul\":12636:12640   */\n      0x00\n        /* \"#utility.yul\":12674:12676   */\n      0x20\n        /* \"#utility.yul\":12663:12672   */\n      dup3\n        /* \"#utility.yul\":12659:12677   */\n      add\n        /* \"#utility.yul\":12651:12677   */\n      swap1\n      pop\n        /* \"#utility.yul\":12723:12732   */\n      dup2\n        /* \"#utility.yul\":12717:12721   */\n      dup2\n        /* \"#utility.yul\":12713:12733   */\n      sub\n        /* \"#utility.yul\":12709:12710   */\n      0x00\n        /* \"#utility.yul\":12698:12707   */\n      dup4\n        /* \"#utility.yul\":12694:12711   */\n      add\n        /* \"#utility.yul\":12687:12734   */\n      mstore\n        /* \"#utility.yul\":12751:12903   */\n      tag_338\n        /* \"#utility.yul\":12898:12902   */\n      dup2\n        /* \"#utility.yul\":12889:12895   */\n      dup5\n        /* \"#utility.yul\":12751:12903   */\n      tag_189\n      jump\t// in\n    tag_338:\n        /* \"#utility.yul\":12743:12903   */\n      swap1\n      pop\n        /* \"#utility.yul\":12449:12910   */\n      swap3\n      swap2\n      pop\n      pop\n      jump\t// out\n        /* \"#utility.yul\":12916:14367   */\n    tag_56:\n        /* \"#utility.yul\":13041:13047   */\n      0x00\n        /* \"#utility.yul\":13049:13055   */\n      dup1\n        /* \"#utility.yul\":13057:13063   */\n      0x00\n        /* \"#utility.yul\":13065:13071   */\n      dup1\n        /* \"#utility.yul\":13073:13079   */\n      0x00\n        /* \"#utility.yul\":13122:13125   */\n      0xa0\n        /* \"#utility.yul\":13110:13119   */\n      dup7\n        /* \"#utility.yul\":13101:13108   */\n      dup9\n        /* \"#utility.yul\":13097:13120   */\n      sub\n        /* \"#utility.yul\":13093:13126   */\n      slt\n        /* \"#utility.yul\":13090:13210   */\n      iszero\n      tag_340\n      jumpi\n        /* \"#utility.yul\":13129:13208   */\n      tag_341\n      tag_152\n      jump\t// in\n    tag_341:\n        /* \"#utility.yul\":13090:13210   */\n    tag_340:\n        /* \"#utility.yul\":13277:13278   */\n      0x00\n        /* \"#utility.yul\":13266:13275   */\n      dup7\n        /* \"#utility.yul\":13262:13279   */\n      add\n        /* \"#utility.yul\":13249:13280   */\n      calldataload\n        /* \"#utility.yul\":13307:13325   */\n      0xffffffffffffffff\n        /* \"#utility.yul\":13299:13305   */\n      dup2\n        /* \"#utility.yul\":13296:13326   */\n      gt\n        /* \"#utility.yul\":13293:13410   */\n      iszero\n      tag_342\n      jumpi\n        /* \"#utility.yul\":13329:13408   */\n      tag_343\n      tag_153\n      jump\t// in\n    tag_343:\n        /* \"#utility.yul\":13293:13410   */\n    tag_342:\n        /* \"#utility.yul\":13434:13497   */\n      tag_344\n        /* \"#utility.yul\":13489:13496   */\n      dup9\n        /* \"#utility.yul\":13480:13486   */\n      dup3\n        /* \"#utility.yul\":13469:13478   */\n      dup10\n        /* \"#utility.yul\":13465:13487   */\n      add\n        /* \"#utility.yul\":13434:13497   */\n      tag_163\n      jump\t// in\n    tag_344:\n        /* \"#utility.yul\":13424:13497   */\n      swap6\n      pop\n        /* \"#utility.yul\":13220:13507   */\n      pop\n        /* \"#utility.yul\":13546:13548   */\n      0x20\n        /* \"#utility.yul\":13572:13625   */\n      tag_345\n        /* \"#utility.yul\":13617:13624   */\n      dup9\n        /* \"#utility.yul\":13608:13614   */\n      dup3\n        /* \"#utility.yul\":13597:13606   */\n      dup10\n        /* \"#utility.yul\":13593:13615   */\n      add\n        /* \"#utility.yul\":13572:13625   */\n      tag_178\n      jump\t// in\n    tag_345:\n        /* \"#utility.yul\":13562:13625   */\n      swap5\n      pop\n        /* \"#utility.yul\":13517:13635   */\n      pop\n        /* \"#utility.yul\":13674:13676   */\n      0x40\n        /* \"#utility.yul\":13700:13753   */\n      tag_346\n        /* \"#utility.yul\":13745:13752   */\n      dup9\n        /* \"#utility.yul\":13736:13742   */\n      dup3\n        /* \"#utility.yul\":13725:13734   */\n      dup10\n        /* \"#utility.yul\":13721:13743   */\n      add\n        /* \"#utility.yul\":13700:13753   */\n      tag_178\n      jump\t// in\n    tag_346:\n        /* \"#utility.yul\":13690:13753   */\n      swap4\n      pop\n        /* \"#utility.yul\":13645:13763   */\n      pop\n        /* \"#utility.yul\":13830:13832   */\n      0x60\n        /* \"#utility.yul\":13819:13828   */\n      dup7\n        /* \"#utility.yul\":13815:13833   */\n      add\n        /* \"#utility.yul\":13802:13834   */\n      calldataload\n        /* \"#utility.yul\":13861:13879   */\n      0xffffffffffffffff\n        /* \"#utility.yul\":13853:13859   */\n      dup2\n        /* \"#utility.yul\":13850:13880   */\n      gt\n        /* \"#utility.yul\":13847:13964   */\n      iszero\n      tag_347\n      jumpi\n        /* \"#utility.yul\":13883:13962   */\n      tag_348\n      tag_153\n      jump\t// in\n    tag_348:\n        /* \"#utility.yul\":13847:13964   */\n    tag_347:\n        /* \"#utility.yul\":13988:14051   */\n      tag_349\n        /* \"#utility.yul\":14043:14050   */\n      dup9\n        /* \"#utility.yul\":14034:14040   */\n      dup3\n        /* \"#utility.yul\":14023:14032   */\n      dup10\n        /* \"#utility.yul\":14019:14041   */\n      add\n        /* \"#utility.yul\":13988:14051   */\n      tag_163\n      jump\t// in\n    tag_349:\n        /* \"#utility.yul\":13978:14051   */\n      swap3\n      pop\n        /* \"#utility.yul\":13773:14061   */\n      pop\n        /* \"#utility.yul\":14128:14131   */\n      0x80\n        /* \"#utility.yul\":14117:14126   */\n      dup7\n        /* \"#utility.yul\":14113:14132   */\n      add\n        /* \"#utility.yul\":14100:14133   */\n      calldataload\n        /* \"#utility.yul\":14160:14178   */\n      0xffffffffffffffff\n        /* \"#utility.yul\":14152:14158   */\n      dup2\n        /* \"#utility.yul\":14149:14179   */\n      gt\n        /* \"#utility.yul\":14146:14263   */\n      iszero\n      tag_350\n      jumpi\n        /* \"#utility.yul\":14182:14261   */\n      tag_351\n      tag_153\n      jump\t// in\n    tag_351:\n        /* \"#utility.yul\":14146:14263   */\n    tag_350:\n        /* \"#utility.yul\":14287:14350   */\n      tag_352\n        /* \"#utility.yul\":14342:14349   */\n      dup9\n        /* \"#utility.yul\":14333:14339   */\n      dup3\n        /* \"#utility.yul\":14322:14331   */\n      dup10\n        /* \"#utility.yul\":14318:14340   */\n      add\n        /* \"#utility.yul\":14287:14350   */\n      tag_163\n      jump\t// in\n    tag_352:\n        /* \"#utility.yul\":14277:14350   */\n      swap2\n      pop\n        /* \"#utility.yul\":14071:14360   */\n      pop\n        /* \"#utility.yul\":12916:14367   */\n      swap3\n      swap6\n      pop\n      swap3\n      swap6\n      swap1\n      swap4\n      pop\n      jump\t// out\n        /* \"#utility.yul\":14373:14702   */\n    tag_60:\n        /* \"#utility.yul\":14432:14438   */\n      0x00\n        /* \"#utility.yul\":14481:14483   */\n      0x20\n        /* \"#utility.yul\":14469:14478   */\n      dup3\n        /* \"#utility.yul\":14460:14467   */\n      dup5\n        /* \"#utility.yul\":14456:14479   */\n      sub\n        /* \"#utility.yul\":14452:14484   */\n      slt\n        /* \"#utility.yul\":14449:14568   */\n      iszero\n      tag_354\n      jumpi\n        /* \"#utility.yul\":14487:14566   */\n      tag_355\n      tag_152\n      jump\t// in\n    tag_355:\n        /* \"#utility.yul\":14449:14568   */\n    tag_354:\n        /* \"#utility.yul\":14607:14608   */\n      0x00\n        /* \"#utility.yul\":14632:14685   */\n      tag_356\n        /* \"#utility.yul\":14677:14684   */\n      dup5\n        /* \"#utility.yul\":14668:14674   */\n      dup3\n        /* \"#utility.yul\":14657:14666   */\n      dup6\n        /* \"#utility.yul\":14653:14675   */\n      add\n        /* \"#utility.yul\":14632:14685   */\n      tag_178\n      jump\t// in\n    tag_356:\n        /* \"#utility.yul\":14622:14685   */\n      swap2\n      pop\n        /* \"#utility.yul\":14578:14695   */\n      pop\n        /* \"#utility.yul\":14373:14702   */\n      swap3\n      swap2\n      pop\n      pop\n      jump\t// out\n        /* \"#utility.yul\":14708:15530   */\n    tag_63:\n        /* \"#utility.yul\":14941:14945   */\n      0x00\n        /* \"#utility.yul\":14979:14982   */\n      0xa0\n        /* \"#utility.yul\":14968:14977   */\n      dup3\n        /* \"#utility.yul\":14964:14983   */\n      add\n        /* \"#utility.yul\":14956:14983   */\n      swap1\n      pop\n        /* \"#utility.yul\":14993:15064   */\n      tag_358\n        /* \"#utility.yul\":15061:15062   */\n      0x00\n        /* \"#utility.yul\":15050:15059   */\n      dup4\n        /* \"#utility.yul\":15046:15063   */\n      add\n        /* \"#utility.yul\":15037:15043   */\n      dup9\n        /* \"#utility.yul\":14993:15064   */\n      tag_176\n      jump\t// in\n    tag_358:\n        /* \"#utility.yul\":15111:15120   */\n      dup2\n        /* \"#utility.yul\":15105:15109   */\n      dup2\n        /* \"#utility.yul\":15101:15121   */\n      sub\n        /* \"#utility.yul\":15096:15098   */\n      0x20\n        /* \"#utility.yul\":15085:15094   */\n      dup4\n        /* \"#utility.yul\":15081:15099   */\n      add\n        /* \"#utility.yul\":15074:15122   */\n      mstore\n        /* \"#utility.yul\":15139:15217   */\n      tag_359\n        /* \"#utility.yul\":15212:15216   */\n      dup2\n        /* \"#utility.yul\":15203:15209   */\n      dup8\n        /* \"#utility.yul\":15139:15217   */\n      tag_167\n      jump\t// in\n    tag_359:\n        /* \"#utility.yul\":15131:15217   */\n      swap1\n      pop\n        /* \"#utility.yul\":15264:15273   */\n      dup2\n        /* \"#utility.yul\":15258:15262   */\n      dup2\n        /* \"#utility.yul\":15254:15274   */\n      sub\n        /* \"#utility.yul\":15249:15251   */\n      0x40\n        /* \"#utility.yul\":15238:15247   */\n      dup4\n        /* \"#utility.yul\":15234:15252   */\n      add\n        /* \"#utility.yul\":15227:15275   */\n      mstore\n        /* \"#utility.yul\":15292:15370   */\n      tag_360\n        /* \"#utility.yul\":15365:15369   */\n      dup2\n        /* \"#utility.yul\":15356:15362   */\n      dup7\n        /* \"#utility.yul\":15292:15370   */\n      tag_167\n      jump\t// in\n    tag_360:\n        /* \"#utility.yul\":15284:15370   */\n      swap1\n      pop\n        /* \"#utility.yul\":15380:15446   */\n      tag_361\n        /* \"#utility.yul\":15442:15444   */\n      0x60\n        /* \"#utility.yul\":15431:15440   */\n      dup4\n        /* \"#utility.yul\":15427:15445   */\n      add\n        /* \"#utility.yul\":15418:15424   */\n      dup6\n        /* \"#utility.yul\":15380:15446   */\n      tag_172\n      jump\t// in\n    tag_361:\n        /* \"#utility.yul\":15456:15523   */\n      tag_362\n        /* \"#utility.yul\":15518:15521   */\n      0x80\n        /* \"#utility.yul\":15507:15516   */\n      dup4\n        /* \"#utility.yul\":15503:15522   */\n      add\n        /* \"#utility.yul\":15494:15500   */\n      dup5\n        /* \"#utility.yul\":15456:15523   */\n      tag_172\n      jump\t// in\n    tag_362:\n        /* \"#utility.yul\":14708:15530   */\n      swap7\n      swap6\n      pop\n      pop\n      pop\n      pop\n      pop\n      pop\n      jump\t// out\n        /* \"#utility.yul\":15536:15716   */\n    tag_190:\n        /* \"#utility.yul\":15584:15661   */\n      0x4e487b7100000000000000000000000000000000000000000000000000000000\n        /* \"#utility.yul\":15581:15582   */\n      0x00\n        /* \"#utility.yul\":15574:15662   */\n      mstore\n        /* \"#utility.yul\":15681:15685   */\n      0x22\n        /* \"#utility.yul\":15678:15679   */\n      0x04\n        /* \"#utility.yul\":15671:15686   */\n      mstore\n        /* \"#utility.yul\":15705:15709   */\n      0x24\n        /* \"#utility.yul\":15702:15703   */\n      0x00\n        /* \"#utility.yul\":15695:15710   */\n      revert\n        /* \"#utility.yul\":15722:16042   */\n    tag_65:\n        /* \"#utility.yul\":15766:15772   */\n      0x00\n        /* \"#utility.yul\":15803:15804   */\n      0x02\n        /* \"#utility.yul\":15797:15801   */\n      dup3\n        /* \"#utility.yul\":15793:15805   */\n      div\n        /* \"#utility.yul\":15783:15805   */\n      swap1\n      pop\n        /* \"#utility.yul\":15850:15851   */\n      0x01\n        /* \"#utility.yul\":15844:15848   */\n      dup3\n        /* \"#utility.yul\":15840:15852   */\n      and\n        /* \"#utility.yul\":15871:15889   */\n      dup1\n        /* \"#utility.yul\":15861:15942   */\n      tag_365\n      jumpi\n        /* \"#utility.yul\":15927:15931   */\n      0x7f\n        /* \"#utility.yul\":15919:15925   */\n      dup3\n        /* \"#utility.yul\":15915:15932   */\n      and\n        /* \"#utility.yul\":15905:15932   */\n      swap2\n      pop\n        /* \"#utility.yul\":15861:15942   */\n    tag_365:\n        /* \"#utility.yul\":15989:15991   */\n      0x20\n        /* \"#utility.yul\":15981:15987   */\n      dup3\n        /* \"#utility.yul\":15978:15992   */\n      lt\n        /* \"#utility.yul\":15958:15976   */\n      dup2\n        /* \"#utility.yul\":15955:15993   */\n      sub\n        /* \"#utility.yul\":15952:16036   */\n      tag_366\n      jumpi\n        /* \"#utility.yul\":16008:16026   */\n      tag_367\n      tag_190\n      jump\t// in\n    tag_367:\n        /* \"#utility.yul\":15952:16036   */\n    tag_366:\n        /* \"#utility.yul\":15773:16042   */\n      pop\n        /* \"#utility.yul\":15722:16042   */\n      swap2\n      swap1\n      pop\n      jump\t// out\n        /* \"#utility.yul\":16048:16220   */\n    tag_191:\n        /* \"#utility.yul\":16188:16212   */\n      0x43414e204f4e4c59205245474953544552204f4e434500000000000000000000\n        /* \"#utility.yul\":16184:16185   */\n      0x00\n        /* \"#utility.yul\":16176:16182   */\n      dup3\n        /* \"#utility.yul\":16172:16186   */\n      add\n        /* \"#utility.yul\":16165:16213   */\n      mstore\n        /* \"#utility.yul\":16048:16220   */\n      pop\n      jump\t// out\n        /* \"#utility.yul\":16226:16592   */\n    tag_192:\n        /* \"#utility.yul\":16368:16371   */\n      0x00\n        /* \"#utility.yul\":16389:16456   */\n      tag_370\n        /* \"#utility.yul\":16453:16455   */\n      0x16\n        /* \"#utility.yul\":16448:16451   */\n      dup4\n        /* \"#utility.yul\":16389:16456   */\n      tag_165\n      jump\t// in\n    tag_370:\n        /* \"#utility.yul\":16382:16456   */\n      swap2\n      pop\n        /* \"#utility.yul\":16465:16558   */\n      tag_371\n        /* \"#utility.yul\":16554:16557   */\n      dup3\n        /* \"#utility.yul\":16465:16558   */\n      tag_191\n      jump\t// in\n    tag_371:\n        /* \"#utility.yul\":16583:16585   */\n      0x20\n        /* \"#utility.yul\":16578:16581   */\n      dup3\n        /* \"#utility.yul\":16574:16586   */\n      add\n        /* \"#utility.yul\":16567:16586   */\n      swap1\n      pop\n        /* \"#utility.yul\":16226:16592   */\n      swap2\n      swap1\n      pop\n      jump\t// out\n        /* \"#utility.yul\":16598:17017   */\n    tag_73:\n        /* \"#utility.yul\":16764:16768   */\n      0x00\n        /* \"#utility.yul\":16802:16804   */\n      0x20\n        /* \"#utility.yul\":16791:16800   */\n      dup3\n        /* \"#utility.yul\":16787:16805   */\n      add\n        /* \"#utility.yul\":16779:16805   */\n      swap1\n      pop\n        /* \"#utility.yul\":16851:16860   */\n      dup2\n        /* \"#utility.yul\":16845:16849   */\n      dup2\n        /* \"#utility.yul\":16841:16861   */\n      sub\n        /* \"#utility.yul\":16837:16838   */\n      0x00\n        /* \"#utility.yul\":16826:16835   */\n      dup4\n        /* \"#utility.yul\":16822:16839   */\n      add\n        /* \"#utility.yul\":16815:16862   */\n      mstore\n        /* \"#utility.yul\":16879:17010   */\n      tag_373\n        /* \"#utility.yul\":17005:17009   */\n      dup2\n        /* \"#utility.yul\":16879:17010   */\n      tag_192\n      jump\t// in\n    tag_373:\n        /* \"#utility.yul\":16871:17010   */\n      swap1\n      pop\n        /* \"#utility.yul\":16598:17017   */\n      swap2\n      swap1\n      pop\n      jump\t// out\n        /* \"#utility.yul\":17023:17164   */\n    tag_193:\n        /* \"#utility.yul\":17072:17076   */\n      0x00\n        /* \"#utility.yul\":17095:17098   */\n      dup2\n        /* \"#utility.yul\":17087:17098   */\n      swap1\n      pop\n        /* \"#utility.yul\":17118:17121   */\n      dup2\n        /* \"#utility.yul\":17115:17116   */\n      0x00\n        /* \"#utility.yul\":17108:17122   */\n      mstore\n        /* \"#utility.yul\":17152:17156   */\n      0x20\n        /* \"#utility.yul\":17149:17150   */\n      0x00\n        /* \"#utility.yul\":17139:17157   */\n      keccak256\n        /* \"#utility.yul\":17131:17157   */\n      swap1\n      pop\n        /* \"#utility.yul\":17023:17164   */\n      swap2\n      swap1\n      pop\n      jump\t// out\n        /* \"#utility.yul\":17170:17263   */\n    tag_194:\n        /* \"#utility.yul\":17207:17213   */\n      0x00\n        /* \"#utility.yul\":17254:17256   */\n      0x20\n        /* \"#utility.yul\":17249:17251   */\n      0x1f\n        /* \"#utility.yul\":17242:17247   */\n      dup4\n        /* \"#utility.yul\":17238:17252   */\n      add\n        /* \"#utility.yul\":17234:17257   */\n      div\n        /* \"#utility.yul\":17224:17257   */\n      swap1\n      pop\n        /* \"#utility.yul\":17170:17263   */\n      swap2\n      swap1\n      pop\n      jump\t// out\n        /* \"#utility.yul\":17269:17376   */\n    tag_195:\n        /* \"#utility.yul\":17313:17321   */\n      0x00\n        /* \"#utility.yul\":17363:17368   */\n      dup3\n        /* \"#utility.yul\":17357:17361   */\n      dup3\n        /* \"#utility.yul\":17353:17369   */\n      shl\n        /* \"#utility.yul\":17332:17369   */\n      swap1\n      pop\n        /* \"#utility.yul\":17269:17376   */\n      swap3\n      swap2\n      pop\n      pop\n      jump\t// out\n        /* \"#utility.yul\":17382:17775   */\n    tag_196:\n        /* \"#utility.yul\":17451:17457   */\n      0x00\n        /* \"#utility.yul\":17501:17502   */\n      0x08\n        /* \"#utility.yul\":17489:17499   */\n      dup4\n        /* \"#utility.yul\":17485:17503   */\n      mul\n        /* \"#utility.yul\":17524:17621   */\n      tag_378\n        /* \"#utility.yul\":17554:17620   */\n      0xffffffffffffffffffffffffffffffffffffffffffffffffffffffffffffffff\n        /* \"#utility.yul\":17543:17552   */\n      dup3\n        /* \"#utility.yul\":17524:17621   */\n      tag_195\n      jump\t// in\n    tag_378:\n        /* \"#utility.yul\":17642:17681   */\n      tag_379\n        /* \"#utility.yul\":17672:17680   */\n      dup7\n        /* \"#utility.yul\":17661:17670   */\n      dup4\n        /* \"#utility.yul\":17642:17681   */\n      tag_195\n      jump\t// in\n    tag_379:\n        /* \"#utility.yul\":17630:17681   */\n      swap6\n      pop\n        /* \"#utility.yul\":17714:17718   */\n      dup1\n        /* \"#utility.yul\":17710:17719   */\n      not\n        /* \"#utility.yul\":17703:17708   */\n      dup5\n        /* \"#utility.yul\":17699:17720   */\n      and\n        /* \"#utility.yul\":17690:17720   */\n      swap4\n      pop\n        /* \"#utility.yul\":17763:17767   */\n      dup1\n        /* \"#utility.yul\":17753:17761   */\n      dup7\n        /* \"#utility.yul\":17749:17768   */\n      and\n        /* \"#utility.yul\":17742:17747   */\n      dup5\n        /* \"#utility.yul\":17739:17769   */\n      or\n        /* \"#utility.yul\":17729:17769   */\n      swap3\n      pop\n        /* \"#utility.yul\":17458:17775   */\n      pop\n      pop\n        /* \"#utility.yul\":17382:17775   */\n      swap4\n      swap3\n      pop\n      pop\n      pop\n      jump\t// out\n        /* \"#utility.yul\":17781:17841   */\n    tag_197:\n        /* \"#utility.yul\":17809:17812   */\n      0x00\n        /* \"#utility.yul\":17830:17835   */\n      dup2\n        /* \"#utility.yul\":17823:17835   */\n      swap1\n      pop\n        /* \"#utility.yul\":17781:17841   */\n      swap2\n      swap1\n      pop\n      jump\t// out\n        /* \"#utility.yul\":17847:17989   */\n    tag_198:\n        /* \"#utility.yul\":17897:17906   */\n      0x00\n        /* \"#utility.yul\":17930:17983   */\n      tag_382\n        /* \"#utility.yul\":17948:17982   */\n      tag_383\n        /* \"#utility.yul\":17957:17981   */\n      tag_384\n        /* \"#utility.yul\":17975:17980   */\n      dup5\n        /* \"#utility.yul\":17957:17981   */\n      tag_173\n      jump\t// in\n    tag_384:\n        /* \"#utility.yul\":17948:17982   */\n      tag_197\n      jump\t// in\n    tag_383:\n        /* \"#utility.yul\":17930:17983   */\n      tag_173\n      jump\t// in\n    tag_382:\n        /* \"#utility.yul\":17917:17983   */\n      swap1\n      pop\n        /* \"#utility.yul\":17847:17989   */\n      swap2\n      swap1\n      pop\n      jump\t// out\n        /* \"#utility.yul\":17995:18070   */\n    tag_199:\n        /* \"#utility.yul\":18038:18041   */\n      0x00\n        /* \"#utility.yul\":18059:18064   */\n      dup2\n        /* \"#utility.yul\":18052:18064   */\n      swap1\n      pop\n        /* \"#utility.yul\":17995:18070   */\n      swap2\n      swap1\n      pop\n      jump\t// out\n        /* \"#utility.yul\":18076:18345   */\n    tag_200:\n        /* \"#utility.yul\":18186:18225   */\n      tag_387\n        /* \"#utility.yul\":18217:18224   */\n      dup4\n        /* \"#utility.yul\":18186:18225   */\n      tag_198\n      jump\t// in\n    tag_387:\n        /* \"#utility.yul\":18247:18338   */\n      tag_388\n        /* \"#utility.yul\":18296:18337   */\n      tag_389\n        /* \"#utility.yul\":18320:18336   */\n      dup3\n        /* \"#utility.yul\":18296:18337   */\n      tag_199\n      jump\t// in\n    tag_389:\n        /* \"#utility.yul\":18288:18294   */\n      dup5\n        /* \"#utility.yul\":18281:18285   */\n      dup5\n        /* \"#utility.yul\":18275:18286   */\n      sload\n        /* \"#utility.yul\":18247:18338   */\n      tag_196\n      jump\t// in\n    tag_388:\n        /* \"#utility.yul\":18241:18245   */\n      dup3\n        /* \"#utility.yul\":18234:18339   */\n      sstore\n        /* \"#utility.yul\":18152:18345   */\n      pop\n        /* \"#utility.yul\":18076:18345   */\n      pop\n      pop\n      pop\n      jump\t// out\n        /* \"#utility.yul\":18351:18424   */\n    tag_201:\n        /* \"#utility.yul\":18396:18399   */\n      0x00\n        /* \"#utility.yul\":18351:18424   */\n      swap1\n      jump\t// out\n        /* \"#utility.yul\":18430:18619   */\n    tag_202:\n        /* \"#utility.yul\":18507:18539   */\n      tag_392\n      tag_201\n      jump\t// in\n    tag_392:\n        /* \"#utility.yul\":18548:18613   */\n      tag_393\n        /* \"#utility.yul\":18606:18612   */\n      dup2\n        /* \"#utility.yul\":18598:18604   */\n      dup5\n        /* \"#utility.yul\":18592:18596   */\n      dup5\n        /* \"#utility.yul\":18548:18613   */\n      tag_200\n      jump\t// in\n    tag_393:\n        /* \"#utility.yul\":18483:18619   */\n      pop\n        /* \"#utility.yul\":18430:18619   */\n      pop\n      pop\n      jump\t// out\n        /* \"#utility.yul\":18625:18811   */\n    tag_203:\n        /* \"#utility.yul\":18685:18805   */\n    tag_395:\n        /* \"#utility.yul\":18702:18705   */\n      dup2\n        /* \"#utility.yul\":18695:18700   */\n      dup2\n        /* \"#utility.yul\":18692:18706   */\n      lt\n        /* \"#utility.yul\":18685:18805   */\n      iszero\n      tag_397\n      jumpi\n        /* \"#utility.yul\":18756:18795   */\n      tag_398\n        /* \"#utility.yul\":18793:18794   */\n      0x00\n        /* \"#utility.yul\":18786:18791   */\n      dup3\n        /* \"#utility.yul\":18756:18795   */\n      tag_202\n      jump\t// in\n    tag_398:\n        /* \"#utility.yul\":18729:18730   */\n      0x01\n        /* \"#utility.yul\":18722:18727   */\n      dup2\n        /* \"#utility.yul\":18718:18731   */\n      add\n        /* \"#utility.yul\":18709:18731   */\n      swap1\n      pop\n        /* \"#utility.yul\":18685:18805   */\n      jump(tag_395)\n    tag_397:\n        /* \"#utility.yul\":18625:18811   */\n      pop\n      pop\n      jump\t// out\n        /* \"#utility.yul\":18817:19360   */\n    tag_204:\n        /* \"#utility.yul\":18918:18920   */\n      0x1f\n        /* \"#utility.yul\":18913:18916   */\n      dup3\n        /* \"#utility.yul\":18910:18921   */\n      gt\n        /* \"#utility.yul\":18907:19353   */\n      iszero\n      tag_400\n      jumpi\n        /* \"#utility.yul\":18952:18990   */\n      tag_401\n        /* \"#utility.yul\":18984:18989   */\n      dup2\n        /* \"#utility.yul\":18952:18990   */\n      tag_193\n      jump\t// in\n    tag_401:\n        /* \"#utility.yul\":19036:19065   */\n      tag_402\n        /* \"#utility.yul\":19054:19064   */\n      dup5\n        /* \"#utility.yul\":19036:19065   */\n      tag_194\n      jump\t// in\n    tag_402:\n        /* \"#utility.yul\":19026:19034   */\n      dup2\n        /* \"#utility.yul\":19022:19066   */\n      add\n        /* \"#utility.yul\":19219:19221   */\n      0x20\n        /* \"#utility.yul\":19207:19217   */\n      dup6\n        /* \"#utility.yul\":19204:19222   */\n      lt\n        /* \"#utility.yul\":19201:19250   */\n      iszero\n      tag_403\n      jumpi\n        /* \"#utility.yul\":19240:19248   */\n      dup2\n        /* \"#utility.yul\":19225:19248   */\n      swap1\n      pop\n        /* \"#utility.yul\":19201:19250   */\n    tag_403:\n        /* \"#utility.yul\":19263:19343   */\n      tag_404\n        /* \"#utility.yul\":19319:19341   */\n      tag_405\n        /* \"#utility.yul\":19337:19340   */\n      dup6\n        /* \"#utility.yul\":19319:19341   */\n      tag_194\n      jump\t// in\n    tag_405:\n        /* \"#utility.yul\":19309:19317   */\n      dup4\n        /* \"#utility.yul\":19305:19342   */\n      add\n        /* \"#utility.yul\":19292:19303   */\n      dup3\n        /* \"#utility.yul\":19263:19343   */\n      tag_203\n      jump\t// in\n    tag_404:\n        /* \"#utility.yul\":18922:19353   */\n      pop\n      pop\n        /* \"#utility.yul\":18907:19353   */\n    tag_400:\n        /* \"#utility.yul\":18817:19360   */\n      pop\n      pop\n      pop\n      jump\t// out\n        /* \"#utility.yul\":19366:19483   */\n    tag_205:\n        /* \"#utility.yul\":19420:19428   */\n      0x00\n        /* \"#utility.yul\":19470:19475   */\n      dup3\n        /* \"#utility.yul\":19464:19468   */\n      dup3\n        /* \"#utility.yul\":19460:19476   */\n      shr\n        /* \"#utility.yul\":19439:19476   */\n      swap1\n      pop\n        /* \"#utility.yul\":19366:19483   */\n      swap3\n      swap2\n      pop\n      pop\n      jump\t// out\n        /* \"#utility.yul\":19489:19658   */\n    tag_206:\n        /* \"#utility.yul\":19533:19539   */\n      0x00\n        /* \"#utility.yul\":19566:19617   */\n      tag_408\n        /* \"#utility.yul\":19614:19615   */\n      0x00\n        /* \"#utility.yul\":19610:19616   */\n      not\n        /* \"#utility.yul\":19602:19607   */\n      dup5\n        /* \"#utility.yul\":19599:19600   */\n      0x08\n        /* \"#utility.yul\":19595:19608   */\n      mul\n        /* \"#utility.yul\":19566:19617   */\n      tag_205\n      jump\t// in\n    tag_408:\n        /* \"#utility.yul\":19562:19618   */\n      not\n        /* \"#utility.yul\":19647:19651   */\n      dup1\n        /* \"#utility.yul\":19641:19645   */\n      dup4\n        /* \"#utility.yul\":19637:19652   */\n      and\n        /* \"#utility.yul\":19627:19652   */\n      swap2\n      pop\n        /* \"#utility.yul\":19540:19658   */\n      pop\n        /* \"#utility.yul\":19489:19658   */\n      swap3\n      swap2\n      pop\n      pop\n      jump\t// out\n        /* \"#utility.yul\":19663:19958   */\n    tag_207:\n        /* \"#utility.yul\":19739:19743   */\n      0x00\n        /* \"#utility.yul\":19885:19914   */\n      tag_410\n        /* \"#utility.yul\":19910:19913   */\n      dup4\n        /* \"#utility.yul\":19904:19908   */\n      dup4\n        /* \"#utility.yul\":19885:19914   */\n      tag_206\n      jump\t// in\n    tag_410:\n        /* \"#utility.yul\":19877:19914   */\n      swap2\n      pop\n        /* \"#utility.yul\":19947:19950   */\n      dup3\n        /* \"#utility.yul\":19944:19945   */\n      0x02\n        /* \"#utility.yul\":19940:19951   */\n      mul\n        /* \"#utility.yul\":19934:19938   */\n      dup3\n        /* \"#utility.yul\":19931:19952   */\n      or\n        /* \"#utility.yul\":19923:19952   */\n      swap1\n      pop\n        /* \"#utility.yul\":19663:19958   */\n      swap3\n      swap2\n      pop\n      pop\n      jump\t// out\n        /* \"#utility.yul\":19963:21358   */\n    tag_75:\n        /* \"#utility.yul\":20080:20117   */\n      tag_412\n        /* \"#utility.yul\":20113:20116   */\n      dup3\n        /* \"#utility.yul\":20080:20117   */\n      tag_164\n      jump\t// in\n    tag_412:\n        /* \"#utility.yul\":20182:20200   */\n      0xffffffffffffffff\n        /* \"#utility.yul\":20174:20180   */\n      dup2\n        /* \"#utility.yul\":20171:20201   */\n      gt\n        /* \"#utility.yul\":20168:20224   */\n      iszero\n      tag_413\n      jumpi\n        /* \"#utility.yul\":20204:20222   */\n      tag_414\n      tag_157\n      jump\t// in\n    tag_414:\n        /* \"#utility.yul\":20168:20224   */\n    tag_413:\n        /* \"#utility.yul\":20248:20286   */\n      tag_415\n        /* \"#utility.yul\":20280:20284   */\n      dup3\n        /* \"#utility.yul\":20274:20285   */\n      sload\n        /* \"#utility.yul\":20248:20286   */\n      tag_65\n      jump\t// in\n    tag_415:\n        /* \"#utility.yul\":20333:20400   */\n      tag_416\n        /* \"#utility.yul\":20393:20399   */\n      dup3\n        /* \"#utility.yul\":20385:20391   */\n      dup3\n        /* \"#utility.yul\":20379:20383   */\n      dup6\n        /* \"#utility.yul\":20333:20400   */\n      tag_204\n      jump\t// in\n    tag_416:\n        /* \"#utility.yul\":20427:20428   */\n      0x00\n        /* \"#utility.yul\":20451:20455   */\n      0x20\n        /* \"#utility.yul\":20438:20455   */\n      swap1\n      pop\n        /* \"#utility.yul\":20483:20485   */\n      0x1f\n        /* \"#utility.yul\":20475:20481   */\n      dup4\n        /* \"#utility.yul\":20472:20486   */\n      gt\n        /* \"#utility.yul\":20500:20501   */\n      0x01\n        /* \"#utility.yul\":20495:21113   */\n      dup2\n      eq\n      tag_418\n      jumpi\n        /* \"#utility.yul\":21157:21158   */\n      0x00\n        /* \"#utility.yul\":21174:21180   */\n      dup5\n        /* \"#utility.yul\":21171:21248   */\n      iszero\n      tag_419\n      jumpi\n        /* \"#utility.yul\":21223:21232   */\n      dup3\n        /* \"#utility.yul\":21218:21221   */\n      dup8\n        /* \"#utility.yul\":21214:21233   */\n      add\n        /* \"#utility.yul\":21208:21234   */\n      mload\n        /* \"#utility.yul\":21199:21234   */\n      swap1\n      pop\n        /* \"#utility.yul\":21171:21248   */\n    tag_419:\n        /* \"#utility.yul\":21274:21341   */\n      tag_420\n        /* \"#utility.yul\":21334:21340   */\n      dup6\n        /* \"#utility.yul\":21327:21332   */\n      dup3\n        /* \"#utility.yul\":21274:21341   */\n      tag_207\n      jump\t// in\n    tag_420:\n        /* \"#utility.yul\":21268:21272   */\n      dup7\n        /* \"#utility.yul\":21261:21342   */\n      sstore\n        /* \"#utility.yul\":21130:21352   */\n      pop\n        /* \"#utility.yul\":20465:21352   */\n      jump(tag_417)\n        /* \"#utility.yul\":20495:21113   */\n    tag_418:\n        /* \"#utility.yul\":20547:20551   */\n      0x1f\n        /* \"#utility.yul\":20543:20552   */\n      not\n        /* \"#utility.yul\":20535:20541   */\n      dup5\n        /* \"#utility.yul\":20531:20553   */\n      and\n        /* \"#utility.yul\":20581:20618   */\n      tag_421\n        /* \"#utility.yul\":20613:20617   */\n      dup7\n        /* \"#utility.yul\":20581:20618   */\n      tag_193\n      jump\t// in\n    tag_421:\n        /* \"#utility.yul\":20640:20641   */\n      0x00\n        /* \"#utility.yul\":20654:20862   */\n    tag_422:\n        /* \"#utility.yul\":20668:20675   */\n      dup3\n        /* \"#utility.yul\":20665:20666   */\n      dup2\n        /* \"#utility.yul\":20662:20676   */\n      lt\n        /* \"#utility.yul\":20654:20862   */\n      iszero\n      tag_424\n      jumpi\n        /* \"#utility.yul\":20747:20756   */\n      dup5\n        /* \"#utility.yul\":20742:20745   */\n      dup10\n        /* \"#utility.yul\":20738:20757   */\n      add\n        /* \"#utility.yul\":20732:20758   */\n      mload\n        /* \"#utility.yul\":20724:20730   */\n      dup3\n        /* \"#utility.yul\":20717:20759   */\n      sstore\n        /* \"#utility.yul\":20798:20799   */\n      0x01\n        /* \"#utility.yul\":20790:20796   */\n      dup3\n        /* \"#utility.yul\":20786:20800   */\n      add\n        /* \"#utility.yul\":20776:20800   */\n      swap2\n      pop\n        /* \"#utility.yul\":20845:20847   */\n      0x20\n        /* \"#utility.yul\":20834:20843   */\n      dup6\n        /* \"#utility.yul\":20830:20848   */\n      add\n        /* \"#utility.yul\":20817:20848   */\n      swap5\n      pop\n        /* \"#utility.yul\":20691:20695   */\n      0x20\n        /* \"#utility.yul\":20688:20689   */\n      dup2\n        /* \"#utility.yul\":20684:20696   */\n      add\n        /* \"#utility.yul\":20679:20696   */\n      swap1\n      pop\n        /* \"#utility.yul\":20654:20862   */\n      jump(tag_422)\n    tag_424:\n        /* \"#utility.yul\":20890:20896   */\n      dup7\n        /* \"#utility.yul\":20881:20888   */\n      dup4\n        /* \"#utility.yul\":20878:20897   */\n      lt\n        /* \"#utility.yul\":20875:21054   */\n      iszero\n      tag_425\n      jumpi\n        /* \"#utility.yul\":20948:20957   */\n      dup5\n        /* \"#utility.yul\":20943:20946   */\n      dup10\n        /* \"#utility.yul\":20939:20958   */\n      add\n        /* \"#utility.yul\":20933:20959   */\n      mload\n        /* \"#utility.yul\":20991:21039   */\n      tag_426\n        /* \"#utility.yul\":21033:21037   */\n      0x1f\n        /* \"#utility.yul\":21025:21031   */\n      dup10\n        /* \"#utility.yul\":21021:21038   */\n      and\n        /* \"#utility.yul\":21010:21019   */\n      dup3\n        /* \"#utility.yul\":20991:21039   */\n      tag_206\n      jump\t// in\n    tag_426:\n        /* \"#utility.yul\":20983:20989   */\n      dup4\n        /* \"#utility.yul\":20976:21040   */\n      sstore\n        /* \"#utility.yul\":20898:21054   */\n      pop\n        /* \"#utility.yul\":20875:21054   */\n    tag_425:\n        /* \"#utility.yul\":21100:21101   */\n      0x01\n        /* \"#utility.yul\":21096:21097   */\n      0x02\n        /* \"#utility.yul\":21088:21094   */\n      dup9\n        /* \"#utility.yul\":21084:21098   */\n      mul\n        /* \"#utility.yul\":21080:21102   */\n      add\n        /* \"#utility.yul\":21074:21078   */\n      dup9\n        /* \"#utility.yul\":21067:21103   */\n      sstore\n        /* \"#utility.yul\":20502:21113   */\n      pop\n      pop\n      pop\n        /* \"#utility.yul\":20465:21352   */\n    tag_417:\n      pop\n        /* \"#utility.yul\":20055:21358   */\n      pop\n      pop\n      pop\n        /* \"#utility.yul\":19963:21358   */\n      pop\n      pop\n      jump\t// out\n        /* \"#utility.yul\":21364:21513   */\n    tag_208:\n        /* \"#utility.yul\":21413:21419   */\n      0x00\n        /* \"#utility.yul\":21447:21452   */\n      dup2\n        /* \"#utility.yul\":21441:21453   */\n      sload\n        /* \"#utility.yul\":21431:21453   */\n      swap1\n      pop\n        /* \"#utility.yul\":21473:21506   */\n      tag_428\n        /* \"#utility.yul\":21499:21505   */\n      dup2\n        /* \"#utility.yul\":21473:21506   */\n      tag_65\n      jump\t// in\n    tag_428:\n        /* \"#utility.yul\":21463:21506   */\n      swap1\n      pop\n        /* \"#utility.yul\":21364:21513   */\n      swap2\n      swap1\n      pop\n      jump\t// out\n        /* \"#utility.yul\":21519:22970   */\n    tag_79:\n        /* \"#utility.yul\":21630:21633   */\n      dup2\n        /* \"#utility.yul\":21624:21628   */\n      dup2\n        /* \"#utility.yul\":21621:21634   */\n      sub\n        /* \"#utility.yul\":21618:21644   */\n      tag_430\n      jumpi\n        /* \"#utility.yul\":21637:21642   */\n      pop\n      pop\n      jump(tag_429)\n        /* \"#utility.yul\":21618:21644   */\n    tag_430:\n        /* \"#utility.yul\":21668:21702   */\n      tag_431\n        /* \"#utility.yul\":21698:21701   */\n      dup3\n        /* \"#utility.yul\":21668:21702   */\n      tag_208\n      jump\t// in\n    tag_431:\n        /* \"#utility.yul\":21767:21785   */\n      0xffffffffffffffff\n        /* \"#utility.yul\":21759:21765   */\n      dup2\n        /* \"#utility.yul\":21756:21786   */\n      gt\n        /* \"#utility.yul\":21753:21809   */\n      iszero\n      tag_432\n      jumpi\n        /* \"#utility.yul\":21789:21807   */\n      tag_433\n      tag_157\n      jump\t// in\n    tag_433:\n        /* \"#utility.yul\":21753:21809   */\n    tag_432:\n        /* \"#utility.yul\":21833:21871   */\n      tag_434\n        /* \"#utility.yul\":21865:21869   */\n      dup3\n        /* \"#utility.yul\":21859:21870   */\n      sload\n        /* \"#utility.yul\":21833:21871   */\n      tag_65\n      jump\t// in\n    tag_434:\n        /* \"#utility.yul\":21918:21985   */\n      tag_435\n        /* \"#utility.yul\":21978:21984   */\n      dup3\n        /* \"#utility.yul\":21970:21976   */\n      dup3\n        /* \"#utility.yul\":21964:21968   */\n      dup6\n        /* \"#utility.yul\":21918:21985   */\n      tag_204\n      jump\t// in\n    tag_435:\n        /* \"#utility.yul\":22012:22013   */\n      0x00\n        /* \"#utility.yul\":22041:22043   */\n      0x1f\n        /* \"#utility.yul\":22033:22039   */\n      dup4\n        /* \"#utility.yul\":22030:22044   */\n      gt\n        /* \"#utility.yul\":22058:22059   */\n      0x01\n        /* \"#utility.yul\":22053:22725   */\n      dup2\n      eq\n      tag_437\n      jumpi\n        /* \"#utility.yul\":22769:22770   */\n      0x00\n        /* \"#utility.yul\":22786:22792   */\n      dup5\n        /* \"#utility.yul\":22783:22860   */\n      iszero\n      tag_438\n      jumpi\n        /* \"#utility.yul\":22835:22844   */\n      dup3\n        /* \"#utility.yul\":22830:22833   */\n      dup8\n        /* \"#utility.yul\":22826:22845   */\n      add\n        /* \"#utility.yul\":22820:22846   */\n      sload\n        /* \"#utility.yul\":22811:22846   */\n      swap1\n      pop\n        /* \"#utility.yul\":22783:22860   */\n    tag_438:\n        /* \"#utility.yul\":22886:22953   */\n      tag_439\n        /* \"#utility.yul\":22946:22952   */\n      dup6\n        /* \"#utility.yul\":22939:22944   */\n      dup3\n        /* \"#utility.yul\":22886:22953   */\n      tag_207\n      jump\t// in\n    tag_439:\n        /* \"#utility.yul\":22880:22884   */\n      dup7\n        /* \"#utility.yul\":22873:22954   */\n      sstore\n        /* \"#utility.yul\":22742:22964   */\n      pop\n        /* \"#utility.yul\":22023:22964   */\n      jump(tag_436)\n        /* \"#utility.yul\":22053:22725   */\n    tag_437:\n        /* \"#utility.yul\":22105:22109   */\n      0x1f\n        /* \"#utility.yul\":22101:22110   */\n      not\n        /* \"#utility.yul\":22093:22099   */\n      dup5\n        /* \"#utility.yul\":22089:22111   */\n      and\n        /* \"#utility.yul\":22131:22167   */\n      tag_440\n        /* \"#utility.yul\":22163:22166   */\n      dup8\n        /* \"#utility.yul\":22131:22167   */\n      tag_193\n      jump\t// in\n    tag_440:\n        /* \"#utility.yul\":22124:22167   */\n      swap7\n      pop\n        /* \"#utility.yul\":22194:22231   */\n      tag_441\n        /* \"#utility.yul\":22226:22230   */\n      dup7\n        /* \"#utility.yul\":22194:22231   */\n      tag_193\n      jump\t// in\n    tag_441:\n        /* \"#utility.yul\":22253:22254   */\n      0x00\n        /* \"#utility.yul\":22267:22474   */\n    tag_442:\n        /* \"#utility.yul\":22281:22288   */\n      dup3\n        /* \"#utility.yul\":22278:22279   */\n      dup2\n        /* \"#utility.yul\":22275:22289   */\n      lt\n        /* \"#utility.yul\":22267:22474   */\n      iszero\n      tag_444\n      jumpi\n        /* \"#utility.yul\":22360:22369   */\n      dup5\n        /* \"#utility.yul\":22355:22358   */\n      dup10\n        /* \"#utility.yul\":22351:22370   */\n      add\n        /* \"#utility.yul\":22345:22371   */\n      sload\n        /* \"#utility.yul\":22337:22343   */\n      dup3\n        /* \"#utility.yul\":22330:22372   */\n      sstore\n        /* \"#utility.yul\":22411:22412   */\n      0x01\n        /* \"#utility.yul\":22403:22409   */\n      dup3\n        /* \"#utility.yul\":22399:22413   */\n      add\n        /* \"#utility.yul\":22389:22413   */\n      swap2\n      pop\n        /* \"#utility.yul\":22458:22459   */\n      0x01\n        /* \"#utility.yul\":22447:22456   */\n      dup6\n        /* \"#utility.yul\":22443:22460   */\n      add\n        /* \"#utility.yul\":22430:22460   */\n      swap5\n      pop\n        /* \"#utility.yul\":22304:22308   */\n      0x20\n        /* \"#utility.yul\":22301:22302   */\n      dup2\n        /* \"#utility.yul\":22297:22309   */\n      add\n        /* \"#utility.yul\":22292:22309   */\n      swap1\n      pop\n        /* \"#utility.yul\":22267:22474   */\n      jump(tag_442)\n    tag_444:\n        /* \"#utility.yul\":22502:22508   */\n      dup7\n        /* \"#utility.yul\":22493:22500   */\n      dup4\n        /* \"#utility.yul\":22490:22509   */\n      lt\n        /* \"#utility.yul\":22487:22666   */\n      iszero\n      tag_445\n      jumpi\n        /* \"#utility.yul\":22560:22569   */\n      dup5\n        /* \"#utility.yul\":22555:22558   */\n      dup10\n        /* \"#utility.yul\":22551:22570   */\n      add\n        /* \"#utility.yul\":22545:22571   */\n      sload\n        /* \"#utility.yul\":22603:22651   */\n      tag_446\n        /* \"#utility.yul\":22645:22649   */\n      0x1f\n        /* \"#utility.yul\":22637:22643   */\n      dup10\n        /* \"#utility.yul\":22633:22650   */\n      and\n        /* \"#utility.yul\":22622:22631   */\n      dup3\n        /* \"#utility.yul\":22603:22651   */\n      tag_206\n      jump\t// in\n    tag_446:\n        /* \"#utility.yul\":22595:22601   */\n      dup4\n        /* \"#utility.yul\":22588:22652   */\n      sstore\n        /* \"#utility.yul\":22510:22666   */\n      pop\n        /* \"#utility.yul\":22487:22666   */\n    tag_445:\n        /* \"#utility.yul\":22712:22713   */\n      0x01\n        /* \"#utility.yul\":22708:22709   */\n      0x02\n        /* \"#utility.yul\":22700:22706   */\n      dup9\n        /* \"#utility.yul\":22696:22710   */\n      mul\n        /* \"#utility.yul\":22692:22714   */\n      add\n        /* \"#utility.yul\":22686:22690   */\n      dup9\n        /* \"#utility.yul\":22679:22715   */\n      sstore\n        /* \"#utility.yul\":22060:22725   */\n      pop\n      pop\n      pop\n        /* \"#utility.yul\":22023:22964   */\n    tag_436:\n      pop\n        /* \"#utility.yul\":21608:22970   */\n      pop\n      pop\n      pop\n        /* \"#utility.yul\":21519:22970   */\n      pop\n      pop\n    tag_429:\n      jump\t// out\n        /* \"#utility.yul\":22976:23156   */\n    tag_209:\n        /* \"#utility.yul\":23024:23101   */\n      0x4e487b7100000000000000000000000000000000000000000000000000000000\n        /* \"#utility.yul\":23021:23022   */\n      0x00\n        /* \"#utility.yul\":23014:23102   */\n      mstore\n        /* \"#utility.yul\":23121:23125   */\n      0x11\n        /* \"#utility.yul\":23118:23119   */\n      0x04\n        /* \"#utility.yul\":23111:23126   */\n      mstore\n        /* \"#utility.yul\":23145:23149   */\n      0x24\n        /* \"#utility.yul\":23142:23143   */\n      0x00\n        /* \"#utility.yul\":23135:23150   */\n      revert\n        /* \"#utility.yul\":23162:23353   */\n    tag_82:\n        /* \"#utility.yul\":23202:23205   */\n      0x00\n        /* \"#utility.yul\":23221:23241   */\n      tag_449\n        /* \"#utility.yul\":23239:23240   */\n      dup3\n        /* \"#utility.yul\":23221:23241   */\n      tag_173\n      jump\t// in\n    tag_449:\n        /* \"#utility.yul\":23216:23241   */\n      swap2\n      pop\n        /* \"#utility.yul\":23255:23275   */\n      tag_450\n        /* \"#utility.yul\":23273:23274   */\n      dup4\n        /* \"#utility.yul\":23255:23275   */\n      tag_173\n      jump\t// in\n    tag_450:\n        /* \"#utility.yul\":23250:23275   */\n      swap3\n      pop\n        /* \"#utility.yul\":23298:23299   */\n      dup3\n        /* \"#utility.yul\":23295:23296   */\n      dup3\n        /* \"#utility.yul\":23291:23300   */\n      add\n        /* \"#utility.yul\":23284:23300   */\n      swap1\n      pop\n        /* \"#utility.yul\":23319:23322   */\n      dup1\n        /* \"#utility.yul\":23316:23317   */\n      dup3\n        /* \"#utility.yul\":23313:23323   */\n      gt\n        /* \"#utility.yul\":23310:23346   */\n      iszero\n      tag_451\n      jumpi\n        /* \"#utility.yul\":23326:23344   */\n      tag_452\n      tag_209\n      jump\t// in\n    tag_452:\n        /* \"#utility.yul\":23310:23346   */\n    tag_451:\n        /* \"#utility.yul\":23162:23353   */\n      swap3\n      swap2\n      pop\n      pop\n      jump\t// out\n        /* \"#utility.yul\":23359:23507   */\n    tag_210:\n        /* \"#utility.yul\":23461:23472   */\n      0x00\n        /* \"#utility.yul\":23498:23501   */\n      dup2\n        /* \"#utility.yul\":23483:23501   */\n      swap1\n      pop\n        /* \"#utility.yul\":23359:23507   */\n      swap3\n      swap2\n      pop\n      pop\n      jump\t// out\n        /* \"#utility.yul\":23513:23903   */\n    tag_211:\n        /* \"#utility.yul\":23619:23622   */\n      0x00\n        /* \"#utility.yul\":23647:23686   */\n      tag_455\n        /* \"#utility.yul\":23680:23685   */\n      dup3\n        /* \"#utility.yul\":23647:23686   */\n      tag_164\n      jump\t// in\n    tag_455:\n        /* \"#utility.yul\":23702:23791   */\n      tag_456\n        /* \"#utility.yul\":23784:23790   */\n      dup2\n        /* \"#utility.yul\":23779:23782   */\n      dup6\n        /* \"#utility.yul\":23702:23791   */\n      tag_210\n      jump\t// in\n    tag_456:\n        /* \"#utility.yul\":23695:23791   */\n      swap4\n      pop\n        /* \"#utility.yul\":23800:23865   */\n      tag_457\n        /* \"#utility.yul\":23858:23864   */\n      dup2\n        /* \"#utility.yul\":23853:23856   */\n      dup6\n        /* \"#utility.yul\":23846:23850   */\n      0x20\n        /* \"#utility.yul\":23839:23844   */\n      dup7\n        /* \"#utility.yul\":23835:23851   */\n      add\n        /* \"#utility.yul\":23800:23865   */\n      tag_166\n      jump\t// in\n    tag_457:\n        /* \"#utility.yul\":23890:23896   */\n      dup1\n        /* \"#utility.yul\":23885:23888   */\n      dup5\n        /* \"#utility.yul\":23881:23897   */\n      add\n        /* \"#utility.yul\":23874:23897   */\n      swap2\n      pop\n        /* \"#utility.yul\":23623:23903   */\n      pop\n        /* \"#utility.yul\":23513:23903   */\n      swap3\n      swap2\n      pop\n      pop\n      jump\t// out\n        /* \"#utility.yul\":23909:24184   */\n    tag_110:\n        /* \"#utility.yul\":24041:24044   */\n      0x00\n        /* \"#utility.yul\":24063:24158   */\n      tag_459\n        /* \"#utility.yul\":24154:24157   */\n      dup3\n        /* \"#utility.yul\":24145:24151   */\n      dup5\n        /* \"#utility.yul\":24063:24158   */\n      tag_211\n      jump\t// in\n    tag_459:\n        /* \"#utility.yul\":24056:24158   */\n      swap2\n      pop\n        /* \"#utility.yul\":24175:24178   */\n      dup2\n        /* \"#utility.yul\":24168:24178   */\n      swap1\n      pop\n        /* \"#utility.yul\":23909:24184   */\n      swap3\n      swap2\n      pop\n      pop\n      jump\t// out\n        /* \"#utility.yul\":24190:24363   */\n    tag_212:\n        /* \"#utility.yul\":24330:24355   */\n      0x456c656374696f6e20616c726561647920657869737473000000000000000000\n        /* \"#utility.yul\":24326:24327   */\n      0x00\n        /* \"#utility.yul\":24318:24324   */\n      dup3\n        /* \"#utility.yul\":24314:24328   */\n      add\n        /* \"#utility.yul\":24307:24356   */\n      mstore\n        /* \"#utility.yul\":24190:24363   */\n      pop\n      jump\t// out\n        /* \"#utility.yul\":24369:24735   */\n    tag_213:\n        /* \"#utility.yul\":24511:24514   */\n      0x00\n        /* \"#utility.yul\":24532:24599   */\n      tag_462\n        /* \"#utility.yul\":24596:24598   */\n      0x17\n        /* \"#utility.yul\":24591:24594   */\n      dup4\n        /* \"#utility.yul\":24532:24599   */\n      tag_165\n      jump\t// in\n    tag_462:\n        /* \"#utility.yul\":24525:24599   */\n      swap2\n      pop\n        /* \"#utility.yul\":24608:24701   */\n      tag_463\n        /* \"#utility.yul\":24697:24700   */\n      dup3\n        /* \"#utility.yul\":24608:24701   */\n      tag_212\n      jump\t// in\n    tag_463:\n        /* \"#utility.yul\":24726:24728   */\n      0x20\n        /* \"#utility.yul\":24721:24724   */\n      dup3\n        /* \"#utility.yul\":24717:24729   */\n      add\n        /* \"#utility.yul\":24710:24729   */\n      swap1\n      pop\n        /* \"#utility.yul\":24369:24735   */\n      swap2\n      swap1\n      pop\n      jump\t// out\n        /* \"#utility.yul\":24741:25160   */\n    tag_135:\n        /* \"#utility.yul\":24907:24911   */\n      0x00\n        /* \"#utility.yul\":24945:24947   */\n      0x20\n        /* \"#utility.yul\":24934:24943   */\n      dup3\n        /* \"#utility.yul\":24930:24948   */\n      add\n        /* \"#utility.yul\":24922:24948   */\n      swap1\n      pop\n        /* \"#utility.yul\":24994:25003   */\n      dup2\n        /* \"#utility.yul\":24988:24992   */\n      dup2\n        /* \"#utility.yul\":24984:25004   */\n      sub\n        /* \"#utility.yul\":24980:24981   */\n      0x00\n        /* \"#utility.yul\":24969:24978   */\n      dup4\n        /* \"#utility.yul\":24965:24982   */\n      add\n        /* \"#utility.yul\":24958:25005   */\n      mstore\n        /* \"#utility.yul\":25022:25153   */\n      tag_465\n        /* \"#utility.yul\":25148:25152   */\n      dup2\n        /* \"#utility.yul\":25022:25153   */\n      tag_213\n      jump\t// in\n    tag_465:\n        /* \"#utility.yul\":25014:25153   */\n      swap1\n      pop\n        /* \"#utility.yul\":24741:25160   */\n      swap2\n      swap1\n      pop\n      jump\t// out\n\n    auxdata: 0xa264697066735822122010d34abcc993caa562a8f0db86bcfd2c97bd3d820ccacd216487ade7b7d6578464736f6c634300081a0033\n}\n",
				"bytecode": {
					"linkReferences": {},
					"object": "60806040525f6005555f600655348015610017575f80fd5b506100d56040518060600160405280603881526020016123ec60389139735b38da6a701c568545dcfcb03fcb875f56beddc473ab8483f64d9c6d1ecf9b849ae677dd3315835cb26040518060400160405280600981526020017f507265736964656e7400000000000000000000000000000000000000000000008152506040518060400160405280600781526020017f4e696765726961000000000000000000000000000000000000000000000000008152506100da60201b60201c565b61069b565b60045f60065481526020019081526020015f206009015f9054906101000a900460ff161561013d576040517f08c379a0000000000000000000000000000000000000000000000000000000008152600401610134906102ec565b60405180910390fd5b600160065461014c9190610340565b6006819055505f60045f60065481526020019081526020015f209050600654815f01819055508581600101908161018391906105a4565b5084816002015f6101000a81548173ffffffffffffffffffffffffffffffffffffffff021916908373ffffffffffffffffffffffffffffffffffffffff16021790555083816003015f6101000a81548173ffffffffffffffffffffffffffffffffffffffff021916908373ffffffffffffffffffffffffffffffffffffffff1602179055508281600601908161021991906105a4565b508181600701908161022b91906105a4565b505f81600801819055506001816009015f6101000a81548160ff0219169083151502179055507f878bb103e2c92788427ea47308fc2c171b1f607553d68c2e7c2e98e6cdb631816006546040516102829190610682565b60405180910390a1505050505050565b5f82825260208201905092915050565b7f456c656374696f6e20616c7265616479206578697374730000000000000000005f82015250565b5f6102d6601783610292565b91506102e1826102a2565b602082019050919050565b5f6020820190508181035f830152610303816102ca565b9050919050565b5f819050919050565b7f4e487b71000000000000000000000000000000000000000000000000000000005f52601160045260245ffd5b5f61034a8261030a565b91506103558361030a565b925082820190508082111561036d5761036c610313565b5b92915050565b5f81519050919050565b7f4e487b71000000000000000000000000000000000000000000000000000000005f52604160045260245ffd5b7f4e487b71000000000000000000000000000000000000000000000000000000005f52602260045260245ffd5b5f60028204905060018216806103ee57607f821691505b602082108103610401576104006103aa565b5b50919050565b5f819050815f5260205f209050919050565b5f6020601f8301049050919050565b5f82821b905092915050565b5f600883026104637fffffffffffffffffffffffffffffffffffffffffffffffffffffffffffffffff82610428565b61046d8683610428565b95508019841693508086168417925050509392505050565b5f819050919050565b5f6104a86104a361049e8461030a565b610485565b61030a565b9050919050565b5f819050919050565b6104c18361048e565b6104d56104cd826104af565b848454610434565b825550505050565b5f90565b6104e96104dd565b6104f48184846104b8565b505050565b5b818110156105175761050c5f826104e1565b6001810190506104fa565b5050565b601f82111561055c5761052d81610407565b61053684610419565b81016020851015610545578190505b61055961055185610419565b8301826104f9565b50505b505050565b5f82821c905092915050565b5f61057c5f1984600802610561565b1980831691505092915050565b5f610594838361056d565b9150826002028217905092915050565b6105ad82610373565b67ffffffffffffffff8111156105c6576105c561037d565b5b6105d082546103d7565b6105db82828561051b565b5f60209050601f83116001811461060c575f84156105fa578287015190505b6106048582610589565b86555061066b565b601f19841661061a86610407565b5f5b828110156106415784890151825560018201915060208501945060208101905061061c565b8683101561065e578489015161065a601f89168261056d565b8355505b6001600288020188555050505b505050505050565b61067c8161030a565b82525050565b5f6020820190506106955f830184610673565b92915050565b611d44806106a85f395ff3fe608060405234801561000f575f80fd5b50600436106100a7575f3560e01c806377df41b71161006f57806377df41b71461017f5780637fa4ba871461019b5780639f91e6bf146101b9578063a9b692db146101d7578063f2630f3714610207578063f544be4014610223576100a7565b8063027bbc43146100ab5780630fe91b5e146100dc5780631e9598e21461010c57806346817041146101455780634fd2257b14610163575b5f80fd5b6100c560048036038101906100c091906111d7565b610257565b6040516100d39291906112bd565b60405180910390f35b6100f660048036038101906100f191906111d7565b610334565b6040516101039190611305565b60405180910390f35b61012660048036038101906101219190611351565b6105aa565b60405161013c9a9998979695949392919061138b565b60405180910390f35b61014d6107d6565b60405161015a919061143a565b60405180910390f35b61017d60048036038101906101789190611351565b6107dc565b005b6101996004803603810190610194919061147d565b610af9565b005b6101a3610b97565b6040516101b09190611656565b60405180910390f35b6101c1610d51565b6040516101ce919061143a565b60405180910390f35b6101f160048036038101906101ec919061147d565b610d57565b6040516101fe919061143a565b60405180910390f35b610221600480360381019061021c9190611676565b610d7c565b005b61023d60048036038101906102389190611741565b610f34565b60405161024e95949392919061176c565b60405180910390f35b6002818051602081018201805184825260208301602085012081835280955050505050505f91509050805f01805461028e906117f8565b80601f01602080910402602001604051908101604052809291908181526020018280546102ba906117f8565b80156103055780601f106102dc57610100808354040283529160200191610305565b820191905f5260205f20905b8154815290600101906020018083116102e857829003601f168201915b505050505090806001015f9054906101000a900473ffffffffffffffffffffffffffffffffffffffff16905082565b5f805f3373ffffffffffffffffffffffffffffffffffffffff1673ffffffffffffffffffffffffffffffffffffffff1681526020019081526020015f206003015f9054906101000a900460ff16156103c1576040517f08c379a00000000000000000000000000000000000000000000000000000000081526004016103b890611872565b60405180910390fd5b5f805f3373ffffffffffffffffffffffffffffffffffffffff1673ffffffffffffffffffffffffffffffffffffffff1681526020019081526020015f209050600554815f01819055508281600101908161041b9190611a2d565b5060405180602001604052805f81525081600201908161043b9190611a2d565b506001816003015f6101000a81548160ff02191690831515021790555060015f803373ffffffffffffffffffffffffffffffffffffffff1673ffffffffffffffffffffffffffffffffffffffff1681526020019081526020015f20908060018154018082558091505060019003905f5260205f2090600402015f909190919091505f820154815f0155600182018160010190816104d89190611b11565b50600282018160020190816104ed9190611b11565b50600382015f9054906101000a900460ff16816003015f6101000a81548160ff0219169083151502179055506003820160019054906101000a900460ff168160030160016101000a81548160ff02191690831515021790555050503373ffffffffffffffffffffffffffffffffffffffff167fc31ba56fd6cd170bc9cdb46e35545da5631ea318d809d4651f661cbdd26bae0160405160405180910390a2600160055461059a9190611c23565b6005819055506001915050919050565b6004602052805f5260405f205f91509050805f0154908060010180546105cf906117f8565b80601f01602080910402602001604051908101604052809291908181526020018280546105fb906117f8565b80156106465780601f1061061d57610100808354040283529160200191610646565b820191905f5260205f20905b81548152906001019060200180831161062957829003601f168201915b505050505090806002015f9054906101000a900473ffffffffffffffffffffffffffffffffffffffff1690806003015f9054906101000a900473ffffffffffffffffffffffffffffffffffffffff16908060040154908060050154908060060180546106b1906117f8565b80601f01602080910402602001604051908101604052809291908181526020018280546106dd906117f8565b80156107285780601f106106ff57610100808354040283529160200191610728565b820191905f5260205f20905b81548152906001019060200180831161070b57829003601f168201915b50505050509080600701805461073d906117f8565b80601f0160208091040260200160405190810160405280929190818152602001828054610769906117f8565b80156107b45780601f1061078b576101008083540402835291602001916107b4565b820191905f5260205f20905b81548152906001019060200180831161079757829003601f168201915b505050505090806008015490806009015f9054906101000a900460ff1690508a565b60065481565b5f60045f8381526020019081526020015f2090505f816002015f9054906101000a900473ffffffffffffffffffffffffffffffffffffffff1690505f826003015f9054906101000a900473ffffffffffffffffffffffffffffffffffffffff1690505f60035f8681526020019081526020015f205f8473ffffffffffffffffffffffffffffffffffffffff1673ffffffffffffffffffffffffffffffffffffffff1681526020019081526020015f205f015490505f60035f8781526020019081526020015f205f8473ffffffffffffffffffffffffffffffffffffffff1673ffffffffffffffffffffffffffffffffffffffff1681526020019081526020015f205f015490505f8560070180546108f2906117f8565b80601f016020809104026020016040519081016040528092919081815260200182805461091e906117f8565b80156109695780601f1061094057610100808354040283529160200191610969565b820191905f5260205f20905b81548152906001019060200180831161094c57829003601f168201915b505050505090505f866006018054610980906117f8565b80601f01602080910402602001604051908101604052809291908181526020018280546109ac906117f8565b80156109f75780601f106109ce576101008083540402835291602001916109f7565b820191905f5260205f20905b8154815290600101906020018083116109da57829003601f168201915b505050505090505f600283604051610a0f9190611c90565b9081526020016040518091039020905083851115610a7f5786816001015f6101000a81548173ffffffffffffffffffffffffffffffffffffffff021916908373ffffffffffffffffffffffffffffffffffffffff16021790555081815f019081610a799190611a2d565b50610ad3565b85816001015f6101000a81548173ffffffffffffffffffffffffffffffffffffffff021916908373ffffffffffffffffffffffffffffffffffffffff16021790555081815f019081610ad19190611a2d565b505b5f886009015f6101000a81548160ff021916908315150217905550505050505050505050565b5f60045f8481526020019081526020015f2090505f60035f8581526020019081526020015f205f8473ffffffffffffffffffffffffffffffffffffffff1673ffffffffffffffffffffffffffffffffffffffff1681526020019081526020015f2090506001815f015f828254610b6f9190611c23565b925050819055506001826008015f828254610b8a9190611c23565b9250508190555050505050565b60606001805480602002602001604051908101604052809291908181526020015f905b82821015610d48578382905f5260205f2090600402016040518060a00160405290815f8201548152602001600182018054610bf4906117f8565b80601f0160208091040260200160405190810160405280929190818152602001828054610c20906117f8565b8015610c6b5780601f10610c4257610100808354040283529160200191610c6b565b820191905f5260205f20905b815481529060010190602001808311610c4e57829003601f168201915b50505050508152602001600282018054610c84906117f8565b80601f0160208091040260200160405190810160405280929190818152602001828054610cb0906117f8565b8015610cfb5780601f10610cd257610100808354040283529160200191610cfb565b820191905f5260205f20905b815481529060010190602001808311610cde57829003601f168201915b50505050508152602001600382015f9054906101000a900460ff161515151581526020016003820160019054906101000a900460ff16151515158152505081526020019060010190610bba565b50505050905090565b60055481565b6003602052815f5260405f20602052805f5260405f205f9150915050805f0154905081565b60045f60065481526020019081526020015f206009015f9054906101000a900460ff1615610ddf576040517f08c379a0000000000000000000000000000000000000000000000000000000008152600401610dd690611cf0565b60405180910390fd5b6001600654610dee9190611c23565b6006819055505f60045f60065481526020019081526020015f209050600654815f018190555085816001019081610e259190611a2d565b5084816002015f6101000a81548173ffffffffffffffffffffffffffffffffffffffff021916908373ffffffffffffffffffffffffffffffffffffffff16021790555083816003015f6101000a81548173ffffffffffffffffffffffffffffffffffffffff021916908373ffffffffffffffffffffffffffffffffffffffff16021790555082816006019081610ebb9190611a2d565b5081816007019081610ecd9190611a2d565b505f81600801819055506001816009015f6101000a81548160ff0219169083151502179055507f878bb103e2c92788427ea47308fc2c171b1f607553d68c2e7c2e98e6cdb63181600654604051610f24919061143a565b60405180910390a1505050505050565b5f602052805f5260405f205f91509050805f015490806001018054610f58906117f8565b80601f0160208091040260200160405190810160405280929190818152602001828054610f84906117f8565b8015610fcf5780601f10610fa657610100808354040283529160200191610fcf565b820191905f5260205f20905b815481529060010190602001808311610fb257829003601f168201915b505050505090806002018054610fe4906117f8565b80601f0160208091040260200160405190810160405280929190818152602001828054611010906117f8565b801561105b5780601f106110325761010080835404028352916020019161105b565b820191905f5260205f20905b81548152906001019060200180831161103e57829003601f168201915b505050505090806003015f9054906101000a900460ff16908060030160019054906101000a900460ff16905085565b5f604051905090565b5f80fd5b5f80fd5b5f80fd5b5f80fd5b5f601f19601f8301169050919050565b7f4e487b71000000000000000000000000000000000000000000000000000000005f52604160045260245ffd5b6110e9826110a3565b810181811067ffffffffffffffff82111715611108576111076110b3565b5b80604052505050565b5f61111a61108a565b905061112682826110e0565b919050565b5f67ffffffffffffffff821115611145576111446110b3565b5b61114e826110a3565b9050602081019050919050565b828183375f83830152505050565b5f61117b6111768461112b565b611111565b9050828152602081018484840111156111975761119661109f565b5b6111a284828561115b565b509392505050565b5f82601f8301126111be576111bd61109b565b5b81356111ce848260208601611169565b91505092915050565b5f602082840312156111ec576111eb611093565b5b5f82013567ffffffffffffffff81111561120957611208611097565b5b611215848285016111aa565b91505092915050565b5f81519050919050565b5f82825260208201905092915050565b8281835e5f83830152505050565b5f6112508261121e565b61125a8185611228565b935061126a818560208601611238565b611273816110a3565b840191505092915050565b5f73ffffffffffffffffffffffffffffffffffffffff82169050919050565b5f6112a78261127e565b9050919050565b6112b78161129d565b82525050565b5f6040820190508181035f8301526112d58185611246565b90506112e460208301846112ae565b9392505050565b5f8115159050919050565b6112ff816112eb565b82525050565b5f6020820190506113185f8301846112f6565b92915050565b5f819050919050565b6113308161131e565b811461133a575f80fd5b50565b5f8135905061134b81611327565b92915050565b5f6020828403121561136657611365611093565b5b5f6113738482850161133d565b91505092915050565b6113858161131e565b82525050565b5f6101408201905061139f5f83018d61137c565b81810360208301526113b1818c611246565b90506113c0604083018b6112ae565b6113cd606083018a6112ae565b6113da608083018961137c565b6113e760a083018861137c565b81810360c08301526113f98187611246565b905081810360e083015261140d8186611246565b905061141d61010083018561137c565b61142b6101208301846112f6565b9b9a5050505050505050505050565b5f60208201905061144d5f83018461137c565b92915050565b61145c8161129d565b8114611466575f80fd5b50565b5f8135905061147781611453565b92915050565b5f806040838503121561149357611492611093565b5b5f6114a08582860161133d565b92505060206114b185828601611469565b9150509250929050565b5f81519050919050565b5f82825260208201905092915050565b5f819050602082019050919050565b6114ed8161131e565b82525050565b5f82825260208201905092915050565b5f61150d8261121e565b61151781856114f3565b9350611527818560208601611238565b611530816110a3565b840191505092915050565b611544816112eb565b82525050565b5f60a083015f83015161155f5f8601826114e4565b50602083015184820360208601526115778282611503565b915050604083015184820360408601526115918282611503565b91505060608301516115a6606086018261153b565b5060808301516115b9608086018261153b565b508091505092915050565b5f6115cf838361154a565b905092915050565b5f602082019050919050565b5f6115ed826114bb565b6115f781856114c5565b935083602082028501611609856114d5565b805f5b85811015611644578484038952815161162585826115c4565b9450611630836115d7565b925060208a0199505060018101905061160c565b50829750879550505050505092915050565b5f6020820190508181035f83015261166e81846115e3565b905092915050565b5f805f805f60a0868803121561168f5761168e611093565b5b5f86013567ffffffffffffffff8111156116ac576116ab611097565b5b6116b8888289016111aa565b95505060206116c988828901611469565b94505060406116da88828901611469565b935050606086013567ffffffffffffffff8111156116fb576116fa611097565b5b611707888289016111aa565b925050608086013567ffffffffffffffff81111561172857611727611097565b5b611734888289016111aa565b9150509295509295909350565b5f6020828403121561175657611755611093565b5b5f61176384828501611469565b91505092915050565b5f60a08201905061177f5f83018861137c565b81810360208301526117918187611246565b905081810360408301526117a58186611246565b90506117b460608301856112f6565b6117c160808301846112f6565b9695505050505050565b7f4e487b71000000000000000000000000000000000000000000000000000000005f52602260045260245ffd5b5f600282049050600182168061180f57607f821691505b602082108103611822576118216117cb565b5b50919050565b7f43414e204f4e4c59205245474953544552204f4e4345000000000000000000005f82015250565b5f61185c601683611228565b915061186782611828565b602082019050919050565b5f6020820190508181035f83015261188981611850565b9050919050565b5f819050815f5260205f209050919050565b5f6020601f8301049050919050565b5f82821b905092915050565b5f600883026118ec7fffffffffffffffffffffffffffffffffffffffffffffffffffffffffffffffff826118b1565b6118f686836118b1565b95508019841693508086168417925050509392505050565b5f819050919050565b5f61193161192c6119278461131e565b61190e565b61131e565b9050919050565b5f819050919050565b61194a83611917565b61195e61195682611938565b8484546118bd565b825550505050565b5f90565b611972611966565b61197d818484611941565b505050565b5b818110156119a0576119955f8261196a565b600181019050611983565b5050565b601f8211156119e5576119b681611890565b6119bf846118a2565b810160208510156119ce578190505b6119e26119da856118a2565b830182611982565b50505b505050565b5f82821c905092915050565b5f611a055f19846008026119ea565b1980831691505092915050565b5f611a1d83836119f6565b9150826002028217905092915050565b611a368261121e565b67ffffffffffffffff811115611a4f57611a4e6110b3565b5b611a5982546117f8565b611a648282856119a4565b5f60209050601f831160018114611a95575f8415611a83578287015190505b611a8d8582611a12565b865550611af4565b601f198416611aa386611890565b5f5b82811015611aca57848901518255600182019150602085019450602081019050611aa5565b86831015611ae75784890151611ae3601f8916826119f6565b8355505b6001600288020188555050505b505050505050565b5f81549050611b0a816117f8565b9050919050565b818103611b1f575050611bf4565b611b2882611afc565b67ffffffffffffffff811115611b4157611b406110b3565b5b611b4b82546117f8565b611b568282856119a4565b5f601f831160018114611b83575f8415611b71578287015490505b611b7b8582611a12565b865550611bed565b601f198416611b9187611890565b9650611b9c86611890565b5f5b82811015611bc357848901548255600182019150600185019450602081019050611b9e565b86831015611be05784890154611bdc601f8916826119f6565b8355505b6001600288020188555050505b5050505050505b565b7f4e487b71000000000000000000000000000000000000000000000000000000005f52601160045260245ffd5b5f611c2d8261131e565b9150611c388361131e565b9250828201905080821115611c5057611c4f611bf6565b5b92915050565b5f81905092915050565b5f611c6a8261121e565b611c748185611c56565b9350611c84818560208601611238565b80840191505092915050565b5f611c9b8284611c60565b915081905092915050565b7f456c656374696f6e20616c7265616479206578697374730000000000000000005f82015250565b5f611cda601783611228565b9150611ce582611ca6565b602082019050919050565b5f6020820190508181035f830152611d0781611cce565b905091905056fea264697066735822122010d34abcc993caa562a8f0db86bcfd2c97bd3d820ccacd216487ade7b7d6578464736f6c634300081a00334e6174696f6e616c206d69642d7465726d20707265736964656e7469616c20656c656374696f6e2c20323032372c20504f20767320424154",
					"opcodes": "PUSH1 0x80 PUSH1 0x40 MSTORE PUSH0 PUSH1 0x5 SSTORE PUSH0 PUSH1 0x6 SSTORE CALLVALUE DUP1 ISZERO PUSH2 0x17 JUMPI PUSH0 DUP1 REVERT JUMPDEST POP PUSH2 0xD5 PUSH1 0x40 MLOAD DUP1 PUSH1 0x60 ADD PUSH1 0x40 MSTORE DUP1 PUSH1 0x38 DUP2 MSTORE PUSH1 0x20 ADD PUSH2 0x23EC PUSH1 0x38 SWAP2 CODECOPY PUSH20 0x5B38DA6A701C568545DCFCB03FCB875F56BEDDC4 PUSH20 0xAB8483F64D9C6D1ECF9B849AE677DD3315835CB2 PUSH1 0x40 MLOAD DUP1 PUSH1 0x40 ADD PUSH1 0x40 MSTORE DUP1 PUSH1 0x9 DUP2 MSTORE PUSH1 0x20 ADD PUSH32 0x507265736964656E740000000000000000000000000000000000000000000000 DUP2 MSTORE POP PUSH1 0x40 MLOAD DUP1 PUSH1 0x40 ADD PUSH1 0x40 MSTORE DUP1 PUSH1 0x7 DUP2 MSTORE PUSH1 0x20 ADD PUSH32 0x4E69676572696100000000000000000000000000000000000000000000000000 DUP2 MSTORE POP PUSH2 0xDA PUSH1 0x20 SHL PUSH1 0x20 SHR JUMP JUMPDEST PUSH2 0x69B JUMP JUMPDEST PUSH1 0x4 PUSH0 PUSH1 0x6 SLOAD DUP2 MSTORE PUSH1 0x20 ADD SWAP1 DUP2 MSTORE PUSH1 0x20 ADD PUSH0 KECCAK256 PUSH1 0x9 ADD PUSH0 SWAP1 SLOAD SWAP1 PUSH2 0x100 EXP SWAP1 DIV PUSH1 0xFF AND ISZERO PUSH2 0x13D JUMPI PUSH1 0x40 MLOAD PUSH32 0x8C379A000000000000000000000000000000000000000000000000000000000 DUP2 MSTORE PUSH1 0x4 ADD PUSH2 0x134 SWAP1 PUSH2 0x2EC JUMP JUMPDEST PUSH1 0x40 MLOAD DUP1 SWAP2 SUB SWAP1 REVERT JUMPDEST PUSH1 0x1 PUSH1 0x6 SLOAD PUSH2 0x14C SWAP2 SWAP1 PUSH2 0x340 JUMP JUMPDEST PUSH1 0x6 DUP2 SWAP1 SSTORE POP PUSH0 PUSH1 0x4 PUSH0 PUSH1 0x6 SLOAD DUP2 MSTORE PUSH1 0x20 ADD SWAP1 DUP2 MSTORE PUSH1 0x20 ADD PUSH0 KECCAK256 SWAP1 POP PUSH1 0x6 SLOAD DUP2 PUSH0 ADD DUP2 SWAP1 SSTORE POP DUP6 DUP2 PUSH1 0x1 ADD SWAP1 DUP2 PUSH2 0x183 SWAP2 SWAP1 PUSH2 0x5A4 JUMP JUMPDEST POP DUP5 DUP2 PUSH1 0x2 ADD PUSH0 PUSH2 0x100 EXP DUP2 SLOAD DUP2 PUSH20 0xFFFFFFFFFFFFFFFFFFFFFFFFFFFFFFFFFFFFFFFF MUL NOT AND SWAP1 DUP4 PUSH20 0xFFFFFFFFFFFFFFFFFFFFFFFFFFFFFFFFFFFFFFFF AND MUL OR SWAP1 SSTORE POP DUP4 DUP2 PUSH1 0x3 ADD PUSH0 PUSH2 0x100 EXP DUP2 SLOAD DUP2 PUSH20 0xFFFFFFFFFFFFFFFFFFFFFFFFFFFFFFFFFFFFFFFF MUL NOT AND SWAP1 DUP4 PUSH20 0xFFFFFFFFFFFFFFFFFFFFFFFFFFFFFFFFFFFFFFFF AND MUL OR SWAP1 SSTORE POP DUP3 DUP2 PUSH1 0x6 ADD SWAP1 DUP2 PUSH2 0x219 SWAP2 SWAP1 PUSH2 0x5A4 JUMP JUMPDEST POP DUP2 DUP2 PUSH1 0x7 ADD SWAP1 DUP2 PUSH2 0x22B SWAP2 SWAP1 PUSH2 0x5A4 JUMP JUMPDEST POP PUSH0 DUP2 PUSH1 0x8 ADD DUP2 SWAP1 SSTORE POP PUSH1 0x1 DUP2 PUSH1 0x9 ADD PUSH0 PUSH2 0x100 EXP DUP2 SLOAD DUP2 PUSH1 0xFF MUL NOT AND SWAP1 DUP4 ISZERO ISZERO MUL OR SWAP1 SSTORE POP PUSH32 0x878BB103E2C92788427EA47308FC2C171B1F607553D68C2E7C2E98E6CDB63181 PUSH1 0x6 SLOAD PUSH1 0x40 MLOAD PUSH2 0x282 SWAP2 SWAP1 PUSH2 0x682 JUMP JUMPDEST PUSH1 0x40 MLOAD DUP1 SWAP2 SUB SWAP1 LOG1 POP POP POP POP POP POP JUMP JUMPDEST PUSH0 DUP3 DUP3 MSTORE PUSH1 0x20 DUP3 ADD SWAP1 POP SWAP3 SWAP2 POP POP JUMP JUMPDEST PUSH32 0x456C656374696F6E20616C726561647920657869737473000000000000000000 PUSH0 DUP3 ADD MSTORE POP JUMP JUMPDEST PUSH0 PUSH2 0x2D6 PUSH1 0x17 DUP4 PUSH2 0x292 JUMP JUMPDEST SWAP2 POP PUSH2 0x2E1 DUP3 PUSH2 0x2A2 JUMP JUMPDEST PUSH1 0x20 DUP3 ADD SWAP1 POP SWAP2 SWAP1 POP JUMP JUMPDEST PUSH0 PUSH1 0x20 DUP3 ADD SWAP1 POP DUP2 DUP2 SUB PUSH0 DUP4 ADD MSTORE PUSH2 0x303 DUP2 PUSH2 0x2CA JUMP JUMPDEST SWAP1 POP SWAP2 SWAP1 POP JUMP JUMPDEST PUSH0 DUP2 SWAP1 POP SWAP2 SWAP1 POP JUMP JUMPDEST PUSH32 0x4E487B7100000000000000000000000000000000000000000000000000000000 PUSH0 MSTORE PUSH1 0x11 PUSH1 0x4 MSTORE PUSH1 0x24 PUSH0 REVERT JUMPDEST PUSH0 PUSH2 0x34A DUP3 PUSH2 0x30A JUMP JUMPDEST SWAP2 POP PUSH2 0x355 DUP4 PUSH2 0x30A JUMP JUMPDEST SWAP3 POP DUP3 DUP3 ADD SWAP1 POP DUP1 DUP3 GT ISZERO PUSH2 0x36D JUMPI PUSH2 0x36C PUSH2 0x313 JUMP JUMPDEST JUMPDEST SWAP3 SWAP2 POP POP JUMP JUMPDEST PUSH0 DUP2 MLOAD SWAP1 POP SWAP2 SWAP1 POP JUMP JUMPDEST PUSH32 0x4E487B7100000000000000000000000000000000000000000000000000000000 PUSH0 MSTORE PUSH1 0x41 PUSH1 0x4 MSTORE PUSH1 0x24 PUSH0 REVERT JUMPDEST PUSH32 0x4E487B7100000000000000000000000000000000000000000000000000000000 PUSH0 MSTORE PUSH1 0x22 PUSH1 0x4 MSTORE PUSH1 0x24 PUSH0 REVERT JUMPDEST PUSH0 PUSH1 0x2 DUP3 DIV SWAP1 POP PUSH1 0x1 DUP3 AND DUP1 PUSH2 0x3EE JUMPI PUSH1 0x7F DUP3 AND SWAP2 POP JUMPDEST PUSH1 0x20 DUP3 LT DUP2 SUB PUSH2 0x401 JUMPI PUSH2 0x400 PUSH2 0x3AA JUMP JUMPDEST JUMPDEST POP SWAP2 SWAP1 POP JUMP JUMPDEST PUSH0 DUP2 SWAP1 POP DUP2 PUSH0 MSTORE PUSH1 0x20 PUSH0 KECCAK256 SWAP1 POP SWAP2 SWAP1 POP JUMP JUMPDEST PUSH0 PUSH1 0x20 PUSH1 0x1F DUP4 ADD DIV SWAP1 POP SWAP2 SWAP1 POP JUMP JUMPDEST PUSH0 DUP3 DUP3 SHL SWAP1 POP SWAP3 SWAP2 POP POP JUMP JUMPDEST PUSH0 PUSH1 0x8 DUP4 MUL PUSH2 0x463 PUSH32 0xFFFFFFFFFFFFFFFFFFFFFFFFFFFFFFFFFFFFFFFFFFFFFFFFFFFFFFFFFFFFFFFF DUP3 PUSH2 0x428 JUMP JUMPDEST PUSH2 0x46D DUP7 DUP4 PUSH2 0x428 JUMP JUMPDEST SWAP6 POP DUP1 NOT DUP5 AND SWAP4 POP DUP1 DUP7 AND DUP5 OR SWAP3 POP POP POP SWAP4 SWAP3 POP POP POP JUMP JUMPDEST PUSH0 DUP2 SWAP1 POP SWAP2 SWAP1 POP JUMP JUMPDEST PUSH0 PUSH2 0x4A8 PUSH2 0x4A3 PUSH2 0x49E DUP5 PUSH2 0x30A JUMP JUMPDEST PUSH2 0x485 JUMP JUMPDEST PUSH2 0x30A JUMP JUMPDEST SWAP1 POP SWAP2 SWAP1 POP JUMP JUMPDEST PUSH0 DUP2 SWAP1 POP SWAP2 SWAP1 POP JUMP JUMPDEST PUSH2 0x4C1 DUP4 PUSH2 0x48E JUMP JUMPDEST PUSH2 0x4D5 PUSH2 0x4CD DUP3 PUSH2 0x4AF JUMP JUMPDEST DUP5 DUP5 SLOAD PUSH2 0x434 JUMP JUMPDEST DUP3 SSTORE POP POP POP POP JUMP JUMPDEST PUSH0 SWAP1 JUMP JUMPDEST PUSH2 0x4E9 PUSH2 0x4DD JUMP JUMPDEST PUSH2 0x4F4 DUP2 DUP5 DUP5 PUSH2 0x4B8 JUMP JUMPDEST POP POP POP JUMP JUMPDEST JUMPDEST DUP2 DUP2 LT ISZERO PUSH2 0x517 JUMPI PUSH2 0x50C PUSH0 DUP3 PUSH2 0x4E1 JUMP JUMPDEST PUSH1 0x1 DUP2 ADD SWAP1 POP PUSH2 0x4FA JUMP JUMPDEST POP POP JUMP JUMPDEST PUSH1 0x1F DUP3 GT ISZERO PUSH2 0x55C JUMPI PUSH2 0x52D DUP2 PUSH2 0x407 JUMP JUMPDEST PUSH2 0x536 DUP5 PUSH2 0x419 JUMP JUMPDEST DUP2 ADD PUSH1 0x20 DUP6 LT ISZERO PUSH2 0x545 JUMPI DUP2 SWAP1 POP JUMPDEST PUSH2 0x559 PUSH2 0x551 DUP6 PUSH2 0x419 JUMP JUMPDEST DUP4 ADD DUP3 PUSH2 0x4F9 JUMP JUMPDEST POP POP JUMPDEST POP POP POP JUMP JUMPDEST PUSH0 DUP3 DUP3 SHR SWAP1 POP SWAP3 SWAP2 POP POP JUMP JUMPDEST PUSH0 PUSH2 0x57C PUSH0 NOT DUP5 PUSH1 0x8 MUL PUSH2 0x561 JUMP JUMPDEST NOT DUP1 DUP4 AND SWAP2 POP POP SWAP3 SWAP2 POP POP JUMP JUMPDEST PUSH0 PUSH2 0x594 DUP4 DUP4 PUSH2 0x56D JUMP JUMPDEST SWAP2 POP DUP3 PUSH1 0x2 MUL DUP3 OR SWAP1 POP SWAP3 SWAP2 POP POP JUMP JUMPDEST PUSH2 0x5AD DUP3 PUSH2 0x373 JUMP JUMPDEST PUSH8 0xFFFFFFFFFFFFFFFF DUP2 GT ISZERO PUSH2 0x5C6 JUMPI PUSH2 0x5C5 PUSH2 0x37D JUMP JUMPDEST JUMPDEST PUSH2 0x5D0 DUP3 SLOAD PUSH2 0x3D7 JUMP JUMPDEST PUSH2 0x5DB DUP3 DUP3 DUP6 PUSH2 0x51B JUMP JUMPDEST PUSH0 PUSH1 0x20 SWAP1 POP PUSH1 0x1F DUP4 GT PUSH1 0x1 DUP2 EQ PUSH2 0x60C JUMPI PUSH0 DUP5 ISZERO PUSH2 0x5FA JUMPI DUP3 DUP8 ADD MLOAD SWAP1 POP JUMPDEST PUSH2 0x604 DUP6 DUP3 PUSH2 0x589 JUMP JUMPDEST DUP7 SSTORE POP PUSH2 0x66B JUMP JUMPDEST PUSH1 0x1F NOT DUP5 AND PUSH2 0x61A DUP7 PUSH2 0x407 JUMP JUMPDEST PUSH0 JUMPDEST DUP3 DUP2 LT ISZERO PUSH2 0x641 JUMPI DUP5 DUP10 ADD MLOAD DUP3 SSTORE PUSH1 0x1 DUP3 ADD SWAP2 POP PUSH1 0x20 DUP6 ADD SWAP5 POP PUSH1 0x20 DUP2 ADD SWAP1 POP PUSH2 0x61C JUMP JUMPDEST DUP7 DUP4 LT ISZERO PUSH2 0x65E JUMPI DUP5 DUP10 ADD MLOAD PUSH2 0x65A PUSH1 0x1F DUP10 AND DUP3 PUSH2 0x56D JUMP JUMPDEST DUP4 SSTORE POP JUMPDEST PUSH1 0x1 PUSH1 0x2 DUP9 MUL ADD DUP9 SSTORE POP POP POP JUMPDEST POP POP POP POP POP POP JUMP JUMPDEST PUSH2 0x67C DUP2 PUSH2 0x30A JUMP JUMPDEST DUP3 MSTORE POP POP JUMP JUMPDEST PUSH0 PUSH1 0x20 DUP3 ADD SWAP1 POP PUSH2 0x695 PUSH0 DUP4 ADD DUP5 PUSH2 0x673 JUMP JUMPDEST SWAP3 SWAP2 POP POP JUMP JUMPDEST PUSH2 0x1D44 DUP1 PUSH2 0x6A8 PUSH0 CODECOPY PUSH0 RETURN INVALID PUSH1 0x80 PUSH1 0x40 MSTORE CALLVALUE DUP1 ISZERO PUSH2 0xF JUMPI PUSH0 DUP1 REVERT JUMPDEST POP PUSH1 0x4 CALLDATASIZE LT PUSH2 0xA7 JUMPI PUSH0 CALLDATALOAD PUSH1 0xE0 SHR DUP1 PUSH4 0x77DF41B7 GT PUSH2 0x6F JUMPI DUP1 PUSH4 0x77DF41B7 EQ PUSH2 0x17F JUMPI DUP1 PUSH4 0x7FA4BA87 EQ PUSH2 0x19B JUMPI DUP1 PUSH4 0x9F91E6BF EQ PUSH2 0x1B9 JUMPI DUP1 PUSH4 0xA9B692DB EQ PUSH2 0x1D7 JUMPI DUP1 PUSH4 0xF2630F37 EQ PUSH2 0x207 JUMPI DUP1 PUSH4 0xF544BE40 EQ PUSH2 0x223 JUMPI PUSH2 0xA7 JUMP JUMPDEST DUP1 PUSH4 0x27BBC43 EQ PUSH2 0xAB JUMPI DUP1 PUSH4 0xFE91B5E EQ PUSH2 0xDC JUMPI DUP1 PUSH4 0x1E9598E2 EQ PUSH2 0x10C JUMPI DUP1 PUSH4 0x46817041 EQ PUSH2 0x145 JUMPI DUP1 PUSH4 0x4FD2257B EQ PUSH2 0x163 JUMPI JUMPDEST PUSH0 DUP1 REVERT JUMPDEST PUSH2 0xC5 PUSH1 0x4 DUP1 CALLDATASIZE SUB DUP2 ADD SWAP1 PUSH2 0xC0 SWAP2 SWAP1 PUSH2 0x11D7 JUMP JUMPDEST PUSH2 0x257 JUMP JUMPDEST PUSH1 0x40 MLOAD PUSH2 0xD3 SWAP3 SWAP2 SWAP1 PUSH2 0x12BD JUMP JUMPDEST PUSH1 0x40 MLOAD DUP1 SWAP2 SUB SWAP1 RETURN JUMPDEST PUSH2 0xF6 PUSH1 0x4 DUP1 CALLDATASIZE SUB DUP2 ADD SWAP1 PUSH2 0xF1 SWAP2 SWAP1 PUSH2 0x11D7 JUMP JUMPDEST PUSH2 0x334 JUMP JUMPDEST PUSH1 0x40 MLOAD PUSH2 0x103 SWAP2 SWAP1 PUSH2 0x1305 JUMP JUMPDEST PUSH1 0x40 MLOAD DUP1 SWAP2 SUB SWAP1 RETURN JUMPDEST PUSH2 0x126 PUSH1 0x4 DUP1 CALLDATASIZE SUB DUP2 ADD SWAP1 PUSH2 0x121 SWAP2 SWAP1 PUSH2 0x1351 JUMP JUMPDEST PUSH2 0x5AA JUMP JUMPDEST PUSH1 0x40 MLOAD PUSH2 0x13C SWAP11 SWAP10 SWAP9 SWAP8 SWAP7 SWAP6 SWAP5 SWAP4 SWAP3 SWAP2 SWAP1 PUSH2 0x138B JUMP JUMPDEST PUSH1 0x40 MLOAD DUP1 SWAP2 SUB SWAP1 RETURN JUMPDEST PUSH2 0x14D PUSH2 0x7D6 JUMP JUMPDEST PUSH1 0x40 MLOAD PUSH2 0x15A SWAP2 SWAP1 PUSH2 0x143A JUMP JUMPDEST PUSH1 0x40 MLOAD DUP1 SWAP2 SUB SWAP1 RETURN JUMPDEST PUSH2 0x17D PUSH1 0x4 DUP1 CALLDATASIZE SUB DUP2 ADD SWAP1 PUSH2 0x178 SWAP2 SWAP1 PUSH2 0x1351 JUMP JUMPDEST PUSH2 0x7DC JUMP JUMPDEST STOP JUMPDEST PUSH2 0x199 PUSH1 0x4 DUP1 CALLDATASIZE SUB DUP2 ADD SWAP1 PUSH2 0x194 SWAP2 SWAP1 PUSH2 0x147D JUMP JUMPDEST PUSH2 0xAF9 JUMP JUMPDEST STOP JUMPDEST PUSH2 0x1A3 PUSH2 0xB97 JUMP JUMPDEST PUSH1 0x40 MLOAD PUSH2 0x1B0 SWAP2 SWAP1 PUSH2 0x1656 JUMP JUMPDEST PUSH1 0x40 MLOAD DUP1 SWAP2 SUB SWAP1 RETURN JUMPDEST PUSH2 0x1C1 PUSH2 0xD51 JUMP JUMPDEST PUSH1 0x40 MLOAD PUSH2 0x1CE SWAP2 SWAP1 PUSH2 0x143A JUMP JUMPDEST PUSH1 0x40 MLOAD DUP1 SWAP2 SUB SWAP1 RETURN JUMPDEST PUSH2 0x1F1 PUSH1 0x4 DUP1 CALLDATASIZE SUB DUP2 ADD SWAP1 PUSH2 0x1EC SWAP2 SWAP1 PUSH2 0x147D JUMP JUMPDEST PUSH2 0xD57 JUMP JUMPDEST PUSH1 0x40 MLOAD PUSH2 0x1FE SWAP2 SWAP1 PUSH2 0x143A JUMP JUMPDEST PUSH1 0x40 MLOAD DUP1 SWAP2 SUB SWAP1 RETURN JUMPDEST PUSH2 0x221 PUSH1 0x4 DUP1 CALLDATASIZE SUB DUP2 ADD SWAP1 PUSH2 0x21C SWAP2 SWAP1 PUSH2 0x1676 JUMP JUMPDEST PUSH2 0xD7C JUMP JUMPDEST STOP JUMPDEST PUSH2 0x23D PUSH1 0x4 DUP1 CALLDATASIZE SUB DUP2 ADD SWAP1 PUSH2 0x238 SWAP2 SWAP1 PUSH2 0x1741 JUMP JUMPDEST PUSH2 0xF34 JUMP JUMPDEST PUSH1 0x40 MLOAD PUSH2 0x24E SWAP6 SWAP5 SWAP4 SWAP3 SWAP2 SWAP1 PUSH2 0x176C JUMP JUMPDEST PUSH1 0x40 MLOAD DUP1 SWAP2 SUB SWAP1 RETURN JUMPDEST PUSH1 0x2 DUP2 DUP1 MLOAD PUSH1 0x20 DUP2 ADD DUP3 ADD DUP1 MLOAD DUP5 DUP3 MSTORE PUSH1 0x20 DUP4 ADD PUSH1 0x20 DUP6 ADD KECCAK256 DUP2 DUP4 MSTORE DUP1 SWAP6 POP POP POP POP POP POP PUSH0 SWAP2 POP SWAP1 POP DUP1 PUSH0 ADD DUP1 SLOAD PUSH2 0x28E SWAP1 PUSH2 0x17F8 JUMP JUMPDEST DUP1 PUSH1 0x1F ADD PUSH1 0x20 DUP1 SWAP2 DIV MUL PUSH1 0x20 ADD PUSH1 0x40 MLOAD SWAP1 DUP2 ADD PUSH1 0x40 MSTORE DUP1 SWAP3 SWAP2 SWAP1 DUP2 DUP2 MSTORE PUSH1 0x20 ADD DUP3 DUP1 SLOAD PUSH2 0x2BA SWAP1 PUSH2 0x17F8 JUMP JUMPDEST DUP1 ISZERO PUSH2 0x305 JUMPI DUP1 PUSH1 0x1F LT PUSH2 0x2DC JUMPI PUSH2 0x100 DUP1 DUP4 SLOAD DIV MUL DUP4 MSTORE SWAP2 PUSH1 0x20 ADD SWAP2 PUSH2 0x305 JUMP JUMPDEST DUP3 ADD SWAP2 SWAP1 PUSH0 MSTORE PUSH1 0x20 PUSH0 KECCAK256 SWAP1 JUMPDEST DUP2 SLOAD DUP2 MSTORE SWAP1 PUSH1 0x1 ADD SWAP1 PUSH1 0x20 ADD DUP1 DUP4 GT PUSH2 0x2E8 JUMPI DUP3 SWAP1 SUB PUSH1 0x1F AND DUP3 ADD SWAP2 JUMPDEST POP POP POP POP POP SWAP1 DUP1 PUSH1 0x1 ADD PUSH0 SWAP1 SLOAD SWAP1 PUSH2 0x100 EXP SWAP1 DIV PUSH20 0xFFFFFFFFFFFFFFFFFFFFFFFFFFFFFFFFFFFFFFFF AND SWAP1 POP DUP3 JUMP JUMPDEST PUSH0 DUP1 PUSH0 CALLER PUSH20 0xFFFFFFFFFFFFFFFFFFFFFFFFFFFFFFFFFFFFFFFF AND PUSH20 0xFFFFFFFFFFFFFFFFFFFFFFFFFFFFFFFFFFFFFFFF AND DUP2 MSTORE PUSH1 0x20 ADD SWAP1 DUP2 MSTORE PUSH1 0x20 ADD PUSH0 KECCAK256 PUSH1 0x3 ADD PUSH0 SWAP1 SLOAD SWAP1 PUSH2 0x100 EXP SWAP1 DIV PUSH1 0xFF AND ISZERO PUSH2 0x3C1 JUMPI PUSH1 0x40 MLOAD PUSH32 0x8C379A000000000000000000000000000000000000000000000000000000000 DUP2 MSTORE PUSH1 0x4 ADD PUSH2 0x3B8 SWAP1 PUSH2 0x1872 JUMP JUMPDEST PUSH1 0x40 MLOAD DUP1 SWAP2 SUB SWAP1 REVERT JUMPDEST PUSH0 DUP1 PUSH0 CALLER PUSH20 0xFFFFFFFFFFFFFFFFFFFFFFFFFFFFFFFFFFFFFFFF AND PUSH20 0xFFFFFFFFFFFFFFFFFFFFFFFFFFFFFFFFFFFFFFFF AND DUP2 MSTORE PUSH1 0x20 ADD SWAP1 DUP2 MSTORE PUSH1 0x20 ADD PUSH0 KECCAK256 SWAP1 POP PUSH1 0x5 SLOAD DUP2 PUSH0 ADD DUP2 SWAP1 SSTORE POP DUP3 DUP2 PUSH1 0x1 ADD SWAP1 DUP2 PUSH2 0x41B SWAP2 SWAP1 PUSH2 0x1A2D JUMP JUMPDEST POP PUSH1 0x40 MLOAD DUP1 PUSH1 0x20 ADD PUSH1 0x40 MSTORE DUP1 PUSH0 DUP2 MSTORE POP DUP2 PUSH1 0x2 ADD SWAP1 DUP2 PUSH2 0x43B SWAP2 SWAP1 PUSH2 0x1A2D JUMP JUMPDEST POP PUSH1 0x1 DUP2 PUSH1 0x3 ADD PUSH0 PUSH2 0x100 EXP DUP2 SLOAD DUP2 PUSH1 0xFF MUL NOT AND SWAP1 DUP4 ISZERO ISZERO MUL OR SWAP1 SSTORE POP PUSH1 0x1 PUSH0 DUP1 CALLER PUSH20 0xFFFFFFFFFFFFFFFFFFFFFFFFFFFFFFFFFFFFFFFF AND PUSH20 0xFFFFFFFFFFFFFFFFFFFFFFFFFFFFFFFFFFFFFFFF AND DUP2 MSTORE PUSH1 0x20 ADD SWAP1 DUP2 MSTORE PUSH1 0x20 ADD PUSH0 KECCAK256 SWAP1 DUP1 PUSH1 0x1 DUP2 SLOAD ADD DUP1 DUP3 SSTORE DUP1 SWAP2 POP POP PUSH1 0x1 SWAP1 SUB SWAP1 PUSH0 MSTORE PUSH1 0x20 PUSH0 KECCAK256 SWAP1 PUSH1 0x4 MUL ADD PUSH0 SWAP1 SWAP2 SWAP1 SWAP2 SWAP1 SWAP2 POP PUSH0 DUP3 ADD SLOAD DUP2 PUSH0 ADD SSTORE PUSH1 0x1 DUP3 ADD DUP2 PUSH1 0x1 ADD SWAP1 DUP2 PUSH2 0x4D8 SWAP2 SWAP1 PUSH2 0x1B11 JUMP JUMPDEST POP PUSH1 0x2 DUP3 ADD DUP2 PUSH1 0x2 ADD SWAP1 DUP2 PUSH2 0x4ED SWAP2 SWAP1 PUSH2 0x1B11 JUMP JUMPDEST POP PUSH1 0x3 DUP3 ADD PUSH0 SWAP1 SLOAD SWAP1 PUSH2 0x100 EXP SWAP1 DIV PUSH1 0xFF AND DUP2 PUSH1 0x3 ADD PUSH0 PUSH2 0x100 EXP DUP2 SLOAD DUP2 PUSH1 0xFF MUL NOT AND SWAP1 DUP4 ISZERO ISZERO MUL OR SWAP1 SSTORE POP PUSH1 0x3 DUP3 ADD PUSH1 0x1 SWAP1 SLOAD SWAP1 PUSH2 0x100 EXP SWAP1 DIV PUSH1 0xFF AND DUP2 PUSH1 0x3 ADD PUSH1 0x1 PUSH2 0x100 EXP DUP2 SLOAD DUP2 PUSH1 0xFF MUL NOT AND SWAP1 DUP4 ISZERO ISZERO MUL OR SWAP1 SSTORE POP POP POP CALLER PUSH20 0xFFFFFFFFFFFFFFFFFFFFFFFFFFFFFFFFFFFFFFFF AND PUSH32 0xC31BA56FD6CD170BC9CDB46E35545DA5631EA318D809D4651F661CBDD26BAE01 PUSH1 0x40 MLOAD PUSH1 0x40 MLOAD DUP1 SWAP2 SUB SWAP1 LOG2 PUSH1 0x1 PUSH1 0x5 SLOAD PUSH2 0x59A SWAP2 SWAP1 PUSH2 0x1C23 JUMP JUMPDEST PUSH1 0x5 DUP2 SWAP1 SSTORE POP PUSH1 0x1 SWAP2 POP POP SWAP2 SWAP1 POP JUMP JUMPDEST PUSH1 0x4 PUSH1 0x20 MSTORE DUP1 PUSH0 MSTORE PUSH1 0x40 PUSH0 KECCAK256 PUSH0 SWAP2 POP SWAP1 POP DUP1 PUSH0 ADD SLOAD SWAP1 DUP1 PUSH1 0x1 ADD DUP1 SLOAD PUSH2 0x5CF SWAP1 PUSH2 0x17F8 JUMP JUMPDEST DUP1 PUSH1 0x1F ADD PUSH1 0x20 DUP1 SWAP2 DIV MUL PUSH1 0x20 ADD PUSH1 0x40 MLOAD SWAP1 DUP2 ADD PUSH1 0x40 MSTORE DUP1 SWAP3 SWAP2 SWAP1 DUP2 DUP2 MSTORE PUSH1 0x20 ADD DUP3 DUP1 SLOAD PUSH2 0x5FB SWAP1 PUSH2 0x17F8 JUMP JUMPDEST DUP1 ISZERO PUSH2 0x646 JUMPI DUP1 PUSH1 0x1F LT PUSH2 0x61D JUMPI PUSH2 0x100 DUP1 DUP4 SLOAD DIV MUL DUP4 MSTORE SWAP2 PUSH1 0x20 ADD SWAP2 PUSH2 0x646 JUMP JUMPDEST DUP3 ADD SWAP2 SWAP1 PUSH0 MSTORE PUSH1 0x20 PUSH0 KECCAK256 SWAP1 JUMPDEST DUP2 SLOAD DUP2 MSTORE SWAP1 PUSH1 0x1 ADD SWAP1 PUSH1 0x20 ADD DUP1 DUP4 GT PUSH2 0x629 JUMPI DUP3 SWAP1 SUB PUSH1 0x1F AND DUP3 ADD SWAP2 JUMPDEST POP POP POP POP POP SWAP1 DUP1 PUSH1 0x2 ADD PUSH0 SWAP1 SLOAD SWAP1 PUSH2 0x100 EXP SWAP1 DIV PUSH20 0xFFFFFFFFFFFFFFFFFFFFFFFFFFFFFFFFFFFFFFFF AND SWAP1 DUP1 PUSH1 0x3 ADD PUSH0 SWAP1 SLOAD SWAP1 PUSH2 0x100 EXP SWAP1 DIV PUSH20 0xFFFFFFFFFFFFFFFFFFFFFFFFFFFFFFFFFFFFFFFF AND SWAP1 DUP1 PUSH1 0x4 ADD SLOAD SWAP1 DUP1 PUSH1 0x5 ADD SLOAD SWAP1 DUP1 PUSH1 0x6 ADD DUP1 SLOAD PUSH2 0x6B1 SWAP1 PUSH2 0x17F8 JUMP JUMPDEST DUP1 PUSH1 0x1F ADD PUSH1 0x20 DUP1 SWAP2 DIV MUL PUSH1 0x20 ADD PUSH1 0x40 MLOAD SWAP1 DUP2 ADD PUSH1 0x40 MSTORE DUP1 SWAP3 SWAP2 SWAP1 DUP2 DUP2 MSTORE PUSH1 0x20 ADD DUP3 DUP1 SLOAD PUSH2 0x6DD SWAP1 PUSH2 0x17F8 JUMP JUMPDEST DUP1 ISZERO PUSH2 0x728 JUMPI DUP1 PUSH1 0x1F LT PUSH2 0x6FF JUMPI PUSH2 0x100 DUP1 DUP4 SLOAD DIV MUL DUP4 MSTORE SWAP2 PUSH1 0x20 ADD SWAP2 PUSH2 0x728 JUMP JUMPDEST DUP3 ADD SWAP2 SWAP1 PUSH0 MSTORE PUSH1 0x20 PUSH0 KECCAK256 SWAP1 JUMPDEST DUP2 SLOAD DUP2 MSTORE SWAP1 PUSH1 0x1 ADD SWAP1 PUSH1 0x20 ADD DUP1 DUP4 GT PUSH2 0x70B JUMPI DUP3 SWAP1 SUB PUSH1 0x1F AND DUP3 ADD SWAP2 JUMPDEST POP POP POP POP POP SWAP1 DUP1 PUSH1 0x7 ADD DUP1 SLOAD PUSH2 0x73D SWAP1 PUSH2 0x17F8 JUMP JUMPDEST DUP1 PUSH1 0x1F ADD PUSH1 0x20 DUP1 SWAP2 DIV MUL PUSH1 0x20 ADD PUSH1 0x40 MLOAD SWAP1 DUP2 ADD PUSH1 0x40 MSTORE DUP1 SWAP3 SWAP2 SWAP1 DUP2 DUP2 MSTORE PUSH1 0x20 ADD DUP3 DUP1 SLOAD PUSH2 0x769 SWAP1 PUSH2 0x17F8 JUMP JUMPDEST DUP1 ISZERO PUSH2 0x7B4 JUMPI DUP1 PUSH1 0x1F LT PUSH2 0x78B JUMPI PUSH2 0x100 DUP1 DUP4 SLOAD DIV MUL DUP4 MSTORE SWAP2 PUSH1 0x20 ADD SWAP2 PUSH2 0x7B4 JUMP JUMPDEST DUP3 ADD SWAP2 SWAP1 PUSH0 MSTORE PUSH1 0x20 PUSH0 KECCAK256 SWAP1 JUMPDEST DUP2 SLOAD DUP2 MSTORE SWAP1 PUSH1 0x1 ADD SWAP1 PUSH1 0x20 ADD DUP1 DUP4 GT PUSH2 0x797 JUMPI DUP3 SWAP1 SUB PUSH1 0x1F AND DUP3 ADD SWAP2 JUMPDEST POP POP POP POP POP SWAP1 DUP1 PUSH1 0x8 ADD SLOAD SWAP1 DUP1 PUSH1 0x9 ADD PUSH0 SWAP1 SLOAD SWAP1 PUSH2 0x100 EXP SWAP1 DIV PUSH1 0xFF AND SWAP1 POP DUP11 JUMP JUMPDEST PUSH1 0x6 SLOAD DUP2 JUMP JUMPDEST PUSH0 PUSH1 0x4 PUSH0 DUP4 DUP2 MSTORE PUSH1 0x20 ADD SWAP1 DUP2 MSTORE PUSH1 0x20 ADD PUSH0 KECCAK256 SWAP1 POP PUSH0 DUP2 PUSH1 0x2 ADD PUSH0 SWAP1 SLOAD SWAP1 PUSH2 0x100 EXP SWAP1 DIV PUSH20 0xFFFFFFFFFFFFFFFFFFFFFFFFFFFFFFFFFFFFFFFF AND SWAP1 POP PUSH0 DUP3 PUSH1 0x3 ADD PUSH0 SWAP1 SLOAD SWAP1 PUSH2 0x100 EXP SWAP1 DIV PUSH20 0xFFFFFFFFFFFFFFFFFFFFFFFFFFFFFFFFFFFFFFFF AND SWAP1 POP PUSH0 PUSH1 0x3 PUSH0 DUP7 DUP2 MSTORE PUSH1 0x20 ADD SWAP1 DUP2 MSTORE PUSH1 0x20 ADD PUSH0 KECCAK256 PUSH0 DUP5 PUSH20 0xFFFFFFFFFFFFFFFFFFFFFFFFFFFFFFFFFFFFFFFF AND PUSH20 0xFFFFFFFFFFFFFFFFFFFFFFFFFFFFFFFFFFFFFFFF AND DUP2 MSTORE PUSH1 0x20 ADD SWAP1 DUP2 MSTORE PUSH1 0x20 ADD PUSH0 KECCAK256 PUSH0 ADD SLOAD SWAP1 POP PUSH0 PUSH1 0x3 PUSH0 DUP8 DUP2 MSTORE PUSH1 0x20 ADD SWAP1 DUP2 MSTORE PUSH1 0x20 ADD PUSH0 KECCAK256 PUSH0 DUP5 PUSH20 0xFFFFFFFFFFFFFFFFFFFFFFFFFFFFFFFFFFFFFFFF AND PUSH20 0xFFFFFFFFFFFFFFFFFFFFFFFFFFFFFFFFFFFFFFFF AND DUP2 MSTORE PUSH1 0x20 ADD SWAP1 DUP2 MSTORE PUSH1 0x20 ADD PUSH0 KECCAK256 PUSH0 ADD SLOAD SWAP1 POP PUSH0 DUP6 PUSH1 0x7 ADD DUP1 SLOAD PUSH2 0x8F2 SWAP1 PUSH2 0x17F8 JUMP JUMPDEST DUP1 PUSH1 0x1F ADD PUSH1 0x20 DUP1 SWAP2 DIV MUL PUSH1 0x20 ADD PUSH1 0x40 MLOAD SWAP1 DUP2 ADD PUSH1 0x40 MSTORE DUP1 SWAP3 SWAP2 SWAP1 DUP2 DUP2 MSTORE PUSH1 0x20 ADD DUP3 DUP1 SLOAD PUSH2 0x91E SWAP1 PUSH2 0x17F8 JUMP JUMPDEST DUP1 ISZERO PUSH2 0x969 JUMPI DUP1 PUSH1 0x1F LT PUSH2 0x940 JUMPI PUSH2 0x100 DUP1 DUP4 SLOAD DIV MUL DUP4 MSTORE SWAP2 PUSH1 0x20 ADD SWAP2 PUSH2 0x969 JUMP JUMPDEST DUP3 ADD SWAP2 SWAP1 PUSH0 MSTORE PUSH1 0x20 PUSH0 KECCAK256 SWAP1 JUMPDEST DUP2 SLOAD DUP2 MSTORE SWAP1 PUSH1 0x1 ADD SWAP1 PUSH1 0x20 ADD DUP1 DUP4 GT PUSH2 0x94C JUMPI DUP3 SWAP1 SUB PUSH1 0x1F AND DUP3 ADD SWAP2 JUMPDEST POP POP POP POP POP SWAP1 POP PUSH0 DUP7 PUSH1 0x6 ADD DUP1 SLOAD PUSH2 0x980 SWAP1 PUSH2 0x17F8 JUMP JUMPDEST DUP1 PUSH1 0x1F ADD PUSH1 0x20 DUP1 SWAP2 DIV MUL PUSH1 0x20 ADD PUSH1 0x40 MLOAD SWAP1 DUP2 ADD PUSH1 0x40 MSTORE DUP1 SWAP3 SWAP2 SWAP1 DUP2 DUP2 MSTORE PUSH1 0x20 ADD DUP3 DUP1 SLOAD PUSH2 0x9AC SWAP1 PUSH2 0x17F8 JUMP JUMPDEST DUP1 ISZERO PUSH2 0x9F7 JUMPI DUP1 PUSH1 0x1F LT PUSH2 0x9CE JUMPI PUSH2 0x100 DUP1 DUP4 SLOAD DIV MUL DUP4 MSTORE SWAP2 PUSH1 0x20 ADD SWAP2 PUSH2 0x9F7 JUMP JUMPDEST DUP3 ADD SWAP2 SWAP1 PUSH0 MSTORE PUSH1 0x20 PUSH0 KECCAK256 SWAP1 JUMPDEST DUP2 SLOAD DUP2 MSTORE SWAP1 PUSH1 0x1 ADD SWAP1 PUSH1 0x20 ADD DUP1 DUP4 GT PUSH2 0x9DA JUMPI DUP3 SWAP1 SUB PUSH1 0x1F AND DUP3 ADD SWAP2 JUMPDEST POP POP POP POP POP SWAP1 POP PUSH0 PUSH1 0x2 DUP4 PUSH1 0x40 MLOAD PUSH2 0xA0F SWAP2 SWAP1 PUSH2 0x1C90 JUMP JUMPDEST SWAP1 DUP2 MSTORE PUSH1 0x20 ADD PUSH1 0x40 MLOAD DUP1 SWAP2 SUB SWAP1 KECCAK256 SWAP1 POP DUP4 DUP6 GT ISZERO PUSH2 0xA7F JUMPI DUP7 DUP2 PUSH1 0x1 ADD PUSH0 PUSH2 0x100 EXP DUP2 SLOAD DUP2 PUSH20 0xFFFFFFFFFFFFFFFFFFFFFFFFFFFFFFFFFFFFFFFF MUL NOT AND SWAP1 DUP4 PUSH20 0xFFFFFFFFFFFFFFFFFFFFFFFFFFFFFFFFFFFFFFFF AND MUL OR SWAP1 SSTORE POP DUP2 DUP2 PUSH0 ADD SWAP1 DUP2 PUSH2 0xA79 SWAP2 SWAP1 PUSH2 0x1A2D JUMP JUMPDEST POP PUSH2 0xAD3 JUMP JUMPDEST DUP6 DUP2 PUSH1 0x1 ADD PUSH0 PUSH2 0x100 EXP DUP2 SLOAD DUP2 PUSH20 0xFFFFFFFFFFFFFFFFFFFFFFFFFFFFFFFFFFFFFFFF MUL NOT AND SWAP1 DUP4 PUSH20 0xFFFFFFFFFFFFFFFFFFFFFFFFFFFFFFFFFFFFFFFF AND MUL OR SWAP1 SSTORE POP DUP2 DUP2 PUSH0 ADD SWAP1 DUP2 PUSH2 0xAD1 SWAP2 SWAP1 PUSH2 0x1A2D JUMP JUMPDEST POP JUMPDEST PUSH0 DUP9 PUSH1 0x9 ADD PUSH0 PUSH2 0x100 EXP DUP2 SLOAD DUP2 PUSH1 0xFF MUL NOT AND SWAP1 DUP4 ISZERO ISZERO MUL OR SWAP1 SSTORE POP POP POP POP POP POP POP POP POP POP JUMP JUMPDEST PUSH0 PUSH1 0x4 PUSH0 DUP5 DUP2 MSTORE PUSH1 0x20 ADD SWAP1 DUP2 MSTORE PUSH1 0x20 ADD PUSH0 KECCAK256 SWAP1 POP PUSH0 PUSH1 0x3 PUSH0 DUP6 DUP2 MSTORE PUSH1 0x20 ADD SWAP1 DUP2 MSTORE PUSH1 0x20 ADD PUSH0 KECCAK256 PUSH0 DUP5 PUSH20 0xFFFFFFFFFFFFFFFFFFFFFFFFFFFFFFFFFFFFFFFF AND PUSH20 0xFFFFFFFFFFFFFFFFFFFFFFFFFFFFFFFFFFFFFFFF AND DUP2 MSTORE PUSH1 0x20 ADD SWAP1 DUP2 MSTORE PUSH1 0x20 ADD PUSH0 KECCAK256 SWAP1 POP PUSH1 0x1 DUP2 PUSH0 ADD PUSH0 DUP3 DUP3 SLOAD PUSH2 0xB6F SWAP2 SWAP1 PUSH2 0x1C23 JUMP JUMPDEST SWAP3 POP POP DUP2 SWAP1 SSTORE POP PUSH1 0x1 DUP3 PUSH1 0x8 ADD PUSH0 DUP3 DUP3 SLOAD PUSH2 0xB8A SWAP2 SWAP1 PUSH2 0x1C23 JUMP JUMPDEST SWAP3 POP POP DUP2 SWAP1 SSTORE POP POP POP POP POP JUMP JUMPDEST PUSH1 0x60 PUSH1 0x1 DUP1 SLOAD DUP1 PUSH1 0x20 MUL PUSH1 0x20 ADD PUSH1 0x40 MLOAD SWAP1 DUP2 ADD PUSH1 0x40 MSTORE DUP1 SWAP3 SWAP2 SWAP1 DUP2 DUP2 MSTORE PUSH1 0x20 ADD PUSH0 SWAP1 JUMPDEST DUP3 DUP3 LT ISZERO PUSH2 0xD48 JUMPI DUP4 DUP3 SWAP1 PUSH0 MSTORE PUSH1 0x20 PUSH0 KECCAK256 SWAP1 PUSH1 0x4 MUL ADD PUSH1 0x40 MLOAD DUP1 PUSH1 0xA0 ADD PUSH1 0x40 MSTORE SWAP1 DUP2 PUSH0 DUP3 ADD SLOAD DUP2 MSTORE PUSH1 0x20 ADD PUSH1 0x1 DUP3 ADD DUP1 SLOAD PUSH2 0xBF4 SWAP1 PUSH2 0x17F8 JUMP JUMPDEST DUP1 PUSH1 0x1F ADD PUSH1 0x20 DUP1 SWAP2 DIV MUL PUSH1 0x20 ADD PUSH1 0x40 MLOAD SWAP1 DUP2 ADD PUSH1 0x40 MSTORE DUP1 SWAP3 SWAP2 SWAP1 DUP2 DUP2 MSTORE PUSH1 0x20 ADD DUP3 DUP1 SLOAD PUSH2 0xC20 SWAP1 PUSH2 0x17F8 JUMP JUMPDEST DUP1 ISZERO PUSH2 0xC6B JUMPI DUP1 PUSH1 0x1F LT PUSH2 0xC42 JUMPI PUSH2 0x100 DUP1 DUP4 SLOAD DIV MUL DUP4 MSTORE SWAP2 PUSH1 0x20 ADD SWAP2 PUSH2 0xC6B JUMP JUMPDEST DUP3 ADD SWAP2 SWAP1 PUSH0 MSTORE PUSH1 0x20 PUSH0 KECCAK256 SWAP1 JUMPDEST DUP2 SLOAD DUP2 MSTORE SWAP1 PUSH1 0x1 ADD SWAP1 PUSH1 0x20 ADD DUP1 DUP4 GT PUSH2 0xC4E JUMPI DUP3 SWAP1 SUB PUSH1 0x1F AND DUP3 ADD SWAP2 JUMPDEST POP POP POP POP POP DUP2 MSTORE PUSH1 0x20 ADD PUSH1 0x2 DUP3 ADD DUP1 SLOAD PUSH2 0xC84 SWAP1 PUSH2 0x17F8 JUMP JUMPDEST DUP1 PUSH1 0x1F ADD PUSH1 0x20 DUP1 SWAP2 DIV MUL PUSH1 0x20 ADD PUSH1 0x40 MLOAD SWAP1 DUP2 ADD PUSH1 0x40 MSTORE DUP1 SWAP3 SWAP2 SWAP1 DUP2 DUP2 MSTORE PUSH1 0x20 ADD DUP3 DUP1 SLOAD PUSH2 0xCB0 SWAP1 PUSH2 0x17F8 JUMP JUMPDEST DUP1 ISZERO PUSH2 0xCFB JUMPI DUP1 PUSH1 0x1F LT PUSH2 0xCD2 JUMPI PUSH2 0x100 DUP1 DUP4 SLOAD DIV MUL DUP4 MSTORE SWAP2 PUSH1 0x20 ADD SWAP2 PUSH2 0xCFB JUMP JUMPDEST DUP3 ADD SWAP2 SWAP1 PUSH0 MSTORE PUSH1 0x20 PUSH0 KECCAK256 SWAP1 JUMPDEST DUP2 SLOAD DUP2 MSTORE SWAP1 PUSH1 0x1 ADD SWAP1 PUSH1 0x20 ADD DUP1 DUP4 GT PUSH2 0xCDE JUMPI DUP3 SWAP1 SUB PUSH1 0x1F AND DUP3 ADD SWAP2 JUMPDEST POP POP POP POP POP DUP2 MSTORE PUSH1 0x20 ADD PUSH1 0x3 DUP3 ADD PUSH0 SWAP1 SLOAD SWAP1 PUSH2 0x100 EXP SWAP1 DIV PUSH1 0xFF AND ISZERO ISZERO ISZERO ISZERO DUP2 MSTORE PUSH1 0x20 ADD PUSH1 0x3 DUP3 ADD PUSH1 0x1 SWAP1 SLOAD SWAP1 PUSH2 0x100 EXP SWAP1 DIV PUSH1 0xFF AND ISZERO ISZERO ISZERO ISZERO DUP2 MSTORE POP POP DUP2 MSTORE PUSH1 0x20 ADD SWAP1 PUSH1 0x1 ADD SWAP1 PUSH2 0xBBA JUMP JUMPDEST POP POP POP POP SWAP1 POP SWAP1 JUMP JUMPDEST PUSH1 0x5 SLOAD DUP2 JUMP JUMPDEST PUSH1 0x3 PUSH1 0x20 MSTORE DUP2 PUSH0 MSTORE PUSH1 0x40 PUSH0 KECCAK256 PUSH1 0x20 MSTORE DUP1 PUSH0 MSTORE PUSH1 0x40 PUSH0 KECCAK256 PUSH0 SWAP2 POP SWAP2 POP POP DUP1 PUSH0 ADD SLOAD SWAP1 POP DUP2 JUMP JUMPDEST PUSH1 0x4 PUSH0 PUSH1 0x6 SLOAD DUP2 MSTORE PUSH1 0x20 ADD SWAP1 DUP2 MSTORE PUSH1 0x20 ADD PUSH0 KECCAK256 PUSH1 0x9 ADD PUSH0 SWAP1 SLOAD SWAP1 PUSH2 0x100 EXP SWAP1 DIV PUSH1 0xFF AND ISZERO PUSH2 0xDDF JUMPI PUSH1 0x40 MLOAD PUSH32 0x8C379A000000000000000000000000000000000000000000000000000000000 DUP2 MSTORE PUSH1 0x4 ADD PUSH2 0xDD6 SWAP1 PUSH2 0x1CF0 JUMP JUMPDEST PUSH1 0x40 MLOAD DUP1 SWAP2 SUB SWAP1 REVERT JUMPDEST PUSH1 0x1 PUSH1 0x6 SLOAD PUSH2 0xDEE SWAP2 SWAP1 PUSH2 0x1C23 JUMP JUMPDEST PUSH1 0x6 DUP2 SWAP1 SSTORE POP PUSH0 PUSH1 0x4 PUSH0 PUSH1 0x6 SLOAD DUP2 MSTORE PUSH1 0x20 ADD SWAP1 DUP2 MSTORE PUSH1 0x20 ADD PUSH0 KECCAK256 SWAP1 POP PUSH1 0x6 SLOAD DUP2 PUSH0 ADD DUP2 SWAP1 SSTORE POP DUP6 DUP2 PUSH1 0x1 ADD SWAP1 DUP2 PUSH2 0xE25 SWAP2 SWAP1 PUSH2 0x1A2D JUMP JUMPDEST POP DUP5 DUP2 PUSH1 0x2 ADD PUSH0 PUSH2 0x100 EXP DUP2 SLOAD DUP2 PUSH20 0xFFFFFFFFFFFFFFFFFFFFFFFFFFFFFFFFFFFFFFFF MUL NOT AND SWAP1 DUP4 PUSH20 0xFFFFFFFFFFFFFFFFFFFFFFFFFFFFFFFFFFFFFFFF AND MUL OR SWAP1 SSTORE POP DUP4 DUP2 PUSH1 0x3 ADD PUSH0 PUSH2 0x100 EXP DUP2 SLOAD DUP2 PUSH20 0xFFFFFFFFFFFFFFFFFFFFFFFFFFFFFFFFFFFFFFFF MUL NOT AND SWAP1 DUP4 PUSH20 0xFFFFFFFFFFFFFFFFFFFFFFFFFFFFFFFFFFFFFFFF AND MUL OR SWAP1 SSTORE POP DUP3 DUP2 PUSH1 0x6 ADD SWAP1 DUP2 PUSH2 0xEBB SWAP2 SWAP1 PUSH2 0x1A2D JUMP JUMPDEST POP DUP2 DUP2 PUSH1 0x7 ADD SWAP1 DUP2 PUSH2 0xECD SWAP2 SWAP1 PUSH2 0x1A2D JUMP JUMPDEST POP PUSH0 DUP2 PUSH1 0x8 ADD DUP2 SWAP1 SSTORE POP PUSH1 0x1 DUP2 PUSH1 0x9 ADD PUSH0 PUSH2 0x100 EXP DUP2 SLOAD DUP2 PUSH1 0xFF MUL NOT AND SWAP1 DUP4 ISZERO ISZERO MUL OR SWAP1 SSTORE POP PUSH32 0x878BB103E2C92788427EA47308FC2C171B1F607553D68C2E7C2E98E6CDB63181 PUSH1 0x6 SLOAD PUSH1 0x40 MLOAD PUSH2 0xF24 SWAP2 SWAP1 PUSH2 0x143A JUMP JUMPDEST PUSH1 0x40 MLOAD DUP1 SWAP2 SUB SWAP1 LOG1 POP POP POP POP POP POP JUMP JUMPDEST PUSH0 PUSH1 0x20 MSTORE DUP1 PUSH0 MSTORE PUSH1 0x40 PUSH0 KECCAK256 PUSH0 SWAP2 POP SWAP1 POP DUP1 PUSH0 ADD SLOAD SWAP1 DUP1 PUSH1 0x1 ADD DUP1 SLOAD PUSH2 0xF58 SWAP1 PUSH2 0x17F8 JUMP JUMPDEST DUP1 PUSH1 0x1F ADD PUSH1 0x20 DUP1 SWAP2 DIV MUL PUSH1 0x20 ADD PUSH1 0x40 MLOAD SWAP1 DUP2 ADD PUSH1 0x40 MSTORE DUP1 SWAP3 SWAP2 SWAP1 DUP2 DUP2 MSTORE PUSH1 0x20 ADD DUP3 DUP1 SLOAD PUSH2 0xF84 SWAP1 PUSH2 0x17F8 JUMP JUMPDEST DUP1 ISZERO PUSH2 0xFCF JUMPI DUP1 PUSH1 0x1F LT PUSH2 0xFA6 JUMPI PUSH2 0x100 DUP1 DUP4 SLOAD DIV MUL DUP4 MSTORE SWAP2 PUSH1 0x20 ADD SWAP2 PUSH2 0xFCF JUMP JUMPDEST DUP3 ADD SWAP2 SWAP1 PUSH0 MSTORE PUSH1 0x20 PUSH0 KECCAK256 SWAP1 JUMPDEST DUP2 SLOAD DUP2 MSTORE SWAP1 PUSH1 0x1 ADD SWAP1 PUSH1 0x20 ADD DUP1 DUP4 GT PUSH2 0xFB2 JUMPI DUP3 SWAP1 SUB PUSH1 0x1F AND DUP3 ADD SWAP2 JUMPDEST POP POP POP POP POP SWAP1 DUP1 PUSH1 0x2 ADD DUP1 SLOAD PUSH2 0xFE4 SWAP1 PUSH2 0x17F8 JUMP JUMPDEST DUP1 PUSH1 0x1F ADD PUSH1 0x20 DUP1 SWAP2 DIV MUL PUSH1 0x20 ADD PUSH1 0x40 MLOAD SWAP1 DUP2 ADD PUSH1 0x40 MSTORE DUP1 SWAP3 SWAP2 SWAP1 DUP2 DUP2 MSTORE PUSH1 0x20 ADD DUP3 DUP1 SLOAD PUSH2 0x1010 SWAP1 PUSH2 0x17F8 JUMP JUMPDEST DUP1 ISZERO PUSH2 0x105B JUMPI DUP1 PUSH1 0x1F LT PUSH2 0x1032 JUMPI PUSH2 0x100 DUP1 DUP4 SLOAD DIV MUL DUP4 MSTORE SWAP2 PUSH1 0x20 ADD SWAP2 PUSH2 0x105B JUMP JUMPDEST DUP3 ADD SWAP2 SWAP1 PUSH0 MSTORE PUSH1 0x20 PUSH0 KECCAK256 SWAP1 JUMPDEST DUP2 SLOAD DUP2 MSTORE SWAP1 PUSH1 0x1 ADD SWAP1 PUSH1 0x20 ADD DUP1 DUP4 GT PUSH2 0x103E JUMPI DUP3 SWAP1 SUB PUSH1 0x1F AND DUP3 ADD SWAP2 JUMPDEST POP POP POP POP POP SWAP1 DUP1 PUSH1 0x3 ADD PUSH0 SWAP1 SLOAD SWAP1 PUSH2 0x100 EXP SWAP1 DIV PUSH1 0xFF AND SWAP1 DUP1 PUSH1 0x3 ADD PUSH1 0x1 SWAP1 SLOAD SWAP1 PUSH2 0x100 EXP SWAP1 DIV PUSH1 0xFF AND SWAP1 POP DUP6 JUMP JUMPDEST PUSH0 PUSH1 0x40 MLOAD SWAP1 POP SWAP1 JUMP JUMPDEST PUSH0 DUP1 REVERT JUMPDEST PUSH0 DUP1 REVERT JUMPDEST PUSH0 DUP1 REVERT JUMPDEST PUSH0 DUP1 REVERT JUMPDEST PUSH0 PUSH1 0x1F NOT PUSH1 0x1F DUP4 ADD AND SWAP1 POP SWAP2 SWAP1 POP JUMP JUMPDEST PUSH32 0x4E487B7100000000000000000000000000000000000000000000000000000000 PUSH0 MSTORE PUSH1 0x41 PUSH1 0x4 MSTORE PUSH1 0x24 PUSH0 REVERT JUMPDEST PUSH2 0x10E9 DUP3 PUSH2 0x10A3 JUMP JUMPDEST DUP2 ADD DUP2 DUP2 LT PUSH8 0xFFFFFFFFFFFFFFFF DUP3 GT OR ISZERO PUSH2 0x1108 JUMPI PUSH2 0x1107 PUSH2 0x10B3 JUMP JUMPDEST JUMPDEST DUP1 PUSH1 0x40 MSTORE POP POP POP JUMP JUMPDEST PUSH0 PUSH2 0x111A PUSH2 0x108A JUMP JUMPDEST SWAP1 POP PUSH2 0x1126 DUP3 DUP3 PUSH2 0x10E0 JUMP JUMPDEST SWAP2 SWAP1 POP JUMP JUMPDEST PUSH0 PUSH8 0xFFFFFFFFFFFFFFFF DUP3 GT ISZERO PUSH2 0x1145 JUMPI PUSH2 0x1144 PUSH2 0x10B3 JUMP JUMPDEST JUMPDEST PUSH2 0x114E DUP3 PUSH2 0x10A3 JUMP JUMPDEST SWAP1 POP PUSH1 0x20 DUP2 ADD SWAP1 POP SWAP2 SWAP1 POP JUMP JUMPDEST DUP3 DUP2 DUP4 CALLDATACOPY PUSH0 DUP4 DUP4 ADD MSTORE POP POP POP JUMP JUMPDEST PUSH0 PUSH2 0x117B PUSH2 0x1176 DUP5 PUSH2 0x112B JUMP JUMPDEST PUSH2 0x1111 JUMP JUMPDEST SWAP1 POP DUP3 DUP2 MSTORE PUSH1 0x20 DUP2 ADD DUP5 DUP5 DUP5 ADD GT ISZERO PUSH2 0x1197 JUMPI PUSH2 0x1196 PUSH2 0x109F JUMP JUMPDEST JUMPDEST PUSH2 0x11A2 DUP5 DUP3 DUP6 PUSH2 0x115B JUMP JUMPDEST POP SWAP4 SWAP3 POP POP POP JUMP JUMPDEST PUSH0 DUP3 PUSH1 0x1F DUP4 ADD SLT PUSH2 0x11BE JUMPI PUSH2 0x11BD PUSH2 0x109B JUMP JUMPDEST JUMPDEST DUP2 CALLDATALOAD PUSH2 0x11CE DUP5 DUP3 PUSH1 0x20 DUP7 ADD PUSH2 0x1169 JUMP JUMPDEST SWAP2 POP POP SWAP3 SWAP2 POP POP JUMP JUMPDEST PUSH0 PUSH1 0x20 DUP3 DUP5 SUB SLT ISZERO PUSH2 0x11EC JUMPI PUSH2 0x11EB PUSH2 0x1093 JUMP JUMPDEST JUMPDEST PUSH0 DUP3 ADD CALLDATALOAD PUSH8 0xFFFFFFFFFFFFFFFF DUP2 GT ISZERO PUSH2 0x1209 JUMPI PUSH2 0x1208 PUSH2 0x1097 JUMP JUMPDEST JUMPDEST PUSH2 0x1215 DUP5 DUP3 DUP6 ADD PUSH2 0x11AA JUMP JUMPDEST SWAP2 POP POP SWAP3 SWAP2 POP POP JUMP JUMPDEST PUSH0 DUP2 MLOAD SWAP1 POP SWAP2 SWAP1 POP JUMP JUMPDEST PUSH0 DUP3 DUP3 MSTORE PUSH1 0x20 DUP3 ADD SWAP1 POP SWAP3 SWAP2 POP POP JUMP JUMPDEST DUP3 DUP2 DUP4 MCOPY PUSH0 DUP4 DUP4 ADD MSTORE POP POP POP JUMP JUMPDEST PUSH0 PUSH2 0x1250 DUP3 PUSH2 0x121E JUMP JUMPDEST PUSH2 0x125A DUP2 DUP6 PUSH2 0x1228 JUMP JUMPDEST SWAP4 POP PUSH2 0x126A DUP2 DUP6 PUSH1 0x20 DUP7 ADD PUSH2 0x1238 JUMP JUMPDEST PUSH2 0x1273 DUP2 PUSH2 0x10A3 JUMP JUMPDEST DUP5 ADD SWAP2 POP POP SWAP3 SWAP2 POP POP JUMP JUMPDEST PUSH0 PUSH20 0xFFFFFFFFFFFFFFFFFFFFFFFFFFFFFFFFFFFFFFFF DUP3 AND SWAP1 POP SWAP2 SWAP1 POP JUMP JUMPDEST PUSH0 PUSH2 0x12A7 DUP3 PUSH2 0x127E JUMP JUMPDEST SWAP1 POP SWAP2 SWAP1 POP JUMP JUMPDEST PUSH2 0x12B7 DUP2 PUSH2 0x129D JUMP JUMPDEST DUP3 MSTORE POP POP JUMP JUMPDEST PUSH0 PUSH1 0x40 DUP3 ADD SWAP1 POP DUP2 DUP2 SUB PUSH0 DUP4 ADD MSTORE PUSH2 0x12D5 DUP2 DUP6 PUSH2 0x1246 JUMP JUMPDEST SWAP1 POP PUSH2 0x12E4 PUSH1 0x20 DUP4 ADD DUP5 PUSH2 0x12AE JUMP JUMPDEST SWAP4 SWAP3 POP POP POP JUMP JUMPDEST PUSH0 DUP2 ISZERO ISZERO SWAP1 POP SWAP2 SWAP1 POP JUMP JUMPDEST PUSH2 0x12FF DUP2 PUSH2 0x12EB JUMP JUMPDEST DUP3 MSTORE POP POP JUMP JUMPDEST PUSH0 PUSH1 0x20 DUP3 ADD SWAP1 POP PUSH2 0x1318 PUSH0 DUP4 ADD DUP5 PUSH2 0x12F6 JUMP JUMPDEST SWAP3 SWAP2 POP POP JUMP JUMPDEST PUSH0 DUP2 SWAP1 POP SWAP2 SWAP1 POP JUMP JUMPDEST PUSH2 0x1330 DUP2 PUSH2 0x131E JUMP JUMPDEST DUP2 EQ PUSH2 0x133A JUMPI PUSH0 DUP1 REVERT JUMPDEST POP JUMP JUMPDEST PUSH0 DUP2 CALLDATALOAD SWAP1 POP PUSH2 0x134B DUP2 PUSH2 0x1327 JUMP JUMPDEST SWAP3 SWAP2 POP POP JUMP JUMPDEST PUSH0 PUSH1 0x20 DUP3 DUP5 SUB SLT ISZERO PUSH2 0x1366 JUMPI PUSH2 0x1365 PUSH2 0x1093 JUMP JUMPDEST JUMPDEST PUSH0 PUSH2 0x1373 DUP5 DUP3 DUP6 ADD PUSH2 0x133D JUMP JUMPDEST SWAP2 POP POP SWAP3 SWAP2 POP POP JUMP JUMPDEST PUSH2 0x1385 DUP2 PUSH2 0x131E JUMP JUMPDEST DUP3 MSTORE POP POP JUMP JUMPDEST PUSH0 PUSH2 0x140 DUP3 ADD SWAP1 POP PUSH2 0x139F PUSH0 DUP4 ADD DUP14 PUSH2 0x137C JUMP JUMPDEST DUP2 DUP2 SUB PUSH1 0x20 DUP4 ADD MSTORE PUSH2 0x13B1 DUP2 DUP13 PUSH2 0x1246 JUMP JUMPDEST SWAP1 POP PUSH2 0x13C0 PUSH1 0x40 DUP4 ADD DUP12 PUSH2 0x12AE JUMP JUMPDEST PUSH2 0x13CD PUSH1 0x60 DUP4 ADD DUP11 PUSH2 0x12AE JUMP JUMPDEST PUSH2 0x13DA PUSH1 0x80 DUP4 ADD DUP10 PUSH2 0x137C JUMP JUMPDEST PUSH2 0x13E7 PUSH1 0xA0 DUP4 ADD DUP9 PUSH2 0x137C JUMP JUMPDEST DUP2 DUP2 SUB PUSH1 0xC0 DUP4 ADD MSTORE PUSH2 0x13F9 DUP2 DUP8 PUSH2 0x1246 JUMP JUMPDEST SWAP1 POP DUP2 DUP2 SUB PUSH1 0xE0 DUP4 ADD MSTORE PUSH2 0x140D DUP2 DUP7 PUSH2 0x1246 JUMP JUMPDEST SWAP1 POP PUSH2 0x141D PUSH2 0x100 DUP4 ADD DUP6 PUSH2 0x137C JUMP JUMPDEST PUSH2 0x142B PUSH2 0x120 DUP4 ADD DUP5 PUSH2 0x12F6 JUMP JUMPDEST SWAP12 SWAP11 POP POP POP POP POP POP POP POP POP POP POP JUMP JUMPDEST PUSH0 PUSH1 0x20 DUP3 ADD SWAP1 POP PUSH2 0x144D PUSH0 DUP4 ADD DUP5 PUSH2 0x137C JUMP JUMPDEST SWAP3 SWAP2 POP POP JUMP JUMPDEST PUSH2 0x145C DUP2 PUSH2 0x129D JUMP JUMPDEST DUP2 EQ PUSH2 0x1466 JUMPI PUSH0 DUP1 REVERT JUMPDEST POP JUMP JUMPDEST PUSH0 DUP2 CALLDATALOAD SWAP1 POP PUSH2 0x1477 DUP2 PUSH2 0x1453 JUMP JUMPDEST SWAP3 SWAP2 POP POP JUMP JUMPDEST PUSH0 DUP1 PUSH1 0x40 DUP4 DUP6 SUB SLT ISZERO PUSH2 0x1493 JUMPI PUSH2 0x1492 PUSH2 0x1093 JUMP JUMPDEST JUMPDEST PUSH0 PUSH2 0x14A0 DUP6 DUP3 DUP7 ADD PUSH2 0x133D JUMP JUMPDEST SWAP3 POP POP PUSH1 0x20 PUSH2 0x14B1 DUP6 DUP3 DUP7 ADD PUSH2 0x1469 JUMP JUMPDEST SWAP2 POP POP SWAP3 POP SWAP3 SWAP1 POP JUMP JUMPDEST PUSH0 DUP2 MLOAD SWAP1 POP SWAP2 SWAP1 POP JUMP JUMPDEST PUSH0 DUP3 DUP3 MSTORE PUSH1 0x20 DUP3 ADD SWAP1 POP SWAP3 SWAP2 POP POP JUMP JUMPDEST PUSH0 DUP2 SWAP1 POP PUSH1 0x20 DUP3 ADD SWAP1 POP SWAP2 SWAP1 POP JUMP JUMPDEST PUSH2 0x14ED DUP2 PUSH2 0x131E JUMP JUMPDEST DUP3 MSTORE POP POP JUMP JUMPDEST PUSH0 DUP3 DUP3 MSTORE PUSH1 0x20 DUP3 ADD SWAP1 POP SWAP3 SWAP2 POP POP JUMP JUMPDEST PUSH0 PUSH2 0x150D DUP3 PUSH2 0x121E JUMP JUMPDEST PUSH2 0x1517 DUP2 DUP6 PUSH2 0x14F3 JUMP JUMPDEST SWAP4 POP PUSH2 0x1527 DUP2 DUP6 PUSH1 0x20 DUP7 ADD PUSH2 0x1238 JUMP JUMPDEST PUSH2 0x1530 DUP2 PUSH2 0x10A3 JUMP JUMPDEST DUP5 ADD SWAP2 POP POP SWAP3 SWAP2 POP POP JUMP JUMPDEST PUSH2 0x1544 DUP2 PUSH2 0x12EB JUMP JUMPDEST DUP3 MSTORE POP POP JUMP JUMPDEST PUSH0 PUSH1 0xA0 DUP4 ADD PUSH0 DUP4 ADD MLOAD PUSH2 0x155F PUSH0 DUP7 ADD DUP3 PUSH2 0x14E4 JUMP JUMPDEST POP PUSH1 0x20 DUP4 ADD MLOAD DUP5 DUP3 SUB PUSH1 0x20 DUP7 ADD MSTORE PUSH2 0x1577 DUP3 DUP3 PUSH2 0x1503 JUMP JUMPDEST SWAP2 POP POP PUSH1 0x40 DUP4 ADD MLOAD DUP5 DUP3 SUB PUSH1 0x40 DUP7 ADD MSTORE PUSH2 0x1591 DUP3 DUP3 PUSH2 0x1503 JUMP JUMPDEST SWAP2 POP POP PUSH1 0x60 DUP4 ADD MLOAD PUSH2 0x15A6 PUSH1 0x60 DUP7 ADD DUP3 PUSH2 0x153B JUMP JUMPDEST POP PUSH1 0x80 DUP4 ADD MLOAD PUSH2 0x15B9 PUSH1 0x80 DUP7 ADD DUP3 PUSH2 0x153B JUMP JUMPDEST POP DUP1 SWAP2 POP POP SWAP3 SWAP2 POP POP JUMP JUMPDEST PUSH0 PUSH2 0x15CF DUP4 DUP4 PUSH2 0x154A JUMP JUMPDEST SWAP1 POP SWAP3 SWAP2 POP POP JUMP JUMPDEST PUSH0 PUSH1 0x20 DUP3 ADD SWAP1 POP SWAP2 SWAP1 POP JUMP JUMPDEST PUSH0 PUSH2 0x15ED DUP3 PUSH2 0x14BB JUMP JUMPDEST PUSH2 0x15F7 DUP2 DUP6 PUSH2 0x14C5 JUMP JUMPDEST SWAP4 POP DUP4 PUSH1 0x20 DUP3 MUL DUP6 ADD PUSH2 0x1609 DUP6 PUSH2 0x14D5 JUMP JUMPDEST DUP1 PUSH0 JUMPDEST DUP6 DUP2 LT ISZERO PUSH2 0x1644 JUMPI DUP5 DUP5 SUB DUP10 MSTORE DUP2 MLOAD PUSH2 0x1625 DUP6 DUP3 PUSH2 0x15C4 JUMP JUMPDEST SWAP5 POP PUSH2 0x1630 DUP4 PUSH2 0x15D7 JUMP JUMPDEST SWAP3 POP PUSH1 0x20 DUP11 ADD SWAP10 POP POP PUSH1 0x1 DUP2 ADD SWAP1 POP PUSH2 0x160C JUMP JUMPDEST POP DUP3 SWAP8 POP DUP8 SWAP6 POP POP POP POP POP POP SWAP3 SWAP2 POP POP JUMP JUMPDEST PUSH0 PUSH1 0x20 DUP3 ADD SWAP1 POP DUP2 DUP2 SUB PUSH0 DUP4 ADD MSTORE PUSH2 0x166E DUP2 DUP5 PUSH2 0x15E3 JUMP JUMPDEST SWAP1 POP SWAP3 SWAP2 POP POP JUMP JUMPDEST PUSH0 DUP1 PUSH0 DUP1 PUSH0 PUSH1 0xA0 DUP7 DUP9 SUB SLT ISZERO PUSH2 0x168F JUMPI PUSH2 0x168E PUSH2 0x1093 JUMP JUMPDEST JUMPDEST PUSH0 DUP7 ADD CALLDATALOAD PUSH8 0xFFFFFFFFFFFFFFFF DUP2 GT ISZERO PUSH2 0x16AC JUMPI PUSH2 0x16AB PUSH2 0x1097 JUMP JUMPDEST JUMPDEST PUSH2 0x16B8 DUP9 DUP3 DUP10 ADD PUSH2 0x11AA JUMP JUMPDEST SWAP6 POP POP PUSH1 0x20 PUSH2 0x16C9 DUP9 DUP3 DUP10 ADD PUSH2 0x1469 JUMP JUMPDEST SWAP5 POP POP PUSH1 0x40 PUSH2 0x16DA DUP9 DUP3 DUP10 ADD PUSH2 0x1469 JUMP JUMPDEST SWAP4 POP POP PUSH1 0x60 DUP7 ADD CALLDATALOAD PUSH8 0xFFFFFFFFFFFFFFFF DUP2 GT ISZERO PUSH2 0x16FB JUMPI PUSH2 0x16FA PUSH2 0x1097 JUMP JUMPDEST JUMPDEST PUSH2 0x1707 DUP9 DUP3 DUP10 ADD PUSH2 0x11AA JUMP JUMPDEST SWAP3 POP POP PUSH1 0x80 DUP7 ADD CALLDATALOAD PUSH8 0xFFFFFFFFFFFFFFFF DUP2 GT ISZERO PUSH2 0x1728 JUMPI PUSH2 0x1727 PUSH2 0x1097 JUMP JUMPDEST JUMPDEST PUSH2 0x1734 DUP9 DUP3 DUP10 ADD PUSH2 0x11AA JUMP JUMPDEST SWAP2 POP POP SWAP3 SWAP6 POP SWAP3 SWAP6 SWAP1 SWAP4 POP JUMP JUMPDEST PUSH0 PUSH1 0x20 DUP3 DUP5 SUB SLT ISZERO PUSH2 0x1756 JUMPI PUSH2 0x1755 PUSH2 0x1093 JUMP JUMPDEST JUMPDEST PUSH0 PUSH2 0x1763 DUP5 DUP3 DUP6 ADD PUSH2 0x1469 JUMP JUMPDEST SWAP2 POP POP SWAP3 SWAP2 POP POP JUMP JUMPDEST PUSH0 PUSH1 0xA0 DUP3 ADD SWAP1 POP PUSH2 0x177F PUSH0 DUP4 ADD DUP9 PUSH2 0x137C JUMP JUMPDEST DUP2 DUP2 SUB PUSH1 0x20 DUP4 ADD MSTORE PUSH2 0x1791 DUP2 DUP8 PUSH2 0x1246 JUMP JUMPDEST SWAP1 POP DUP2 DUP2 SUB PUSH1 0x40 DUP4 ADD MSTORE PUSH2 0x17A5 DUP2 DUP7 PUSH2 0x1246 JUMP JUMPDEST SWAP1 POP PUSH2 0x17B4 PUSH1 0x60 DUP4 ADD DUP6 PUSH2 0x12F6 JUMP JUMPDEST PUSH2 0x17C1 PUSH1 0x80 DUP4 ADD DUP5 PUSH2 0x12F6 JUMP JUMPDEST SWAP7 SWAP6 POP POP POP POP POP POP JUMP JUMPDEST PUSH32 0x4E487B7100000000000000000000000000000000000000000000000000000000 PUSH0 MSTORE PUSH1 0x22 PUSH1 0x4 MSTORE PUSH1 0x24 PUSH0 REVERT JUMPDEST PUSH0 PUSH1 0x2 DUP3 DIV SWAP1 POP PUSH1 0x1 DUP3 AND DUP1 PUSH2 0x180F JUMPI PUSH1 0x7F DUP3 AND SWAP2 POP JUMPDEST PUSH1 0x20 DUP3 LT DUP2 SUB PUSH2 0x1822 JUMPI PUSH2 0x1821 PUSH2 0x17CB JUMP JUMPDEST JUMPDEST POP SWAP2 SWAP1 POP JUMP JUMPDEST PUSH32 0x43414E204F4E4C59205245474953544552204F4E434500000000000000000000 PUSH0 DUP3 ADD MSTORE POP JUMP JUMPDEST PUSH0 PUSH2 0x185C PUSH1 0x16 DUP4 PUSH2 0x1228 JUMP JUMPDEST SWAP2 POP PUSH2 0x1867 DUP3 PUSH2 0x1828 JUMP JUMPDEST PUSH1 0x20 DUP3 ADD SWAP1 POP SWAP2 SWAP1 POP JUMP JUMPDEST PUSH0 PUSH1 0x20 DUP3 ADD SWAP1 POP DUP2 DUP2 SUB PUSH0 DUP4 ADD MSTORE PUSH2 0x1889 DUP2 PUSH2 0x1850 JUMP JUMPDEST SWAP1 POP SWAP2 SWAP1 POP JUMP JUMPDEST PUSH0 DUP2 SWAP1 POP DUP2 PUSH0 MSTORE PUSH1 0x20 PUSH0 KECCAK256 SWAP1 POP SWAP2 SWAP1 POP JUMP JUMPDEST PUSH0 PUSH1 0x20 PUSH1 0x1F DUP4 ADD DIV SWAP1 POP SWAP2 SWAP1 POP JUMP JUMPDEST PUSH0 DUP3 DUP3 SHL SWAP1 POP SWAP3 SWAP2 POP POP JUMP JUMPDEST PUSH0 PUSH1 0x8 DUP4 MUL PUSH2 0x18EC PUSH32 0xFFFFFFFFFFFFFFFFFFFFFFFFFFFFFFFFFFFFFFFFFFFFFFFFFFFFFFFFFFFFFFFF DUP3 PUSH2 0x18B1 JUMP JUMPDEST PUSH2 0x18F6 DUP7 DUP4 PUSH2 0x18B1 JUMP JUMPDEST SWAP6 POP DUP1 NOT DUP5 AND SWAP4 POP DUP1 DUP7 AND DUP5 OR SWAP3 POP POP POP SWAP4 SWAP3 POP POP POP JUMP JUMPDEST PUSH0 DUP2 SWAP1 POP SWAP2 SWAP1 POP JUMP JUMPDEST PUSH0 PUSH2 0x1931 PUSH2 0x192C PUSH2 0x1927 DUP5 PUSH2 0x131E JUMP JUMPDEST PUSH2 0x190E JUMP JUMPDEST PUSH2 0x131E JUMP JUMPDEST SWAP1 POP SWAP2 SWAP1 POP JUMP JUMPDEST PUSH0 DUP2 SWAP1 POP SWAP2 SWAP1 POP JUMP JUMPDEST PUSH2 0x194A DUP4 PUSH2 0x1917 JUMP JUMPDEST PUSH2 0x195E PUSH2 0x1956 DUP3 PUSH2 0x1938 JUMP JUMPDEST DUP5 DUP5 SLOAD PUSH2 0x18BD JUMP JUMPDEST DUP3 SSTORE POP POP POP POP JUMP JUMPDEST PUSH0 SWAP1 JUMP JUMPDEST PUSH2 0x1972 PUSH2 0x1966 JUMP JUMPDEST PUSH2 0x197D DUP2 DUP5 DUP5 PUSH2 0x1941 JUMP JUMPDEST POP POP POP JUMP JUMPDEST JUMPDEST DUP2 DUP2 LT ISZERO PUSH2 0x19A0 JUMPI PUSH2 0x1995 PUSH0 DUP3 PUSH2 0x196A JUMP JUMPDEST PUSH1 0x1 DUP2 ADD SWAP1 POP PUSH2 0x1983 JUMP JUMPDEST POP POP JUMP JUMPDEST PUSH1 0x1F DUP3 GT ISZERO PUSH2 0x19E5 JUMPI PUSH2 0x19B6 DUP2 PUSH2 0x1890 JUMP JUMPDEST PUSH2 0x19BF DUP5 PUSH2 0x18A2 JUMP JUMPDEST DUP2 ADD PUSH1 0x20 DUP6 LT ISZERO PUSH2 0x19CE JUMPI DUP2 SWAP1 POP JUMPDEST PUSH2 0x19E2 PUSH2 0x19DA DUP6 PUSH2 0x18A2 JUMP JUMPDEST DUP4 ADD DUP3 PUSH2 0x1982 JUMP JUMPDEST POP POP JUMPDEST POP POP POP JUMP JUMPDEST PUSH0 DUP3 DUP3 SHR SWAP1 POP SWAP3 SWAP2 POP POP JUMP JUMPDEST PUSH0 PUSH2 0x1A05 PUSH0 NOT DUP5 PUSH1 0x8 MUL PUSH2 0x19EA JUMP JUMPDEST NOT DUP1 DUP4 AND SWAP2 POP POP SWAP3 SWAP2 POP POP JUMP JUMPDEST PUSH0 PUSH2 0x1A1D DUP4 DUP4 PUSH2 0x19F6 JUMP JUMPDEST SWAP2 POP DUP3 PUSH1 0x2 MUL DUP3 OR SWAP1 POP SWAP3 SWAP2 POP POP JUMP JUMPDEST PUSH2 0x1A36 DUP3 PUSH2 0x121E JUMP JUMPDEST PUSH8 0xFFFFFFFFFFFFFFFF DUP2 GT ISZERO PUSH2 0x1A4F JUMPI PUSH2 0x1A4E PUSH2 0x10B3 JUMP JUMPDEST JUMPDEST PUSH2 0x1A59 DUP3 SLOAD PUSH2 0x17F8 JUMP JUMPDEST PUSH2 0x1A64 DUP3 DUP3 DUP6 PUSH2 0x19A4 JUMP JUMPDEST PUSH0 PUSH1 0x20 SWAP1 POP PUSH1 0x1F DUP4 GT PUSH1 0x1 DUP2 EQ PUSH2 0x1A95 JUMPI PUSH0 DUP5 ISZERO PUSH2 0x1A83 JUMPI DUP3 DUP8 ADD MLOAD SWAP1 POP JUMPDEST PUSH2 0x1A8D DUP6 DUP3 PUSH2 0x1A12 JUMP JUMPDEST DUP7 SSTORE POP PUSH2 0x1AF4 JUMP JUMPDEST PUSH1 0x1F NOT DUP5 AND PUSH2 0x1AA3 DUP7 PUSH2 0x1890 JUMP JUMPDEST PUSH0 JUMPDEST DUP3 DUP2 LT ISZERO PUSH2 0x1ACA JUMPI DUP5 DUP10 ADD MLOAD DUP3 SSTORE PUSH1 0x1 DUP3 ADD SWAP2 POP PUSH1 0x20 DUP6 ADD SWAP5 POP PUSH1 0x20 DUP2 ADD SWAP1 POP PUSH2 0x1AA5 JUMP JUMPDEST DUP7 DUP4 LT ISZERO PUSH2 0x1AE7 JUMPI DUP5 DUP10 ADD MLOAD PUSH2 0x1AE3 PUSH1 0x1F DUP10 AND DUP3 PUSH2 0x19F6 JUMP JUMPDEST DUP4 SSTORE POP JUMPDEST PUSH1 0x1 PUSH1 0x2 DUP9 MUL ADD DUP9 SSTORE POP POP POP JUMPDEST POP POP POP POP POP POP JUMP JUMPDEST PUSH0 DUP2 SLOAD SWAP1 POP PUSH2 0x1B0A DUP2 PUSH2 0x17F8 JUMP JUMPDEST SWAP1 POP SWAP2 SWAP1 POP JUMP JUMPDEST DUP2 DUP2 SUB PUSH2 0x1B1F JUMPI POP POP PUSH2 0x1BF4 JUMP JUMPDEST PUSH2 0x1B28 DUP3 PUSH2 0x1AFC JUMP JUMPDEST PUSH8 0xFFFFFFFFFFFFFFFF DUP2 GT ISZERO PUSH2 0x1B41 JUMPI PUSH2 0x1B40 PUSH2 0x10B3 JUMP JUMPDEST JUMPDEST PUSH2 0x1B4B DUP3 SLOAD PUSH2 0x17F8 JUMP JUMPDEST PUSH2 0x1B56 DUP3 DUP3 DUP6 PUSH2 0x19A4 JUMP JUMPDEST PUSH0 PUSH1 0x1F DUP4 GT PUSH1 0x1 DUP2 EQ PUSH2 0x1B83 JUMPI PUSH0 DUP5 ISZERO PUSH2 0x1B71 JUMPI DUP3 DUP8 ADD SLOAD SWAP1 POP JUMPDEST PUSH2 0x1B7B DUP6 DUP3 PUSH2 0x1A12 JUMP JUMPDEST DUP7 SSTORE POP PUSH2 0x1BED JUMP JUMPDEST PUSH1 0x1F NOT DUP5 AND PUSH2 0x1B91 DUP8 PUSH2 0x1890 JUMP JUMPDEST SWAP7 POP PUSH2 0x1B9C DUP7 PUSH2 0x1890 JUMP JUMPDEST PUSH0 JUMPDEST DUP3 DUP2 LT ISZERO PUSH2 0x1BC3 JUMPI DUP5 DUP10 ADD SLOAD DUP3 SSTORE PUSH1 0x1 DUP3 ADD SWAP2 POP PUSH1 0x1 DUP6 ADD SWAP5 POP PUSH1 0x20 DUP2 ADD SWAP1 POP PUSH2 0x1B9E JUMP JUMPDEST DUP7 DUP4 LT ISZERO PUSH2 0x1BE0 JUMPI DUP5 DUP10 ADD SLOAD PUSH2 0x1BDC PUSH1 0x1F DUP10 AND DUP3 PUSH2 0x19F6 JUMP JUMPDEST DUP4 SSTORE POP JUMPDEST PUSH1 0x1 PUSH1 0x2 DUP9 MUL ADD DUP9 SSTORE POP POP POP JUMPDEST POP POP POP POP POP POP JUMPDEST JUMP JUMPDEST PUSH32 0x4E487B7100000000000000000000000000000000000000000000000000000000 PUSH0 MSTORE PUSH1 0x11 PUSH1 0x4 MSTORE PUSH1 0x24 PUSH0 REVERT JUMPDEST PUSH0 PUSH2 0x1C2D DUP3 PUSH2 0x131E JUMP JUMPDEST SWAP2 POP PUSH2 0x1C38 DUP4 PUSH2 0x131E JUMP JUMPDEST SWAP3 POP DUP3 DUP3 ADD SWAP1 POP DUP1 DUP3 GT ISZERO PUSH2 0x1C50 JUMPI PUSH2 0x1C4F PUSH2 0x1BF6 JUMP JUMPDEST JUMPDEST SWAP3 SWAP2 POP POP JUMP JUMPDEST PUSH0 DUP2 SWAP1 POP SWAP3 SWAP2 POP POP JUMP JUMPDEST PUSH0 PUSH2 0x1C6A DUP3 PUSH2 0x121E JUMP JUMPDEST PUSH2 0x1C74 DUP2 DUP6 PUSH2 0x1C56 JUMP JUMPDEST SWAP4 POP PUSH2 0x1C84 DUP2 DUP6 PUSH1 0x20 DUP7 ADD PUSH2 0x1238 JUMP JUMPDEST DUP1 DUP5 ADD SWAP2 POP POP SWAP3 SWAP2 POP POP JUMP JUMPDEST PUSH0 PUSH2 0x1C9B DUP3 DUP5 PUSH2 0x1C60 JUMP JUMPDEST SWAP2 POP DUP2 SWAP1 POP SWAP3 SWAP2 POP POP JUMP JUMPDEST PUSH32 0x456C656374696F6E20616C726561647920657869737473000000000000000000 PUSH0 DUP3 ADD MSTORE POP JUMP JUMPDEST PUSH0 PUSH2 0x1CDA PUSH1 0x17 DUP4 PUSH2 0x1228 JUMP JUMPDEST SWAP2 POP PUSH2 0x1CE5 DUP3 PUSH2 0x1CA6 JUMP JUMPDEST PUSH1 0x20 DUP3 ADD SWAP1 POP SWAP2 SWAP1 POP JUMP JUMPDEST PUSH0 PUSH1 0x20 DUP3 ADD SWAP1 POP DUP2 DUP2 SUB PUSH0 DUP4 ADD MSTORE PUSH2 0x1D07 DUP2 PUSH2 0x1CCE JUMP JUMPDEST SWAP1 POP SWAP2 SWAP1 POP JUMP INVALID LOG2 PUSH5 0x6970667358 0x22 SLT KECCAK256 LT 0xD3 BLOBBASEFEE 0xBC 0xC9 SWAP4 0xCA 0xA5 PUSH3 0xA8F0DB DUP7 0xBC REVERT 0x2C SWAP8 0xBD RETURNDATASIZE DUP3 0xC 0xCA 0xCD 0x21 PUSH5 0x87ADE7B7D6 JUMPI DUP5 PUSH5 0x736F6C6343 STOP ADDMOD BYTE STOP CALLER 0x4E PUSH2 0x7469 PUSH16 0x6E616C206D69642D7465726D20707265 PUSH20 0x6964656E7469616C20656C656374696F6E2C2032 ADDRESS ORIGIN CALLDATACOPY 0x2C KECCAK256 POP 0x4F KECCAK256 PUSH23 0x7320424154000000000000000000000000000000000000 "
				},
				"gasEstimates": {
					"creation": {
						"codeDepositCost": "1498400",
						"executionCost": "infinite",
						"totalCost": "infinite"
					},
					"external": {
						"Elections(uint256)": "infinite",
						"Persons(address)": "infinite",
						"Positions(string)": "infinite",
						"Votes(uint256,address)": "infinite",
						"candidateId()": "2469",
						"castVote(uint256,address)": "infinite",
						"concludeElection(uint256)": "infinite",
						"electionsCounter()": "2492",
						"getAllPersons()": "infinite",
						"initiateElection(string,address,address,string,string)": "infinite",
						"registerPerson(string)": "infinite"
					}
				},
				"methodIdentifiers": {
					"Elections(uint256)": "1e9598e2",
					"Persons(address)": "f544be40",
					"Positions(string)": "027bbc43",
					"Votes(uint256,address)": "a9b692db",
					"candidateId()": "9f91e6bf",
					"castVote(uint256,address)": "77df41b7",
					"concludeElection(uint256)": "4fd2257b",
					"electionsCounter()": "46817041",
					"getAllPersons()": "7fa4ba87",
					"initiateElection(string,address,address,string,string)": "f2630f37",
					"registerPerson(string)": "0fe91b5e"
				}
			},
			"storageLayout": {
				"storage": [
					{
						"astId": 44,
						"contract": "smartC/contracts/Governator.sol:ELECTION_SYSTEM",
						"label": "Persons",
						"offset": 0,
						"slot": "0",
						"type": "t_mapping(t_address,t_struct(Person)39_storage)"
					},
					{
						"astId": 48,
						"contract": "smartC/contracts/Governator.sol:ELECTION_SYSTEM",
						"label": "allPersons",
						"offset": 0,
						"slot": "1",
						"type": "t_array(t_struct(Person)39_storage)dyn_storage"
					},
					{
						"astId": 58,
						"contract": "smartC/contracts/Governator.sol:ELECTION_SYSTEM",
						"label": "Positions",
						"offset": 0,
						"slot": "2",
						"type": "t_mapping(t_string_memory_ptr,t_struct(Position)53_storage)"
					},
					{
						"astId": 68,
						"contract": "smartC/contracts/Governator.sol:ELECTION_SYSTEM",
						"label": "Votes",
						"offset": 0,
						"slot": "3",
						"type": "t_mapping(t_uint256,t_mapping(t_address,t_struct(Vote)61_storage))"
					},
					{
						"astId": 94,
						"contract": "smartC/contracts/Governator.sol:ELECTION_SYSTEM",
						"label": "Elections",
						"offset": 0,
						"slot": "4",
						"type": "t_mapping(t_uint256,t_struct(Election)89_storage)"
					},
					{
						"astId": 397,
						"contract": "smartC/contracts/Governator.sol:ELECTION_SYSTEM",
						"label": "candidateId",
						"offset": 0,
						"slot": "5",
						"type": "t_uint256"
					},
					{
						"astId": 400,
						"contract": "smartC/contracts/Governator.sol:ELECTION_SYSTEM",
						"label": "electionsCounter",
						"offset": 0,
						"slot": "6",
						"type": "t_uint256"
					}
				],
				"types": {
					"t_address": {
						"encoding": "inplace",
						"label": "address",
						"numberOfBytes": "20"
					},
					"t_array(t_struct(Person)39_storage)dyn_storage": {
						"base": "t_struct(Person)39_storage",
						"encoding": "dynamic_array",
						"label": "struct ELECTION_SYSTEM.Person[]",
						"numberOfBytes": "32"
					},
					"t_bool": {
						"encoding": "inplace",
						"label": "bool",
						"numberOfBytes": "1"
					},
					"t_mapping(t_address,t_struct(Person)39_storage)": {
						"encoding": "mapping",
						"key": "t_address",
						"label": "mapping(address => struct ELECTION_SYSTEM.Person)",
						"numberOfBytes": "32",
						"value": "t_struct(Person)39_storage"
					},
					"t_mapping(t_address,t_struct(Vote)61_storage)": {
						"encoding": "mapping",
						"key": "t_address",
						"label": "mapping(address => struct ELECTION_SYSTEM.Vote)",
						"numberOfBytes": "32",
						"value": "t_struct(Vote)61_storage"
					},
					"t_mapping(t_string_memory_ptr,t_struct(Position)53_storage)": {
						"encoding": "mapping",
						"key": "t_string_memory_ptr",
						"label": "mapping(string => struct ELECTION_SYSTEM.Position)",
						"numberOfBytes": "32",
						"value": "t_struct(Position)53_storage"
					},
					"t_mapping(t_uint256,t_mapping(t_address,t_struct(Vote)61_storage))": {
						"encoding": "mapping",
						"key": "t_uint256",
						"label": "mapping(uint256 => mapping(address => struct ELECTION_SYSTEM.Vote))",
						"numberOfBytes": "32",
						"value": "t_mapping(t_address,t_struct(Vote)61_storage)"
					},
					"t_mapping(t_uint256,t_struct(Election)89_storage)": {
						"encoding": "mapping",
						"key": "t_uint256",
						"label": "mapping(uint256 => struct ELECTION_SYSTEM.Election)",
						"numberOfBytes": "32",
						"value": "t_struct(Election)89_storage"
					},
					"t_string_memory_ptr": {
						"encoding": "bytes",
						"label": "string",
						"numberOfBytes": "32"
					},
					"t_string_storage": {
						"encoding": "bytes",
						"label": "string",
						"numberOfBytes": "32"
					},
					"t_struct(Election)89_storage": {
						"encoding": "inplace",
						"label": "struct ELECTION_SYSTEM.Election",
						"members": [
							{
								"astId": 70,
								"contract": "smartC/contracts/Governator.sol:ELECTION_SYSTEM",
								"label": "Id",
								"offset": 0,
								"slot": "0",
								"type": "t_uint256"
							},
							{
								"astId": 72,
								"contract": "smartC/contracts/Governator.sol:ELECTION_SYSTEM",
								"label": "purpose",
								"offset": 0,
								"slot": "1",
								"type": "t_string_storage"
							},
							{
								"astId": 74,
								"contract": "smartC/contracts/Governator.sol:ELECTION_SYSTEM",
								"label": "candidate1",
								"offset": 0,
								"slot": "2",
								"type": "t_address"
							},
							{
								"astId": 76,
								"contract": "smartC/contracts/Governator.sol:ELECTION_SYSTEM",
								"label": "candidate2",
								"offset": 0,
								"slot": "3",
								"type": "t_address"
							},
							{
								"astId": 78,
								"contract": "smartC/contracts/Governator.sol:ELECTION_SYSTEM",
								"label": "vote_candidate1",
								"offset": 0,
								"slot": "4",
								"type": "t_uint256"
							},
							{
								"astId": 80,
								"contract": "smartC/contracts/Governator.sol:ELECTION_SYSTEM",
								"label": "vote_candidate2",
								"offset": 0,
								"slot": "5",
								"type": "t_uint256"
							},
							{
								"astId": 82,
								"contract": "smartC/contracts/Governator.sol:ELECTION_SYSTEM",
								"label": "position",
								"offset": 0,
								"slot": "6",
								"type": "t_string_storage"
							},
							{
								"astId": 84,
								"contract": "smartC/contracts/Governator.sol:ELECTION_SYSTEM",
								"label": "GEO",
								"offset": 0,
								"slot": "7",
								"type": "t_string_storage"
							},
							{
								"astId": 86,
								"contract": "smartC/contracts/Governator.sol:ELECTION_SYSTEM",
								"label": "totalVotes",
								"offset": 0,
								"slot": "8",
								"type": "t_uint256"
							},
							{
								"astId": 88,
								"contract": "smartC/contracts/Governator.sol:ELECTION_SYSTEM",
								"label": "exists",
								"offset": 0,
								"slot": "9",
								"type": "t_bool"
							}
						],
						"numberOfBytes": "320"
					},
					"t_struct(Person)39_storage": {
						"encoding": "inplace",
						"label": "struct ELECTION_SYSTEM.Person",
						"members": [
							{
								"astId": 30,
								"contract": "smartC/contracts/Governator.sol:ELECTION_SYSTEM",
								"label": "id",
								"offset": 0,
								"slot": "0",
								"type": "t_uint256"
							},
							{
								"astId": 32,
								"contract": "smartC/contracts/Governator.sol:ELECTION_SYSTEM",
								"label": "name",
								"offset": 0,
								"slot": "1",
								"type": "t_string_storage"
							},
							{
								"astId": 34,
								"contract": "smartC/contracts/Governator.sol:ELECTION_SYSTEM",
								"label": "position",
								"offset": 0,
								"slot": "2",
								"type": "t_string_storage"
							},
							{
								"astId": 36,
								"contract": "smartC/contracts/Governator.sol:ELECTION_SYSTEM",
								"label": "exists",
								"offset": 0,
								"slot": "3",
								"type": "t_bool"
							},
							{
								"astId": 38,
								"contract": "smartC/contracts/Governator.sol:ELECTION_SYSTEM",
								"label": "qualified",
								"offset": 1,
								"slot": "3",
								"type": "t_bool"
							}
						],
						"numberOfBytes": "128"
					},
					"t_struct(Position)53_storage": {
						"encoding": "inplace",
						"label": "struct ELECTION_SYSTEM.Position",
						"members": [
							{
								"astId": 50,
								"contract": "smartC/contracts/Governator.sol:ELECTION_SYSTEM",
								"label": "title",
								"offset": 0,
								"slot": "0",
								"type": "t_string_storage"
							},
							{
								"astId": 52,
								"contract": "smartC/contracts/Governator.sol:ELECTION_SYSTEM",
								"label": "holder",
								"offset": 0,
								"slot": "1",
								"type": "t_address"
							}
						],
						"numberOfBytes": "64"
					},
					"t_struct(Vote)61_storage": {
						"encoding": "inplace",
						"label": "struct ELECTION_SYSTEM.Vote",
						"members": [
							{
								"astId": 60,
								"contract": "smartC/contracts/Governator.sol:ELECTION_SYSTEM",
								"label": "votes",
								"offset": 0,
								"slot": "0",
								"type": "t_uint256"
							}
						],
						"numberOfBytes": "32"
					},
					"t_uint256": {
						"encoding": "inplace",
						"label": "uint256",
						"numberOfBytes": "32"
					}
				}
			},
			"userdoc": {
				"kind": "user",
				"methods": {},
				"version": 1
			}
		}
	}
}