{
  "address": "0x1d2b37c59f101a3022871bbf1bdda0086170847d",
  "abi": [
    {
      "inputs": [],
      "stateMutability": "nonpayable",
      "type": "constructor"
    },
    {
      "inputs": [
        {
          "internalType": "address",
          "name": "sender",
          "type": "address"
        },
        {
          "internalType": "uint256",
          "name": "tokenId",
          "type": "uint256"
        },
        {
          "internalType": "address",
          "name": "owner",
          "type": "address"
        }
      ],
      "name": "ERC721IncorrectOwner",
      "type": "error"
    },
    {
      "inputs": [
        {
          "internalType": "address",
          "name": "operator",
          "type": "address"
        },
        {
          "internalType": "uint256",
          "name": "tokenId",
          "type": "uint256"
        }
      ],
      "name": "ERC721InsufficientApproval",
      "type": "error"
    },
    {
      "inputs": [
        {
          "internalType": "address",
          "name": "approver",
          "type": "address"
        }
      ],
      "name": "ERC721InvalidApprover",
      "type": "error"
    },
    {
      "inputs": [
        {
          "internalType": "address",
          "name": "operator",
          "type": "address"
        }
      ],
      "name": "ERC721InvalidOperator",
      "type": "error"
    },
    {
      "inputs": [
        {
          "internalType": "address",
          "name": "owner",
          "type": "address"
        }
      ],
      "name": "ERC721InvalidOwner",
      "type": "error"
    },
    {
      "inputs": [
        {
          "internalType": "address",
          "name": "receiver",
          "type": "address"
        }
      ],
      "name": "ERC721InvalidReceiver",
      "type": "error"
    },
    {
      "inputs": [
        {
          "internalType": "address",
          "name": "sender",
          "type": "address"
        }
      ],
      "name": "ERC721InvalidSender",
      "type": "error"
    },
    {
      "inputs": [
        {
          "internalType": "uint256",
          "name": "tokenId",
          "type": "uint256"
        }
      ],
      "name": "ERC721NonexistentToken",
      "type": "error"
    },
    {
      "inputs": [
        {
          "internalType": "address",
          "name": "owner",
          "type": "address"
        }
      ],
      "name": "OwnableInvalidOwner",
      "type": "error"
    },
    {
      "inputs": [
        {
          "internalType": "address",
          "name": "account",
          "type": "address"
        }
      ],
      "name": "OwnableUnauthorizedAccount",
      "type": "error"
    },
    {
      "anonymous": false,
      "inputs": [
        {
          "indexed": true,
          "internalType": "address",
          "name": "owner",
          "type": "address"
        },
        {
          "indexed": true,
          "internalType": "address",
          "name": "approved",
          "type": "address"
        },
        {
          "indexed": true,
          "internalType": "uint256",
          "name": "tokenId",
          "type": "uint256"
        }
      ],
      "name": "Approval",
      "type": "event"
    },
    {
      "anonymous": false,
      "inputs": [
        {
          "indexed": true,
          "internalType": "address",
          "name": "owner",
          "type": "address"
        },
        {
          "indexed": true,
          "internalType": "address",
          "name": "operator",
          "type": "address"
        },
        {
          "indexed": false,
          "internalType": "bool",
          "name": "approved",
          "type": "bool"
        }
      ],
      "name": "ApprovalForAll",
      "type": "event"
    },
    {
      "anonymous": false,
      "inputs": [
        {
          "indexed": false,
          "internalType": "uint256",
          "name": "_fromTokenId",
          "type": "uint256"
        },
        {
          "indexed": false,
          "internalType": "uint256",
          "name": "_toTokenId",
          "type": "uint256"
        }
      ],
      "name": "BatchMetadataUpdate",
      "type": "event"
    },
    {
      "anonymous": false,
      "inputs": [
        {
          "indexed": false,
          "internalType": "uint256",
          "name": "_tokenId",
          "type": "uint256"
        }
      ],
      "name": "MetadataUpdate",
      "type": "event"
    },
    {
      "anonymous": false,
      "inputs": [
        {
          "indexed": true,
          "internalType": "address",
          "name": "previousOwner",
          "type": "address"
        },
        {
          "indexed": true,
          "internalType": "address",
          "name": "newOwner",
          "type": "address"
        }
      ],
      "name": "OwnershipTransferred",
      "type": "event"
    },
    {
      "anonymous": false,
      "inputs": [
        {
          "indexed": true,
          "internalType": "address",
          "name": "from",
          "type": "address"
        },
        {
          "indexed": true,
          "internalType": "address",
          "name": "to",
          "type": "address"
        },
        {
          "indexed": true,
          "internalType": "uint256",
          "name": "tokenId",
          "type": "uint256"
        }
      ],
      "name": "Transfer",
      "type": "event"
    },
    {
      "anonymous": false,
      "inputs": [
        {
          "indexed": false,
          "internalType": "uint256",
          "name": "",
          "type": "uint256"
        },
        {
          "indexed": false,
          "internalType": "string",
          "name": "",
          "type": "string"
        }
      ],
      "name": "draw",
      "type": "event"
    },
    {
      "anonymous": false,
      "inputs": [
        {
          "indexed": false,
          "internalType": "uint256",
          "name": "electionId",
          "type": "uint256"
        },
        {
          "indexed": true,
          "internalType": "address",
          "name": "winner",
          "type": "address"
        }
      ],
      "name": "electionConcluded",
      "type": "event"
    },
    {
      "anonymous": false,
      "inputs": [
        {
          "indexed": false,
          "internalType": "uint256",
          "name": "electionsCounter",
          "type": "uint256"
        }
      ],
      "name": "electionStarted",
      "type": "event"
    },
    {
      "anonymous": false,
      "inputs": [
        {
          "indexed": true,
          "internalType": "address",
          "name": "newPerson",
          "type": "address"
        }
      ],
      "name": "newPerson",
      "type": "event"
    },
    {
      "anonymous": false,
      "inputs": [
        {
          "indexed": true,
          "internalType": "address",
          "name": "voter",
          "type": "address"
        },
        {
          "indexed": true,
          "internalType": "address",
          "name": "candidate",
          "type": "address"
        }
      ],
      "name": "voteCasted",
      "type": "event"
    },
    {
      "inputs": [
        {
          "internalType": "uint256",
          "name": "",
          "type": "uint256"
        }
      ],
      "name": "Elections",
      "outputs": [
        {
          "internalType": "uint256",
          "name": "Id",
          "type": "uint256"
        },
        {
          "internalType": "string",
          "name": "purpose",
          "type": "string"
        },
        {
          "internalType": "address",
          "name": "candidate1",
          "type": "address"
        },
        {
          "internalType": "address",
          "name": "candidate2",
          "type": "address"
        },
        {
          "internalType": "uint256",
          "name": "votes_of_candidate1",
          "type": "uint256"
        },
        {
          "internalType": "uint256",
          "name": "votes_of_candidate2",
          "type": "uint256"
        },
        {
          "internalType": "string",
          "name": "position",
          "type": "string"
        },
        {
          "internalType": "string",
          "name": "context",
          "type": "string"
        },
        {
          "internalType": "uint256",
          "name": "totalVotes",
          "type": "uint256"
        },
        {
          "internalType": "bool",
          "name": "concluded",
          "type": "bool"
        },
        {
          "internalType": "uint256",
          "name": "startTime",
          "type": "uint256"
        },
        {
          "internalType": "uint256",
          "name": "conclusionTime",
          "type": "uint256"
        }
      ],
      "stateMutability": "view",
      "type": "function"
    },
    {
      "inputs": [
        {
          "internalType": "address",
          "name": "",
          "type": "address"
        }
      ],
      "name": "Moderators",
      "outputs": [
        {
          "internalType": "bool",
          "name": "",
          "type": "bool"
        }
      ],
      "stateMutability": "view",
      "type": "function"
    },
    {
      "inputs": [
        {
          "internalType": "address",
          "name": "",
          "type": "address"
        }
      ],
      "name": "Persons",
      "outputs": [
        {
          "internalType": "uint256",
          "name": "id",
          "type": "uint256"
        },
        {
          "internalType": "string",
          "name": "callSign",
          "type": "string"
        },
        {
          "internalType": "string",
          "name": "position",
          "type": "string"
        },
        {
          "internalType": "string",
          "name": "elevatedIn",
          "type": "string"
        },
        {
          "internalType": "bool",
          "name": "exists",
          "type": "bool"
        },
        {
          "internalType": "bool",
          "name": "qualified",
          "type": "bool"
        }
      ],
      "stateMutability": "view",
      "type": "function"
    },
    {
      "inputs": [
        {
          "internalType": "string",
          "name": "",
          "type": "string"
        },
        {
          "internalType": "string",
          "name": "",
          "type": "string"
        }
      ],
      "name": "Positions",
      "outputs": [
        {
          "internalType": "address",
          "name": "holder",
          "type": "address"
        }
      ],
      "stateMutability": "view",
      "type": "function"
    },
    {
      "inputs": [
        {
          "internalType": "address",
          "name": "_Moderator",
          "type": "address"
        }
      ],
      "name": "addModerator",
      "outputs": [],
      "stateMutability": "nonpayable",
      "type": "function"
    },
    {
      "inputs": [
        {
          "internalType": "address",
          "name": "to",
          "type": "address"
        },
        {
          "internalType": "uint256",
          "name": "tokenId",
          "type": "uint256"
        }
      ],
      "name": "approve",
      "outputs": [],
      "stateMutability": "nonpayable",
      "type": "function"
    },
    {
      "inputs": [
        {
          "internalType": "address",
          "name": "owner",
          "type": "address"
        }
      ],
      "name": "balanceOf",
      "outputs": [
        {
          "internalType": "uint256",
          "name": "",
          "type": "uint256"
        }
      ],
      "stateMutability": "view",
      "type": "function"
    },
    {
      "inputs": [
        {
          "internalType": "uint256",
          "name": "tokenId",
          "type": "uint256"
        }
      ],
      "name": "burn",
      "outputs": [],
      "stateMutability": "nonpayable",
      "type": "function"
    },
    {
      "inputs": [],
      "name": "candidateId",
      "outputs": [
        {
          "internalType": "uint256",
          "name": "",
          "type": "uint256"
        }
      ],
      "stateMutability": "view",
      "type": "function"
    },
    {
      "inputs": [
        {
          "internalType": "uint256",
          "name": "_electionId",
          "type": "uint256"
        },
        {
          "internalType": "address",
          "name": "_candidate",
          "type": "address"
        }
      ],
      "name": "castVote",
      "outputs": [],
      "stateMutability": "nonpayable",
      "type": "function"
    },
    {
      "inputs": [
        {
          "internalType": "uint256",
          "name": "_electionId",
          "type": "uint256"
        },
        {
          "internalType": "uint256",
          "name": "_newDuration",
          "type": "uint256"
        }
      ],
      "name": "changeElectionDuration",
      "outputs": [],
      "stateMutability": "nonpayable",
      "type": "function"
    },
    {
      "inputs": [
        {
          "internalType": "uint256",
          "name": "_electionId",
          "type": "uint256"
        }
      ],
      "name": "concludeElection",
      "outputs": [],
      "stateMutability": "nonpayable",
      "type": "function"
    },
    {
      "inputs": [],
      "name": "electionsCounter",
      "outputs": [
        {
          "internalType": "uint256",
          "name": "",
          "type": "uint256"
        }
      ],
      "stateMutability": "view",
      "type": "function"
    },
    {
      "inputs": [],
      "name": "getAllPersons",
      "outputs": [
        {
          "components": [
            {
              "internalType": "uint256",
              "name": "id",
              "type": "uint256"
            },
            {
              "internalType": "string",
              "name": "callSign",
              "type": "string"
            },
            {
              "internalType": "string",
              "name": "position",
              "type": "string"
            },
            {
              "internalType": "string",
              "name": "elevatedIn",
              "type": "string"
            },
            {
              "internalType": "bool",
              "name": "exists",
              "type": "bool"
            },
            {
              "internalType": "bool",
              "name": "qualified",
              "type": "bool"
            }
          ],
          "internalType": "struct Storage.Person[]",
          "name": "",
          "type": "tuple[]"
        }
      ],
      "stateMutability": "view",
      "type": "function"
    },
    {
      "inputs": [
        {
          "internalType": "uint256",
          "name": "tokenId",
          "type": "uint256"
        }
      ],
      "name": "getApproved",
      "outputs": [
        {
          "internalType": "address",
          "name": "",
          "type": "address"
        }
      ],
      "stateMutability": "view",
      "type": "function"
    },
    {
      "inputs": [
        {
          "internalType": "string",
          "name": "_purpose",
          "type": "string"
        },
        {
          "internalType": "address",
          "name": "_candidate1",
          "type": "address"
        },
        {
          "internalType": "address",
          "name": "_candidate2",
          "type": "address"
        },
        {
          "internalType": "string",
          "name": "_position",
          "type": "string"
        },
        {
          "internalType": "string",
          "name": "context",
          "type": "string"
        }
      ],
      "name": "initiateElection",
      "outputs": [],
      "stateMutability": "nonpayable",
      "type": "function"
    },
    {
      "inputs": [
        {
          "internalType": "address",
          "name": "owner",
          "type": "address"
        },
        {
          "internalType": "address",
          "name": "operator",
          "type": "address"
        }
      ],
      "name": "isApprovedForAll",
      "outputs": [
        {
          "internalType": "bool",
          "name": "",
          "type": "bool"
        }
      ],
      "stateMutability": "view",
      "type": "function"
    },
    {
      "inputs": [],
      "name": "name",
      "outputs": [
        {
          "internalType": "string",
          "name": "",
          "type": "string"
        }
      ],
      "stateMutability": "view",
      "type": "function"
    },
    {
      "inputs": [],
      "name": "owner",
      "outputs": [
        {
          "internalType": "address",
          "name": "",
          "type": "address"
        }
      ],
      "stateMutability": "view",
      "type": "function"
    },
    {
      "inputs": [
        {
          "internalType": "uint256",
          "name": "tokenId",
          "type": "uint256"
        }
      ],
      "name": "ownerOf",
      "outputs": [
        {
          "internalType": "address",
          "name": "",
          "type": "address"
        }
      ],
      "stateMutability": "view",
      "type": "function"
    },
    {
      "inputs": [
        {
          "internalType": "string",
          "name": "_callSign",
          "type": "string"
        }
      ],
      "name": "registerPerson",
      "outputs": [
        {
          "internalType": "bool",
          "name": "",
          "type": "bool"
        }
      ],
      "stateMutability": "nonpayable",
      "type": "function"
    },
    {
      "inputs": [
        {
          "internalType": "address",
          "name": "_Moderator",
          "type": "address"
        }
      ],
      "name": "removeModerator",
      "outputs": [],
      "stateMutability": "nonpayable",
      "type": "function"
    },
    {
      "inputs": [
        {
          "internalType": "address",
          "name": "person",
          "type": "address"
        }
      ],
      "name": "removePerson",
      "outputs": [],
      "stateMutability": "nonpayable",
      "type": "function"
    },
    {
      "inputs": [],
      "name": "renounceOwnership",
      "outputs": [],
      "stateMutability": "nonpayable",
      "type": "function"
    },
    {
      "inputs": [
        {
          "internalType": "string",
          "name": "uri",
          "type": "string"
        }
      ],
      "name": "safeMint",
      "outputs": [],
      "stateMutability": "nonpayable",
      "type": "function"
    },
    {
      "inputs": [
        {
          "internalType": "address",
          "name": "from",
          "type": "address"
        },
        {
          "internalType": "address",
          "name": "to",
          "type": "address"
        },
        {
          "internalType": "uint256",
          "name": "tokenId",
          "type": "uint256"
        }
      ],
      "name": "safeTransferFrom",
      "outputs": [],
      "stateMutability": "nonpayable",
      "type": "function"
    },
    {
      "inputs": [
        {
          "internalType": "address",
          "name": "from",
          "type": "address"
        },
        {
          "internalType": "address",
          "name": "to",
          "type": "address"
        },
        {
          "internalType": "uint256",
          "name": "tokenId",
          "type": "uint256"
        },
        {
          "internalType": "bytes",
          "name": "data",
          "type": "bytes"
        }
      ],
      "name": "safeTransferFrom",
      "outputs": [],
      "stateMutability": "nonpayable",
      "type": "function"
    },
    {
      "inputs": [
        {
          "internalType": "address",
          "name": "operator",
          "type": "address"
        },
        {
          "internalType": "bool",
          "name": "approved",
          "type": "bool"
        }
      ],
      "name": "setApprovalForAll",
      "outputs": [],
      "stateMutability": "nonpayable",
      "type": "function"
    },
    {
      "inputs": [
        {
          "internalType": "bytes4",
          "name": "interfaceId",
          "type": "bytes4"
        }
      ],
      "name": "supportsInterface",
      "outputs": [
        {
          "internalType": "bool",
          "name": "",
          "type": "bool"
        }
      ],
      "stateMutability": "view",
      "type": "function"
    },
    {
      "inputs": [],
      "name": "symbol",
      "outputs": [
        {
          "internalType": "string",
          "name": "",
          "type": "string"
        }
      ],
      "stateMutability": "view",
      "type": "function"
    },
    {
      "inputs": [
        {
          "internalType": "uint256",
          "name": "tokenId",
          "type": "uint256"
        }
      ],
      "name": "tokenURI",
      "outputs": [
        {
          "internalType": "string",
          "name": "",
          "type": "string"
        }
      ],
      "stateMutability": "view",
      "type": "function"
    },
    {
      "inputs": [
        {
          "internalType": "address",
          "name": "from",
          "type": "address"
        },
        {
          "internalType": "address",
          "name": "to",
          "type": "address"
        },
        {
          "internalType": "uint256",
          "name": "tokenId",
          "type": "uint256"
        }
      ],
      "name": "transferFrom",
      "outputs": [],
      "stateMutability": "nonpayable",
      "type": "function"
    },
    {
      "inputs": [
        {
          "internalType": "address",
          "name": "newOwner",
          "type": "address"
        }
      ],
      "name": "transferOwnership",
      "outputs": [],
      "stateMutability": "nonpayable",
      "type": "function"
    }
  ],
  "transactionHash": "0xd7af95644c2b66d178e22e0e3c1beca340aa8610151029d6e9cfea208e64db53",
  "args": [],
  "numDeployments": 2,
  "solcInputHash": "3142f6fabf5e3642a2d15b406ae95fcc",
  "bytecode": "0x60806040526000600d556000600e553480156200001b57600080fd5b5033806040518060400160405280600e81526020017f476f7665726e61746f725f4e46540000000000000000000000000000000000008152506040518060400160405280600381526020017f475654000000000000000000000000000000000000000000000000000000000081525081600090816200009b9190620007aa565b508060019081620000ad9190620007aa565b505050600073ffffffffffffffffffffffffffffffffffffffff168173ffffffffffffffffffffffffffffffffffffffff1603620001255760006040517f1e4fbdf70000000000000000000000000000000000000000000000000000000081526004016200011c9190620008d6565b60405180910390fd5b6200013681620001dd60201b60201c565b50506200017e6040518060400160405280600481526020017f4d415a4900000000000000000000000000000000000000000000000000000000815250620002a360201b60201c565b506001600860003373ffffffffffffffffffffffffffffffffffffffff1673ffffffffffffffffffffffffffffffffffffffff16815260200190815260200160002060006101000a81548160ff02191690831515021790555062000af9565b6000600760009054906101000a900473ffffffffffffffffffffffffffffffffffffffff16905081600760006101000a81548173ffffffffffffffffffffffffffffffffffffffff021916908373ffffffffffffffffffffffffffffffffffffffff1602179055508173ffffffffffffffffffffffffffffffffffffffff168173ffffffffffffffffffffffffffffffffffffffff167f8be0079c531659141344cd1fd0a4f28419497f9722a3daafe3b4186f6b6457e060405160405180910390a35050565b6000600960003373ffffffffffffffffffffffffffffffffffffffff1673ffffffffffffffffffffffffffffffffffffffff16815260200190815260200160002060040160009054906101000a900460ff161562000338576040517f08c379a00000000000000000000000000000000000000000000000000000000081526004016200032f9062000954565b60405180910390fd5b6000600960003373ffffffffffffffffffffffffffffffffffffffff1673ffffffffffffffffffffffffffffffffffffffff1681526020019081526020016000209050600d54816000018190555082816001019081620003999190620007aa565b5060018160040160006101000a81548160ff0219169083151502179055506010600960003373ffffffffffffffffffffffffffffffffffffffff1673ffffffffffffffffffffffffffffffffffffffff168152602001908152602001600020908060018154018082558091505060019003906000526020600020906005020160009091909190915060008201548160000155600182018160010190816200044191906200098e565b50600282018160020190816200045891906200098e565b50600382018160030190816200046f91906200098e565b506004820160009054906101000a900460ff168160040160006101000a81548160ff0219169083151502179055506004820160019054906101000a900460ff168160040160016101000a81548160ff02191690831515021790555050503373ffffffffffffffffffffffffffffffffffffffff167fc31ba56fd6cd170bc9cdb46e35545da5631ea318d809d4651f661cbdd26bae0160405160405180910390a26001600d5462000520919062000abe565b600d819055506001915050919050565b600081519050919050565b7f4e487b7100000000000000000000000000000000000000000000000000000000600052604160045260246000fd5b7f4e487b7100000000000000000000000000000000000000000000000000000000600052602260045260246000fd5b60006002820490506001821680620005b257607f821691505b602082108103620005c857620005c76200056a565b5b50919050565b60008190508160005260206000209050919050565b60006020601f8301049050919050565b600082821b905092915050565b600060088302620006327fffffffffffffffffffffffffffffffffffffffffffffffffffffffffffffffff82620005f3565b6200063e8683620005f3565b95508019841693508086168417925050509392505050565b6000819050919050565b6000819050919050565b60006200068b620006856200067f8462000656565b62000660565b62000656565b9050919050565b6000819050919050565b620006a7836200066a565b620006bf620006b68262000692565b84845462000600565b825550505050565b600090565b620006d6620006c7565b620006e38184846200069c565b505050565b5b818110156200070b57620006ff600082620006cc565b600181019050620006e9565b5050565b601f8211156200075a576200072481620005ce565b6200072f84620005e3565b810160208510156200073f578190505b620007576200074e85620005e3565b830182620006e8565b50505b505050565b600082821c905092915050565b60006200077f600019846008026200075f565b1980831691505092915050565b60006200079a83836200076c565b9150826002028217905092915050565b620007b58262000530565b67ffffffffffffffff811115620007d157620007d06200053b565b5b620007dd825462000599565b620007ea8282856200070f565b600060209050601f8311600181146200082257600084156200080d578287015190505b6200081985826200078c565b86555062000889565b601f1984166200083286620005ce565b60005b828110156200085c5784890151825560018201915060208501945060208101905062000835565b868310156200087c578489015162000878601f8916826200076c565b8355505b6001600288020188555050505b505050505050565b600073ffffffffffffffffffffffffffffffffffffffff82169050919050565b6000620008be8262000891565b9050919050565b620008d081620008b1565b82525050565b6000602082019050620008ed6000830184620008c5565b92915050565b600082825260208201905092915050565b7f43414e204f4e4c59205245474953544552204f4e434500000000000000000000600082015250565b60006200093c601683620008f3565b9150620009498262000904565b602082019050919050565b600060208201905081810360008301526200096f816200092d565b9050919050565b600081549050620009878162000599565b9050919050565b8181036200099e57505062000a8d565b620009a98262000976565b67ffffffffffffffff811115620009c557620009c46200053b565b5b620009d1825462000599565b620009de8282856200070f565b6000601f83116001811462000a125760008415620009fd578287015490505b62000a0985826200078c565b86555062000a86565b601f19841662000a2287620005ce565b965062000a2f86620005ce565b60005b8281101562000a595784890154825560018201915060018501945060208101905062000a32565b8683101562000a79578489015462000a75601f8916826200076c565b8355505b6001600288020188555050505b5050505050505b565b7f4e487b7100000000000000000000000000000000000000000000000000000000600052601160045260246000fd5b600062000acb8262000656565b915062000ad88362000656565b925082820190508082111562000af35762000af262000a8f565b5b92915050565b61511c8062000b096000396000f3fe608060405234801561001057600080fd5b50600436106101fb5760003560e01c8063715018a61161011a578063a22cb465116100ad578063c87b56dd1161007c578063c87b56dd146105b5578063e985e9c5146105e5578063f2630f3714610615578063f2fde38b14610631578063f544be401461064d576101fb565b8063a22cb46514610545578063ac63cd8b14610561578063b532e4cb1461057d578063b88d4fde14610599576101fb565b80638da5cb5b116100e95780638da5cb5b146104bb57806393109ff3146104d957806395d89b41146105095780639f91e6bf14610527576101fb565b8063715018a61461045b57806377df41b7146104655780637fa4ba8714610481578063869d785f1461049f576101fb565b806342966c68116101925780634fd2257b116101615780634fd2257b146103c35780636352211e146103df578063695850fb1461040f57806370a082311461042b576101fb565b806342966c681461033d57806342ed37061461035957806346817041146103895780634af82e50146103a7576101fb565b80630fe91b5e116101ce5780630fe91b5e1461029a5780631e9598e2146102ca57806323b872dd1461030557806342842e0e14610321576101fb565b806301ffc9a71461020057806306fdde0314610230578063081812fc1461024e578063095ea7b31461027e575b600080fd5b61021a60048036038101906102159190613931565b610682565b6040516102279190613979565b60405180910390f35b610238610694565b6040516102459190613a24565b60405180910390f35b61026860048036038101906102639190613a7c565b610726565b6040516102759190613aea565b60405180910390f35b61029860048036038101906102939190613b31565b610742565b005b6102b460048036038101906102af9190613ca6565b610758565b6040516102c19190613979565b60405180910390f35b6102e460048036038101906102df9190613a7c565b6109d8565b6040516102fc9c9b9a99989796959493929190613cfe565b60405180910390f35b61031f600480360381019061031a9190613dcd565b610c1d565b005b61033b60048036038101906103369190613dcd565b610d1f565b005b61035760048036038101906103529190613a7c565b610d3f565b005b610373600480360381019061036e9190613e20565b610d56565b6040516103809190613aea565b60405180910390f35b610391610dcd565b60405161039e9190613e98565b60405180910390f35b6103c160048036038101906103bc9190613eb3565b610dd3565b005b6103dd60048036038101906103d89190613a7c565b610ebd565b005b6103f960048036038101906103f49190613a7c565b6114de565b6040516104069190613aea565b60405180910390f35b61042960048036038101906104249190613ca6565b6114f0565b005b61044560048036038101906104409190613eb3565b61156e565b6040516104529190613e98565b60405180910390f35b610463611628565b005b61047f600480360381019061047a9190613ee0565b61163c565b005b610489611ad1565b60405161049691906140e1565b60405180910390f35b6104b960048036038101906104b49190613eb3565b611d26565b005b6104c3611e0d565b6040516104d09190613aea565b60405180910390f35b6104f360048036038101906104ee9190613eb3565b611e37565b6040516105009190613979565b60405180910390f35b610511611e57565b60405161051e9190613a24565b60405180910390f35b61052f611ee9565b60405161053c9190613e98565b60405180910390f35b61055f600480360381019061055a919061412f565b611eef565b005b61057b6004803603810190610576919061416f565b611f05565b005b61059760048036038101906105929190613eb3565b611fc2565b005b6105b360048036038101906105ae9190614250565b612138565b005b6105cf60048036038101906105ca9190613a7c565b612155565b6040516105dc9190613a24565b60405180910390f35b6105ff60048036038101906105fa91906142d3565b612167565b60405161060c9190613979565b60405180910390f35b61062f600480360381019061062a9190614313565b6121fb565b005b61064b60048036038101906106469190613eb3565b61246e565b005b61066760048036038101906106629190613eb3565b6124f4565b604051610679969594939291906143e2565b60405180910390f35b600061068d826126e2565b9050919050565b6060600080546106a390614487565b80601f01602080910402602001604051908101604052809291908181526020018280546106cf90614487565b801561071c5780601f106106f15761010080835404028352916020019161071c565b820191906000526020600020905b8154815290600101906020018083116106ff57829003601f168201915b5050505050905090565b600061073182612743565b5061073b826127cb565b9050919050565b610754828261074f612808565b612810565b5050565b6000600960003373ffffffffffffffffffffffffffffffffffffffff1673ffffffffffffffffffffffffffffffffffffffff16815260200190815260200160002060040160009054906101000a900460ff16156107ea576040517f08c379a00000000000000000000000000000000000000000000000000000000081526004016107e190614504565b60405180910390fd5b6000600960003373ffffffffffffffffffffffffffffffffffffffff1673ffffffffffffffffffffffffffffffffffffffff1681526020019081526020016000209050600d5481600001819055508281600101908161084991906146d0565b5060018160040160006101000a81548160ff0219169083151502179055506010600960003373ffffffffffffffffffffffffffffffffffffffff1673ffffffffffffffffffffffffffffffffffffffff168152602001908152602001600020908060018154018082558091505060019003906000526020600020906005020160009091909190915060008201548160000155600182018160010190816108ef91906147b8565b506002820181600201908161090491906147b8565b506003820181600301908161091991906147b8565b506004820160009054906101000a900460ff168160040160006101000a81548160ff0219169083151502179055506004820160019054906101000a900460ff168160040160016101000a81548160ff02191690831515021790555050503373ffffffffffffffffffffffffffffffffffffffff167fc31ba56fd6cd170bc9cdb46e35545da5631ea318d809d4651f661cbdd26bae0160405160405180910390a26001600d546109c891906148cf565b600d819055506001915050919050565b600c602052806000526040600020600091509050806000015490806001018054610a0190614487565b80601f0160208091040260200160405190810160405280929190818152602001828054610a2d90614487565b8015610a7a5780601f10610a4f57610100808354040283529160200191610a7a565b820191906000526020600020905b815481529060010190602001808311610a5d57829003601f168201915b5050505050908060020160009054906101000a900473ffffffffffffffffffffffffffffffffffffffff16908060030160009054906101000a900473ffffffffffffffffffffffffffffffffffffffff1690806004015490806005015490806006018054610ae790614487565b80601f0160208091040260200160405190810160405280929190818152602001828054610b1390614487565b8015610b605780601f10610b3557610100808354040283529160200191610b60565b820191906000526020600020905b815481529060010190602001808311610b4357829003601f168201915b505050505090806007018054610b7590614487565b80601f0160208091040260200160405190810160405280929190818152602001828054610ba190614487565b8015610bee5780601f10610bc357610100808354040283529160200191610bee565b820191906000526020600020905b815481529060010190602001808311610bd157829003601f168201915b5050505050908060080154908060090160009054906101000a900460ff169080600a01549080600b015490508c565b600073ffffffffffffffffffffffffffffffffffffffff168273ffffffffffffffffffffffffffffffffffffffff1603610c8f5760006040517f64a0ae92000000000000000000000000000000000000000000000000000000008152600401610c869190613aea565b60405180910390fd5b6000610ca38383610c9e612808565b612822565b90508373ffffffffffffffffffffffffffffffffffffffff168173ffffffffffffffffffffffffffffffffffffffff1614610d19578382826040517f64283d7b000000000000000000000000000000000000000000000000000000008152600401610d1093929190614903565b60405180910390fd5b50505050565b610d3a83838360405180602001604052806000815250612138565b505050565b610d52600082610d4d612808565b612822565b5050565b600b8280516020810182018051848252602083016020850120818352809550505050505081805160208101820180518482526020830160208501208183528095505050505050600091509150508060000160009054906101000a900473ffffffffffffffffffffffffffffffffffffffff16905081565b600e5481565b600860003373ffffffffffffffffffffffffffffffffffffffff1673ffffffffffffffffffffffffffffffffffffffff16815260200190815260200160002060009054906101000a900460ff16610e5f576040517f08c379a0000000000000000000000000000000000000000000000000000000008152600401610e56906149ac565b60405180910390fd5b6000600960008373ffffffffffffffffffffffffffffffffffffffff1673ffffffffffffffffffffffffffffffffffffffff16815260200190815260200160002060040160006101000a81548160ff02191690831515021790555050565b600860003373ffffffffffffffffffffffffffffffffffffffff1673ffffffffffffffffffffffffffffffffffffffff16815260200190815260200160002060009054906101000a900460ff16610f49576040517f08c379a0000000000000000000000000000000000000000000000000000000008152600401610f40906149ac565b60405180910390fd5b806000600c600083815260200190815260200160002090508060090160009054906101000a900460ff1615610fb3576040517f08c379a0000000000000000000000000000000000000000000000000000000008152600401610faa90614a18565b60405180910390fd5b80600b015481600a0154610fc791906148cf565b421015611009576040517f08c379a000000000000000000000000000000000000000000000000000000000815260040161100090614a84565b60405180910390fd5b6000600c6000858152602001908152602001600020905060008160020160009054906101000a900473ffffffffffffffffffffffffffffffffffffffff16905060008260030160009054906101000a900473ffffffffffffffffffffffffffffffffffffffff169050600083600401549050600084600501549050600085600701805461109590614487565b80601f01602080910402602001604051908101604052809291908181526020018280546110c190614487565b801561110e5780601f106110e35761010080835404028352916020019161110e565b820191906000526020600020905b8154815290600101906020018083116110f157829003601f168201915b50505050509050600086600601805461112690614487565b80601f016020809104026020016040519081016040528092919081815260200182805461115290614487565b801561119f5780601f106111745761010080835404028352916020019161119f565b820191906000526020600020905b81548152906001019060200180831161118257829003601f168201915b505050505090506000600b826040516111b89190614ae0565b9081526020016040518091039020836040516111d49190614ae0565b908152602001604051809103902090508385111561133b57868160000160006101000a81548173ffffffffffffffffffffffffffffffffffffffff021916908373ffffffffffffffffffffffffffffffffffffffff16021790555081600960008973ffffffffffffffffffffffffffffffffffffffff1673ffffffffffffffffffffffffffffffffffffffff168152602001908152602001600020600201908161127e91906146d0565b5082600960008973ffffffffffffffffffffffffffffffffffffffff1673ffffffffffffffffffffffffffffffffffffffff16815260200190815260200160002060030190816112ce91906146d0565b5060018860090160006101000a81548160ff0219169083151502179055508673ffffffffffffffffffffffffffffffffffffffff167fef981671059c3bf3826e5775db61812c624c46cf08f6370fa07c5359450520208c6040516113329190613e98565b60405180910390a25b8484111561149257858160000160006101000a81548173ffffffffffffffffffffffffffffffffffffffff021916908373ffffffffffffffffffffffffffffffffffffffff16021790555081600960008873ffffffffffffffffffffffffffffffffffffffff1673ffffffffffffffffffffffffffffffffffffffff16815260200190815260200160002060020190816113d591906146d0565b5082600960008873ffffffffffffffffffffffffffffffffffffffff1673ffffffffffffffffffffffffffffffffffffffff168152602001908152602001600020600301908161142591906146d0565b5060018860090160006101000a81548160ff0219169083151502179055508573ffffffffffffffffffffffffffffffffffffffff167fef981671059c3bf3826e5775db61812c624c46cf08f6370fa07c5359450520208c6040516114899190613e98565b60405180910390a25b8385036114d1577ffd93f91012e0826b9473d21675d7bfb5ddf9e4192b7f840cfcfadb37444be2068b6040516114c89190614b69565b60405180910390a15b5050505050505050505050565b60006114e982612743565b9050919050565b60006114fb3361156e565b1461153b576040517f08c379a000000000000000000000000000000000000000000000000000000000815260040161153290614be3565b60405180910390fd5b6000600f600081548092919061155090614c03565b9190505590506115603382612a3c565b61156a8183612a5a565b5050565b60008073ffffffffffffffffffffffffffffffffffffffff168273ffffffffffffffffffffffffffffffffffffffff16036115e15760006040517f89c62b640000000000000000000000000000000000000000000000000000000081526004016115d89190613aea565b60405180910390fd5b600360008373ffffffffffffffffffffffffffffffffffffffff1673ffffffffffffffffffffffffffffffffffffffff168152602001908152602001600020549050919050565b611630612ab6565b61163a6000612b3d565b565b33600960008273ffffffffffffffffffffffffffffffffffffffff1673ffffffffffffffffffffffffffffffffffffffff16815260200190815260200160002060040160009054906101000a900460ff166116cc576040517f08c379a00000000000000000000000000000000000000000000000000000000081526004016116c390614cbd565b60405180910390fd5b826000600c6000838152602001908152602001600020905080600b015481600a01546116f891906148cf565b4210611739576040517f08c379a000000000000000000000000000000000000000000000000000000000815260040161173090614d29565b60405180910390fd5b846000600c600083815260200190815260200160002090506000600960003373ffffffffffffffffffffffffffffffffffffffff1673ffffffffffffffffffffffffffffffffffffffff168152602001908152602001600020905081600c0160008260000154815260200190815260200160002060009054906101000a900460ff16156117fb576040517f08c379a00000000000000000000000000000000000000000000000000000000081526004016117f290614d95565b60405180910390fd5b600960008873ffffffffffffffffffffffffffffffffffffffff1673ffffffffffffffffffffffffffffffffffffffff16815260200190815260200160002060040160009054906101000a900460ff1661188a576040517f08c379a000000000000000000000000000000000000000000000000000000000815260040161188190614e01565b60405180910390fd5b60016118953361156e565b146118d5576040517f08c379a00000000000000000000000000000000000000000000000000000000081526004016118cc90614e93565b60405180910390fd5b6000600c60008a8152602001908152602001600020905060008160020160009054906101000a900473ffffffffffffffffffffffffffffffffffffffff16905060008260030160009054906101000a900473ffffffffffffffffffffffffffffffffffffffff1690508973ffffffffffffffffffffffffffffffffffffffff168273ffffffffffffffffffffffffffffffffffffffff160361198e57600183600401600082825461198691906148cf565b925050819055505b8973ffffffffffffffffffffffffffffffffffffffff168173ffffffffffffffffffffffffffffffffffffffff16036119de5760018360050160008282546119d691906148cf565b925050819055505b600183600c016000600960003373ffffffffffffffffffffffffffffffffffffffff1673ffffffffffffffffffffffffffffffffffffffff16815260200190815260200160002060000154815260200190815260200160002060006101000a81548160ff0219169083151502179055506001836008016000828254611a6391906148cf565b925050819055508973ffffffffffffffffffffffffffffffffffffffff163373ffffffffffffffffffffffffffffffffffffffff167f0e2d8a513c54605a4c5dbd219264498f63d1aebb09ac15dfbf3a8a158a121f9f60405160405180910390a35050505050505050505050565b60606010805480602002602001604051908101604052809291908181526020016000905b82821015611d1d57838290600052602060002090600502016040518060c001604052908160008201548152602001600182018054611b3290614487565b80601f0160208091040260200160405190810160405280929190818152602001828054611b5e90614487565b8015611bab5780601f10611b8057610100808354040283529160200191611bab565b820191906000526020600020905b815481529060010190602001808311611b8e57829003601f168201915b50505050508152602001600282018054611bc490614487565b80601f0160208091040260200160405190810160405280929190818152602001828054611bf090614487565b8015611c3d5780601f10611c1257610100808354040283529160200191611c3d565b820191906000526020600020905b815481529060010190602001808311611c2057829003601f168201915b50505050508152602001600382018054611c5690614487565b80601f0160208091040260200160405190810160405280929190818152602001828054611c8290614487565b8015611ccf5780601f10611ca457610100808354040283529160200191611ccf565b820191906000526020600020905b815481529060010190602001808311611cb257829003601f168201915b505050505081526020016004820160009054906101000a900460ff161515151581526020016004820160019054906101000a900460ff16151515158152505081526020019060010190611af5565b50505050905090565b600860003373ffffffffffffffffffffffffffffffffffffffff1673ffffffffffffffffffffffffffffffffffffffff16815260200190815260200160002060009054906101000a900460ff16611db2576040517f08c379a0000000000000000000000000000000000000000000000000000000008152600401611da9906149ac565b60405180910390fd5b6000600860008373ffffffffffffffffffffffffffffffffffffffff1673ffffffffffffffffffffffffffffffffffffffff16815260200190815260200160002060006101000a81548160ff02191690831515021790555050565b6000600760009054906101000a900473ffffffffffffffffffffffffffffffffffffffff16905090565b60086020528060005260406000206000915054906101000a900460ff1681565b606060018054611e6690614487565b80601f0160208091040260200160405190810160405280929190818152602001828054611e9290614487565b8015611edf5780601f10611eb457610100808354040283529160200191611edf565b820191906000526020600020905b815481529060010190602001808311611ec257829003601f168201915b5050505050905090565b600d5481565b611f01611efa612808565b8383612c03565b5050565b600860003373ffffffffffffffffffffffffffffffffffffffff1673ffffffffffffffffffffffffffffffffffffffff16815260200190815260200160002060009054906101000a900460ff16611f91576040517f08c379a0000000000000000000000000000000000000000000000000000000008152600401611f88906149ac565b60405180910390fd5b6000600c60008481526020019081526020016000209050603c82611fb59190614eb3565b81600b0181905550505050565b600860003373ffffffffffffffffffffffffffffffffffffffff1673ffffffffffffffffffffffffffffffffffffffff16815260200190815260200160002060009054906101000a900460ff1661204e576040517f08c379a0000000000000000000000000000000000000000000000000000000008152600401612045906149ac565b60405180910390fd5b600960008273ffffffffffffffffffffffffffffffffffffffff1673ffffffffffffffffffffffffffffffffffffffff16815260200190815260200160002060040160009054906101000a900460ff166120dd576040517f08c379a00000000000000000000000000000000000000000000000000000000081526004016120d490614f67565b60405180910390fd5b6001600860008373ffffffffffffffffffffffffffffffffffffffff1673ffffffffffffffffffffffffffffffffffffffff16815260200190815260200160002060006101000a81548160ff02191690831515021790555050565b612143848484610c1d565b61214f84848484612d72565b50505050565b606061216082612f29565b9050919050565b6000600560008473ffffffffffffffffffffffffffffffffffffffff1673ffffffffffffffffffffffffffffffffffffffff16815260200190815260200160002060008373ffffffffffffffffffffffffffffffffffffffff1673ffffffffffffffffffffffffffffffffffffffff16815260200190815260200160002060009054906101000a900460ff16905092915050565b33600960008273ffffffffffffffffffffffffffffffffffffffff1673ffffffffffffffffffffffffffffffffffffffff16815260200190815260200160002060040160009054906101000a900460ff1661228b576040517f08c379a000000000000000000000000000000000000000000000000000000000815260040161228290614cbd565b60405180910390fd5b600860003373ffffffffffffffffffffffffffffffffffffffff1673ffffffffffffffffffffffffffffffffffffffff16815260200190815260200160002060009054906101000a900460ff16612317576040517f08c379a000000000000000000000000000000000000000000000000000000000815260040161230e906149ac565b60405180910390fd5b6001600e5461232691906148cf565b600e819055506000600c6000600e5481526020019081526020016000209050600e5481600001819055508681600101908161236191906146d0565b50858160020160006101000a81548173ffffffffffffffffffffffffffffffffffffffff021916908373ffffffffffffffffffffffffffffffffffffffff160217905550848160030160006101000a81548173ffffffffffffffffffffffffffffffffffffffff021916908373ffffffffffffffffffffffffffffffffffffffff160217905550838160060190816123f991906146d0565b508281600701908161240b91906146d0565b504281600a0181905550620151804261242491906148cf565b81600b01819055507f878bb103e2c92788427ea47308fc2c171b1f607553d68c2e7c2e98e6cdb63181600e5460405161245d9190613e98565b60405180910390a150505050505050565b612476612ab6565b600073ffffffffffffffffffffffffffffffffffffffff168173ffffffffffffffffffffffffffffffffffffffff16036124e85760006040517f1e4fbdf70000000000000000000000000000000000000000000000000000000081526004016124df9190613aea565b60405180910390fd5b6124f181612b3d565b50565b600960205280600052604060002060009150905080600001549080600101805461251d90614487565b80601f016020809104026020016040519081016040528092919081815260200182805461254990614487565b80156125965780601f1061256b57610100808354040283529160200191612596565b820191906000526020600020905b81548152906001019060200180831161257957829003601f168201915b5050505050908060020180546125ab90614487565b80601f01602080910402602001604051908101604052809291908181526020018280546125d790614487565b80156126245780601f106125f957610100808354040283529160200191612624565b820191906000526020600020905b81548152906001019060200180831161260757829003601f168201915b50505050509080600301805461263990614487565b80601f016020809104026020016040519081016040528092919081815260200182805461266590614487565b80156126b25780601f10612687576101008083540402835291602001916126b2565b820191906000526020600020905b81548152906001019060200180831161269557829003601f168201915b5050505050908060040160009054906101000a900460ff16908060040160019054906101000a900460ff16905086565b6000634906490660e01b7bffffffffffffffffffffffffffffffffffffffffffffffffffffffff1916827bffffffffffffffffffffffffffffffffffffffffffffffffffffffff1916148061273c575061273b8261303c565b5b9050919050565b60008061274f8361311e565b9050600073ffffffffffffffffffffffffffffffffffffffff168173ffffffffffffffffffffffffffffffffffffffff16036127c257826040517f7e2732890000000000000000000000000000000000000000000000000000000081526004016127b99190613e98565b60405180910390fd5b80915050919050565b60006004600083815260200190815260200160002060009054906101000a900473ffffffffffffffffffffffffffffffffffffffff169050919050565b600033905090565b61281d838383600161315b565b505050565b60008061282e8461311e565b9050600073ffffffffffffffffffffffffffffffffffffffff168373ffffffffffffffffffffffffffffffffffffffff16146128705761286f818486613320565b5b600073ffffffffffffffffffffffffffffffffffffffff168173ffffffffffffffffffffffffffffffffffffffff1614612901576128b260008560008061315b565b6001600360008373ffffffffffffffffffffffffffffffffffffffff1673ffffffffffffffffffffffffffffffffffffffff168152602001908152602001600020600082825403925050819055505b600073ffffffffffffffffffffffffffffffffffffffff168573ffffffffffffffffffffffffffffffffffffffff1614612984576001600360008773ffffffffffffffffffffffffffffffffffffffff1673ffffffffffffffffffffffffffffffffffffffff168152602001908152602001600020600082825401925050819055505b846002600086815260200190815260200160002060006101000a81548173ffffffffffffffffffffffffffffffffffffffff021916908373ffffffffffffffffffffffffffffffffffffffff160217905550838573ffffffffffffffffffffffffffffffffffffffff168273ffffffffffffffffffffffffffffffffffffffff167fddf252ad1be2c89b69c2b068fc378daa952ba7f163c4a11628f55a4df523b3ef60405160405180910390a4809150509392505050565b612a568282604051806020016040528060008152506133e4565b5050565b80600660008481526020019081526020016000209081612a7a91906146d0565b507ff8e1a15aba9398e019f0b49df1a4fde98ee17ae345cb5f6b5e2c27f5033e8ce782604051612aaa9190613e98565b60405180910390a15050565b612abe612808565b73ffffffffffffffffffffffffffffffffffffffff16612adc611e0d565b73ffffffffffffffffffffffffffffffffffffffff1614612b3b57612aff612808565b6040517f118cdaa7000000000000000000000000000000000000000000000000000000008152600401612b329190613aea565b60405180910390fd5b565b6000600760009054906101000a900473ffffffffffffffffffffffffffffffffffffffff16905081600760006101000a81548173ffffffffffffffffffffffffffffffffffffffff021916908373ffffffffffffffffffffffffffffffffffffffff1602179055508173ffffffffffffffffffffffffffffffffffffffff168173ffffffffffffffffffffffffffffffffffffffff167f8be0079c531659141344cd1fd0a4f28419497f9722a3daafe3b4186f6b6457e060405160405180910390a35050565b600073ffffffffffffffffffffffffffffffffffffffff168273ffffffffffffffffffffffffffffffffffffffff1603612c7457816040517f5b08ba18000000000000000000000000000000000000000000000000000000008152600401612c6b9190613aea565b60405180910390fd5b80600560008573ffffffffffffffffffffffffffffffffffffffff1673ffffffffffffffffffffffffffffffffffffffff16815260200190815260200160002060008473ffffffffffffffffffffffffffffffffffffffff1673ffffffffffffffffffffffffffffffffffffffff16815260200190815260200160002060006101000a81548160ff0219169083151502179055508173ffffffffffffffffffffffffffffffffffffffff168373ffffffffffffffffffffffffffffffffffffffff167f17307eab39ab6107e8899845ad3d59bd9653f200f220920489ca2b5937696c3183604051612d659190613979565b60405180910390a3505050565b60008373ffffffffffffffffffffffffffffffffffffffff163b1115612f23578273ffffffffffffffffffffffffffffffffffffffff1663150b7a02612db6612808565b8685856040518563ffffffff1660e01b8152600401612dd89493929190614fdc565b6020604051808303816000875af1925050508015612e1457506040513d601f19601f82011682018060405250810190612e11919061503d565b60015b612e98573d8060008114612e44576040519150601f19603f3d011682016040523d82523d6000602084013e612e49565b606091505b506000815103612e9057836040517f64a0ae92000000000000000000000000000000000000000000000000000000008152600401612e879190613aea565b60405180910390fd5b805181602001fd5b63150b7a0260e01b7bffffffffffffffffffffffffffffffffffffffffffffffffffffffff1916817bffffffffffffffffffffffffffffffffffffffffffffffffffffffff191614612f2157836040517f64a0ae92000000000000000000000000000000000000000000000000000000008152600401612f189190613aea565b60405180910390fd5b505b50505050565b6060612f3482612743565b506000600660008481526020019081526020016000208054612f5590614487565b80601f0160208091040260200160405190810160405280929190818152602001828054612f8190614487565b8015612fce5780601f10612fa357610100808354040283529160200191612fce565b820191906000526020600020905b815481529060010190602001808311612fb157829003601f168201915b505050505090506000612fdf613400565b90506000815103612ff4578192505050613037565b60008251111561302957808260405160200161301192919061506a565b60405160208183030381529060405292505050613037565b61303284613417565b925050505b919050565b60007f80ac58cd000000000000000000000000000000000000000000000000000000007bffffffffffffffffffffffffffffffffffffffffffffffffffffffff1916827bffffffffffffffffffffffffffffffffffffffffffffffffffffffff1916148061310757507f5b5e139f000000000000000000000000000000000000000000000000000000007bffffffffffffffffffffffffffffffffffffffffffffffffffffffff1916827bffffffffffffffffffffffffffffffffffffffffffffffffffffffff1916145b80613117575061311682613480565b5b9050919050565b60006002600083815260200190815260200160002060009054906101000a900473ffffffffffffffffffffffffffffffffffffffff169050919050565b80806131945750600073ffffffffffffffffffffffffffffffffffffffff168273ffffffffffffffffffffffffffffffffffffffff1614155b156132c85760006131a484612743565b9050600073ffffffffffffffffffffffffffffffffffffffff168373ffffffffffffffffffffffffffffffffffffffff161415801561320f57508273ffffffffffffffffffffffffffffffffffffffff168173ffffffffffffffffffffffffffffffffffffffff1614155b801561322257506132208184612167565b155b1561326457826040517fa9fbf51f00000000000000000000000000000000000000000000000000000000815260040161325b9190613aea565b60405180910390fd5b81156132c657838573ffffffffffffffffffffffffffffffffffffffff168273ffffffffffffffffffffffffffffffffffffffff167f8c5be1e5ebec7d5bd14f71427d1e84f3dd0314c0f7b2291e5b200ac8c7c3b92560405160405180910390a45b505b836004600085815260200190815260200160002060006101000a81548173ffffffffffffffffffffffffffffffffffffffff021916908373ffffffffffffffffffffffffffffffffffffffff16021790555050505050565b61332b8383836134ea565b6133df57600073ffffffffffffffffffffffffffffffffffffffff168373ffffffffffffffffffffffffffffffffffffffff16036133a057806040517f7e2732890000000000000000000000000000000000000000000000000000000081526004016133979190613e98565b60405180910390fd5b81816040517f177e802f0000000000000000000000000000000000000000000000000000000081526004016133d692919061508e565b60405180910390fd5b505050565b6133ee83836135ab565b6133fb6000848484612d72565b505050565b606060405180602001604052806000815250905090565b606061342282612743565b50600061342d613400565b9050600081511161344d5760405180602001604052806000815250613478565b80613457846136a4565b60405160200161346892919061506a565b6040516020818303038152906040525b915050919050565b60007f01ffc9a7000000000000000000000000000000000000000000000000000000007bffffffffffffffffffffffffffffffffffffffffffffffffffffffff1916827bffffffffffffffffffffffffffffffffffffffffffffffffffffffff1916149050919050565b60008073ffffffffffffffffffffffffffffffffffffffff168373ffffffffffffffffffffffffffffffffffffffff16141580156135a257508273ffffffffffffffffffffffffffffffffffffffff168473ffffffffffffffffffffffffffffffffffffffff16148061356357506135628484612167565b5b806135a157508273ffffffffffffffffffffffffffffffffffffffff16613589836127cb565b73ffffffffffffffffffffffffffffffffffffffff16145b5b90509392505050565b600073ffffffffffffffffffffffffffffffffffffffff168273ffffffffffffffffffffffffffffffffffffffff160361361d5760006040517f64a0ae920000000000000000000000000000000000000000000000000000000081526004016136149190613aea565b60405180910390fd5b600061362b83836000612822565b9050600073ffffffffffffffffffffffffffffffffffffffff168173ffffffffffffffffffffffffffffffffffffffff161461369f5760006040517f73c6ac6e0000000000000000000000000000000000000000000000000000000081526004016136969190613aea565b60405180910390fd5b505050565b6060600060016136b384613772565b01905060008167ffffffffffffffff8111156136d2576136d1613b7b565b5b6040519080825280601f01601f1916602001820160405280156137045781602001600182028036833780820191505090505b509050600082602001820190505b600115613767578080600190039150507f3031323334353637383961626364656600000000000000000000000000000000600a86061a8153600a858161375b5761375a6150b7565b5b04945060008503613712575b819350505050919050565b600080600090507a184f03e93ff9f4daa797ed6e38ed64bf6a1f01000000000000000083106137d0577a184f03e93ff9f4daa797ed6e38ed64bf6a1f01000000000000000083816137c6576137c56150b7565b5b0492506040810190505b6d04ee2d6d415b85acef8100000000831061380d576d04ee2d6d415b85acef81000000008381613803576138026150b7565b5b0492506020810190505b662386f26fc10000831061383c57662386f26fc100008381613832576138316150b7565b5b0492506010810190505b6305f5e1008310613865576305f5e100838161385b5761385a6150b7565b5b0492506008810190505b612710831061388a5761271083816138805761387f6150b7565b5b0492506004810190505b606483106138ad57606483816138a3576138a26150b7565b5b0492506002810190505b600a83106138bc576001810190505b80915050919050565b6000604051905090565b600080fd5b600080fd5b60007fffffffff0000000000000000000000000000000000000000000000000000000082169050919050565b61390e816138d9565b811461391957600080fd5b50565b60008135905061392b81613905565b92915050565b600060208284031215613947576139466138cf565b5b60006139558482850161391c565b91505092915050565b60008115159050919050565b6139738161395e565b82525050565b600060208201905061398e600083018461396a565b92915050565b600081519050919050565b600082825260208201905092915050565b60005b838110156139ce5780820151818401526020810190506139b3565b60008484015250505050565b6000601f19601f8301169050919050565b60006139f682613994565b613a00818561399f565b9350613a108185602086016139b0565b613a19816139da565b840191505092915050565b60006020820190508181036000830152613a3e81846139eb565b905092915050565b6000819050919050565b613a5981613a46565b8114613a6457600080fd5b50565b600081359050613a7681613a50565b92915050565b600060208284031215613a9257613a916138cf565b5b6000613aa084828501613a67565b91505092915050565b600073ffffffffffffffffffffffffffffffffffffffff82169050919050565b6000613ad482613aa9565b9050919050565b613ae481613ac9565b82525050565b6000602082019050613aff6000830184613adb565b92915050565b613b0e81613ac9565b8114613b1957600080fd5b50565b600081359050613b2b81613b05565b92915050565b60008060408385031215613b4857613b476138cf565b5b6000613b5685828601613b1c565b9250506020613b6785828601613a67565b9150509250929050565b600080fd5b600080fd5b7f4e487b7100000000000000000000000000000000000000000000000000000000600052604160045260246000fd5b613bb3826139da565b810181811067ffffffffffffffff82111715613bd257613bd1613b7b565b5b80604052505050565b6000613be56138c5565b9050613bf18282613baa565b919050565b600067ffffffffffffffff821115613c1157613c10613b7b565b5b613c1a826139da565b9050602081019050919050565b82818337600083830152505050565b6000613c49613c4484613bf6565b613bdb565b905082815260208101848484011115613c6557613c64613b76565b5b613c70848285613c27565b509392505050565b600082601f830112613c8d57613c8c613b71565b5b8135613c9d848260208601613c36565b91505092915050565b600060208284031215613cbc57613cbb6138cf565b5b600082013567ffffffffffffffff811115613cda57613cd96138d4565b5b613ce684828501613c78565b91505092915050565b613cf881613a46565b82525050565b600061018082019050613d14600083018f613cef565b8181036020830152613d26818e6139eb565b9050613d35604083018d613adb565b613d42606083018c613adb565b613d4f608083018b613cef565b613d5c60a083018a613cef565b81810360c0830152613d6e81896139eb565b905081810360e0830152613d8281886139eb565b9050613d92610100830187613cef565b613da061012083018661396a565b613dae610140830185613cef565b613dbc610160830184613cef565b9d9c50505050505050505050505050565b600080600060608486031215613de657613de56138cf565b5b6000613df486828701613b1c565b9350506020613e0586828701613b1c565b9250506040613e1686828701613a67565b9150509250925092565b60008060408385031215613e3757613e366138cf565b5b600083013567ffffffffffffffff811115613e5557613e546138d4565b5b613e6185828601613c78565b925050602083013567ffffffffffffffff811115613e8257613e816138d4565b5b613e8e85828601613c78565b9150509250929050565b6000602082019050613ead6000830184613cef565b92915050565b600060208284031215613ec957613ec86138cf565b5b6000613ed784828501613b1c565b91505092915050565b60008060408385031215613ef757613ef66138cf565b5b6000613f0585828601613a67565b9250506020613f1685828601613b1c565b9150509250929050565b600081519050919050565b600082825260208201905092915050565b6000819050602082019050919050565b613f5581613a46565b82525050565b600082825260208201905092915050565b6000613f7782613994565b613f818185613f5b565b9350613f918185602086016139b0565b613f9a816139da565b840191505092915050565b613fae8161395e565b82525050565b600060c083016000830151613fcc6000860182613f4c565b5060208301518482036020860152613fe48282613f6c565b91505060408301518482036040860152613ffe8282613f6c565b915050606083015184820360608601526140188282613f6c565b915050608083015161402d6080860182613fa5565b5060a083015161404060a0860182613fa5565b508091505092915050565b60006140578383613fb4565b905092915050565b6000602082019050919050565b600061407782613f20565b6140818185613f2b565b93508360208202850161409385613f3c565b8060005b858110156140cf57848403895281516140b0858261404b565b94506140bb8361405f565b925060208a01995050600181019050614097565b50829750879550505050505092915050565b600060208201905081810360008301526140fb818461406c565b905092915050565b61410c8161395e565b811461411757600080fd5b50565b60008135905061412981614103565b92915050565b60008060408385031215614146576141456138cf565b5b600061415485828601613b1c565b92505060206141658582860161411a565b9150509250929050565b60008060408385031215614186576141856138cf565b5b600061419485828601613a67565b92505060206141a585828601613a67565b9150509250929050565b600067ffffffffffffffff8211156141ca576141c9613b7b565b5b6141d3826139da565b9050602081019050919050565b60006141f36141ee846141af565b613bdb565b90508281526020810184848401111561420f5761420e613b76565b5b61421a848285613c27565b509392505050565b600082601f83011261423757614236613b71565b5b81356142478482602086016141e0565b91505092915050565b6000806000806080858703121561426a576142696138cf565b5b600061427887828801613b1c565b945050602061428987828801613b1c565b935050604061429a87828801613a67565b925050606085013567ffffffffffffffff8111156142bb576142ba6138d4565b5b6142c787828801614222565b91505092959194509250565b600080604083850312156142ea576142e96138cf565b5b60006142f885828601613b1c565b925050602061430985828601613b1c565b9150509250929050565b600080600080600060a0868803121561432f5761432e6138cf565b5b600086013567ffffffffffffffff81111561434d5761434c6138d4565b5b61435988828901613c78565b955050602061436a88828901613b1c565b945050604061437b88828901613b1c565b935050606086013567ffffffffffffffff81111561439c5761439b6138d4565b5b6143a888828901613c78565b925050608086013567ffffffffffffffff8111156143c9576143c86138d4565b5b6143d588828901613c78565b9150509295509295909350565b600060c0820190506143f76000830189613cef565b818103602083015261440981886139eb565b9050818103604083015261441d81876139eb565b9050818103606083015261443181866139eb565b9050614440608083018561396a565b61444d60a083018461396a565b979650505050505050565b7f4e487b7100000000000000000000000000000000000000000000000000000000600052602260045260246000fd5b6000600282049050600182168061449f57607f821691505b6020821081036144b2576144b1614458565b5b50919050565b7f43414e204f4e4c59205245474953544552204f4e434500000000000000000000600082015250565b60006144ee60168361399f565b91506144f9826144b8565b602082019050919050565b6000602082019050818103600083015261451d816144e1565b9050919050565b60008190508160005260206000209050919050565b60006020601f8301049050919050565b600082821b905092915050565b6000600883026145867fffffffffffffffffffffffffffffffffffffffffffffffffffffffffffffffff82614549565b6145908683614549565b95508019841693508086168417925050509392505050565b6000819050919050565b60006145cd6145c86145c384613a46565b6145a8565b613a46565b9050919050565b6000819050919050565b6145e7836145b2565b6145fb6145f3826145d4565b848454614556565b825550505050565b600090565b614610614603565b61461b8184846145de565b505050565b5b8181101561463f57614634600082614608565b600181019050614621565b5050565b601f8211156146845761465581614524565b61465e84614539565b8101602085101561466d578190505b61468161467985614539565b830182614620565b50505b505050565b600082821c905092915050565b60006146a760001984600802614689565b1980831691505092915050565b60006146c08383614696565b9150826002028217905092915050565b6146d982613994565b67ffffffffffffffff8111156146f2576146f1613b7b565b5b6146fc8254614487565b614707828285614643565b600060209050601f83116001811461473a5760008415614728578287015190505b61473285826146b4565b86555061479a565b601f19841661474886614524565b60005b828110156147705784890151825560018201915060208501945060208101905061474b565b8683101561478d5784890151614789601f891682614696565b8355505b6001600288020188555050505b505050505050565b6000815490506147b181614487565b9050919050565b8181036147c657505061489e565b6147cf826147a2565b67ffffffffffffffff8111156147e8576147e7613b7b565b5b6147f28254614487565b6147fd828285614643565b6000601f83116001811461482c576000841561481a578287015490505b61482485826146b4565b865550614897565b601f19841661483a87614524565b965061484586614524565b60005b8281101561486d57848901548255600182019150600185019450602081019050614848565b8683101561488a5784890154614886601f891682614696565b8355505b6001600288020188555050505b5050505050505b565b7f4e487b7100000000000000000000000000000000000000000000000000000000600052601160045260246000fd5b60006148da82613a46565b91506148e583613a46565b92508282019050808211156148fd576148fc6148a0565b5b92915050565b60006060820190506149186000830186613adb565b6149256020830185613cef565b6149326040830184613adb565b949350505050565b7f4f4e4c59204d4f44455241544f52532043414e2054414b45205448495320414360008201527f54494f4e2e000000000000000000000000000000000000000000000000000000602082015250565b600061499660258361399f565b91506149a18261493a565b604082019050919050565b600060208201905081810360008301526149c581614989565b9050919050565b7f454c454354494f4e20414c524541445920434f4e434c554445442e0000000000600082015250565b6000614a02601b8361399f565b9150614a0d826149cc565b602082019050919050565b60006020820190508181036000830152614a31816149f5565b9050919050565b7f454c454354494f4e204953205354494c4c204f4e474f494e472e000000000000600082015250565b6000614a6e601a8361399f565b9150614a7982614a38565b602082019050919050565b60006020820190508181036000830152614a9d81614a61565b9050919050565b600081905092915050565b6000614aba82613994565b614ac48185614aa4565b9350614ad48185602086016139b0565b80840191505092915050565b6000614aec8284614aaf565b915081905092915050565b7f447261773a206e6f2077696e6e65722062656361757365206f6620657175616c60008201527f20766f7465732c20766f74696e6720636f6e74696e7565730000000000000000602082015250565b6000614b5360388361399f565b9150614b5e82614af7565b604082019050919050565b6000604082019050614b7e6000830184613cef565b8181036020830152614b8f81614b46565b905092915050565b7f4f4e45204e46542050455220564f544552000000000000000000000000000000600082015250565b6000614bcd60118361399f565b9150614bd882614b97565b602082019050919050565b60006020820190508181036000830152614bfc81614bc0565b9050919050565b6000614c0e82613a46565b91507fffffffffffffffffffffffffffffffffffffffffffffffffffffffffffffffff8203614c4057614c3f6148a0565b5b600182019050919050565b7f4e4f542052454749535445524544207c7c204f4e4c592052454749535445524560008201527f4420504552534f4e532043414e2054414b45205448495320414354494f4e2e00602082015250565b6000614ca7603f8361399f565b9150614cb282614c4b565b604082019050919050565b60006020820190508181036000830152614cd681614c9a565b9050919050565b7f454c454354494f4e2048415320454e4445442e00000000000000000000000000600082015250565b6000614d1360138361399f565b9150614d1e82614cdd565b602082019050919050565b60006020820190508181036000830152614d4281614d06565b9050919050565b7f4f4e4520564f54452050455220504552534f4e00000000000000000000000000600082015250565b6000614d7f60138361399f565b9150614d8a82614d49565b602082019050919050565b60006020820190508181036000830152614dae81614d72565b9050919050565b7f43414e44494441544520444f4553204e4f542045584953540000000000000000600082015250565b6000614deb60188361399f565b9150614df682614db5565b602082019050919050565b60006020820190508181036000830152614e1a81614dde565b9050919050565b7f43414e4e4f5420564f54453a206e6f204e4654207c204d4f5245205448414e2060008201527f4f4e45204e465400000000000000000000000000000000000000000000000000602082015250565b6000614e7d60278361399f565b9150614e8882614e21565b604082019050919050565b60006020820190508181036000830152614eac81614e70565b9050919050565b6000614ebe82613a46565b9150614ec983613a46565b9250828202614ed781613a46565b91508282048414831517614eee57614eed6148a0565b5b5092915050565b7f4f4e4c59205245474953544552454420504552534f4e532043414e204144444560008201527f44204153204d4f44455241544f52532e00000000000000000000000000000000602082015250565b6000614f5160308361399f565b9150614f5c82614ef5565b604082019050919050565b60006020820190508181036000830152614f8081614f44565b9050919050565b600081519050919050565b600082825260208201905092915050565b6000614fae82614f87565b614fb88185614f92565b9350614fc88185602086016139b0565b614fd1816139da565b840191505092915050565b6000608082019050614ff16000830187613adb565b614ffe6020830186613adb565b61500b6040830185613cef565b818103606083015261501d8184614fa3565b905095945050505050565b60008151905061503781613905565b92915050565b600060208284031215615053576150526138cf565b5b600061506184828501615028565b91505092915050565b60006150768285614aaf565b91506150828284614aaf565b91508190509392505050565b60006040820190506150a36000830185613adb565b6150b06020830184613cef565b9392505050565b7f4e487b7100000000000000000000000000000000000000000000000000000000600052601260045260246000fdfea2646970667358221220703437cb17e40e507e8484ce369b39c2d8282aa07e55a391c7840a639abf453f64736f6c63430008140033",
  "devdoc": {
    "errors": {
      "ERC721IncorrectOwner(address,uint256,address)": [
        {
          "details": "Indicates an error related to the ownership over a particular token. Used in transfers.",
          "params": {
            "owner": "Address of the current owner of a token.",
            "sender": "Address whose tokens are being transferred.",
            "tokenId": "Identifier number of a token."
          }
        }
      ],
      "ERC721InsufficientApproval(address,uint256)": [
        {
          "details": "Indicates a failure with the `operator`s approval. Used in transfers.",
          "params": {
            "operator": "Address that may be allowed to operate on tokens without being their owner.",
            "tokenId": "Identifier number of a token."
          }
        }
      ],
      "ERC721InvalidApprover(address)": [
        {
          "details": "Indicates a failure with the `approver` of a token to be approved. Used in approvals.",
          "params": {
            "approver": "Address initiating an approval operation."
          }
        }
      ],
      "ERC721InvalidOperator(address)": [
        {
          "details": "Indicates a failure with the `operator` to be approved. Used in approvals.",
          "params": {
            "operator": "Address that may be allowed to operate on tokens without being their owner."
          }
        }
      ],
      "ERC721InvalidOwner(address)": [
        {
          "details": "Indicates that an address can't be an owner. For example, `address(0)` is a forbidden owner in EIP-20. Used in balance queries.",
          "params": {
            "owner": "Address of the current owner of a token."
          }
        }
      ],
      "ERC721InvalidReceiver(address)": [
        {
          "details": "Indicates a failure with the token `receiver`. Used in transfers.",
          "params": {
            "receiver": "Address to which tokens are being transferred."
          }
        }
      ],
      "ERC721InvalidSender(address)": [
        {
          "details": "Indicates a failure with the token `sender`. Used in transfers.",
          "params": {
            "sender": "Address whose tokens are being transferred."
          }
        }
      ],
      "ERC721NonexistentToken(uint256)": [
        {
          "details": "Indicates a `tokenId` whose `owner` is the zero address.",
          "params": {
            "tokenId": "Identifier number of a token."
          }
        }
      ],
      "OwnableInvalidOwner(address)": [
        {
          "details": "The owner is not a valid owner account. (eg. `address(0)`)"
        }
      ],
      "OwnableUnauthorizedAccount(address)": [
        {
          "details": "The caller account is not authorized to perform an operation."
        }
      ]
    },
    "events": {
      "Approval(address,address,uint256)": {
        "details": "Emitted when `owner` enables `approved` to manage the `tokenId` token."
      },
      "ApprovalForAll(address,address,bool)": {
        "details": "Emitted when `owner` enables or disables (`approved`) `operator` to manage all of its assets."
      },
      "BatchMetadataUpdate(uint256,uint256)": {
        "details": "This event emits when the metadata of a range of tokens is changed. So that the third-party platforms such as NFT market could timely update the images and related attributes of the NFTs."
      },
      "MetadataUpdate(uint256)": {
        "details": "This event emits when the metadata of a token is changed. So that the third-party platforms such as NFT market could timely update the images and related attributes of the NFT."
      },
      "Transfer(address,address,uint256)": {
        "details": "Emitted when `tokenId` token is transferred from `from` to `to`."
      }
    },
    "kind": "dev",
    "methods": {
      "approve(address,uint256)": {
        "details": "See {IERC721-approve}."
      },
      "balanceOf(address)": {
        "details": "See {IERC721-balanceOf}."
      },
      "burn(uint256)": {
        "details": "Burns `tokenId`. See {ERC721-_burn}. Requirements: - The caller must own `tokenId` or be an approved operator."
      },
      "getApproved(uint256)": {
        "details": "See {IERC721-getApproved}."
      },
      "isApprovedForAll(address,address)": {
        "details": "See {IERC721-isApprovedForAll}."
      },
      "name()": {
        "details": "See {IERC721Metadata-name}."
      },
      "owner()": {
        "details": "Returns the address of the current owner."
      },
      "ownerOf(uint256)": {
        "details": "See {IERC721-ownerOf}."
      },
      "renounceOwnership()": {
        "details": "Leaves the contract without owner. It will not be possible to call `onlyOwner` functions. Can only be called by the current owner. NOTE: Renouncing ownership will leave the contract without an owner, thereby disabling any functionality that is only available to the owner."
      },
      "safeTransferFrom(address,address,uint256)": {
        "details": "See {IERC721-safeTransferFrom}."
      },
      "safeTransferFrom(address,address,uint256,bytes)": {
        "details": "See {IERC721-safeTransferFrom}."
      },
      "setApprovalForAll(address,bool)": {
        "details": "See {IERC721-setApprovalForAll}."
      },
      "symbol()": {
        "details": "See {IERC721Metadata-symbol}."
      },
      "transferFrom(address,address,uint256)": {
        "details": "See {IERC721-transferFrom}."
      },
      "transferOwnership(address)": {
        "details": "Transfers ownership of the contract to a new account (`newOwner`). Can only be called by the current owner."
      }
    },
    "version": 1
  },
  "userdoc": {
    "kind": "user",
    "methods": {},
    "version": 1
  },
  "storageLayout": {
    "storage": [
      {
        "astId": 349,
        "contract": "contracts/Governator.sol:Governator",
        "label": "_name",
        "offset": 0,
        "slot": "0",
        "type": "t_string_storage"
      },
      {
        "astId": 351,
        "contract": "contracts/Governator.sol:Governator",
        "label": "_symbol",
        "offset": 0,
        "slot": "1",
        "type": "t_string_storage"
      },
      {
        "astId": 355,
        "contract": "contracts/Governator.sol:Governator",
        "label": "_owners",
        "offset": 0,
        "slot": "2",
        "type": "t_mapping(t_uint256,t_address)"
      },
      {
        "astId": 359,
        "contract": "contracts/Governator.sol:Governator",
        "label": "_balances",
        "offset": 0,
        "slot": "3",
        "type": "t_mapping(t_address,t_uint256)"
      },
      {
        "astId": 363,
        "contract": "contracts/Governator.sol:Governator",
        "label": "_tokenApprovals",
        "offset": 0,
        "slot": "4",
        "type": "t_mapping(t_uint256,t_address)"
      },
      {
        "astId": 369,
        "contract": "contracts/Governator.sol:Governator",
        "label": "_operatorApprovals",
        "offset": 0,
        "slot": "5",
        "type": "t_mapping(t_address,t_mapping(t_address,t_bool))"
      },
      {
        "astId": 1517,
        "contract": "contracts/Governator.sol:Governator",
        "label": "_tokenURIs",
        "offset": 0,
        "slot": "6",
        "type": "t_mapping(t_uint256,t_string_storage)"
      },
      {
        "astId": 8,
        "contract": "contracts/Governator.sol:Governator",
        "label": "_owner",
        "offset": 0,
        "slot": "7",
        "type": "t_address"
      },
      {
        "astId": 3886,
        "contract": "contracts/Governator.sol:Governator",
        "label": "Moderators",
        "offset": 0,
        "slot": "8",
        "type": "t_mapping(t_address,t_bool)"
      },
      {
        "astId": 3904,
        "contract": "contracts/Governator.sol:Governator",
        "label": "Persons",
        "offset": 0,
        "slot": "9",
        "type": "t_mapping(t_address,t_struct(Person)3899_storage)"
      },
      {
        "astId": 3908,
        "contract": "contracts/Governator.sol:Governator",
        "label": "allPersons",
        "offset": 0,
        "slot": "10",
        "type": "t_array(t_struct(Person)3899_storage)dyn_storage"
      },
      {
        "astId": 3918,
        "contract": "contracts/Governator.sol:Governator",
        "label": "Positions",
        "offset": 0,
        "slot": "11",
        "type": "t_mapping(t_string_memory_ptr,t_mapping(t_string_memory_ptr,t_struct(Position)3911_storage))"
      },
      {
        "astId": 3952,
        "contract": "contracts/Governator.sol:Governator",
        "label": "Elections",
        "offset": 0,
        "slot": "12",
        "type": "t_mapping(t_uint256,t_struct(Election)3947_storage)"
      },
      {
        "astId": 3955,
        "contract": "contracts/Governator.sol:Governator",
        "label": "candidateId",
        "offset": 0,
        "slot": "13",
        "type": "t_uint256"
      },
      {
        "astId": 3958,
        "contract": "contracts/Governator.sol:Governator",
        "label": "electionsCounter",
        "offset": 0,
        "slot": "14",
        "type": "t_uint256"
      },
      {
        "astId": 3617,
        "contract": "contracts/Governator.sol:Governator",
        "label": "_nextTokenId",
        "offset": 0,
        "slot": "15",
        "type": "t_uint256"
      },
      {
        "astId": 3156,
        "contract": "contracts/Governator.sol:Governator",
        "label": "allPersons",
        "offset": 0,
        "slot": "16",
        "type": "t_array(t_struct(Person)3899_storage)dyn_storage"
      }
    ],
    "types": {
      "t_address": {
        "encoding": "inplace",
        "label": "address",
        "numberOfBytes": "20"
      },
      "t_array(t_struct(Person)3899_storage)dyn_storage": {
        "base": "t_struct(Person)3899_storage",
        "encoding": "dynamic_array",
        "label": "struct Storage.Person[]",
        "numberOfBytes": "32"
      },
      "t_bool": {
        "encoding": "inplace",
        "label": "bool",
        "numberOfBytes": "1"
      },
      "t_mapping(t_address,t_bool)": {
        "encoding": "mapping",
        "key": "t_address",
        "label": "mapping(address => bool)",
        "numberOfBytes": "32",
        "value": "t_bool"
      },
      "t_mapping(t_address,t_mapping(t_address,t_bool))": {
        "encoding": "mapping",
        "key": "t_address",
        "label": "mapping(address => mapping(address => bool))",
        "numberOfBytes": "32",
        "value": "t_mapping(t_address,t_bool)"
      },
      "t_mapping(t_address,t_struct(Person)3899_storage)": {
        "encoding": "mapping",
        "key": "t_address",
        "label": "mapping(address => struct Storage.Person)",
        "numberOfBytes": "32",
        "value": "t_struct(Person)3899_storage"
      },
      "t_mapping(t_address,t_uint256)": {
        "encoding": "mapping",
        "key": "t_address",
        "label": "mapping(address => uint256)",
        "numberOfBytes": "32",
        "value": "t_uint256"
      },
      "t_mapping(t_string_memory_ptr,t_mapping(t_string_memory_ptr,t_struct(Position)3911_storage))": {
        "encoding": "mapping",
        "key": "t_string_memory_ptr",
        "label": "mapping(string => mapping(string => struct Storage.Position))",
        "numberOfBytes": "32",
        "value": "t_mapping(t_string_memory_ptr,t_struct(Position)3911_storage)"
      },
      "t_mapping(t_string_memory_ptr,t_struct(Position)3911_storage)": {
        "encoding": "mapping",
        "key": "t_string_memory_ptr",
        "label": "mapping(string => struct Storage.Position)",
        "numberOfBytes": "32",
        "value": "t_struct(Position)3911_storage"
      },
      "t_mapping(t_uint256,t_address)": {
        "encoding": "mapping",
        "key": "t_uint256",
        "label": "mapping(uint256 => address)",
        "numberOfBytes": "32",
        "value": "t_address"
      },
      "t_mapping(t_uint256,t_bool)": {
        "encoding": "mapping",
        "key": "t_uint256",
        "label": "mapping(uint256 => bool)",
        "numberOfBytes": "32",
        "value": "t_bool"
      },
      "t_mapping(t_uint256,t_string_storage)": {
        "encoding": "mapping",
        "key": "t_uint256",
        "label": "mapping(uint256 => string)",
        "numberOfBytes": "32",
        "value": "t_string_storage"
      },
      "t_mapping(t_uint256,t_struct(Election)3947_storage)": {
        "encoding": "mapping",
        "key": "t_uint256",
        "label": "mapping(uint256 => struct Storage.Election)",
        "numberOfBytes": "32",
        "value": "t_struct(Election)3947_storage"
      },
      "t_string_memory_ptr": {
        "encoding": "bytes",
        "label": "string",
        "numberOfBytes": "32"
      },
      "t_string_storage": {
        "encoding": "bytes",
        "label": "string",
        "numberOfBytes": "32"
      },
      "t_struct(Election)3947_storage": {
        "encoding": "inplace",
        "label": "struct Storage.Election",
        "members": [
          {
            "astId": 3920,
            "contract": "contracts/Governator.sol:Governator",
            "label": "Id",
            "offset": 0,
            "slot": "0",
            "type": "t_uint256"
          },
          {
            "astId": 3922,
            "contract": "contracts/Governator.sol:Governator",
            "label": "purpose",
            "offset": 0,
            "slot": "1",
            "type": "t_string_storage"
          },
          {
            "astId": 3924,
            "contract": "contracts/Governator.sol:Governator",
            "label": "candidate1",
            "offset": 0,
            "slot": "2",
            "type": "t_address"
          },
          {
            "astId": 3926,
            "contract": "contracts/Governator.sol:Governator",
            "label": "candidate2",
            "offset": 0,
            "slot": "3",
            "type": "t_address"
          },
          {
            "astId": 3928,
            "contract": "contracts/Governator.sol:Governator",
            "label": "votes_of_candidate1",
            "offset": 0,
            "slot": "4",
            "type": "t_uint256"
          },
          {
            "astId": 3930,
            "contract": "contracts/Governator.sol:Governator",
            "label": "votes_of_candidate2",
            "offset": 0,
            "slot": "5",
            "type": "t_uint256"
          },
          {
            "astId": 3932,
            "contract": "contracts/Governator.sol:Governator",
            "label": "position",
            "offset": 0,
            "slot": "6",
            "type": "t_string_storage"
          },
          {
            "astId": 3934,
            "contract": "contracts/Governator.sol:Governator",
            "label": "context",
            "offset": 0,
            "slot": "7",
            "type": "t_string_storage"
          },
          {
            "astId": 3936,
            "contract": "contracts/Governator.sol:Governator",
            "label": "totalVotes",
            "offset": 0,
            "slot": "8",
            "type": "t_uint256"
          },
          {
            "astId": 3938,
            "contract": "contracts/Governator.sol:Governator",
            "label": "concluded",
            "offset": 0,
            "slot": "9",
            "type": "t_bool"
          },
          {
            "astId": 3940,
            "contract": "contracts/Governator.sol:Governator",
            "label": "startTime",
            "offset": 0,
            "slot": "10",
            "type": "t_uint256"
          },
          {
            "astId": 3942,
            "contract": "contracts/Governator.sol:Governator",
            "label": "conclusionTime",
            "offset": 0,
            "slot": "11",
            "type": "t_uint256"
          },
          {
            "astId": 3946,
            "contract": "contracts/Governator.sol:Governator",
            "label": "voted",
            "offset": 0,
            "slot": "12",
            "type": "t_mapping(t_uint256,t_bool)"
          }
        ],
        "numberOfBytes": "416"
      },
      "t_struct(Person)3899_storage": {
        "encoding": "inplace",
        "label": "struct Storage.Person",
        "members": [
          {
            "astId": 3888,
            "contract": "contracts/Governator.sol:Governator",
            "label": "id",
            "offset": 0,
            "slot": "0",
            "type": "t_uint256"
          },
          {
            "astId": 3890,
            "contract": "contracts/Governator.sol:Governator",
            "label": "callSign",
            "offset": 0,
            "slot": "1",
            "type": "t_string_storage"
          },
          {
            "astId": 3892,
            "contract": "contracts/Governator.sol:Governator",
            "label": "position",
            "offset": 0,
            "slot": "2",
            "type": "t_string_storage"
          },
          {
            "astId": 3894,
            "contract": "contracts/Governator.sol:Governator",
            "label": "elevatedIn",
            "offset": 0,
            "slot": "3",
            "type": "t_string_storage"
          },
          {
            "astId": 3896,
            "contract": "contracts/Governator.sol:Governator",
            "label": "exists",
            "offset": 0,
            "slot": "4",
            "type": "t_bool"
          },
          {
            "astId": 3898,
            "contract": "contracts/Governator.sol:Governator",
            "label": "qualified",
            "offset": 1,
            "slot": "4",
            "type": "t_bool"
          }
        ],
        "numberOfBytes": "160"
      },
      "t_struct(Position)3911_storage": {
        "encoding": "inplace",
        "label": "struct Storage.Position",
        "members": [
          {
            "astId": 3910,
            "contract": "contracts/Governator.sol:Governator",
            "label": "holder",
            "offset": 0,
            "slot": "0",
            "type": "t_address"
          }
        ],
        "numberOfBytes": "32"
      },
      "t_uint256": {
        "encoding": "inplace",
        "label": "uint256",
        "numberOfBytes": "32"
      }
    }
  }
}