{
	"smartC/contracts/inherit/storage.sol": {
		"Storage": {
			"abi": [
				{
					"anonymous": false,
					"inputs": [
						{
							"indexed": false,
							"internalType": "uint256",
							"name": "",
							"type": "uint256"
						},
						{
							"indexed": false,
							"internalType": "string",
							"name": "",
							"type": "string"
						}
					],
					"name": "draw",
					"type": "event"
				},
				{
					"anonymous": false,
					"inputs": [
						{
							"indexed": false,
							"internalType": "uint256",
							"name": "electionId",
							"type": "uint256"
						},
						{
							"indexed": true,
							"internalType": "address",
							"name": "winner",
							"type": "address"
						}
					],
					"name": "electionConcluded",
					"type": "event"
				},
				{
					"anonymous": false,
					"inputs": [
						{
							"indexed": false,
							"internalType": "uint256",
							"name": "electionsCounter",
							"type": "uint256"
						}
					],
					"name": "electionStarted",
					"type": "event"
				},
				{
					"anonymous": false,
					"inputs": [
						{
							"indexed": true,
							"internalType": "address",
							"name": "newPerson",
							"type": "address"
						}
					],
					"name": "newPerson",
					"type": "event"
				},
				{
					"anonymous": false,
					"inputs": [
						{
							"indexed": true,
							"internalType": "address",
							"name": "voter",
							"type": "address"
						},
						{
							"indexed": true,
							"internalType": "address",
							"name": "candidate",
							"type": "address"
						}
					],
					"name": "voteCasted",
					"type": "event"
				},
				{
					"inputs": [
						{
							"internalType": "uint256",
							"name": "",
							"type": "uint256"
						}
					],
					"name": "Elections",
					"outputs": [
						{
							"internalType": "uint256",
							"name": "Id",
							"type": "uint256"
						},
						{
							"internalType": "string",
							"name": "purpose",
							"type": "string"
						},
						{
							"internalType": "address",
							"name": "candidate1",
							"type": "address"
						},
						{
							"internalType": "address",
							"name": "candidate2",
							"type": "address"
						},
						{
							"internalType": "uint256",
							"name": "votes_of_candidate1",
							"type": "uint256"
						},
						{
							"internalType": "uint256",
							"name": "votes_of_candidate2",
							"type": "uint256"
						},
						{
							"internalType": "string",
							"name": "position",
							"type": "string"
						},
						{
							"internalType": "string",
							"name": "context",
							"type": "string"
						},
						{
							"internalType": "uint256",
							"name": "totalVotes",
							"type": "uint256"
						},
						{
							"internalType": "bool",
							"name": "concluded",
							"type": "bool"
						}
					],
					"stateMutability": "view",
					"type": "function"
				},
				{
					"inputs": [
						{
							"internalType": "address",
							"name": "",
							"type": "address"
						}
					],
					"name": "Persons",
					"outputs": [
						{
							"internalType": "uint256",
							"name": "id",
							"type": "uint256"
						},
						{
							"internalType": "string",
							"name": "name",
							"type": "string"
						},
						{
							"internalType": "string",
							"name": "position",
							"type": "string"
						},
						{
							"internalType": "string",
							"name": "elevatedIn",
							"type": "string"
						},
						{
							"internalType": "bool",
							"name": "exists",
							"type": "bool"
						},
						{
							"internalType": "bool",
							"name": "qualified",
							"type": "bool"
						}
					],
					"stateMutability": "view",
					"type": "function"
				},
				{
					"inputs": [
						{
							"internalType": "string",
							"name": "",
							"type": "string"
						},
						{
							"internalType": "string",
							"name": "",
							"type": "string"
						}
					],
					"name": "Positions",
					"outputs": [
						{
							"internalType": "address",
							"name": "holder",
							"type": "address"
						}
					],
					"stateMutability": "view",
					"type": "function"
				},
				{
					"inputs": [],
					"name": "candidateId",
					"outputs": [
						{
							"internalType": "uint256",
							"name": "",
							"type": "uint256"
						}
					],
					"stateMutability": "view",
					"type": "function"
				},
				{
					"inputs": [],
					"name": "electionsCounter",
					"outputs": [
						{
							"internalType": "uint256",
							"name": "",
							"type": "uint256"
						}
					],
					"stateMutability": "view",
					"type": "function"
				}
			],
			"devdoc": {
				"kind": "dev",
				"methods": {},
				"version": 1
			},
			"evm": {
				"assembly": "    /* \"smartC/contracts/inherit/storage.sol\":84:1473  contract Storage {... */\n  mstore(0x40, 0x80)\n    /* \"smartC/contracts/inherit/storage.sol\":1432:1433  0 */\n  0x00\n    /* \"smartC/contracts/inherit/storage.sol\":1406:1433  uint public candidateId = 0 */\n  0x04\n  sstore\n    /* \"smartC/contracts/inherit/storage.sol\":1470:1471  0 */\n  0x00\n    /* \"smartC/contracts/inherit/storage.sol\":1439:1471  uint public electionsCounter = 0 */\n  0x05\n  sstore\n    /* \"smartC/contracts/inherit/storage.sol\":84:1473  contract Storage {... */\n  callvalue\n  dup1\n  iszero\n  tag_1\n  jumpi\n  0x00\n  dup1\n  revert\ntag_1:\n  pop\n  dataSize(sub_0)\n  dup1\n  dataOffset(sub_0)\n  0x00\n  codecopy\n  0x00\n  return\nstop\n\nsub_0: assembly {\n        /* \"smartC/contracts/inherit/storage.sol\":84:1473  contract Storage {... */\n      mstore(0x40, 0x80)\n      callvalue\n      dup1\n      iszero\n      tag_1\n      jumpi\n      0x00\n      dup1\n      revert\n    tag_1:\n      pop\n      jumpi(tag_2, lt(calldatasize, 0x04))\n      shr(0xe0, calldataload(0x00))\n      dup1\n      0x1e9598e2\n      eq\n      tag_3\n      jumpi\n      dup1\n      0x42ed3706\n      eq\n      tag_4\n      jumpi\n      dup1\n      0x46817041\n      eq\n      tag_5\n      jumpi\n      dup1\n      0x9f91e6bf\n      eq\n      tag_6\n      jumpi\n      dup1\n      0xf544be40\n      eq\n      tag_7\n      jumpi\n    tag_2:\n      0x00\n      dup1\n      revert\n        /* \"smartC/contracts/inherit/storage.sol\":1356:1398  mapping(uint => Election) public Elections */\n    tag_3:\n      tag_8\n      0x04\n      dup1\n      calldatasize\n      sub\n      dup2\n      add\n      swap1\n      tag_9\n      swap2\n      swap1\n      tag_10\n      jump\t// in\n    tag_9:\n      tag_11\n      jump\t// in\n    tag_8:\n      mload(0x40)\n      tag_12\n      swap11\n      swap10\n      swap9\n      swap8\n      swap7\n      swap6\n      swap5\n      swap4\n      swap3\n      swap2\n      swap1\n      tag_13\n      jump\t// in\n    tag_12:\n      mload(0x40)\n      dup1\n      swap2\n      sub\n      swap1\n      return\n        /* \"smartC/contracts/inherit/storage.sol\":734:799  mapping (string => mapping (string => Position)) public Positions */\n    tag_4:\n      tag_14\n      0x04\n      dup1\n      calldatasize\n      sub\n      dup2\n      add\n      swap1\n      tag_15\n      swap2\n      swap1\n      tag_16\n      jump\t// in\n    tag_15:\n      tag_17\n      jump\t// in\n    tag_14:\n      mload(0x40)\n      tag_18\n      swap2\n      swap1\n      tag_19\n      jump\t// in\n    tag_18:\n      mload(0x40)\n      dup1\n      swap2\n      sub\n      swap1\n      return\n        /* \"smartC/contracts/inherit/storage.sol\":1439:1471  uint public electionsCounter = 0 */\n    tag_5:\n      tag_20\n      tag_21\n      jump\t// in\n    tag_20:\n      mload(0x40)\n      tag_22\n      swap2\n      swap1\n      tag_23\n      jump\t// in\n    tag_22:\n      mload(0x40)\n      dup1\n      swap2\n      sub\n      swap1\n      return\n        /* \"smartC/contracts/inherit/storage.sol\":1406:1433  uint public candidateId = 0 */\n    tag_6:\n      tag_24\n      tag_25\n      jump\t// in\n    tag_24:\n      mload(0x40)\n      tag_26\n      swap2\n      swap1\n      tag_23\n      jump\t// in\n    tag_26:\n      mload(0x40)\n      dup1\n      swap2\n      sub\n      swap1\n      return\n        /* \"smartC/contracts/inherit/storage.sol\":569:610  mapping(address => Person) public Persons */\n    tag_7:\n      tag_27\n      0x04\n      dup1\n      calldatasize\n      sub\n      dup2\n      add\n      swap1\n      tag_28\n      swap2\n      swap1\n      tag_29\n      jump\t// in\n    tag_28:\n      tag_30\n      jump\t// in\n    tag_27:\n      mload(0x40)\n      tag_31\n      swap7\n      swap6\n      swap5\n      swap4\n      swap3\n      swap2\n      swap1\n      tag_32\n      jump\t// in\n    tag_31:\n      mload(0x40)\n      dup1\n      swap2\n      sub\n      swap1\n      return\n        /* \"smartC/contracts/inherit/storage.sol\":1356:1398  mapping(uint => Election) public Elections */\n    tag_11:\n      mstore(0x20, 0x03)\n      dup1\n      0x00\n      mstore\n      keccak256(0x00, 0x40)\n      0x00\n      swap2\n      pop\n      swap1\n      pop\n      dup1\n      0x00\n      add\n      sload\n      swap1\n      dup1\n      0x01\n      add\n      dup1\n      sload\n      tag_33\n      swap1\n      tag_34\n      jump\t// in\n    tag_33:\n      dup1\n      0x1f\n      add\n      0x20\n      dup1\n      swap2\n      div\n      mul\n      0x20\n      add\n      mload(0x40)\n      swap1\n      dup2\n      add\n      0x40\n      mstore\n      dup1\n      swap3\n      swap2\n      swap1\n      dup2\n      dup2\n      mstore\n      0x20\n      add\n      dup3\n      dup1\n      sload\n      tag_35\n      swap1\n      tag_34\n      jump\t// in\n    tag_35:\n      dup1\n      iszero\n      tag_36\n      jumpi\n      dup1\n      0x1f\n      lt\n      tag_37\n      jumpi\n      0x0100\n      dup1\n      dup4\n      sload\n      div\n      mul\n      dup4\n      mstore\n      swap2\n      0x20\n      add\n      swap2\n      jump(tag_36)\n    tag_37:\n      dup3\n      add\n      swap2\n      swap1\n      0x00\n      mstore\n      keccak256(0x00, 0x20)\n      swap1\n    tag_38:\n      dup2\n      sload\n      dup2\n      mstore\n      swap1\n      0x01\n      add\n      swap1\n      0x20\n      add\n      dup1\n      dup4\n      gt\n      tag_38\n      jumpi\n      dup3\n      swap1\n      sub\n      0x1f\n      and\n      dup3\n      add\n      swap2\n    tag_36:\n      pop\n      pop\n      pop\n      pop\n      pop\n      swap1\n      dup1\n      0x02\n      add\n      0x00\n      swap1\n      sload\n      swap1\n      0x0100\n      exp\n      swap1\n      div\n      0xffffffffffffffffffffffffffffffffffffffff\n      and\n      swap1\n      dup1\n      0x03\n      add\n      0x00\n      swap1\n      sload\n      swap1\n      0x0100\n      exp\n      swap1\n      div\n      0xffffffffffffffffffffffffffffffffffffffff\n      and\n      swap1\n      dup1\n      0x04\n      add\n      sload\n      swap1\n      dup1\n      0x05\n      add\n      sload\n      swap1\n      dup1\n      0x06\n      add\n      dup1\n      sload\n      tag_39\n      swap1\n      tag_34\n      jump\t// in\n    tag_39:\n      dup1\n      0x1f\n      add\n      0x20\n      dup1\n      swap2\n      div\n      mul\n      0x20\n      add\n      mload(0x40)\n      swap1\n      dup2\n      add\n      0x40\n      mstore\n      dup1\n      swap3\n      swap2\n      swap1\n      dup2\n      dup2\n      mstore\n      0x20\n      add\n      dup3\n      dup1\n      sload\n      tag_40\n      swap1\n      tag_34\n      jump\t// in\n    tag_40:\n      dup1\n      iszero\n      tag_41\n      jumpi\n      dup1\n      0x1f\n      lt\n      tag_42\n      jumpi\n      0x0100\n      dup1\n      dup4\n      sload\n      div\n      mul\n      dup4\n      mstore\n      swap2\n      0x20\n      add\n      swap2\n      jump(tag_41)\n    tag_42:\n      dup3\n      add\n      swap2\n      swap1\n      0x00\n      mstore\n      keccak256(0x00, 0x20)\n      swap1\n    tag_43:\n      dup2\n      sload\n      dup2\n      mstore\n      swap1\n      0x01\n      add\n      swap1\n      0x20\n      add\n      dup1\n      dup4\n      gt\n      tag_43\n      jumpi\n      dup3\n      swap1\n      sub\n      0x1f\n      and\n      dup3\n      add\n      swap2\n    tag_41:\n      pop\n      pop\n      pop\n      pop\n      pop\n      swap1\n      dup1\n      0x07\n      add\n      dup1\n      sload\n      tag_44\n      swap1\n      tag_34\n      jump\t// in\n    tag_44:\n      dup1\n      0x1f\n      add\n      0x20\n      dup1\n      swap2\n      div\n      mul\n      0x20\n      add\n      mload(0x40)\n      swap1\n      dup2\n      add\n      0x40\n      mstore\n      dup1\n      swap3\n      swap2\n      swap1\n      dup2\n      dup2\n      mstore\n      0x20\n      add\n      dup3\n      dup1\n      sload\n      tag_45\n      swap1\n      tag_34\n      jump\t// in\n    tag_45:\n      dup1\n      iszero\n      tag_46\n      jumpi\n      dup1\n      0x1f\n      lt\n      tag_47\n      jumpi\n      0x0100\n      dup1\n      dup4\n      sload\n      div\n      mul\n      dup4\n      mstore\n      swap2\n      0x20\n      add\n      swap2\n      jump(tag_46)\n    tag_47:\n      dup3\n      add\n      swap2\n      swap1\n      0x00\n      mstore\n      keccak256(0x00, 0x20)\n      swap1\n    tag_48:\n      dup2\n      sload\n      dup2\n      mstore\n      swap1\n      0x01\n      add\n      swap1\n      0x20\n      add\n      dup1\n      dup4\n      gt\n      tag_48\n      jumpi\n      dup3\n      swap1\n      sub\n      0x1f\n      and\n      dup3\n      add\n      swap2\n    tag_46:\n      pop\n      pop\n      pop\n      pop\n      pop\n      swap1\n      dup1\n      0x08\n      add\n      sload\n      swap1\n      dup1\n      0x09\n      add\n      0x00\n      swap1\n      sload\n      swap1\n      0x0100\n      exp\n      swap1\n      div\n      0xff\n      and\n      swap1\n      pop\n      dup11\n      jump\t// out\n        /* \"smartC/contracts/inherit/storage.sol\":734:799  mapping (string => mapping (string => Position)) public Positions */\n    tag_17:\n      0x02\n      dup3\n      dup1\n      mload\n      0x20\n      dup2\n      add\n      dup3\n      add\n      dup1\n      mload\n      dup5\n      dup3\n      mstore\n      0x20\n      dup4\n      add\n      0x20\n      dup6\n      add\n      keccak256\n      dup2\n      dup4\n      mstore\n      dup1\n      swap6\n      pop\n      pop\n      pop\n      pop\n      pop\n      pop\n      dup2\n      dup1\n      mload\n      0x20\n      dup2\n      add\n      dup3\n      add\n      dup1\n      mload\n      dup5\n      dup3\n      mstore\n      0x20\n      dup4\n      add\n      0x20\n      dup6\n      add\n      keccak256\n      dup2\n      dup4\n      mstore\n      dup1\n      swap6\n      pop\n      pop\n      pop\n      pop\n      pop\n      pop\n      0x00\n      swap2\n      pop\n      swap2\n      pop\n      pop\n      dup1\n      0x00\n      add\n      0x00\n      swap1\n      sload\n      swap1\n      0x0100\n      exp\n      swap1\n      div\n      0xffffffffffffffffffffffffffffffffffffffff\n      and\n      swap1\n      pop\n      dup2\n      jump\t// out\n        /* \"smartC/contracts/inherit/storage.sol\":1439:1471  uint public electionsCounter = 0 */\n    tag_21:\n      sload(0x05)\n      dup2\n      jump\t// out\n        /* \"smartC/contracts/inherit/storage.sol\":1406:1433  uint public candidateId = 0 */\n    tag_25:\n      sload(0x04)\n      dup2\n      jump\t// out\n        /* \"smartC/contracts/inherit/storage.sol\":569:610  mapping(address => Person) public Persons */\n    tag_30:\n      mstore(0x20, 0x00)\n      dup1\n      0x00\n      mstore\n      keccak256(0x00, 0x40)\n      0x00\n      swap2\n      pop\n      swap1\n      pop\n      dup1\n      0x00\n      add\n      sload\n      swap1\n      dup1\n      0x01\n      add\n      dup1\n      sload\n      tag_49\n      swap1\n      tag_34\n      jump\t// in\n    tag_49:\n      dup1\n      0x1f\n      add\n      0x20\n      dup1\n      swap2\n      div\n      mul\n      0x20\n      add\n      mload(0x40)\n      swap1\n      dup2\n      add\n      0x40\n      mstore\n      dup1\n      swap3\n      swap2\n      swap1\n      dup2\n      dup2\n      mstore\n      0x20\n      add\n      dup3\n      dup1\n      sload\n      tag_50\n      swap1\n      tag_34\n      jump\t// in\n    tag_50:\n      dup1\n      iszero\n      tag_51\n      jumpi\n      dup1\n      0x1f\n      lt\n      tag_52\n      jumpi\n      0x0100\n      dup1\n      dup4\n      sload\n      div\n      mul\n      dup4\n      mstore\n      swap2\n      0x20\n      add\n      swap2\n      jump(tag_51)\n    tag_52:\n      dup3\n      add\n      swap2\n      swap1\n      0x00\n      mstore\n      keccak256(0x00, 0x20)\n      swap1\n    tag_53:\n      dup2\n      sload\n      dup2\n      mstore\n      swap1\n      0x01\n      add\n      swap1\n      0x20\n      add\n      dup1\n      dup4\n      gt\n      tag_53\n      jumpi\n      dup3\n      swap1\n      sub\n      0x1f\n      and\n      dup3\n      add\n      swap2\n    tag_51:\n      pop\n      pop\n      pop\n      pop\n      pop\n      swap1\n      dup1\n      0x02\n      add\n      dup1\n      sload\n      tag_54\n      swap1\n      tag_34\n      jump\t// in\n    tag_54:\n      dup1\n      0x1f\n      add\n      0x20\n      dup1\n      swap2\n      div\n      mul\n      0x20\n      add\n      mload(0x40)\n      swap1\n      dup2\n      add\n      0x40\n      mstore\n      dup1\n      swap3\n      swap2\n      swap1\n      dup2\n      dup2\n      mstore\n      0x20\n      add\n      dup3\n      dup1\n      sload\n      tag_55\n      swap1\n      tag_34\n      jump\t// in\n    tag_55:\n      dup1\n      iszero\n      tag_56\n      jumpi\n      dup1\n      0x1f\n      lt\n      tag_57\n      jumpi\n      0x0100\n      dup1\n      dup4\n      sload\n      div\n      mul\n      dup4\n      mstore\n      swap2\n      0x20\n      add\n      swap2\n      jump(tag_56)\n    tag_57:\n      dup3\n      add\n      swap2\n      swap1\n      0x00\n      mstore\n      keccak256(0x00, 0x20)\n      swap1\n    tag_58:\n      dup2\n      sload\n      dup2\n      mstore\n      swap1\n      0x01\n      add\n      swap1\n      0x20\n      add\n      dup1\n      dup4\n      gt\n      tag_58\n      jumpi\n      dup3\n      swap1\n      sub\n      0x1f\n      and\n      dup3\n      add\n      swap2\n    tag_56:\n      pop\n      pop\n      pop\n      pop\n      pop\n      swap1\n      dup1\n      0x03\n      add\n      dup1\n      sload\n      tag_59\n      swap1\n      tag_34\n      jump\t// in\n    tag_59:\n      dup1\n      0x1f\n      add\n      0x20\n      dup1\n      swap2\n      div\n      mul\n      0x20\n      add\n      mload(0x40)\n      swap1\n      dup2\n      add\n      0x40\n      mstore\n      dup1\n      swap3\n      swap2\n      swap1\n      dup2\n      dup2\n      mstore\n      0x20\n      add\n      dup3\n      dup1\n      sload\n      tag_60\n      swap1\n      tag_34\n      jump\t// in\n    tag_60:\n      dup1\n      iszero\n      tag_61\n      jumpi\n      dup1\n      0x1f\n      lt\n      tag_62\n      jumpi\n      0x0100\n      dup1\n      dup4\n      sload\n      div\n      mul\n      dup4\n      mstore\n      swap2\n      0x20\n      add\n      swap2\n      jump(tag_61)\n    tag_62:\n      dup3\n      add\n      swap2\n      swap1\n      0x00\n      mstore\n      keccak256(0x00, 0x20)\n      swap1\n    tag_63:\n      dup2\n      sload\n      dup2\n      mstore\n      swap1\n      0x01\n      add\n      swap1\n      0x20\n      add\n      dup1\n      dup4\n      gt\n      tag_63\n      jumpi\n      dup3\n      swap1\n      sub\n      0x1f\n      and\n      dup3\n      add\n      swap2\n    tag_61:\n      pop\n      pop\n      pop\n      pop\n      pop\n      swap1\n      dup1\n      0x04\n      add\n      0x00\n      swap1\n      sload\n      swap1\n      0x0100\n      exp\n      swap1\n      div\n      0xff\n      and\n      swap1\n      dup1\n      0x04\n      add\n      0x01\n      swap1\n      sload\n      swap1\n      0x0100\n      exp\n      swap1\n      div\n      0xff\n      and\n      swap1\n      pop\n      dup7\n      jump\t// out\n        /* \"#utility.yul\":7:82   */\n    tag_64:\n        /* \"#utility.yul\":40:46   */\n      0x00\n        /* \"#utility.yul\":73:75   */\n      0x40\n        /* \"#utility.yul\":67:76   */\n      mload\n        /* \"#utility.yul\":57:76   */\n      swap1\n      pop\n        /* \"#utility.yul\":7:82   */\n      swap1\n      jump\t// out\n        /* \"#utility.yul\":88:205   */\n    tag_65:\n        /* \"#utility.yul\":197:198   */\n      0x00\n        /* \"#utility.yul\":194:195   */\n      dup1\n        /* \"#utility.yul\":187:199   */\n      revert\n        /* \"#utility.yul\":211:328   */\n    tag_66:\n        /* \"#utility.yul\":320:321   */\n      0x00\n        /* \"#utility.yul\":317:318   */\n      dup1\n        /* \"#utility.yul\":310:322   */\n      revert\n        /* \"#utility.yul\":334:411   */\n    tag_67:\n        /* \"#utility.yul\":371:378   */\n      0x00\n        /* \"#utility.yul\":400:405   */\n      dup2\n        /* \"#utility.yul\":389:405   */\n      swap1\n      pop\n        /* \"#utility.yul\":334:411   */\n      swap2\n      swap1\n      pop\n      jump\t// out\n        /* \"#utility.yul\":417:539   */\n    tag_68:\n        /* \"#utility.yul\":490:514   */\n      tag_99\n        /* \"#utility.yul\":508:513   */\n      dup2\n        /* \"#utility.yul\":490:514   */\n      tag_67\n      jump\t// in\n    tag_99:\n        /* \"#utility.yul\":483:488   */\n      dup2\n        /* \"#utility.yul\":480:515   */\n      eq\n        /* \"#utility.yul\":470:533   */\n      tag_100\n      jumpi\n        /* \"#utility.yul\":529:530   */\n      0x00\n        /* \"#utility.yul\":526:527   */\n      dup1\n        /* \"#utility.yul\":519:531   */\n      revert\n        /* \"#utility.yul\":470:533   */\n    tag_100:\n        /* \"#utility.yul\":417:539   */\n      pop\n      jump\t// out\n        /* \"#utility.yul\":545:684   */\n    tag_69:\n        /* \"#utility.yul\":591:596   */\n      0x00\n        /* \"#utility.yul\":629:635   */\n      dup2\n        /* \"#utility.yul\":616:636   */\n      calldataload\n        /* \"#utility.yul\":607:636   */\n      swap1\n      pop\n        /* \"#utility.yul\":645:678   */\n      tag_102\n        /* \"#utility.yul\":672:677   */\n      dup2\n        /* \"#utility.yul\":645:678   */\n      tag_68\n      jump\t// in\n    tag_102:\n        /* \"#utility.yul\":545:684   */\n      swap3\n      swap2\n      pop\n      pop\n      jump\t// out\n        /* \"#utility.yul\":690:1019   */\n    tag_10:\n        /* \"#utility.yul\":749:755   */\n      0x00\n        /* \"#utility.yul\":798:800   */\n      0x20\n        /* \"#utility.yul\":786:795   */\n      dup3\n        /* \"#utility.yul\":777:784   */\n      dup5\n        /* \"#utility.yul\":773:796   */\n      sub\n        /* \"#utility.yul\":769:801   */\n      slt\n        /* \"#utility.yul\":766:885   */\n      iszero\n      tag_104\n      jumpi\n        /* \"#utility.yul\":804:883   */\n      tag_105\n      tag_65\n      jump\t// in\n    tag_105:\n        /* \"#utility.yul\":766:885   */\n    tag_104:\n        /* \"#utility.yul\":924:925   */\n      0x00\n        /* \"#utility.yul\":949:1002   */\n      tag_106\n        /* \"#utility.yul\":994:1001   */\n      dup5\n        /* \"#utility.yul\":985:991   */\n      dup3\n        /* \"#utility.yul\":974:983   */\n      dup6\n        /* \"#utility.yul\":970:992   */\n      add\n        /* \"#utility.yul\":949:1002   */\n      tag_69\n      jump\t// in\n    tag_106:\n        /* \"#utility.yul\":939:1002   */\n      swap2\n      pop\n        /* \"#utility.yul\":895:1012   */\n      pop\n        /* \"#utility.yul\":690:1019   */\n      swap3\n      swap2\n      pop\n      pop\n      jump\t// out\n        /* \"#utility.yul\":1025:1143   */\n    tag_70:\n        /* \"#utility.yul\":1112:1136   */\n      tag_108\n        /* \"#utility.yul\":1130:1135   */\n      dup2\n        /* \"#utility.yul\":1112:1136   */\n      tag_67\n      jump\t// in\n    tag_108:\n        /* \"#utility.yul\":1107:1110   */\n      dup3\n        /* \"#utility.yul\":1100:1137   */\n      mstore\n        /* \"#utility.yul\":1025:1143   */\n      pop\n      pop\n      jump\t// out\n        /* \"#utility.yul\":1149:1248   */\n    tag_71:\n        /* \"#utility.yul\":1201:1207   */\n      0x00\n        /* \"#utility.yul\":1235:1240   */\n      dup2\n        /* \"#utility.yul\":1229:1241   */\n      mload\n        /* \"#utility.yul\":1219:1241   */\n      swap1\n      pop\n        /* \"#utility.yul\":1149:1248   */\n      swap2\n      swap1\n      pop\n      jump\t// out\n        /* \"#utility.yul\":1254:1423   */\n    tag_72:\n        /* \"#utility.yul\":1338:1349   */\n      0x00\n        /* \"#utility.yul\":1372:1378   */\n      dup3\n        /* \"#utility.yul\":1367:1370   */\n      dup3\n        /* \"#utility.yul\":1360:1379   */\n      mstore\n        /* \"#utility.yul\":1412:1416   */\n      0x20\n        /* \"#utility.yul\":1407:1410   */\n      dup3\n        /* \"#utility.yul\":1403:1417   */\n      add\n        /* \"#utility.yul\":1388:1417   */\n      swap1\n      pop\n        /* \"#utility.yul\":1254:1423   */\n      swap3\n      swap2\n      pop\n      pop\n      jump\t// out\n        /* \"#utility.yul\":1429:1568   */\n    tag_73:\n        /* \"#utility.yul\":1518:1524   */\n      dup3\n        /* \"#utility.yul\":1513:1516   */\n      dup2\n        /* \"#utility.yul\":1508:1511   */\n      dup4\n        /* \"#utility.yul\":1502:1525   */\n      mcopy\n        /* \"#utility.yul\":1559:1560   */\n      0x00\n        /* \"#utility.yul\":1550:1556   */\n      dup4\n        /* \"#utility.yul\":1545:1548   */\n      dup4\n        /* \"#utility.yul\":1541:1557   */\n      add\n        /* \"#utility.yul\":1534:1561   */\n      mstore\n        /* \"#utility.yul\":1429:1568   */\n      pop\n      pop\n      pop\n      jump\t// out\n        /* \"#utility.yul\":1574:1676   */\n    tag_74:\n        /* \"#utility.yul\":1615:1621   */\n      0x00\n        /* \"#utility.yul\":1666:1668   */\n      0x1f\n        /* \"#utility.yul\":1662:1669   */\n      not\n        /* \"#utility.yul\":1657:1659   */\n      0x1f\n        /* \"#utility.yul\":1650:1655   */\n      dup4\n        /* \"#utility.yul\":1646:1660   */\n      add\n        /* \"#utility.yul\":1642:1670   */\n      and\n        /* \"#utility.yul\":1632:1670   */\n      swap1\n      pop\n        /* \"#utility.yul\":1574:1676   */\n      swap2\n      swap1\n      pop\n      jump\t// out\n        /* \"#utility.yul\":1682:2059   */\n    tag_75:\n        /* \"#utility.yul\":1770:1773   */\n      0x00\n        /* \"#utility.yul\":1798:1837   */\n      tag_114\n        /* \"#utility.yul\":1831:1836   */\n      dup3\n        /* \"#utility.yul\":1798:1837   */\n      tag_71\n      jump\t// in\n    tag_114:\n        /* \"#utility.yul\":1853:1924   */\n      tag_115\n        /* \"#utility.yul\":1917:1923   */\n      dup2\n        /* \"#utility.yul\":1912:1915   */\n      dup6\n        /* \"#utility.yul\":1853:1924   */\n      tag_72\n      jump\t// in\n    tag_115:\n        /* \"#utility.yul\":1846:1924   */\n      swap4\n      pop\n        /* \"#utility.yul\":1933:1998   */\n      tag_116\n        /* \"#utility.yul\":1991:1997   */\n      dup2\n        /* \"#utility.yul\":1986:1989   */\n      dup6\n        /* \"#utility.yul\":1979:1983   */\n      0x20\n        /* \"#utility.yul\":1972:1977   */\n      dup7\n        /* \"#utility.yul\":1968:1984   */\n      add\n        /* \"#utility.yul\":1933:1998   */\n      tag_73\n      jump\t// in\n    tag_116:\n        /* \"#utility.yul\":2023:2052   */\n      tag_117\n        /* \"#utility.yul\":2045:2051   */\n      dup2\n        /* \"#utility.yul\":2023:2052   */\n      tag_74\n      jump\t// in\n    tag_117:\n        /* \"#utility.yul\":2018:2021   */\n      dup5\n        /* \"#utility.yul\":2014:2053   */\n      add\n        /* \"#utility.yul\":2007:2053   */\n      swap2\n      pop\n        /* \"#utility.yul\":1774:2059   */\n      pop\n        /* \"#utility.yul\":1682:2059   */\n      swap3\n      swap2\n      pop\n      pop\n      jump\t// out\n        /* \"#utility.yul\":2065:2191   */\n    tag_76:\n        /* \"#utility.yul\":2102:2109   */\n      0x00\n        /* \"#utility.yul\":2142:2184   */\n      0xffffffffffffffffffffffffffffffffffffffff\n        /* \"#utility.yul\":2135:2140   */\n      dup3\n        /* \"#utility.yul\":2131:2185   */\n      and\n        /* \"#utility.yul\":2120:2185   */\n      swap1\n      pop\n        /* \"#utility.yul\":2065:2191   */\n      swap2\n      swap1\n      pop\n      jump\t// out\n        /* \"#utility.yul\":2197:2293   */\n    tag_77:\n        /* \"#utility.yul\":2234:2241   */\n      0x00\n        /* \"#utility.yul\":2263:2287   */\n      tag_120\n        /* \"#utility.yul\":2281:2286   */\n      dup3\n        /* \"#utility.yul\":2263:2287   */\n      tag_76\n      jump\t// in\n    tag_120:\n        /* \"#utility.yul\":2252:2287   */\n      swap1\n      pop\n        /* \"#utility.yul\":2197:2293   */\n      swap2\n      swap1\n      pop\n      jump\t// out\n        /* \"#utility.yul\":2299:2417   */\n    tag_78:\n        /* \"#utility.yul\":2386:2410   */\n      tag_122\n        /* \"#utility.yul\":2404:2409   */\n      dup2\n        /* \"#utility.yul\":2386:2410   */\n      tag_77\n      jump\t// in\n    tag_122:\n        /* \"#utility.yul\":2381:2384   */\n      dup3\n        /* \"#utility.yul\":2374:2411   */\n      mstore\n        /* \"#utility.yul\":2299:2417   */\n      pop\n      pop\n      jump\t// out\n        /* \"#utility.yul\":2423:2513   */\n    tag_79:\n        /* \"#utility.yul\":2457:2464   */\n      0x00\n        /* \"#utility.yul\":2500:2505   */\n      dup2\n        /* \"#utility.yul\":2493:2506   */\n      iszero\n        /* \"#utility.yul\":2486:2507   */\n      iszero\n        /* \"#utility.yul\":2475:2507   */\n      swap1\n      pop\n        /* \"#utility.yul\":2423:2513   */\n      swap2\n      swap1\n      pop\n      jump\t// out\n        /* \"#utility.yul\":2519:2628   */\n    tag_80:\n        /* \"#utility.yul\":2600:2621   */\n      tag_125\n        /* \"#utility.yul\":2615:2620   */\n      dup2\n        /* \"#utility.yul\":2600:2621   */\n      tag_79\n      jump\t// in\n    tag_125:\n        /* \"#utility.yul\":2595:2598   */\n      dup3\n        /* \"#utility.yul\":2588:2622   */\n      mstore\n        /* \"#utility.yul\":2519:2628   */\n      pop\n      pop\n      jump\t// out\n        /* \"#utility.yul\":2634:4114   */\n    tag_13:\n        /* \"#utility.yul\":3033:3037   */\n      0x00\n        /* \"#utility.yul\":3071:3074   */\n      0x0140\n        /* \"#utility.yul\":3060:3069   */\n      dup3\n        /* \"#utility.yul\":3056:3075   */\n      add\n        /* \"#utility.yul\":3048:3075   */\n      swap1\n      pop\n        /* \"#utility.yul\":3085:3156   */\n      tag_127\n        /* \"#utility.yul\":3153:3154   */\n      0x00\n        /* \"#utility.yul\":3142:3151   */\n      dup4\n        /* \"#utility.yul\":3138:3155   */\n      add\n        /* \"#utility.yul\":3129:3135   */\n      dup14\n        /* \"#utility.yul\":3085:3156   */\n      tag_70\n      jump\t// in\n    tag_127:\n        /* \"#utility.yul\":3203:3212   */\n      dup2\n        /* \"#utility.yul\":3197:3201   */\n      dup2\n        /* \"#utility.yul\":3193:3213   */\n      sub\n        /* \"#utility.yul\":3188:3190   */\n      0x20\n        /* \"#utility.yul\":3177:3186   */\n      dup4\n        /* \"#utility.yul\":3173:3191   */\n      add\n        /* \"#utility.yul\":3166:3214   */\n      mstore\n        /* \"#utility.yul\":3231:3309   */\n      tag_128\n        /* \"#utility.yul\":3304:3308   */\n      dup2\n        /* \"#utility.yul\":3295:3301   */\n      dup13\n        /* \"#utility.yul\":3231:3309   */\n      tag_75\n      jump\t// in\n    tag_128:\n        /* \"#utility.yul\":3223:3309   */\n      swap1\n      pop\n        /* \"#utility.yul\":3319:3391   */\n      tag_129\n        /* \"#utility.yul\":3387:3389   */\n      0x40\n        /* \"#utility.yul\":3376:3385   */\n      dup4\n        /* \"#utility.yul\":3372:3390   */\n      add\n        /* \"#utility.yul\":3363:3369   */\n      dup12\n        /* \"#utility.yul\":3319:3391   */\n      tag_78\n      jump\t// in\n    tag_129:\n        /* \"#utility.yul\":3401:3473   */\n      tag_130\n        /* \"#utility.yul\":3469:3471   */\n      0x60\n        /* \"#utility.yul\":3458:3467   */\n      dup4\n        /* \"#utility.yul\":3454:3472   */\n      add\n        /* \"#utility.yul\":3445:3451   */\n      dup11\n        /* \"#utility.yul\":3401:3473   */\n      tag_78\n      jump\t// in\n    tag_130:\n        /* \"#utility.yul\":3483:3556   */\n      tag_131\n        /* \"#utility.yul\":3551:3554   */\n      0x80\n        /* \"#utility.yul\":3540:3549   */\n      dup4\n        /* \"#utility.yul\":3536:3555   */\n      add\n        /* \"#utility.yul\":3527:3533   */\n      dup10\n        /* \"#utility.yul\":3483:3556   */\n      tag_70\n      jump\t// in\n    tag_131:\n        /* \"#utility.yul\":3566:3639   */\n      tag_132\n        /* \"#utility.yul\":3634:3637   */\n      0xa0\n        /* \"#utility.yul\":3623:3632   */\n      dup4\n        /* \"#utility.yul\":3619:3638   */\n      add\n        /* \"#utility.yul\":3610:3616   */\n      dup9\n        /* \"#utility.yul\":3566:3639   */\n      tag_70\n      jump\t// in\n    tag_132:\n        /* \"#utility.yul\":3687:3696   */\n      dup2\n        /* \"#utility.yul\":3681:3685   */\n      dup2\n        /* \"#utility.yul\":3677:3697   */\n      sub\n        /* \"#utility.yul\":3671:3674   */\n      0xc0\n        /* \"#utility.yul\":3660:3669   */\n      dup4\n        /* \"#utility.yul\":3656:3675   */\n      add\n        /* \"#utility.yul\":3649:3698   */\n      mstore\n        /* \"#utility.yul\":3715:3793   */\n      tag_133\n        /* \"#utility.yul\":3788:3792   */\n      dup2\n        /* \"#utility.yul\":3779:3785   */\n      dup8\n        /* \"#utility.yul\":3715:3793   */\n      tag_75\n      jump\t// in\n    tag_133:\n        /* \"#utility.yul\":3707:3793   */\n      swap1\n      pop\n        /* \"#utility.yul\":3841:3850   */\n      dup2\n        /* \"#utility.yul\":3835:3839   */\n      dup2\n        /* \"#utility.yul\":3831:3851   */\n      sub\n        /* \"#utility.yul\":3825:3828   */\n      0xe0\n        /* \"#utility.yul\":3814:3823   */\n      dup4\n        /* \"#utility.yul\":3810:3829   */\n      add\n        /* \"#utility.yul\":3803:3852   */\n      mstore\n        /* \"#utility.yul\":3869:3947   */\n      tag_134\n        /* \"#utility.yul\":3942:3946   */\n      dup2\n        /* \"#utility.yul\":3933:3939   */\n      dup7\n        /* \"#utility.yul\":3869:3947   */\n      tag_75\n      jump\t// in\n    tag_134:\n        /* \"#utility.yul\":3861:3947   */\n      swap1\n      pop\n        /* \"#utility.yul\":3957:4030   */\n      tag_135\n        /* \"#utility.yul\":4025:4028   */\n      0x0100\n        /* \"#utility.yul\":4014:4023   */\n      dup4\n        /* \"#utility.yul\":4010:4029   */\n      add\n        /* \"#utility.yul\":4001:4007   */\n      dup6\n        /* \"#utility.yul\":3957:4030   */\n      tag_70\n      jump\t// in\n    tag_135:\n        /* \"#utility.yul\":4040:4107   */\n      tag_136\n        /* \"#utility.yul\":4102:4105   */\n      0x0120\n        /* \"#utility.yul\":4091:4100   */\n      dup4\n        /* \"#utility.yul\":4087:4106   */\n      add\n        /* \"#utility.yul\":4078:4084   */\n      dup5\n        /* \"#utility.yul\":4040:4107   */\n      tag_80\n      jump\t// in\n    tag_136:\n        /* \"#utility.yul\":2634:4114   */\n      swap12\n      swap11\n      pop\n      pop\n      pop\n      pop\n      pop\n      pop\n      pop\n      pop\n      pop\n      pop\n      pop\n      jump\t// out\n        /* \"#utility.yul\":4120:4237   */\n    tag_81:\n        /* \"#utility.yul\":4229:4230   */\n      0x00\n        /* \"#utility.yul\":4226:4227   */\n      dup1\n        /* \"#utility.yul\":4219:4231   */\n      revert\n        /* \"#utility.yul\":4243:4360   */\n    tag_82:\n        /* \"#utility.yul\":4352:4353   */\n      0x00\n        /* \"#utility.yul\":4349:4350   */\n      dup1\n        /* \"#utility.yul\":4342:4354   */\n      revert\n        /* \"#utility.yul\":4366:4546   */\n    tag_83:\n        /* \"#utility.yul\":4414:4491   */\n      0x4e487b7100000000000000000000000000000000000000000000000000000000\n        /* \"#utility.yul\":4411:4412   */\n      0x00\n        /* \"#utility.yul\":4404:4492   */\n      mstore\n        /* \"#utility.yul\":4511:4515   */\n      0x41\n        /* \"#utility.yul\":4508:4509   */\n      0x04\n        /* \"#utility.yul\":4501:4516   */\n      mstore\n        /* \"#utility.yul\":4535:4539   */\n      0x24\n        /* \"#utility.yul\":4532:4533   */\n      0x00\n        /* \"#utility.yul\":4525:4540   */\n      revert\n        /* \"#utility.yul\":4552:4833   */\n    tag_84:\n        /* \"#utility.yul\":4635:4662   */\n      tag_141\n        /* \"#utility.yul\":4657:4661   */\n      dup3\n        /* \"#utility.yul\":4635:4662   */\n      tag_74\n      jump\t// in\n    tag_141:\n        /* \"#utility.yul\":4627:4633   */\n      dup2\n        /* \"#utility.yul\":4623:4663   */\n      add\n        /* \"#utility.yul\":4765:4771   */\n      dup2\n        /* \"#utility.yul\":4753:4763   */\n      dup2\n        /* \"#utility.yul\":4750:4772   */\n      lt\n        /* \"#utility.yul\":4729:4747   */\n      0xffffffffffffffff\n        /* \"#utility.yul\":4717:4727   */\n      dup3\n        /* \"#utility.yul\":4714:4748   */\n      gt\n        /* \"#utility.yul\":4711:4773   */\n      or\n        /* \"#utility.yul\":4708:4796   */\n      iszero\n      tag_142\n      jumpi\n        /* \"#utility.yul\":4776:4794   */\n      tag_143\n      tag_83\n      jump\t// in\n    tag_143:\n        /* \"#utility.yul\":4708:4796   */\n    tag_142:\n        /* \"#utility.yul\":4816:4826   */\n      dup1\n        /* \"#utility.yul\":4812:4814   */\n      0x40\n        /* \"#utility.yul\":4805:4827   */\n      mstore\n        /* \"#utility.yul\":4595:4833   */\n      pop\n        /* \"#utility.yul\":4552:4833   */\n      pop\n      pop\n      jump\t// out\n        /* \"#utility.yul\":4839:4968   */\n    tag_85:\n        /* \"#utility.yul\":4873:4879   */\n      0x00\n        /* \"#utility.yul\":4900:4920   */\n      tag_145\n      tag_64\n      jump\t// in\n    tag_145:\n        /* \"#utility.yul\":4890:4920   */\n      swap1\n      pop\n        /* \"#utility.yul\":4929:4962   */\n      tag_146\n        /* \"#utility.yul\":4957:4961   */\n      dup3\n        /* \"#utility.yul\":4949:4955   */\n      dup3\n        /* \"#utility.yul\":4929:4962   */\n      tag_84\n      jump\t// in\n    tag_146:\n        /* \"#utility.yul\":4839:4968   */\n      swap2\n      swap1\n      pop\n      jump\t// out\n        /* \"#utility.yul\":4974:5282   */\n    tag_86:\n        /* \"#utility.yul\":5036:5040   */\n      0x00\n        /* \"#utility.yul\":5126:5144   */\n      0xffffffffffffffff\n        /* \"#utility.yul\":5118:5124   */\n      dup3\n        /* \"#utility.yul\":5115:5145   */\n      gt\n        /* \"#utility.yul\":5112:5168   */\n      iszero\n      tag_148\n      jumpi\n        /* \"#utility.yul\":5148:5166   */\n      tag_149\n      tag_83\n      jump\t// in\n    tag_149:\n        /* \"#utility.yul\":5112:5168   */\n    tag_148:\n        /* \"#utility.yul\":5186:5215   */\n      tag_150\n        /* \"#utility.yul\":5208:5214   */\n      dup3\n        /* \"#utility.yul\":5186:5215   */\n      tag_74\n      jump\t// in\n    tag_150:\n        /* \"#utility.yul\":5178:5215   */\n      swap1\n      pop\n        /* \"#utility.yul\":5270:5274   */\n      0x20\n        /* \"#utility.yul\":5264:5268   */\n      dup2\n        /* \"#utility.yul\":5260:5275   */\n      add\n        /* \"#utility.yul\":5252:5275   */\n      swap1\n      pop\n        /* \"#utility.yul\":4974:5282   */\n      swap2\n      swap1\n      pop\n      jump\t// out\n        /* \"#utility.yul\":5288:5436   */\n    tag_87:\n        /* \"#utility.yul\":5386:5392   */\n      dup3\n        /* \"#utility.yul\":5381:5384   */\n      dup2\n        /* \"#utility.yul\":5376:5379   */\n      dup4\n        /* \"#utility.yul\":5363:5393   */\n      calldatacopy\n        /* \"#utility.yul\":5427:5428   */\n      0x00\n        /* \"#utility.yul\":5418:5424   */\n      dup4\n        /* \"#utility.yul\":5413:5416   */\n      dup4\n        /* \"#utility.yul\":5409:5425   */\n      add\n        /* \"#utility.yul\":5402:5429   */\n      mstore\n        /* \"#utility.yul\":5288:5436   */\n      pop\n      pop\n      pop\n      jump\t// out\n        /* \"#utility.yul\":5442:5867   */\n    tag_88:\n        /* \"#utility.yul\":5520:5525   */\n      0x00\n        /* \"#utility.yul\":5545:5611   */\n      tag_153\n        /* \"#utility.yul\":5561:5610   */\n      tag_154\n        /* \"#utility.yul\":5603:5609   */\n      dup5\n        /* \"#utility.yul\":5561:5610   */\n      tag_86\n      jump\t// in\n    tag_154:\n        /* \"#utility.yul\":5545:5611   */\n      tag_85\n      jump\t// in\n    tag_153:\n        /* \"#utility.yul\":5536:5611   */\n      swap1\n      pop\n        /* \"#utility.yul\":5634:5640   */\n      dup3\n        /* \"#utility.yul\":5627:5632   */\n      dup2\n        /* \"#utility.yul\":5620:5641   */\n      mstore\n        /* \"#utility.yul\":5672:5676   */\n      0x20\n        /* \"#utility.yul\":5665:5670   */\n      dup2\n        /* \"#utility.yul\":5661:5677   */\n      add\n        /* \"#utility.yul\":5710:5713   */\n      dup5\n        /* \"#utility.yul\":5701:5707   */\n      dup5\n        /* \"#utility.yul\":5696:5699   */\n      dup5\n        /* \"#utility.yul\":5692:5708   */\n      add\n        /* \"#utility.yul\":5689:5714   */\n      gt\n        /* \"#utility.yul\":5686:5798   */\n      iszero\n      tag_155\n      jumpi\n        /* \"#utility.yul\":5717:5796   */\n      tag_156\n      tag_82\n      jump\t// in\n    tag_156:\n        /* \"#utility.yul\":5686:5798   */\n    tag_155:\n        /* \"#utility.yul\":5807:5861   */\n      tag_157\n        /* \"#utility.yul\":5854:5860   */\n      dup5\n        /* \"#utility.yul\":5849:5852   */\n      dup3\n        /* \"#utility.yul\":5844:5847   */\n      dup6\n        /* \"#utility.yul\":5807:5861   */\n      tag_87\n      jump\t// in\n    tag_157:\n        /* \"#utility.yul\":5526:5867   */\n      pop\n        /* \"#utility.yul\":5442:5867   */\n      swap4\n      swap3\n      pop\n      pop\n      pop\n      jump\t// out\n        /* \"#utility.yul\":5887:6227   */\n    tag_89:\n        /* \"#utility.yul\":5943:5948   */\n      0x00\n        /* \"#utility.yul\":5992:5995   */\n      dup3\n        /* \"#utility.yul\":5985:5989   */\n      0x1f\n        /* \"#utility.yul\":5977:5983   */\n      dup4\n        /* \"#utility.yul\":5973:5990   */\n      add\n        /* \"#utility.yul\":5969:5996   */\n      slt\n        /* \"#utility.yul\":5959:6081   */\n      tag_159\n      jumpi\n        /* \"#utility.yul\":6000:6079   */\n      tag_160\n      tag_81\n      jump\t// in\n    tag_160:\n        /* \"#utility.yul\":5959:6081   */\n    tag_159:\n        /* \"#utility.yul\":6117:6123   */\n      dup2\n        /* \"#utility.yul\":6104:6124   */\n      calldataload\n        /* \"#utility.yul\":6142:6221   */\n      tag_161\n        /* \"#utility.yul\":6217:6220   */\n      dup5\n        /* \"#utility.yul\":6209:6215   */\n      dup3\n        /* \"#utility.yul\":6202:6206   */\n      0x20\n        /* \"#utility.yul\":6194:6200   */\n      dup7\n        /* \"#utility.yul\":6190:6207   */\n      add\n        /* \"#utility.yul\":6142:6221   */\n      tag_88\n      jump\t// in\n    tag_161:\n        /* \"#utility.yul\":6133:6221   */\n      swap2\n      pop\n        /* \"#utility.yul\":5949:6227   */\n      pop\n        /* \"#utility.yul\":5887:6227   */\n      swap3\n      swap2\n      pop\n      pop\n      jump\t// out\n        /* \"#utility.yul\":6233:7067   */\n    tag_16:\n        /* \"#utility.yul\":6321:6327   */\n      0x00\n        /* \"#utility.yul\":6329:6335   */\n      dup1\n        /* \"#utility.yul\":6378:6380   */\n      0x40\n        /* \"#utility.yul\":6366:6375   */\n      dup4\n        /* \"#utility.yul\":6357:6364   */\n      dup6\n        /* \"#utility.yul\":6353:6376   */\n      sub\n        /* \"#utility.yul\":6349:6381   */\n      slt\n        /* \"#utility.yul\":6346:6465   */\n      iszero\n      tag_163\n      jumpi\n        /* \"#utility.yul\":6384:6463   */\n      tag_164\n      tag_65\n      jump\t// in\n    tag_164:\n        /* \"#utility.yul\":6346:6465   */\n    tag_163:\n        /* \"#utility.yul\":6532:6533   */\n      0x00\n        /* \"#utility.yul\":6521:6530   */\n      dup4\n        /* \"#utility.yul\":6517:6534   */\n      add\n        /* \"#utility.yul\":6504:6535   */\n      calldataload\n        /* \"#utility.yul\":6562:6580   */\n      0xffffffffffffffff\n        /* \"#utility.yul\":6554:6560   */\n      dup2\n        /* \"#utility.yul\":6551:6581   */\n      gt\n        /* \"#utility.yul\":6548:6665   */\n      iszero\n      tag_165\n      jumpi\n        /* \"#utility.yul\":6584:6663   */\n      tag_166\n      tag_66\n      jump\t// in\n    tag_166:\n        /* \"#utility.yul\":6548:6665   */\n    tag_165:\n        /* \"#utility.yul\":6689:6752   */\n      tag_167\n        /* \"#utility.yul\":6744:6751   */\n      dup6\n        /* \"#utility.yul\":6735:6741   */\n      dup3\n        /* \"#utility.yul\":6724:6733   */\n      dup7\n        /* \"#utility.yul\":6720:6742   */\n      add\n        /* \"#utility.yul\":6689:6752   */\n      tag_89\n      jump\t// in\n    tag_167:\n        /* \"#utility.yul\":6679:6752   */\n      swap3\n      pop\n        /* \"#utility.yul\":6475:6762   */\n      pop\n        /* \"#utility.yul\":6829:6831   */\n      0x20\n        /* \"#utility.yul\":6818:6827   */\n      dup4\n        /* \"#utility.yul\":6814:6832   */\n      add\n        /* \"#utility.yul\":6801:6833   */\n      calldataload\n        /* \"#utility.yul\":6860:6878   */\n      0xffffffffffffffff\n        /* \"#utility.yul\":6852:6858   */\n      dup2\n        /* \"#utility.yul\":6849:6879   */\n      gt\n        /* \"#utility.yul\":6846:6963   */\n      iszero\n      tag_168\n      jumpi\n        /* \"#utility.yul\":6882:6961   */\n      tag_169\n      tag_66\n      jump\t// in\n    tag_169:\n        /* \"#utility.yul\":6846:6963   */\n    tag_168:\n        /* \"#utility.yul\":6987:7050   */\n      tag_170\n        /* \"#utility.yul\":7042:7049   */\n      dup6\n        /* \"#utility.yul\":7033:7039   */\n      dup3\n        /* \"#utility.yul\":7022:7031   */\n      dup7\n        /* \"#utility.yul\":7018:7040   */\n      add\n        /* \"#utility.yul\":6987:7050   */\n      tag_89\n      jump\t// in\n    tag_170:\n        /* \"#utility.yul\":6977:7050   */\n      swap2\n      pop\n        /* \"#utility.yul\":6772:7060   */\n      pop\n        /* \"#utility.yul\":6233:7067   */\n      swap3\n      pop\n      swap3\n      swap1\n      pop\n      jump\t// out\n        /* \"#utility.yul\":7073:7295   */\n    tag_19:\n        /* \"#utility.yul\":7166:7170   */\n      0x00\n        /* \"#utility.yul\":7204:7206   */\n      0x20\n        /* \"#utility.yul\":7193:7202   */\n      dup3\n        /* \"#utility.yul\":7189:7207   */\n      add\n        /* \"#utility.yul\":7181:7207   */\n      swap1\n      pop\n        /* \"#utility.yul\":7217:7288   */\n      tag_172\n        /* \"#utility.yul\":7285:7286   */\n      0x00\n        /* \"#utility.yul\":7274:7283   */\n      dup4\n        /* \"#utility.yul\":7270:7287   */\n      add\n        /* \"#utility.yul\":7261:7267   */\n      dup5\n        /* \"#utility.yul\":7217:7288   */\n      tag_78\n      jump\t// in\n    tag_172:\n        /* \"#utility.yul\":7073:7295   */\n      swap3\n      swap2\n      pop\n      pop\n      jump\t// out\n        /* \"#utility.yul\":7301:7523   */\n    tag_23:\n        /* \"#utility.yul\":7394:7398   */\n      0x00\n        /* \"#utility.yul\":7432:7434   */\n      0x20\n        /* \"#utility.yul\":7421:7430   */\n      dup3\n        /* \"#utility.yul\":7417:7435   */\n      add\n        /* \"#utility.yul\":7409:7435   */\n      swap1\n      pop\n        /* \"#utility.yul\":7445:7516   */\n      tag_174\n        /* \"#utility.yul\":7513:7514   */\n      0x00\n        /* \"#utility.yul\":7502:7511   */\n      dup4\n        /* \"#utility.yul\":7498:7515   */\n      add\n        /* \"#utility.yul\":7489:7495   */\n      dup5\n        /* \"#utility.yul\":7445:7516   */\n      tag_70\n      jump\t// in\n    tag_174:\n        /* \"#utility.yul\":7301:7523   */\n      swap3\n      swap2\n      pop\n      pop\n      jump\t// out\n        /* \"#utility.yul\":7529:7651   */\n    tag_90:\n        /* \"#utility.yul\":7602:7626   */\n      tag_176\n        /* \"#utility.yul\":7620:7625   */\n      dup2\n        /* \"#utility.yul\":7602:7626   */\n      tag_77\n      jump\t// in\n    tag_176:\n        /* \"#utility.yul\":7595:7600   */\n      dup2\n        /* \"#utility.yul\":7592:7627   */\n      eq\n        /* \"#utility.yul\":7582:7645   */\n      tag_177\n      jumpi\n        /* \"#utility.yul\":7641:7642   */\n      0x00\n        /* \"#utility.yul\":7638:7639   */\n      dup1\n        /* \"#utility.yul\":7631:7643   */\n      revert\n        /* \"#utility.yul\":7582:7645   */\n    tag_177:\n        /* \"#utility.yul\":7529:7651   */\n      pop\n      jump\t// out\n        /* \"#utility.yul\":7657:7796   */\n    tag_91:\n        /* \"#utility.yul\":7703:7708   */\n      0x00\n        /* \"#utility.yul\":7741:7747   */\n      dup2\n        /* \"#utility.yul\":7728:7748   */\n      calldataload\n        /* \"#utility.yul\":7719:7748   */\n      swap1\n      pop\n        /* \"#utility.yul\":7757:7790   */\n      tag_179\n        /* \"#utility.yul\":7784:7789   */\n      dup2\n        /* \"#utility.yul\":7757:7790   */\n      tag_90\n      jump\t// in\n    tag_179:\n        /* \"#utility.yul\":7657:7796   */\n      swap3\n      swap2\n      pop\n      pop\n      jump\t// out\n        /* \"#utility.yul\":7802:8131   */\n    tag_29:\n        /* \"#utility.yul\":7861:7867   */\n      0x00\n        /* \"#utility.yul\":7910:7912   */\n      0x20\n        /* \"#utility.yul\":7898:7907   */\n      dup3\n        /* \"#utility.yul\":7889:7896   */\n      dup5\n        /* \"#utility.yul\":7885:7908   */\n      sub\n        /* \"#utility.yul\":7881:7913   */\n      slt\n        /* \"#utility.yul\":7878:7997   */\n      iszero\n      tag_181\n      jumpi\n        /* \"#utility.yul\":7916:7995   */\n      tag_182\n      tag_65\n      jump\t// in\n    tag_182:\n        /* \"#utility.yul\":7878:7997   */\n    tag_181:\n        /* \"#utility.yul\":8036:8037   */\n      0x00\n        /* \"#utility.yul\":8061:8114   */\n      tag_183\n        /* \"#utility.yul\":8106:8113   */\n      dup5\n        /* \"#utility.yul\":8097:8103   */\n      dup3\n        /* \"#utility.yul\":8086:8095   */\n      dup6\n        /* \"#utility.yul\":8082:8104   */\n      add\n        /* \"#utility.yul\":8061:8114   */\n      tag_91\n      jump\t// in\n    tag_183:\n        /* \"#utility.yul\":8051:8114   */\n      swap2\n      pop\n        /* \"#utility.yul\":8007:8124   */\n      pop\n        /* \"#utility.yul\":7802:8131   */\n      swap3\n      swap2\n      pop\n      pop\n      jump\t// out\n        /* \"#utility.yul\":8137:9161   */\n    tag_32:\n        /* \"#utility.yul\":8418:8422   */\n      0x00\n        /* \"#utility.yul\":8456:8459   */\n      0xc0\n        /* \"#utility.yul\":8445:8454   */\n      dup3\n        /* \"#utility.yul\":8441:8460   */\n      add\n        /* \"#utility.yul\":8433:8460   */\n      swap1\n      pop\n        /* \"#utility.yul\":8470:8541   */\n      tag_185\n        /* \"#utility.yul\":8538:8539   */\n      0x00\n        /* \"#utility.yul\":8527:8536   */\n      dup4\n        /* \"#utility.yul\":8523:8540   */\n      add\n        /* \"#utility.yul\":8514:8520   */\n      dup10\n        /* \"#utility.yul\":8470:8541   */\n      tag_70\n      jump\t// in\n    tag_185:\n        /* \"#utility.yul\":8588:8597   */\n      dup2\n        /* \"#utility.yul\":8582:8586   */\n      dup2\n        /* \"#utility.yul\":8578:8598   */\n      sub\n        /* \"#utility.yul\":8573:8575   */\n      0x20\n        /* \"#utility.yul\":8562:8571   */\n      dup4\n        /* \"#utility.yul\":8558:8576   */\n      add\n        /* \"#utility.yul\":8551:8599   */\n      mstore\n        /* \"#utility.yul\":8616:8694   */\n      tag_186\n        /* \"#utility.yul\":8689:8693   */\n      dup2\n        /* \"#utility.yul\":8680:8686   */\n      dup9\n        /* \"#utility.yul\":8616:8694   */\n      tag_75\n      jump\t// in\n    tag_186:\n        /* \"#utility.yul\":8608:8694   */\n      swap1\n      pop\n        /* \"#utility.yul\":8741:8750   */\n      dup2\n        /* \"#utility.yul\":8735:8739   */\n      dup2\n        /* \"#utility.yul\":8731:8751   */\n      sub\n        /* \"#utility.yul\":8726:8728   */\n      0x40\n        /* \"#utility.yul\":8715:8724   */\n      dup4\n        /* \"#utility.yul\":8711:8729   */\n      add\n        /* \"#utility.yul\":8704:8752   */\n      mstore\n        /* \"#utility.yul\":8769:8847   */\n      tag_187\n        /* \"#utility.yul\":8842:8846   */\n      dup2\n        /* \"#utility.yul\":8833:8839   */\n      dup8\n        /* \"#utility.yul\":8769:8847   */\n      tag_75\n      jump\t// in\n    tag_187:\n        /* \"#utility.yul\":8761:8847   */\n      swap1\n      pop\n        /* \"#utility.yul\":8894:8903   */\n      dup2\n        /* \"#utility.yul\":8888:8892   */\n      dup2\n        /* \"#utility.yul\":8884:8904   */\n      sub\n        /* \"#utility.yul\":8879:8881   */\n      0x60\n        /* \"#utility.yul\":8868:8877   */\n      dup4\n        /* \"#utility.yul\":8864:8882   */\n      add\n        /* \"#utility.yul\":8857:8905   */\n      mstore\n        /* \"#utility.yul\":8922:9000   */\n      tag_188\n        /* \"#utility.yul\":8995:8999   */\n      dup2\n        /* \"#utility.yul\":8986:8992   */\n      dup7\n        /* \"#utility.yul\":8922:9000   */\n      tag_75\n      jump\t// in\n    tag_188:\n        /* \"#utility.yul\":8914:9000   */\n      swap1\n      pop\n        /* \"#utility.yul\":9010:9077   */\n      tag_189\n        /* \"#utility.yul\":9072:9075   */\n      0x80\n        /* \"#utility.yul\":9061:9070   */\n      dup4\n        /* \"#utility.yul\":9057:9076   */\n      add\n        /* \"#utility.yul\":9048:9054   */\n      dup6\n        /* \"#utility.yul\":9010:9077   */\n      tag_80\n      jump\t// in\n    tag_189:\n        /* \"#utility.yul\":9087:9154   */\n      tag_190\n        /* \"#utility.yul\":9149:9152   */\n      0xa0\n        /* \"#utility.yul\":9138:9147   */\n      dup4\n        /* \"#utility.yul\":9134:9153   */\n      add\n        /* \"#utility.yul\":9125:9131   */\n      dup5\n        /* \"#utility.yul\":9087:9154   */\n      tag_80\n      jump\t// in\n    tag_190:\n        /* \"#utility.yul\":8137:9161   */\n      swap8\n      swap7\n      pop\n      pop\n      pop\n      pop\n      pop\n      pop\n      pop\n      jump\t// out\n        /* \"#utility.yul\":9167:9347   */\n    tag_92:\n        /* \"#utility.yul\":9215:9292   */\n      0x4e487b7100000000000000000000000000000000000000000000000000000000\n        /* \"#utility.yul\":9212:9213   */\n      0x00\n        /* \"#utility.yul\":9205:9293   */\n      mstore\n        /* \"#utility.yul\":9312:9316   */\n      0x22\n        /* \"#utility.yul\":9309:9310   */\n      0x04\n        /* \"#utility.yul\":9302:9317   */\n      mstore\n        /* \"#utility.yul\":9336:9340   */\n      0x24\n        /* \"#utility.yul\":9333:9334   */\n      0x00\n        /* \"#utility.yul\":9326:9341   */\n      revert\n        /* \"#utility.yul\":9353:9673   */\n    tag_34:\n        /* \"#utility.yul\":9397:9403   */\n      0x00\n        /* \"#utility.yul\":9434:9435   */\n      0x02\n        /* \"#utility.yul\":9428:9432   */\n      dup3\n        /* \"#utility.yul\":9424:9436   */\n      div\n        /* \"#utility.yul\":9414:9436   */\n      swap1\n      pop\n        /* \"#utility.yul\":9481:9482   */\n      0x01\n        /* \"#utility.yul\":9475:9479   */\n      dup3\n        /* \"#utility.yul\":9471:9483   */\n      and\n        /* \"#utility.yul\":9502:9520   */\n      dup1\n        /* \"#utility.yul\":9492:9573   */\n      tag_193\n      jumpi\n        /* \"#utility.yul\":9558:9562   */\n      0x7f\n        /* \"#utility.yul\":9550:9556   */\n      dup3\n        /* \"#utility.yul\":9546:9563   */\n      and\n        /* \"#utility.yul\":9536:9563   */\n      swap2\n      pop\n        /* \"#utility.yul\":9492:9573   */\n    tag_193:\n        /* \"#utility.yul\":9620:9622   */\n      0x20\n        /* \"#utility.yul\":9612:9618   */\n      dup3\n        /* \"#utility.yul\":9609:9623   */\n      lt\n        /* \"#utility.yul\":9589:9607   */\n      dup2\n        /* \"#utility.yul\":9586:9624   */\n      sub\n        /* \"#utility.yul\":9583:9667   */\n      tag_194\n      jumpi\n        /* \"#utility.yul\":9639:9657   */\n      tag_195\n      tag_92\n      jump\t// in\n    tag_195:\n        /* \"#utility.yul\":9583:9667   */\n    tag_194:\n        /* \"#utility.yul\":9404:9673   */\n      pop\n        /* \"#utility.yul\":9353:9673   */\n      swap2\n      swap1\n      pop\n      jump\t// out\n\n    auxdata: 0xa2646970667358221220bdf167028da59e57e2b2e1e68fea9f835de0e690e90e73145ad875e7043fb5df64736f6c634300081a0033\n}\n",
				"bytecode": {
					"linkReferences": {},
					"object": "60806040525f6004555f6005553480156016575f80fd5b50610ae7806100245f395ff3fe608060405234801561000f575f80fd5b5060043610610055575f3560e01c80631e9598e21461005957806342ed37061461009257806346817041146100c25780639f91e6bf146100e0578063f544be40146100fe575b5f80fd5b610073600480360381019061006e9190610605565b610133565b6040516100899a99989796959493929190610708565b60405180910390f35b6100ac60048036038101906100a791906108e3565b61035f565b6040516100b99190610959565b60405180910390f35b6100ca6103d3565b6040516100d79190610972565b60405180910390f35b6100e86103d9565b6040516100f59190610972565b60405180910390f35b610118600480360381019061011391906109b5565b6103df565b60405161012a969594939291906109e0565b60405180910390f35b6003602052805f5260405f205f91509050805f01549080600101805461015890610a81565b80601f016020809104026020016040519081016040528092919081815260200182805461018490610a81565b80156101cf5780601f106101a6576101008083540402835291602001916101cf565b820191905f5260205f20905b8154815290600101906020018083116101b257829003601f168201915b505050505090806002015f9054906101000a900473ffffffffffffffffffffffffffffffffffffffff1690806003015f9054906101000a900473ffffffffffffffffffffffffffffffffffffffff169080600401549080600501549080600601805461023a90610a81565b80601f016020809104026020016040519081016040528092919081815260200182805461026690610a81565b80156102b15780601f10610288576101008083540402835291602001916102b1565b820191905f5260205f20905b81548152906001019060200180831161029457829003601f168201915b5050505050908060070180546102c690610a81565b80601f01602080910402602001604051908101604052809291908181526020018280546102f290610a81565b801561033d5780601f106103145761010080835404028352916020019161033d565b820191905f5260205f20905b81548152906001019060200180831161032057829003601f168201915b505050505090806008015490806009015f9054906101000a900460ff1690508a565b600282805160208101820180518482526020830160208501208183528095505050505050818051602081018201805184825260208301602085012081835280955050505050505f9150915050805f015f9054906101000a900473ffffffffffffffffffffffffffffffffffffffff16905081565b60055481565b60045481565b5f602052805f5260405f205f91509050805f01549080600101805461040390610a81565b80601f016020809104026020016040519081016040528092919081815260200182805461042f90610a81565b801561047a5780601f106104515761010080835404028352916020019161047a565b820191905f5260205f20905b81548152906001019060200180831161045d57829003601f168201915b50505050509080600201805461048f90610a81565b80601f01602080910402602001604051908101604052809291908181526020018280546104bb90610a81565b80156105065780601f106104dd57610100808354040283529160200191610506565b820191905f5260205f20905b8154815290600101906020018083116104e957829003601f168201915b50505050509080600301805461051b90610a81565b80601f016020809104026020016040519081016040528092919081815260200182805461054790610a81565b80156105925780601f1061056957610100808354040283529160200191610592565b820191905f5260205f20905b81548152906001019060200180831161057557829003601f168201915b505050505090806004015f9054906101000a900460ff16908060040160019054906101000a900460ff16905086565b5f604051905090565b5f80fd5b5f80fd5b5f819050919050565b6105e4816105d2565b81146105ee575f80fd5b50565b5f813590506105ff816105db565b92915050565b5f6020828403121561061a576106196105ca565b5b5f610627848285016105f1565b91505092915050565b610639816105d2565b82525050565b5f81519050919050565b5f82825260208201905092915050565b8281835e5f83830152505050565b5f601f19601f8301169050919050565b5f6106818261063f565b61068b8185610649565b935061069b818560208601610659565b6106a481610667565b840191505092915050565b5f73ffffffffffffffffffffffffffffffffffffffff82169050919050565b5f6106d8826106af565b9050919050565b6106e8816106ce565b82525050565b5f8115159050919050565b610702816106ee565b82525050565b5f6101408201905061071c5f83018d610630565b818103602083015261072e818c610677565b905061073d604083018b6106df565b61074a606083018a6106df565b6107576080830189610630565b61076460a0830188610630565b81810360c08301526107768187610677565b905081810360e083015261078a8186610677565b905061079a610100830185610630565b6107a86101208301846106f9565b9b9a5050505050505050505050565b5f80fd5b5f80fd5b7f4e487b71000000000000000000000000000000000000000000000000000000005f52604160045260245ffd5b6107f582610667565b810181811067ffffffffffffffff82111715610814576108136107bf565b5b80604052505050565b5f6108266105c1565b905061083282826107ec565b919050565b5f67ffffffffffffffff821115610851576108506107bf565b5b61085a82610667565b9050602081019050919050565b828183375f83830152505050565b5f61088761088284610837565b61081d565b9050828152602081018484840111156108a3576108a26107bb565b5b6108ae848285610867565b509392505050565b5f82601f8301126108ca576108c96107b7565b5b81356108da848260208601610875565b91505092915050565b5f80604083850312156108f9576108f86105ca565b5b5f83013567ffffffffffffffff811115610916576109156105ce565b5b610922858286016108b6565b925050602083013567ffffffffffffffff811115610943576109426105ce565b5b61094f858286016108b6565b9150509250929050565b5f60208201905061096c5f8301846106df565b92915050565b5f6020820190506109855f830184610630565b92915050565b610994816106ce565b811461099e575f80fd5b50565b5f813590506109af8161098b565b92915050565b5f602082840312156109ca576109c96105ca565b5b5f6109d7848285016109a1565b91505092915050565b5f60c0820190506109f35f830189610630565b8181036020830152610a058188610677565b90508181036040830152610a198187610677565b90508181036060830152610a2d8186610677565b9050610a3c60808301856106f9565b610a4960a08301846106f9565b979650505050505050565b7f4e487b71000000000000000000000000000000000000000000000000000000005f52602260045260245ffd5b5f6002820490506001821680610a9857607f821691505b602082108103610aab57610aaa610a54565b5b5091905056fea2646970667358221220bdf167028da59e57e2b2e1e68fea9f835de0e690e90e73145ad875e7043fb5df64736f6c634300081a0033",
					"opcodes": "PUSH1 0x80 PUSH1 0x40 MSTORE PUSH0 PUSH1 0x4 SSTORE PUSH0 PUSH1 0x5 SSTORE CALLVALUE DUP1 ISZERO PUSH1 0x16 JUMPI PUSH0 DUP1 REVERT JUMPDEST POP PUSH2 0xAE7 DUP1 PUSH2 0x24 PUSH0 CODECOPY PUSH0 RETURN INVALID PUSH1 0x80 PUSH1 0x40 MSTORE CALLVALUE DUP1 ISZERO PUSH2 0xF JUMPI PUSH0 DUP1 REVERT JUMPDEST POP PUSH1 0x4 CALLDATASIZE LT PUSH2 0x55 JUMPI PUSH0 CALLDATALOAD PUSH1 0xE0 SHR DUP1 PUSH4 0x1E9598E2 EQ PUSH2 0x59 JUMPI DUP1 PUSH4 0x42ED3706 EQ PUSH2 0x92 JUMPI DUP1 PUSH4 0x46817041 EQ PUSH2 0xC2 JUMPI DUP1 PUSH4 0x9F91E6BF EQ PUSH2 0xE0 JUMPI DUP1 PUSH4 0xF544BE40 EQ PUSH2 0xFE JUMPI JUMPDEST PUSH0 DUP1 REVERT JUMPDEST PUSH2 0x73 PUSH1 0x4 DUP1 CALLDATASIZE SUB DUP2 ADD SWAP1 PUSH2 0x6E SWAP2 SWAP1 PUSH2 0x605 JUMP JUMPDEST PUSH2 0x133 JUMP JUMPDEST PUSH1 0x40 MLOAD PUSH2 0x89 SWAP11 SWAP10 SWAP9 SWAP8 SWAP7 SWAP6 SWAP5 SWAP4 SWAP3 SWAP2 SWAP1 PUSH2 0x708 JUMP JUMPDEST PUSH1 0x40 MLOAD DUP1 SWAP2 SUB SWAP1 RETURN JUMPDEST PUSH2 0xAC PUSH1 0x4 DUP1 CALLDATASIZE SUB DUP2 ADD SWAP1 PUSH2 0xA7 SWAP2 SWAP1 PUSH2 0x8E3 JUMP JUMPDEST PUSH2 0x35F JUMP JUMPDEST PUSH1 0x40 MLOAD PUSH2 0xB9 SWAP2 SWAP1 PUSH2 0x959 JUMP JUMPDEST PUSH1 0x40 MLOAD DUP1 SWAP2 SUB SWAP1 RETURN JUMPDEST PUSH2 0xCA PUSH2 0x3D3 JUMP JUMPDEST PUSH1 0x40 MLOAD PUSH2 0xD7 SWAP2 SWAP1 PUSH2 0x972 JUMP JUMPDEST PUSH1 0x40 MLOAD DUP1 SWAP2 SUB SWAP1 RETURN JUMPDEST PUSH2 0xE8 PUSH2 0x3D9 JUMP JUMPDEST PUSH1 0x40 MLOAD PUSH2 0xF5 SWAP2 SWAP1 PUSH2 0x972 JUMP JUMPDEST PUSH1 0x40 MLOAD DUP1 SWAP2 SUB SWAP1 RETURN JUMPDEST PUSH2 0x118 PUSH1 0x4 DUP1 CALLDATASIZE SUB DUP2 ADD SWAP1 PUSH2 0x113 SWAP2 SWAP1 PUSH2 0x9B5 JUMP JUMPDEST PUSH2 0x3DF JUMP JUMPDEST PUSH1 0x40 MLOAD PUSH2 0x12A SWAP7 SWAP6 SWAP5 SWAP4 SWAP3 SWAP2 SWAP1 PUSH2 0x9E0 JUMP JUMPDEST PUSH1 0x40 MLOAD DUP1 SWAP2 SUB SWAP1 RETURN JUMPDEST PUSH1 0x3 PUSH1 0x20 MSTORE DUP1 PUSH0 MSTORE PUSH1 0x40 PUSH0 KECCAK256 PUSH0 SWAP2 POP SWAP1 POP DUP1 PUSH0 ADD SLOAD SWAP1 DUP1 PUSH1 0x1 ADD DUP1 SLOAD PUSH2 0x158 SWAP1 PUSH2 0xA81 JUMP JUMPDEST DUP1 PUSH1 0x1F ADD PUSH1 0x20 DUP1 SWAP2 DIV MUL PUSH1 0x20 ADD PUSH1 0x40 MLOAD SWAP1 DUP2 ADD PUSH1 0x40 MSTORE DUP1 SWAP3 SWAP2 SWAP1 DUP2 DUP2 MSTORE PUSH1 0x20 ADD DUP3 DUP1 SLOAD PUSH2 0x184 SWAP1 PUSH2 0xA81 JUMP JUMPDEST DUP1 ISZERO PUSH2 0x1CF JUMPI DUP1 PUSH1 0x1F LT PUSH2 0x1A6 JUMPI PUSH2 0x100 DUP1 DUP4 SLOAD DIV MUL DUP4 MSTORE SWAP2 PUSH1 0x20 ADD SWAP2 PUSH2 0x1CF JUMP JUMPDEST DUP3 ADD SWAP2 SWAP1 PUSH0 MSTORE PUSH1 0x20 PUSH0 KECCAK256 SWAP1 JUMPDEST DUP2 SLOAD DUP2 MSTORE SWAP1 PUSH1 0x1 ADD SWAP1 PUSH1 0x20 ADD DUP1 DUP4 GT PUSH2 0x1B2 JUMPI DUP3 SWAP1 SUB PUSH1 0x1F AND DUP3 ADD SWAP2 JUMPDEST POP POP POP POP POP SWAP1 DUP1 PUSH1 0x2 ADD PUSH0 SWAP1 SLOAD SWAP1 PUSH2 0x100 EXP SWAP1 DIV PUSH20 0xFFFFFFFFFFFFFFFFFFFFFFFFFFFFFFFFFFFFFFFF AND SWAP1 DUP1 PUSH1 0x3 ADD PUSH0 SWAP1 SLOAD SWAP1 PUSH2 0x100 EXP SWAP1 DIV PUSH20 0xFFFFFFFFFFFFFFFFFFFFFFFFFFFFFFFFFFFFFFFF AND SWAP1 DUP1 PUSH1 0x4 ADD SLOAD SWAP1 DUP1 PUSH1 0x5 ADD SLOAD SWAP1 DUP1 PUSH1 0x6 ADD DUP1 SLOAD PUSH2 0x23A SWAP1 PUSH2 0xA81 JUMP JUMPDEST DUP1 PUSH1 0x1F ADD PUSH1 0x20 DUP1 SWAP2 DIV MUL PUSH1 0x20 ADD PUSH1 0x40 MLOAD SWAP1 DUP2 ADD PUSH1 0x40 MSTORE DUP1 SWAP3 SWAP2 SWAP1 DUP2 DUP2 MSTORE PUSH1 0x20 ADD DUP3 DUP1 SLOAD PUSH2 0x266 SWAP1 PUSH2 0xA81 JUMP JUMPDEST DUP1 ISZERO PUSH2 0x2B1 JUMPI DUP1 PUSH1 0x1F LT PUSH2 0x288 JUMPI PUSH2 0x100 DUP1 DUP4 SLOAD DIV MUL DUP4 MSTORE SWAP2 PUSH1 0x20 ADD SWAP2 PUSH2 0x2B1 JUMP JUMPDEST DUP3 ADD SWAP2 SWAP1 PUSH0 MSTORE PUSH1 0x20 PUSH0 KECCAK256 SWAP1 JUMPDEST DUP2 SLOAD DUP2 MSTORE SWAP1 PUSH1 0x1 ADD SWAP1 PUSH1 0x20 ADD DUP1 DUP4 GT PUSH2 0x294 JUMPI DUP3 SWAP1 SUB PUSH1 0x1F AND DUP3 ADD SWAP2 JUMPDEST POP POP POP POP POP SWAP1 DUP1 PUSH1 0x7 ADD DUP1 SLOAD PUSH2 0x2C6 SWAP1 PUSH2 0xA81 JUMP JUMPDEST DUP1 PUSH1 0x1F ADD PUSH1 0x20 DUP1 SWAP2 DIV MUL PUSH1 0x20 ADD PUSH1 0x40 MLOAD SWAP1 DUP2 ADD PUSH1 0x40 MSTORE DUP1 SWAP3 SWAP2 SWAP1 DUP2 DUP2 MSTORE PUSH1 0x20 ADD DUP3 DUP1 SLOAD PUSH2 0x2F2 SWAP1 PUSH2 0xA81 JUMP JUMPDEST DUP1 ISZERO PUSH2 0x33D JUMPI DUP1 PUSH1 0x1F LT PUSH2 0x314 JUMPI PUSH2 0x100 DUP1 DUP4 SLOAD DIV MUL DUP4 MSTORE SWAP2 PUSH1 0x20 ADD SWAP2 PUSH2 0x33D JUMP JUMPDEST DUP3 ADD SWAP2 SWAP1 PUSH0 MSTORE PUSH1 0x20 PUSH0 KECCAK256 SWAP1 JUMPDEST DUP2 SLOAD DUP2 MSTORE SWAP1 PUSH1 0x1 ADD SWAP1 PUSH1 0x20 ADD DUP1 DUP4 GT PUSH2 0x320 JUMPI DUP3 SWAP1 SUB PUSH1 0x1F AND DUP3 ADD SWAP2 JUMPDEST POP POP POP POP POP SWAP1 DUP1 PUSH1 0x8 ADD SLOAD SWAP1 DUP1 PUSH1 0x9 ADD PUSH0 SWAP1 SLOAD SWAP1 PUSH2 0x100 EXP SWAP1 DIV PUSH1 0xFF AND SWAP1 POP DUP11 JUMP JUMPDEST PUSH1 0x2 DUP3 DUP1 MLOAD PUSH1 0x20 DUP2 ADD DUP3 ADD DUP1 MLOAD DUP5 DUP3 MSTORE PUSH1 0x20 DUP4 ADD PUSH1 0x20 DUP6 ADD KECCAK256 DUP2 DUP4 MSTORE DUP1 SWAP6 POP POP POP POP POP POP DUP2 DUP1 MLOAD PUSH1 0x20 DUP2 ADD DUP3 ADD DUP1 MLOAD DUP5 DUP3 MSTORE PUSH1 0x20 DUP4 ADD PUSH1 0x20 DUP6 ADD KECCAK256 DUP2 DUP4 MSTORE DUP1 SWAP6 POP POP POP POP POP POP PUSH0 SWAP2 POP SWAP2 POP POP DUP1 PUSH0 ADD PUSH0 SWAP1 SLOAD SWAP1 PUSH2 0x100 EXP SWAP1 DIV PUSH20 0xFFFFFFFFFFFFFFFFFFFFFFFFFFFFFFFFFFFFFFFF AND SWAP1 POP DUP2 JUMP JUMPDEST PUSH1 0x5 SLOAD DUP2 JUMP JUMPDEST PUSH1 0x4 SLOAD DUP2 JUMP JUMPDEST PUSH0 PUSH1 0x20 MSTORE DUP1 PUSH0 MSTORE PUSH1 0x40 PUSH0 KECCAK256 PUSH0 SWAP2 POP SWAP1 POP DUP1 PUSH0 ADD SLOAD SWAP1 DUP1 PUSH1 0x1 ADD DUP1 SLOAD PUSH2 0x403 SWAP1 PUSH2 0xA81 JUMP JUMPDEST DUP1 PUSH1 0x1F ADD PUSH1 0x20 DUP1 SWAP2 DIV MUL PUSH1 0x20 ADD PUSH1 0x40 MLOAD SWAP1 DUP2 ADD PUSH1 0x40 MSTORE DUP1 SWAP3 SWAP2 SWAP1 DUP2 DUP2 MSTORE PUSH1 0x20 ADD DUP3 DUP1 SLOAD PUSH2 0x42F SWAP1 PUSH2 0xA81 JUMP JUMPDEST DUP1 ISZERO PUSH2 0x47A JUMPI DUP1 PUSH1 0x1F LT PUSH2 0x451 JUMPI PUSH2 0x100 DUP1 DUP4 SLOAD DIV MUL DUP4 MSTORE SWAP2 PUSH1 0x20 ADD SWAP2 PUSH2 0x47A JUMP JUMPDEST DUP3 ADD SWAP2 SWAP1 PUSH0 MSTORE PUSH1 0x20 PUSH0 KECCAK256 SWAP1 JUMPDEST DUP2 SLOAD DUP2 MSTORE SWAP1 PUSH1 0x1 ADD SWAP1 PUSH1 0x20 ADD DUP1 DUP4 GT PUSH2 0x45D JUMPI DUP3 SWAP1 SUB PUSH1 0x1F AND DUP3 ADD SWAP2 JUMPDEST POP POP POP POP POP SWAP1 DUP1 PUSH1 0x2 ADD DUP1 SLOAD PUSH2 0x48F SWAP1 PUSH2 0xA81 JUMP JUMPDEST DUP1 PUSH1 0x1F ADD PUSH1 0x20 DUP1 SWAP2 DIV MUL PUSH1 0x20 ADD PUSH1 0x40 MLOAD SWAP1 DUP2 ADD PUSH1 0x40 MSTORE DUP1 SWAP3 SWAP2 SWAP1 DUP2 DUP2 MSTORE PUSH1 0x20 ADD DUP3 DUP1 SLOAD PUSH2 0x4BB SWAP1 PUSH2 0xA81 JUMP JUMPDEST DUP1 ISZERO PUSH2 0x506 JUMPI DUP1 PUSH1 0x1F LT PUSH2 0x4DD JUMPI PUSH2 0x100 DUP1 DUP4 SLOAD DIV MUL DUP4 MSTORE SWAP2 PUSH1 0x20 ADD SWAP2 PUSH2 0x506 JUMP JUMPDEST DUP3 ADD SWAP2 SWAP1 PUSH0 MSTORE PUSH1 0x20 PUSH0 KECCAK256 SWAP1 JUMPDEST DUP2 SLOAD DUP2 MSTORE SWAP1 PUSH1 0x1 ADD SWAP1 PUSH1 0x20 ADD DUP1 DUP4 GT PUSH2 0x4E9 JUMPI DUP3 SWAP1 SUB PUSH1 0x1F AND DUP3 ADD SWAP2 JUMPDEST POP POP POP POP POP SWAP1 DUP1 PUSH1 0x3 ADD DUP1 SLOAD PUSH2 0x51B SWAP1 PUSH2 0xA81 JUMP JUMPDEST DUP1 PUSH1 0x1F ADD PUSH1 0x20 DUP1 SWAP2 DIV MUL PUSH1 0x20 ADD PUSH1 0x40 MLOAD SWAP1 DUP2 ADD PUSH1 0x40 MSTORE DUP1 SWAP3 SWAP2 SWAP1 DUP2 DUP2 MSTORE PUSH1 0x20 ADD DUP3 DUP1 SLOAD PUSH2 0x547 SWAP1 PUSH2 0xA81 JUMP JUMPDEST DUP1 ISZERO PUSH2 0x592 JUMPI DUP1 PUSH1 0x1F LT PUSH2 0x569 JUMPI PUSH2 0x100 DUP1 DUP4 SLOAD DIV MUL DUP4 MSTORE SWAP2 PUSH1 0x20 ADD SWAP2 PUSH2 0x592 JUMP JUMPDEST DUP3 ADD SWAP2 SWAP1 PUSH0 MSTORE PUSH1 0x20 PUSH0 KECCAK256 SWAP1 JUMPDEST DUP2 SLOAD DUP2 MSTORE SWAP1 PUSH1 0x1 ADD SWAP1 PUSH1 0x20 ADD DUP1 DUP4 GT PUSH2 0x575 JUMPI DUP3 SWAP1 SUB PUSH1 0x1F AND DUP3 ADD SWAP2 JUMPDEST POP POP POP POP POP SWAP1 DUP1 PUSH1 0x4 ADD PUSH0 SWAP1 SLOAD SWAP1 PUSH2 0x100 EXP SWAP1 DIV PUSH1 0xFF AND SWAP1 DUP1 PUSH1 0x4 ADD PUSH1 0x1 SWAP1 SLOAD SWAP1 PUSH2 0x100 EXP SWAP1 DIV PUSH1 0xFF AND SWAP1 POP DUP7 JUMP JUMPDEST PUSH0 PUSH1 0x40 MLOAD SWAP1 POP SWAP1 JUMP JUMPDEST PUSH0 DUP1 REVERT JUMPDEST PUSH0 DUP1 REVERT JUMPDEST PUSH0 DUP2 SWAP1 POP SWAP2 SWAP1 POP JUMP JUMPDEST PUSH2 0x5E4 DUP2 PUSH2 0x5D2 JUMP JUMPDEST DUP2 EQ PUSH2 0x5EE JUMPI PUSH0 DUP1 REVERT JUMPDEST POP JUMP JUMPDEST PUSH0 DUP2 CALLDATALOAD SWAP1 POP PUSH2 0x5FF DUP2 PUSH2 0x5DB JUMP JUMPDEST SWAP3 SWAP2 POP POP JUMP JUMPDEST PUSH0 PUSH1 0x20 DUP3 DUP5 SUB SLT ISZERO PUSH2 0x61A JUMPI PUSH2 0x619 PUSH2 0x5CA JUMP JUMPDEST JUMPDEST PUSH0 PUSH2 0x627 DUP5 DUP3 DUP6 ADD PUSH2 0x5F1 JUMP JUMPDEST SWAP2 POP POP SWAP3 SWAP2 POP POP JUMP JUMPDEST PUSH2 0x639 DUP2 PUSH2 0x5D2 JUMP JUMPDEST DUP3 MSTORE POP POP JUMP JUMPDEST PUSH0 DUP2 MLOAD SWAP1 POP SWAP2 SWAP1 POP JUMP JUMPDEST PUSH0 DUP3 DUP3 MSTORE PUSH1 0x20 DUP3 ADD SWAP1 POP SWAP3 SWAP2 POP POP JUMP JUMPDEST DUP3 DUP2 DUP4 MCOPY PUSH0 DUP4 DUP4 ADD MSTORE POP POP POP JUMP JUMPDEST PUSH0 PUSH1 0x1F NOT PUSH1 0x1F DUP4 ADD AND SWAP1 POP SWAP2 SWAP1 POP JUMP JUMPDEST PUSH0 PUSH2 0x681 DUP3 PUSH2 0x63F JUMP JUMPDEST PUSH2 0x68B DUP2 DUP6 PUSH2 0x649 JUMP JUMPDEST SWAP4 POP PUSH2 0x69B DUP2 DUP6 PUSH1 0x20 DUP7 ADD PUSH2 0x659 JUMP JUMPDEST PUSH2 0x6A4 DUP2 PUSH2 0x667 JUMP JUMPDEST DUP5 ADD SWAP2 POP POP SWAP3 SWAP2 POP POP JUMP JUMPDEST PUSH0 PUSH20 0xFFFFFFFFFFFFFFFFFFFFFFFFFFFFFFFFFFFFFFFF DUP3 AND SWAP1 POP SWAP2 SWAP1 POP JUMP JUMPDEST PUSH0 PUSH2 0x6D8 DUP3 PUSH2 0x6AF JUMP JUMPDEST SWAP1 POP SWAP2 SWAP1 POP JUMP JUMPDEST PUSH2 0x6E8 DUP2 PUSH2 0x6CE JUMP JUMPDEST DUP3 MSTORE POP POP JUMP JUMPDEST PUSH0 DUP2 ISZERO ISZERO SWAP1 POP SWAP2 SWAP1 POP JUMP JUMPDEST PUSH2 0x702 DUP2 PUSH2 0x6EE JUMP JUMPDEST DUP3 MSTORE POP POP JUMP JUMPDEST PUSH0 PUSH2 0x140 DUP3 ADD SWAP1 POP PUSH2 0x71C PUSH0 DUP4 ADD DUP14 PUSH2 0x630 JUMP JUMPDEST DUP2 DUP2 SUB PUSH1 0x20 DUP4 ADD MSTORE PUSH2 0x72E DUP2 DUP13 PUSH2 0x677 JUMP JUMPDEST SWAP1 POP PUSH2 0x73D PUSH1 0x40 DUP4 ADD DUP12 PUSH2 0x6DF JUMP JUMPDEST PUSH2 0x74A PUSH1 0x60 DUP4 ADD DUP11 PUSH2 0x6DF JUMP JUMPDEST PUSH2 0x757 PUSH1 0x80 DUP4 ADD DUP10 PUSH2 0x630 JUMP JUMPDEST PUSH2 0x764 PUSH1 0xA0 DUP4 ADD DUP9 PUSH2 0x630 JUMP JUMPDEST DUP2 DUP2 SUB PUSH1 0xC0 DUP4 ADD MSTORE PUSH2 0x776 DUP2 DUP8 PUSH2 0x677 JUMP JUMPDEST SWAP1 POP DUP2 DUP2 SUB PUSH1 0xE0 DUP4 ADD MSTORE PUSH2 0x78A DUP2 DUP7 PUSH2 0x677 JUMP JUMPDEST SWAP1 POP PUSH2 0x79A PUSH2 0x100 DUP4 ADD DUP6 PUSH2 0x630 JUMP JUMPDEST PUSH2 0x7A8 PUSH2 0x120 DUP4 ADD DUP5 PUSH2 0x6F9 JUMP JUMPDEST SWAP12 SWAP11 POP POP POP POP POP POP POP POP POP POP POP JUMP JUMPDEST PUSH0 DUP1 REVERT JUMPDEST PUSH0 DUP1 REVERT JUMPDEST PUSH32 0x4E487B7100000000000000000000000000000000000000000000000000000000 PUSH0 MSTORE PUSH1 0x41 PUSH1 0x4 MSTORE PUSH1 0x24 PUSH0 REVERT JUMPDEST PUSH2 0x7F5 DUP3 PUSH2 0x667 JUMP JUMPDEST DUP2 ADD DUP2 DUP2 LT PUSH8 0xFFFFFFFFFFFFFFFF DUP3 GT OR ISZERO PUSH2 0x814 JUMPI PUSH2 0x813 PUSH2 0x7BF JUMP JUMPDEST JUMPDEST DUP1 PUSH1 0x40 MSTORE POP POP POP JUMP JUMPDEST PUSH0 PUSH2 0x826 PUSH2 0x5C1 JUMP JUMPDEST SWAP1 POP PUSH2 0x832 DUP3 DUP3 PUSH2 0x7EC JUMP JUMPDEST SWAP2 SWAP1 POP JUMP JUMPDEST PUSH0 PUSH8 0xFFFFFFFFFFFFFFFF DUP3 GT ISZERO PUSH2 0x851 JUMPI PUSH2 0x850 PUSH2 0x7BF JUMP JUMPDEST JUMPDEST PUSH2 0x85A DUP3 PUSH2 0x667 JUMP JUMPDEST SWAP1 POP PUSH1 0x20 DUP2 ADD SWAP1 POP SWAP2 SWAP1 POP JUMP JUMPDEST DUP3 DUP2 DUP4 CALLDATACOPY PUSH0 DUP4 DUP4 ADD MSTORE POP POP POP JUMP JUMPDEST PUSH0 PUSH2 0x887 PUSH2 0x882 DUP5 PUSH2 0x837 JUMP JUMPDEST PUSH2 0x81D JUMP JUMPDEST SWAP1 POP DUP3 DUP2 MSTORE PUSH1 0x20 DUP2 ADD DUP5 DUP5 DUP5 ADD GT ISZERO PUSH2 0x8A3 JUMPI PUSH2 0x8A2 PUSH2 0x7BB JUMP JUMPDEST JUMPDEST PUSH2 0x8AE DUP5 DUP3 DUP6 PUSH2 0x867 JUMP JUMPDEST POP SWAP4 SWAP3 POP POP POP JUMP JUMPDEST PUSH0 DUP3 PUSH1 0x1F DUP4 ADD SLT PUSH2 0x8CA JUMPI PUSH2 0x8C9 PUSH2 0x7B7 JUMP JUMPDEST JUMPDEST DUP2 CALLDATALOAD PUSH2 0x8DA DUP5 DUP3 PUSH1 0x20 DUP7 ADD PUSH2 0x875 JUMP JUMPDEST SWAP2 POP POP SWAP3 SWAP2 POP POP JUMP JUMPDEST PUSH0 DUP1 PUSH1 0x40 DUP4 DUP6 SUB SLT ISZERO PUSH2 0x8F9 JUMPI PUSH2 0x8F8 PUSH2 0x5CA JUMP JUMPDEST JUMPDEST PUSH0 DUP4 ADD CALLDATALOAD PUSH8 0xFFFFFFFFFFFFFFFF DUP2 GT ISZERO PUSH2 0x916 JUMPI PUSH2 0x915 PUSH2 0x5CE JUMP JUMPDEST JUMPDEST PUSH2 0x922 DUP6 DUP3 DUP7 ADD PUSH2 0x8B6 JUMP JUMPDEST SWAP3 POP POP PUSH1 0x20 DUP4 ADD CALLDATALOAD PUSH8 0xFFFFFFFFFFFFFFFF DUP2 GT ISZERO PUSH2 0x943 JUMPI PUSH2 0x942 PUSH2 0x5CE JUMP JUMPDEST JUMPDEST PUSH2 0x94F DUP6 DUP3 DUP7 ADD PUSH2 0x8B6 JUMP JUMPDEST SWAP2 POP POP SWAP3 POP SWAP3 SWAP1 POP JUMP JUMPDEST PUSH0 PUSH1 0x20 DUP3 ADD SWAP1 POP PUSH2 0x96C PUSH0 DUP4 ADD DUP5 PUSH2 0x6DF JUMP JUMPDEST SWAP3 SWAP2 POP POP JUMP JUMPDEST PUSH0 PUSH1 0x20 DUP3 ADD SWAP1 POP PUSH2 0x985 PUSH0 DUP4 ADD DUP5 PUSH2 0x630 JUMP JUMPDEST SWAP3 SWAP2 POP POP JUMP JUMPDEST PUSH2 0x994 DUP2 PUSH2 0x6CE JUMP JUMPDEST DUP2 EQ PUSH2 0x99E JUMPI PUSH0 DUP1 REVERT JUMPDEST POP JUMP JUMPDEST PUSH0 DUP2 CALLDATALOAD SWAP1 POP PUSH2 0x9AF DUP2 PUSH2 0x98B JUMP JUMPDEST SWAP3 SWAP2 POP POP JUMP JUMPDEST PUSH0 PUSH1 0x20 DUP3 DUP5 SUB SLT ISZERO PUSH2 0x9CA JUMPI PUSH2 0x9C9 PUSH2 0x5CA JUMP JUMPDEST JUMPDEST PUSH0 PUSH2 0x9D7 DUP5 DUP3 DUP6 ADD PUSH2 0x9A1 JUMP JUMPDEST SWAP2 POP POP SWAP3 SWAP2 POP POP JUMP JUMPDEST PUSH0 PUSH1 0xC0 DUP3 ADD SWAP1 POP PUSH2 0x9F3 PUSH0 DUP4 ADD DUP10 PUSH2 0x630 JUMP JUMPDEST DUP2 DUP2 SUB PUSH1 0x20 DUP4 ADD MSTORE PUSH2 0xA05 DUP2 DUP9 PUSH2 0x677 JUMP JUMPDEST SWAP1 POP DUP2 DUP2 SUB PUSH1 0x40 DUP4 ADD MSTORE PUSH2 0xA19 DUP2 DUP8 PUSH2 0x677 JUMP JUMPDEST SWAP1 POP DUP2 DUP2 SUB PUSH1 0x60 DUP4 ADD MSTORE PUSH2 0xA2D DUP2 DUP7 PUSH2 0x677 JUMP JUMPDEST SWAP1 POP PUSH2 0xA3C PUSH1 0x80 DUP4 ADD DUP6 PUSH2 0x6F9 JUMP JUMPDEST PUSH2 0xA49 PUSH1 0xA0 DUP4 ADD DUP5 PUSH2 0x6F9 JUMP JUMPDEST SWAP8 SWAP7 POP POP POP POP POP POP POP JUMP JUMPDEST PUSH32 0x4E487B7100000000000000000000000000000000000000000000000000000000 PUSH0 MSTORE PUSH1 0x22 PUSH1 0x4 MSTORE PUSH1 0x24 PUSH0 REVERT JUMPDEST PUSH0 PUSH1 0x2 DUP3 DIV SWAP1 POP PUSH1 0x1 DUP3 AND DUP1 PUSH2 0xA98 JUMPI PUSH1 0x7F DUP3 AND SWAP2 POP JUMPDEST PUSH1 0x20 DUP3 LT DUP2 SUB PUSH2 0xAAB JUMPI PUSH2 0xAAA PUSH2 0xA54 JUMP JUMPDEST JUMPDEST POP SWAP2 SWAP1 POP JUMP INVALID LOG2 PUSH5 0x6970667358 0x22 SLT KECCAK256 0xBD CALL PUSH8 0x28DA59E57E2B2E1 0xE6 DUP16 0xEA SWAP16 DUP4 TSTORE 0xE0 0xE6 SWAP1 0xE9 0xE PUSH20 0x145AD875E7043FB5DF64736F6C634300081A0033 "
				},
				"gasEstimates": {
					"creation": {
						"codeDepositCost": "558200",
						"executionCost": "10602",
						"totalCost": "568802"
					},
					"external": {
						"Elections(uint256)": "infinite",
						"Persons(address)": "infinite",
						"Positions(string,string)": "infinite",
						"candidateId()": "2469",
						"electionsCounter()": "2447"
					}
				},
				"methodIdentifiers": {
					"Elections(uint256)": "1e9598e2",
					"Persons(address)": "f544be40",
					"Positions(string,string)": "42ed3706",
					"candidateId()": "9f91e6bf",
					"electionsCounter()": "46817041"
				}
			},
			"storageLayout": {
				"storage": [
					{
						"astId": 45,
						"contract": "smartC/contracts/inherit/storage.sol:Storage",
						"label": "Persons",
						"offset": 0,
						"slot": "0",
						"type": "t_mapping(t_address,t_struct(Person)40_storage)"
					},
					{
						"astId": 49,
						"contract": "smartC/contracts/inherit/storage.sol:Storage",
						"label": "allPersons",
						"offset": 0,
						"slot": "1",
						"type": "t_array(t_struct(Person)40_storage)dyn_storage"
					},
					{
						"astId": 59,
						"contract": "smartC/contracts/inherit/storage.sol:Storage",
						"label": "Positions",
						"offset": 0,
						"slot": "2",
						"type": "t_mapping(t_string_memory_ptr,t_mapping(t_string_memory_ptr,t_struct(Position)52_storage))"
					},
					{
						"astId": 85,
						"contract": "smartC/contracts/inherit/storage.sol:Storage",
						"label": "Elections",
						"offset": 0,
						"slot": "3",
						"type": "t_mapping(t_uint256,t_struct(Election)80_storage)"
					},
					{
						"astId": 88,
						"contract": "smartC/contracts/inherit/storage.sol:Storage",
						"label": "candidateId",
						"offset": 0,
						"slot": "4",
						"type": "t_uint256"
					},
					{
						"astId": 91,
						"contract": "smartC/contracts/inherit/storage.sol:Storage",
						"label": "electionsCounter",
						"offset": 0,
						"slot": "5",
						"type": "t_uint256"
					}
				],
				"types": {
					"t_address": {
						"encoding": "inplace",
						"label": "address",
						"numberOfBytes": "20"
					},
					"t_array(t_struct(Person)40_storage)dyn_storage": {
						"base": "t_struct(Person)40_storage",
						"encoding": "dynamic_array",
						"label": "struct Storage.Person[]",
						"numberOfBytes": "32"
					},
					"t_bool": {
						"encoding": "inplace",
						"label": "bool",
						"numberOfBytes": "1"
					},
					"t_mapping(t_address,t_struct(Person)40_storage)": {
						"encoding": "mapping",
						"key": "t_address",
						"label": "mapping(address => struct Storage.Person)",
						"numberOfBytes": "32",
						"value": "t_struct(Person)40_storage"
					},
					"t_mapping(t_string_memory_ptr,t_mapping(t_string_memory_ptr,t_struct(Position)52_storage))": {
						"encoding": "mapping",
						"key": "t_string_memory_ptr",
						"label": "mapping(string => mapping(string => struct Storage.Position))",
						"numberOfBytes": "32",
						"value": "t_mapping(t_string_memory_ptr,t_struct(Position)52_storage)"
					},
					"t_mapping(t_string_memory_ptr,t_struct(Position)52_storage)": {
						"encoding": "mapping",
						"key": "t_string_memory_ptr",
						"label": "mapping(string => struct Storage.Position)",
						"numberOfBytes": "32",
						"value": "t_struct(Position)52_storage"
					},
					"t_mapping(t_uint256,t_struct(Election)80_storage)": {
						"encoding": "mapping",
						"key": "t_uint256",
						"label": "mapping(uint256 => struct Storage.Election)",
						"numberOfBytes": "32",
						"value": "t_struct(Election)80_storage"
					},
					"t_string_memory_ptr": {
						"encoding": "bytes",
						"label": "string",
						"numberOfBytes": "32"
					},
					"t_string_storage": {
						"encoding": "bytes",
						"label": "string",
						"numberOfBytes": "32"
					},
					"t_struct(Election)80_storage": {
						"encoding": "inplace",
						"label": "struct Storage.Election",
						"members": [
							{
								"astId": 61,
								"contract": "smartC/contracts/inherit/storage.sol:Storage",
								"label": "Id",
								"offset": 0,
								"slot": "0",
								"type": "t_uint256"
							},
							{
								"astId": 63,
								"contract": "smartC/contracts/inherit/storage.sol:Storage",
								"label": "purpose",
								"offset": 0,
								"slot": "1",
								"type": "t_string_storage"
							},
							{
								"astId": 65,
								"contract": "smartC/contracts/inherit/storage.sol:Storage",
								"label": "candidate1",
								"offset": 0,
								"slot": "2",
								"type": "t_address"
							},
							{
								"astId": 67,
								"contract": "smartC/contracts/inherit/storage.sol:Storage",
								"label": "candidate2",
								"offset": 0,
								"slot": "3",
								"type": "t_address"
							},
							{
								"astId": 69,
								"contract": "smartC/contracts/inherit/storage.sol:Storage",
								"label": "votes_of_candidate1",
								"offset": 0,
								"slot": "4",
								"type": "t_uint256"
							},
							{
								"astId": 71,
								"contract": "smartC/contracts/inherit/storage.sol:Storage",
								"label": "votes_of_candidate2",
								"offset": 0,
								"slot": "5",
								"type": "t_uint256"
							},
							{
								"astId": 73,
								"contract": "smartC/contracts/inherit/storage.sol:Storage",
								"label": "position",
								"offset": 0,
								"slot": "6",
								"type": "t_string_storage"
							},
							{
								"astId": 75,
								"contract": "smartC/contracts/inherit/storage.sol:Storage",
								"label": "context",
								"offset": 0,
								"slot": "7",
								"type": "t_string_storage"
							},
							{
								"astId": 77,
								"contract": "smartC/contracts/inherit/storage.sol:Storage",
								"label": "totalVotes",
								"offset": 0,
								"slot": "8",
								"type": "t_uint256"
							},
							{
								"astId": 79,
								"contract": "smartC/contracts/inherit/storage.sol:Storage",
								"label": "concluded",
								"offset": 0,
								"slot": "9",
								"type": "t_bool"
							}
						],
						"numberOfBytes": "320"
					},
					"t_struct(Person)40_storage": {
						"encoding": "inplace",
						"label": "struct Storage.Person",
						"members": [
							{
								"astId": 29,
								"contract": "smartC/contracts/inherit/storage.sol:Storage",
								"label": "id",
								"offset": 0,
								"slot": "0",
								"type": "t_uint256"
							},
							{
								"astId": 31,
								"contract": "smartC/contracts/inherit/storage.sol:Storage",
								"label": "name",
								"offset": 0,
								"slot": "1",
								"type": "t_string_storage"
							},
							{
								"astId": 33,
								"contract": "smartC/contracts/inherit/storage.sol:Storage",
								"label": "position",
								"offset": 0,
								"slot": "2",
								"type": "t_string_storage"
							},
							{
								"astId": 35,
								"contract": "smartC/contracts/inherit/storage.sol:Storage",
								"label": "elevatedIn",
								"offset": 0,
								"slot": "3",
								"type": "t_string_storage"
							},
							{
								"astId": 37,
								"contract": "smartC/contracts/inherit/storage.sol:Storage",
								"label": "exists",
								"offset": 0,
								"slot": "4",
								"type": "t_bool"
							},
							{
								"astId": 39,
								"contract": "smartC/contracts/inherit/storage.sol:Storage",
								"label": "qualified",
								"offset": 1,
								"slot": "4",
								"type": "t_bool"
							}
						],
						"numberOfBytes": "160"
					},
					"t_struct(Position)52_storage": {
						"encoding": "inplace",
						"label": "struct Storage.Position",
						"members": [
							{
								"astId": 51,
								"contract": "smartC/contracts/inherit/storage.sol:Storage",
								"label": "holder",
								"offset": 0,
								"slot": "0",
								"type": "t_address"
							}
						],
						"numberOfBytes": "32"
					},
					"t_uint256": {
						"encoding": "inplace",
						"label": "uint256",
						"numberOfBytes": "32"
					}
				}
			},
			"userdoc": {
				"kind": "user",
				"methods": {},
				"version": 1
			}
		}
	}
}