{
	"smartC/contracts/lib/storage.sol": {
		"Storage": {
			"abi": [
				{
					"anonymous": false,
					"inputs": [
						{
							"indexed": false,
							"internalType": "uint256",
							"name": "",
							"type": "uint256"
						},
						{
							"indexed": false,
							"internalType": "string",
							"name": "",
							"type": "string"
						}
					],
					"name": "draw",
					"type": "event"
				},
				{
					"anonymous": false,
					"inputs": [
						{
							"indexed": false,
							"internalType": "uint256",
							"name": "electionId",
							"type": "uint256"
						},
						{
							"indexed": true,
							"internalType": "address",
							"name": "winner",
							"type": "address"
						}
					],
					"name": "electionConcluded",
					"type": "event"
				},
				{
					"anonymous": false,
					"inputs": [
						{
							"indexed": false,
							"internalType": "uint256",
							"name": "electionsCounter",
							"type": "uint256"
						}
					],
					"name": "electionStarted",
					"type": "event"
				},
				{
					"anonymous": false,
					"inputs": [
						{
							"indexed": true,
							"internalType": "address",
							"name": "newPerson",
							"type": "address"
						}
					],
					"name": "newPerson",
					"type": "event"
				},
				{
					"anonymous": false,
					"inputs": [
						{
							"indexed": true,
							"internalType": "address",
							"name": "voter",
							"type": "address"
						},
						{
							"indexed": true,
							"internalType": "address",
							"name": "candidate",
							"type": "address"
						}
					],
					"name": "voteCasted",
					"type": "event"
				},
				{
					"inputs": [
						{
							"internalType": "uint256",
							"name": "",
							"type": "uint256"
						}
					],
					"name": "Elections",
					"outputs": [
						{
							"internalType": "uint256",
							"name": "Id",
							"type": "uint256"
						},
						{
							"internalType": "string",
							"name": "purpose",
							"type": "string"
						},
						{
							"internalType": "address",
							"name": "candidate1",
							"type": "address"
						},
						{
							"internalType": "address",
							"name": "candidate2",
							"type": "address"
						},
						{
							"internalType": "uint256",
							"name": "votes_of_candidate1",
							"type": "uint256"
						},
						{
							"internalType": "uint256",
							"name": "votes_of_candidate2",
							"type": "uint256"
						},
						{
							"internalType": "string",
							"name": "position",
							"type": "string"
						},
						{
							"internalType": "string",
							"name": "context",
							"type": "string"
						},
						{
							"internalType": "uint256",
							"name": "totalVotes",
							"type": "uint256"
						},
						{
							"internalType": "bool",
							"name": "concluded",
							"type": "bool"
						},
						{
							"internalType": "uint256",
							"name": "startTime",
							"type": "uint256"
						},
						{
							"internalType": "uint256",
							"name": "conclusionTime",
							"type": "uint256"
						}
					],
					"stateMutability": "view",
					"type": "function"
				},
				{
					"inputs": [
						{
							"internalType": "address",
							"name": "",
							"type": "address"
						}
					],
					"name": "Moderators",
					"outputs": [
						{
							"internalType": "bool",
							"name": "",
							"type": "bool"
						}
					],
					"stateMutability": "view",
					"type": "function"
				},
				{
					"inputs": [
						{
							"internalType": "address",
							"name": "",
							"type": "address"
						}
					],
					"name": "Persons",
					"outputs": [
						{
							"internalType": "uint256",
							"name": "id",
							"type": "uint256"
						},
						{
							"internalType": "string",
							"name": "callSign",
							"type": "string"
						},
						{
							"internalType": "string",
							"name": "position",
							"type": "string"
						},
						{
							"internalType": "string",
							"name": "elevatedIn",
							"type": "string"
						},
						{
							"internalType": "bool",
							"name": "exists",
							"type": "bool"
						},
						{
							"internalType": "bool",
							"name": "qualified",
							"type": "bool"
						}
					],
					"stateMutability": "view",
					"type": "function"
				},
				{
					"inputs": [
						{
							"internalType": "string",
							"name": "",
							"type": "string"
						},
						{
							"internalType": "string",
							"name": "",
							"type": "string"
						}
					],
					"name": "Positions",
					"outputs": [
						{
							"internalType": "address",
							"name": "holder",
							"type": "address"
						}
					],
					"stateMutability": "view",
					"type": "function"
				},
				{
					"inputs": [],
					"name": "candidateId",
					"outputs": [
						{
							"internalType": "uint256",
							"name": "",
							"type": "uint256"
						}
					],
					"stateMutability": "view",
					"type": "function"
				},
				{
					"inputs": [],
					"name": "electionsCounter",
					"outputs": [
						{
							"internalType": "uint256",
							"name": "",
							"type": "uint256"
						}
					],
					"stateMutability": "view",
					"type": "function"
				}
			],
			"devdoc": {
				"kind": "dev",
				"methods": {},
				"version": 1
			},
			"evm": {
				"assembly": "    /* \"smartC/contracts/lib/storage.sol\":84:1655  contract Storage {... */\n  mstore(0x40, 0x80)\n    /* \"smartC/contracts/lib/storage.sol\":1613:1614  0 */\n  0x00\n    /* \"smartC/contracts/lib/storage.sol\":1587:1614  uint public candidateId = 0 */\n  0x05\n  sstore\n    /* \"smartC/contracts/lib/storage.sol\":1651:1652  0 */\n  0x00\n    /* \"smartC/contracts/lib/storage.sol\":1620:1652  uint public electionsCounter = 0 */\n  0x06\n  sstore\n    /* \"smartC/contracts/lib/storage.sol\":84:1655  contract Storage {... */\n  callvalue\n  dup1\n  iszero\n  tag_1\n  jumpi\n  0x00\n  dup1\n  revert\ntag_1:\n  pop\n  dataSize(sub_0)\n  dup1\n  dataOffset(sub_0)\n  0x00\n  codecopy\n  0x00\n  return\nstop\n\nsub_0: assembly {\n        /* \"smartC/contracts/lib/storage.sol\":84:1655  contract Storage {... */\n      mstore(0x40, 0x80)\n      callvalue\n      dup1\n      iszero\n      tag_1\n      jumpi\n      0x00\n      dup1\n      revert\n    tag_1:\n      pop\n      jumpi(tag_2, lt(calldatasize, 0x04))\n      shr(0xe0, calldataload(0x00))\n      dup1\n      0x1e9598e2\n      eq\n      tag_3\n      jumpi\n      dup1\n      0x42ed3706\n      eq\n      tag_4\n      jumpi\n      dup1\n      0x46817041\n      eq\n      tag_5\n      jumpi\n      dup1\n      0x93109ff3\n      eq\n      tag_6\n      jumpi\n      dup1\n      0x9f91e6bf\n      eq\n      tag_7\n      jumpi\n      dup1\n      0xf544be40\n      eq\n      tag_8\n      jumpi\n    tag_2:\n      0x00\n      dup1\n      revert\n        /* \"smartC/contracts/lib/storage.sol\":1538:1580  mapping(uint => Election) public Elections */\n    tag_3:\n      tag_9\n      0x04\n      dup1\n      calldatasize\n      sub\n      dup2\n      add\n      swap1\n      tag_10\n      swap2\n      swap1\n      tag_11\n      jump\t// in\n    tag_10:\n      tag_12\n      jump\t// in\n    tag_9:\n      mload(0x40)\n      tag_13\n      swap13\n      swap12\n      swap11\n      swap10\n      swap9\n      swap8\n      swap7\n      swap6\n      swap5\n      swap4\n      swap3\n      swap2\n      swap1\n      tag_14\n      jump\t// in\n    tag_13:\n      mload(0x40)\n      dup1\n      swap2\n      sub\n      swap1\n      return\n        /* \"smartC/contracts/lib/storage.sol\":801:864  mapping(string => mapping(string => Position)) public Positions */\n    tag_4:\n      tag_15\n      0x04\n      dup1\n      calldatasize\n      sub\n      dup2\n      add\n      swap1\n      tag_16\n      swap2\n      swap1\n      tag_17\n      jump\t// in\n    tag_16:\n      tag_18\n      jump\t// in\n    tag_15:\n      mload(0x40)\n      tag_19\n      swap2\n      swap1\n      tag_20\n      jump\t// in\n    tag_19:\n      mload(0x40)\n      dup1\n      swap2\n      sub\n      swap1\n      return\n        /* \"smartC/contracts/lib/storage.sol\":1620:1652  uint public electionsCounter = 0 */\n    tag_5:\n      tag_21\n      tag_22\n      jump\t// in\n    tag_21:\n      mload(0x40)\n      tag_23\n      swap2\n      swap1\n      tag_24\n      jump\t// in\n    tag_23:\n      mload(0x40)\n      dup1\n      swap2\n      sub\n      swap1\n      return\n        /* \"smartC/contracts/lib/storage.sol\":378:420  mapping(address => bool) public Moderators */\n    tag_6:\n      tag_25\n      0x04\n      dup1\n      calldatasize\n      sub\n      dup2\n      add\n      swap1\n      tag_26\n      swap2\n      swap1\n      tag_27\n      jump\t// in\n    tag_26:\n      tag_28\n      jump\t// in\n    tag_25:\n      mload(0x40)\n      tag_29\n      swap2\n      swap1\n      tag_30\n      jump\t// in\n    tag_29:\n      mload(0x40)\n      dup1\n      swap2\n      sub\n      swap1\n      return\n        /* \"smartC/contracts/lib/storage.sol\":1587:1614  uint public candidateId = 0 */\n    tag_7:\n      tag_31\n      tag_32\n      jump\t// in\n    tag_31:\n      mload(0x40)\n      tag_33\n      swap2\n      swap1\n      tag_24\n      jump\t// in\n    tag_33:\n      mload(0x40)\n      dup1\n      swap2\n      sub\n      swap1\n      return\n        /* \"smartC/contracts/lib/storage.sol\":643:684  mapping(address => Person) public Persons */\n    tag_8:\n      tag_34\n      0x04\n      dup1\n      calldatasize\n      sub\n      dup2\n      add\n      swap1\n      tag_35\n      swap2\n      swap1\n      tag_27\n      jump\t// in\n    tag_35:\n      tag_36\n      jump\t// in\n    tag_34:\n      mload(0x40)\n      tag_37\n      swap7\n      swap6\n      swap5\n      swap4\n      swap3\n      swap2\n      swap1\n      tag_38\n      jump\t// in\n    tag_37:\n      mload(0x40)\n      dup1\n      swap2\n      sub\n      swap1\n      return\n        /* \"smartC/contracts/lib/storage.sol\":1538:1580  mapping(uint => Election) public Elections */\n    tag_12:\n      mstore(0x20, 0x04)\n      dup1\n      0x00\n      mstore\n      keccak256(0x00, 0x40)\n      0x00\n      swap2\n      pop\n      swap1\n      pop\n      dup1\n      0x00\n      add\n      sload\n      swap1\n      dup1\n      0x01\n      add\n      dup1\n      sload\n      tag_39\n      swap1\n      tag_40\n      jump\t// in\n    tag_39:\n      dup1\n      0x1f\n      add\n      0x20\n      dup1\n      swap2\n      div\n      mul\n      0x20\n      add\n      mload(0x40)\n      swap1\n      dup2\n      add\n      0x40\n      mstore\n      dup1\n      swap3\n      swap2\n      swap1\n      dup2\n      dup2\n      mstore\n      0x20\n      add\n      dup3\n      dup1\n      sload\n      tag_41\n      swap1\n      tag_40\n      jump\t// in\n    tag_41:\n      dup1\n      iszero\n      tag_42\n      jumpi\n      dup1\n      0x1f\n      lt\n      tag_43\n      jumpi\n      0x0100\n      dup1\n      dup4\n      sload\n      div\n      mul\n      dup4\n      mstore\n      swap2\n      0x20\n      add\n      swap2\n      jump(tag_42)\n    tag_43:\n      dup3\n      add\n      swap2\n      swap1\n      0x00\n      mstore\n      keccak256(0x00, 0x20)\n      swap1\n    tag_44:\n      dup2\n      sload\n      dup2\n      mstore\n      swap1\n      0x01\n      add\n      swap1\n      0x20\n      add\n      dup1\n      dup4\n      gt\n      tag_44\n      jumpi\n      dup3\n      swap1\n      sub\n      0x1f\n      and\n      dup3\n      add\n      swap2\n    tag_42:\n      pop\n      pop\n      pop\n      pop\n      pop\n      swap1\n      dup1\n      0x02\n      add\n      0x00\n      swap1\n      sload\n      swap1\n      0x0100\n      exp\n      swap1\n      div\n      0xffffffffffffffffffffffffffffffffffffffff\n      and\n      swap1\n      dup1\n      0x03\n      add\n      0x00\n      swap1\n      sload\n      swap1\n      0x0100\n      exp\n      swap1\n      div\n      0xffffffffffffffffffffffffffffffffffffffff\n      and\n      swap1\n      dup1\n      0x04\n      add\n      sload\n      swap1\n      dup1\n      0x05\n      add\n      sload\n      swap1\n      dup1\n      0x06\n      add\n      dup1\n      sload\n      tag_45\n      swap1\n      tag_40\n      jump\t// in\n    tag_45:\n      dup1\n      0x1f\n      add\n      0x20\n      dup1\n      swap2\n      div\n      mul\n      0x20\n      add\n      mload(0x40)\n      swap1\n      dup2\n      add\n      0x40\n      mstore\n      dup1\n      swap3\n      swap2\n      swap1\n      dup2\n      dup2\n      mstore\n      0x20\n      add\n      dup3\n      dup1\n      sload\n      tag_46\n      swap1\n      tag_40\n      jump\t// in\n    tag_46:\n      dup1\n      iszero\n      tag_47\n      jumpi\n      dup1\n      0x1f\n      lt\n      tag_48\n      jumpi\n      0x0100\n      dup1\n      dup4\n      sload\n      div\n      mul\n      dup4\n      mstore\n      swap2\n      0x20\n      add\n      swap2\n      jump(tag_47)\n    tag_48:\n      dup3\n      add\n      swap2\n      swap1\n      0x00\n      mstore\n      keccak256(0x00, 0x20)\n      swap1\n    tag_49:\n      dup2\n      sload\n      dup2\n      mstore\n      swap1\n      0x01\n      add\n      swap1\n      0x20\n      add\n      dup1\n      dup4\n      gt\n      tag_49\n      jumpi\n      dup3\n      swap1\n      sub\n      0x1f\n      and\n      dup3\n      add\n      swap2\n    tag_47:\n      pop\n      pop\n      pop\n      pop\n      pop\n      swap1\n      dup1\n      0x07\n      add\n      dup1\n      sload\n      tag_50\n      swap1\n      tag_40\n      jump\t// in\n    tag_50:\n      dup1\n      0x1f\n      add\n      0x20\n      dup1\n      swap2\n      div\n      mul\n      0x20\n      add\n      mload(0x40)\n      swap1\n      dup2\n      add\n      0x40\n      mstore\n      dup1\n      swap3\n      swap2\n      swap1\n      dup2\n      dup2\n      mstore\n      0x20\n      add\n      dup3\n      dup1\n      sload\n      tag_51\n      swap1\n      tag_40\n      jump\t// in\n    tag_51:\n      dup1\n      iszero\n      tag_52\n      jumpi\n      dup1\n      0x1f\n      lt\n      tag_53\n      jumpi\n      0x0100\n      dup1\n      dup4\n      sload\n      div\n      mul\n      dup4\n      mstore\n      swap2\n      0x20\n      add\n      swap2\n      jump(tag_52)\n    tag_53:\n      dup3\n      add\n      swap2\n      swap1\n      0x00\n      mstore\n      keccak256(0x00, 0x20)\n      swap1\n    tag_54:\n      dup2\n      sload\n      dup2\n      mstore\n      swap1\n      0x01\n      add\n      swap1\n      0x20\n      add\n      dup1\n      dup4\n      gt\n      tag_54\n      jumpi\n      dup3\n      swap1\n      sub\n      0x1f\n      and\n      dup3\n      add\n      swap2\n    tag_52:\n      pop\n      pop\n      pop\n      pop\n      pop\n      swap1\n      dup1\n      0x08\n      add\n      sload\n      swap1\n      dup1\n      0x09\n      add\n      0x00\n      swap1\n      sload\n      swap1\n      0x0100\n      exp\n      swap1\n      div\n      0xff\n      and\n      swap1\n      dup1\n      0x0a\n      add\n      sload\n      swap1\n      dup1\n      0x0b\n      add\n      sload\n      swap1\n      pop\n      dup13\n      jump\t// out\n        /* \"smartC/contracts/lib/storage.sol\":801:864  mapping(string => mapping(string => Position)) public Positions */\n    tag_18:\n      0x03\n      dup3\n      dup1\n      mload\n      0x20\n      dup2\n      add\n      dup3\n      add\n      dup1\n      mload\n      dup5\n      dup3\n      mstore\n      0x20\n      dup4\n      add\n      0x20\n      dup6\n      add\n      keccak256\n      dup2\n      dup4\n      mstore\n      dup1\n      swap6\n      pop\n      pop\n      pop\n      pop\n      pop\n      pop\n      dup2\n      dup1\n      mload\n      0x20\n      dup2\n      add\n      dup3\n      add\n      dup1\n      mload\n      dup5\n      dup3\n      mstore\n      0x20\n      dup4\n      add\n      0x20\n      dup6\n      add\n      keccak256\n      dup2\n      dup4\n      mstore\n      dup1\n      swap6\n      pop\n      pop\n      pop\n      pop\n      pop\n      pop\n      0x00\n      swap2\n      pop\n      swap2\n      pop\n      pop\n      dup1\n      0x00\n      add\n      0x00\n      swap1\n      sload\n      swap1\n      0x0100\n      exp\n      swap1\n      div\n      0xffffffffffffffffffffffffffffffffffffffff\n      and\n      swap1\n      pop\n      dup2\n      jump\t// out\n        /* \"smartC/contracts/lib/storage.sol\":1620:1652  uint public electionsCounter = 0 */\n    tag_22:\n      sload(0x06)\n      dup2\n      jump\t// out\n        /* \"smartC/contracts/lib/storage.sol\":378:420  mapping(address => bool) public Moderators */\n    tag_28:\n      mstore(0x20, 0x00)\n      dup1\n      0x00\n      mstore\n      keccak256(0x00, 0x40)\n      0x00\n      swap2\n      pop\n      sload\n      swap1\n      0x0100\n      exp\n      swap1\n      div\n      0xff\n      and\n      dup2\n      jump\t// out\n        /* \"smartC/contracts/lib/storage.sol\":1587:1614  uint public candidateId = 0 */\n    tag_32:\n      sload(0x05)\n      dup2\n      jump\t// out\n        /* \"smartC/contracts/lib/storage.sol\":643:684  mapping(address => Person) public Persons */\n    tag_36:\n      mstore(0x20, 0x01)\n      dup1\n      0x00\n      mstore\n      keccak256(0x00, 0x40)\n      0x00\n      swap2\n      pop\n      swap1\n      pop\n      dup1\n      0x00\n      add\n      sload\n      swap1\n      dup1\n      0x01\n      add\n      dup1\n      sload\n      tag_55\n      swap1\n      tag_40\n      jump\t// in\n    tag_55:\n      dup1\n      0x1f\n      add\n      0x20\n      dup1\n      swap2\n      div\n      mul\n      0x20\n      add\n      mload(0x40)\n      swap1\n      dup2\n      add\n      0x40\n      mstore\n      dup1\n      swap3\n      swap2\n      swap1\n      dup2\n      dup2\n      mstore\n      0x20\n      add\n      dup3\n      dup1\n      sload\n      tag_56\n      swap1\n      tag_40\n      jump\t// in\n    tag_56:\n      dup1\n      iszero\n      tag_57\n      jumpi\n      dup1\n      0x1f\n      lt\n      tag_58\n      jumpi\n      0x0100\n      dup1\n      dup4\n      sload\n      div\n      mul\n      dup4\n      mstore\n      swap2\n      0x20\n      add\n      swap2\n      jump(tag_57)\n    tag_58:\n      dup3\n      add\n      swap2\n      swap1\n      0x00\n      mstore\n      keccak256(0x00, 0x20)\n      swap1\n    tag_59:\n      dup2\n      sload\n      dup2\n      mstore\n      swap1\n      0x01\n      add\n      swap1\n      0x20\n      add\n      dup1\n      dup4\n      gt\n      tag_59\n      jumpi\n      dup3\n      swap1\n      sub\n      0x1f\n      and\n      dup3\n      add\n      swap2\n    tag_57:\n      pop\n      pop\n      pop\n      pop\n      pop\n      swap1\n      dup1\n      0x02\n      add\n      dup1\n      sload\n      tag_60\n      swap1\n      tag_40\n      jump\t// in\n    tag_60:\n      dup1\n      0x1f\n      add\n      0x20\n      dup1\n      swap2\n      div\n      mul\n      0x20\n      add\n      mload(0x40)\n      swap1\n      dup2\n      add\n      0x40\n      mstore\n      dup1\n      swap3\n      swap2\n      swap1\n      dup2\n      dup2\n      mstore\n      0x20\n      add\n      dup3\n      dup1\n      sload\n      tag_61\n      swap1\n      tag_40\n      jump\t// in\n    tag_61:\n      dup1\n      iszero\n      tag_62\n      jumpi\n      dup1\n      0x1f\n      lt\n      tag_63\n      jumpi\n      0x0100\n      dup1\n      dup4\n      sload\n      div\n      mul\n      dup4\n      mstore\n      swap2\n      0x20\n      add\n      swap2\n      jump(tag_62)\n    tag_63:\n      dup3\n      add\n      swap2\n      swap1\n      0x00\n      mstore\n      keccak256(0x00, 0x20)\n      swap1\n    tag_64:\n      dup2\n      sload\n      dup2\n      mstore\n      swap1\n      0x01\n      add\n      swap1\n      0x20\n      add\n      dup1\n      dup4\n      gt\n      tag_64\n      jumpi\n      dup3\n      swap1\n      sub\n      0x1f\n      and\n      dup3\n      add\n      swap2\n    tag_62:\n      pop\n      pop\n      pop\n      pop\n      pop\n      swap1\n      dup1\n      0x03\n      add\n      dup1\n      sload\n      tag_65\n      swap1\n      tag_40\n      jump\t// in\n    tag_65:\n      dup1\n      0x1f\n      add\n      0x20\n      dup1\n      swap2\n      div\n      mul\n      0x20\n      add\n      mload(0x40)\n      swap1\n      dup2\n      add\n      0x40\n      mstore\n      dup1\n      swap3\n      swap2\n      swap1\n      dup2\n      dup2\n      mstore\n      0x20\n      add\n      dup3\n      dup1\n      sload\n      tag_66\n      swap1\n      tag_40\n      jump\t// in\n    tag_66:\n      dup1\n      iszero\n      tag_67\n      jumpi\n      dup1\n      0x1f\n      lt\n      tag_68\n      jumpi\n      0x0100\n      dup1\n      dup4\n      sload\n      div\n      mul\n      dup4\n      mstore\n      swap2\n      0x20\n      add\n      swap2\n      jump(tag_67)\n    tag_68:\n      dup3\n      add\n      swap2\n      swap1\n      0x00\n      mstore\n      keccak256(0x00, 0x20)\n      swap1\n    tag_69:\n      dup2\n      sload\n      dup2\n      mstore\n      swap1\n      0x01\n      add\n      swap1\n      0x20\n      add\n      dup1\n      dup4\n      gt\n      tag_69\n      jumpi\n      dup3\n      swap1\n      sub\n      0x1f\n      and\n      dup3\n      add\n      swap2\n    tag_67:\n      pop\n      pop\n      pop\n      pop\n      pop\n      swap1\n      dup1\n      0x04\n      add\n      0x00\n      swap1\n      sload\n      swap1\n      0x0100\n      exp\n      swap1\n      div\n      0xff\n      and\n      swap1\n      dup1\n      0x04\n      add\n      0x01\n      swap1\n      sload\n      swap1\n      0x0100\n      exp\n      swap1\n      div\n      0xff\n      and\n      swap1\n      pop\n      dup7\n      jump\t// out\n        /* \"#utility.yul\":7:82   */\n    tag_70:\n        /* \"#utility.yul\":40:46   */\n      0x00\n        /* \"#utility.yul\":73:75   */\n      0x40\n        /* \"#utility.yul\":67:76   */\n      mload\n        /* \"#utility.yul\":57:76   */\n      swap1\n      pop\n        /* \"#utility.yul\":7:82   */\n      swap1\n      jump\t// out\n        /* \"#utility.yul\":88:205   */\n    tag_71:\n        /* \"#utility.yul\":197:198   */\n      0x00\n        /* \"#utility.yul\":194:195   */\n      dup1\n        /* \"#utility.yul\":187:199   */\n      revert\n        /* \"#utility.yul\":211:328   */\n    tag_72:\n        /* \"#utility.yul\":320:321   */\n      0x00\n        /* \"#utility.yul\":317:318   */\n      dup1\n        /* \"#utility.yul\":310:322   */\n      revert\n        /* \"#utility.yul\":334:411   */\n    tag_73:\n        /* \"#utility.yul\":371:378   */\n      0x00\n        /* \"#utility.yul\":400:405   */\n      dup2\n        /* \"#utility.yul\":389:405   */\n      swap1\n      pop\n        /* \"#utility.yul\":334:411   */\n      swap2\n      swap1\n      pop\n      jump\t// out\n        /* \"#utility.yul\":417:539   */\n    tag_74:\n        /* \"#utility.yul\":490:514   */\n      tag_105\n        /* \"#utility.yul\":508:513   */\n      dup2\n        /* \"#utility.yul\":490:514   */\n      tag_73\n      jump\t// in\n    tag_105:\n        /* \"#utility.yul\":483:488   */\n      dup2\n        /* \"#utility.yul\":480:515   */\n      eq\n        /* \"#utility.yul\":470:533   */\n      tag_106\n      jumpi\n        /* \"#utility.yul\":529:530   */\n      0x00\n        /* \"#utility.yul\":526:527   */\n      dup1\n        /* \"#utility.yul\":519:531   */\n      revert\n        /* \"#utility.yul\":470:533   */\n    tag_106:\n        /* \"#utility.yul\":417:539   */\n      pop\n      jump\t// out\n        /* \"#utility.yul\":545:684   */\n    tag_75:\n        /* \"#utility.yul\":591:596   */\n      0x00\n        /* \"#utility.yul\":629:635   */\n      dup2\n        /* \"#utility.yul\":616:636   */\n      calldataload\n        /* \"#utility.yul\":607:636   */\n      swap1\n      pop\n        /* \"#utility.yul\":645:678   */\n      tag_108\n        /* \"#utility.yul\":672:677   */\n      dup2\n        /* \"#utility.yul\":645:678   */\n      tag_74\n      jump\t// in\n    tag_108:\n        /* \"#utility.yul\":545:684   */\n      swap3\n      swap2\n      pop\n      pop\n      jump\t// out\n        /* \"#utility.yul\":690:1019   */\n    tag_11:\n        /* \"#utility.yul\":749:755   */\n      0x00\n        /* \"#utility.yul\":798:800   */\n      0x20\n        /* \"#utility.yul\":786:795   */\n      dup3\n        /* \"#utility.yul\":777:784   */\n      dup5\n        /* \"#utility.yul\":773:796   */\n      sub\n        /* \"#utility.yul\":769:801   */\n      slt\n        /* \"#utility.yul\":766:885   */\n      iszero\n      tag_110\n      jumpi\n        /* \"#utility.yul\":804:883   */\n      tag_111\n      tag_71\n      jump\t// in\n    tag_111:\n        /* \"#utility.yul\":766:885   */\n    tag_110:\n        /* \"#utility.yul\":924:925   */\n      0x00\n        /* \"#utility.yul\":949:1002   */\n      tag_112\n        /* \"#utility.yul\":994:1001   */\n      dup5\n        /* \"#utility.yul\":985:991   */\n      dup3\n        /* \"#utility.yul\":974:983   */\n      dup6\n        /* \"#utility.yul\":970:992   */\n      add\n        /* \"#utility.yul\":949:1002   */\n      tag_75\n      jump\t// in\n    tag_112:\n        /* \"#utility.yul\":939:1002   */\n      swap2\n      pop\n        /* \"#utility.yul\":895:1012   */\n      pop\n        /* \"#utility.yul\":690:1019   */\n      swap3\n      swap2\n      pop\n      pop\n      jump\t// out\n        /* \"#utility.yul\":1025:1143   */\n    tag_76:\n        /* \"#utility.yul\":1112:1136   */\n      tag_114\n        /* \"#utility.yul\":1130:1135   */\n      dup2\n        /* \"#utility.yul\":1112:1136   */\n      tag_73\n      jump\t// in\n    tag_114:\n        /* \"#utility.yul\":1107:1110   */\n      dup3\n        /* \"#utility.yul\":1100:1137   */\n      mstore\n        /* \"#utility.yul\":1025:1143   */\n      pop\n      pop\n      jump\t// out\n        /* \"#utility.yul\":1149:1248   */\n    tag_77:\n        /* \"#utility.yul\":1201:1207   */\n      0x00\n        /* \"#utility.yul\":1235:1240   */\n      dup2\n        /* \"#utility.yul\":1229:1241   */\n      mload\n        /* \"#utility.yul\":1219:1241   */\n      swap1\n      pop\n        /* \"#utility.yul\":1149:1248   */\n      swap2\n      swap1\n      pop\n      jump\t// out\n        /* \"#utility.yul\":1254:1423   */\n    tag_78:\n        /* \"#utility.yul\":1338:1349   */\n      0x00\n        /* \"#utility.yul\":1372:1378   */\n      dup3\n        /* \"#utility.yul\":1367:1370   */\n      dup3\n        /* \"#utility.yul\":1360:1379   */\n      mstore\n        /* \"#utility.yul\":1412:1416   */\n      0x20\n        /* \"#utility.yul\":1407:1410   */\n      dup3\n        /* \"#utility.yul\":1403:1417   */\n      add\n        /* \"#utility.yul\":1388:1417   */\n      swap1\n      pop\n        /* \"#utility.yul\":1254:1423   */\n      swap3\n      swap2\n      pop\n      pop\n      jump\t// out\n        /* \"#utility.yul\":1429:1568   */\n    tag_79:\n        /* \"#utility.yul\":1518:1524   */\n      dup3\n        /* \"#utility.yul\":1513:1516   */\n      dup2\n        /* \"#utility.yul\":1508:1511   */\n      dup4\n        /* \"#utility.yul\":1502:1525   */\n      mcopy\n        /* \"#utility.yul\":1559:1560   */\n      0x00\n        /* \"#utility.yul\":1550:1556   */\n      dup4\n        /* \"#utility.yul\":1545:1548   */\n      dup4\n        /* \"#utility.yul\":1541:1557   */\n      add\n        /* \"#utility.yul\":1534:1561   */\n      mstore\n        /* \"#utility.yul\":1429:1568   */\n      pop\n      pop\n      pop\n      jump\t// out\n        /* \"#utility.yul\":1574:1676   */\n    tag_80:\n        /* \"#utility.yul\":1615:1621   */\n      0x00\n        /* \"#utility.yul\":1666:1668   */\n      0x1f\n        /* \"#utility.yul\":1662:1669   */\n      not\n        /* \"#utility.yul\":1657:1659   */\n      0x1f\n        /* \"#utility.yul\":1650:1655   */\n      dup4\n        /* \"#utility.yul\":1646:1660   */\n      add\n        /* \"#utility.yul\":1642:1670   */\n      and\n        /* \"#utility.yul\":1632:1670   */\n      swap1\n      pop\n        /* \"#utility.yul\":1574:1676   */\n      swap2\n      swap1\n      pop\n      jump\t// out\n        /* \"#utility.yul\":1682:2059   */\n    tag_81:\n        /* \"#utility.yul\":1770:1773   */\n      0x00\n        /* \"#utility.yul\":1798:1837   */\n      tag_120\n        /* \"#utility.yul\":1831:1836   */\n      dup3\n        /* \"#utility.yul\":1798:1837   */\n      tag_77\n      jump\t// in\n    tag_120:\n        /* \"#utility.yul\":1853:1924   */\n      tag_121\n        /* \"#utility.yul\":1917:1923   */\n      dup2\n        /* \"#utility.yul\":1912:1915   */\n      dup6\n        /* \"#utility.yul\":1853:1924   */\n      tag_78\n      jump\t// in\n    tag_121:\n        /* \"#utility.yul\":1846:1924   */\n      swap4\n      pop\n        /* \"#utility.yul\":1933:1998   */\n      tag_122\n        /* \"#utility.yul\":1991:1997   */\n      dup2\n        /* \"#utility.yul\":1986:1989   */\n      dup6\n        /* \"#utility.yul\":1979:1983   */\n      0x20\n        /* \"#utility.yul\":1972:1977   */\n      dup7\n        /* \"#utility.yul\":1968:1984   */\n      add\n        /* \"#utility.yul\":1933:1998   */\n      tag_79\n      jump\t// in\n    tag_122:\n        /* \"#utility.yul\":2023:2052   */\n      tag_123\n        /* \"#utility.yul\":2045:2051   */\n      dup2\n        /* \"#utility.yul\":2023:2052   */\n      tag_80\n      jump\t// in\n    tag_123:\n        /* \"#utility.yul\":2018:2021   */\n      dup5\n        /* \"#utility.yul\":2014:2053   */\n      add\n        /* \"#utility.yul\":2007:2053   */\n      swap2\n      pop\n        /* \"#utility.yul\":1774:2059   */\n      pop\n        /* \"#utility.yul\":1682:2059   */\n      swap3\n      swap2\n      pop\n      pop\n      jump\t// out\n        /* \"#utility.yul\":2065:2191   */\n    tag_82:\n        /* \"#utility.yul\":2102:2109   */\n      0x00\n        /* \"#utility.yul\":2142:2184   */\n      0xffffffffffffffffffffffffffffffffffffffff\n        /* \"#utility.yul\":2135:2140   */\n      dup3\n        /* \"#utility.yul\":2131:2185   */\n      and\n        /* \"#utility.yul\":2120:2185   */\n      swap1\n      pop\n        /* \"#utility.yul\":2065:2191   */\n      swap2\n      swap1\n      pop\n      jump\t// out\n        /* \"#utility.yul\":2197:2293   */\n    tag_83:\n        /* \"#utility.yul\":2234:2241   */\n      0x00\n        /* \"#utility.yul\":2263:2287   */\n      tag_126\n        /* \"#utility.yul\":2281:2286   */\n      dup3\n        /* \"#utility.yul\":2263:2287   */\n      tag_82\n      jump\t// in\n    tag_126:\n        /* \"#utility.yul\":2252:2287   */\n      swap1\n      pop\n        /* \"#utility.yul\":2197:2293   */\n      swap2\n      swap1\n      pop\n      jump\t// out\n        /* \"#utility.yul\":2299:2417   */\n    tag_84:\n        /* \"#utility.yul\":2386:2410   */\n      tag_128\n        /* \"#utility.yul\":2404:2409   */\n      dup2\n        /* \"#utility.yul\":2386:2410   */\n      tag_83\n      jump\t// in\n    tag_128:\n        /* \"#utility.yul\":2381:2384   */\n      dup3\n        /* \"#utility.yul\":2374:2411   */\n      mstore\n        /* \"#utility.yul\":2299:2417   */\n      pop\n      pop\n      jump\t// out\n        /* \"#utility.yul\":2423:2513   */\n    tag_85:\n        /* \"#utility.yul\":2457:2464   */\n      0x00\n        /* \"#utility.yul\":2500:2505   */\n      dup2\n        /* \"#utility.yul\":2493:2506   */\n      iszero\n        /* \"#utility.yul\":2486:2507   */\n      iszero\n        /* \"#utility.yul\":2475:2507   */\n      swap1\n      pop\n        /* \"#utility.yul\":2423:2513   */\n      swap2\n      swap1\n      pop\n      jump\t// out\n        /* \"#utility.yul\":2519:2628   */\n    tag_86:\n        /* \"#utility.yul\":2600:2621   */\n      tag_131\n        /* \"#utility.yul\":2615:2620   */\n      dup2\n        /* \"#utility.yul\":2600:2621   */\n      tag_85\n      jump\t// in\n    tag_131:\n        /* \"#utility.yul\":2595:2598   */\n      dup3\n        /* \"#utility.yul\":2588:2622   */\n      mstore\n        /* \"#utility.yul\":2519:2628   */\n      pop\n      pop\n      jump\t// out\n        /* \"#utility.yul\":2634:4340   */\n    tag_14:\n        /* \"#utility.yul\":3091:3095   */\n      0x00\n        /* \"#utility.yul\":3129:3132   */\n      0x0180\n        /* \"#utility.yul\":3118:3127   */\n      dup3\n        /* \"#utility.yul\":3114:3133   */\n      add\n        /* \"#utility.yul\":3106:3133   */\n      swap1\n      pop\n        /* \"#utility.yul\":3143:3214   */\n      tag_133\n        /* \"#utility.yul\":3211:3212   */\n      0x00\n        /* \"#utility.yul\":3200:3209   */\n      dup4\n        /* \"#utility.yul\":3196:3213   */\n      add\n        /* \"#utility.yul\":3187:3193   */\n      dup16\n        /* \"#utility.yul\":3143:3214   */\n      tag_76\n      jump\t// in\n    tag_133:\n        /* \"#utility.yul\":3261:3270   */\n      dup2\n        /* \"#utility.yul\":3255:3259   */\n      dup2\n        /* \"#utility.yul\":3251:3271   */\n      sub\n        /* \"#utility.yul\":3246:3248   */\n      0x20\n        /* \"#utility.yul\":3235:3244   */\n      dup4\n        /* \"#utility.yul\":3231:3249   */\n      add\n        /* \"#utility.yul\":3224:3272   */\n      mstore\n        /* \"#utility.yul\":3289:3367   */\n      tag_134\n        /* \"#utility.yul\":3362:3366   */\n      dup2\n        /* \"#utility.yul\":3353:3359   */\n      dup15\n        /* \"#utility.yul\":3289:3367   */\n      tag_81\n      jump\t// in\n    tag_134:\n        /* \"#utility.yul\":3281:3367   */\n      swap1\n      pop\n        /* \"#utility.yul\":3377:3449   */\n      tag_135\n        /* \"#utility.yul\":3445:3447   */\n      0x40\n        /* \"#utility.yul\":3434:3443   */\n      dup4\n        /* \"#utility.yul\":3430:3448   */\n      add\n        /* \"#utility.yul\":3421:3427   */\n      dup14\n        /* \"#utility.yul\":3377:3449   */\n      tag_84\n      jump\t// in\n    tag_135:\n        /* \"#utility.yul\":3459:3531   */\n      tag_136\n        /* \"#utility.yul\":3527:3529   */\n      0x60\n        /* \"#utility.yul\":3516:3525   */\n      dup4\n        /* \"#utility.yul\":3512:3530   */\n      add\n        /* \"#utility.yul\":3503:3509   */\n      dup13\n        /* \"#utility.yul\":3459:3531   */\n      tag_84\n      jump\t// in\n    tag_136:\n        /* \"#utility.yul\":3541:3614   */\n      tag_137\n        /* \"#utility.yul\":3609:3612   */\n      0x80\n        /* \"#utility.yul\":3598:3607   */\n      dup4\n        /* \"#utility.yul\":3594:3613   */\n      add\n        /* \"#utility.yul\":3585:3591   */\n      dup12\n        /* \"#utility.yul\":3541:3614   */\n      tag_76\n      jump\t// in\n    tag_137:\n        /* \"#utility.yul\":3624:3697   */\n      tag_138\n        /* \"#utility.yul\":3692:3695   */\n      0xa0\n        /* \"#utility.yul\":3681:3690   */\n      dup4\n        /* \"#utility.yul\":3677:3696   */\n      add\n        /* \"#utility.yul\":3668:3674   */\n      dup11\n        /* \"#utility.yul\":3624:3697   */\n      tag_76\n      jump\t// in\n    tag_138:\n        /* \"#utility.yul\":3745:3754   */\n      dup2\n        /* \"#utility.yul\":3739:3743   */\n      dup2\n        /* \"#utility.yul\":3735:3755   */\n      sub\n        /* \"#utility.yul\":3729:3732   */\n      0xc0\n        /* \"#utility.yul\":3718:3727   */\n      dup4\n        /* \"#utility.yul\":3714:3733   */\n      add\n        /* \"#utility.yul\":3707:3756   */\n      mstore\n        /* \"#utility.yul\":3773:3851   */\n      tag_139\n        /* \"#utility.yul\":3846:3850   */\n      dup2\n        /* \"#utility.yul\":3837:3843   */\n      dup10\n        /* \"#utility.yul\":3773:3851   */\n      tag_81\n      jump\t// in\n    tag_139:\n        /* \"#utility.yul\":3765:3851   */\n      swap1\n      pop\n        /* \"#utility.yul\":3899:3908   */\n      dup2\n        /* \"#utility.yul\":3893:3897   */\n      dup2\n        /* \"#utility.yul\":3889:3909   */\n      sub\n        /* \"#utility.yul\":3883:3886   */\n      0xe0\n        /* \"#utility.yul\":3872:3881   */\n      dup4\n        /* \"#utility.yul\":3868:3887   */\n      add\n        /* \"#utility.yul\":3861:3910   */\n      mstore\n        /* \"#utility.yul\":3927:4005   */\n      tag_140\n        /* \"#utility.yul\":4000:4004   */\n      dup2\n        /* \"#utility.yul\":3991:3997   */\n      dup9\n        /* \"#utility.yul\":3927:4005   */\n      tag_81\n      jump\t// in\n    tag_140:\n        /* \"#utility.yul\":3919:4005   */\n      swap1\n      pop\n        /* \"#utility.yul\":4015:4088   */\n      tag_141\n        /* \"#utility.yul\":4083:4086   */\n      0x0100\n        /* \"#utility.yul\":4072:4081   */\n      dup4\n        /* \"#utility.yul\":4068:4087   */\n      add\n        /* \"#utility.yul\":4059:4065   */\n      dup8\n        /* \"#utility.yul\":4015:4088   */\n      tag_76\n      jump\t// in\n    tag_141:\n        /* \"#utility.yul\":4098:4165   */\n      tag_142\n        /* \"#utility.yul\":4160:4163   */\n      0x0120\n        /* \"#utility.yul\":4149:4158   */\n      dup4\n        /* \"#utility.yul\":4145:4164   */\n      add\n        /* \"#utility.yul\":4136:4142   */\n      dup7\n        /* \"#utility.yul\":4098:4165   */\n      tag_86\n      jump\t// in\n    tag_142:\n        /* \"#utility.yul\":4175:4249   */\n      tag_143\n        /* \"#utility.yul\":4244:4247   */\n      0x0140\n        /* \"#utility.yul\":4233:4242   */\n      dup4\n        /* \"#utility.yul\":4229:4248   */\n      add\n        /* \"#utility.yul\":4219:4226   */\n      dup6\n        /* \"#utility.yul\":4175:4249   */\n      tag_76\n      jump\t// in\n    tag_143:\n        /* \"#utility.yul\":4259:4333   */\n      tag_144\n        /* \"#utility.yul\":4328:4331   */\n      0x0160\n        /* \"#utility.yul\":4317:4326   */\n      dup4\n        /* \"#utility.yul\":4313:4332   */\n      add\n        /* \"#utility.yul\":4303:4310   */\n      dup5\n        /* \"#utility.yul\":4259:4333   */\n      tag_76\n      jump\t// in\n    tag_144:\n        /* \"#utility.yul\":2634:4340   */\n      swap14\n      swap13\n      pop\n      pop\n      pop\n      pop\n      pop\n      pop\n      pop\n      pop\n      pop\n      pop\n      pop\n      pop\n      pop\n      jump\t// out\n        /* \"#utility.yul\":4346:4463   */\n    tag_87:\n        /* \"#utility.yul\":4455:4456   */\n      0x00\n        /* \"#utility.yul\":4452:4453   */\n      dup1\n        /* \"#utility.yul\":4445:4457   */\n      revert\n        /* \"#utility.yul\":4469:4586   */\n    tag_88:\n        /* \"#utility.yul\":4578:4579   */\n      0x00\n        /* \"#utility.yul\":4575:4576   */\n      dup1\n        /* \"#utility.yul\":4568:4580   */\n      revert\n        /* \"#utility.yul\":4592:4772   */\n    tag_89:\n        /* \"#utility.yul\":4640:4717   */\n      0x4e487b7100000000000000000000000000000000000000000000000000000000\n        /* \"#utility.yul\":4637:4638   */\n      0x00\n        /* \"#utility.yul\":4630:4718   */\n      mstore\n        /* \"#utility.yul\":4737:4741   */\n      0x41\n        /* \"#utility.yul\":4734:4735   */\n      0x04\n        /* \"#utility.yul\":4727:4742   */\n      mstore\n        /* \"#utility.yul\":4761:4765   */\n      0x24\n        /* \"#utility.yul\":4758:4759   */\n      0x00\n        /* \"#utility.yul\":4751:4766   */\n      revert\n        /* \"#utility.yul\":4778:5059   */\n    tag_90:\n        /* \"#utility.yul\":4861:4888   */\n      tag_149\n        /* \"#utility.yul\":4883:4887   */\n      dup3\n        /* \"#utility.yul\":4861:4888   */\n      tag_80\n      jump\t// in\n    tag_149:\n        /* \"#utility.yul\":4853:4859   */\n      dup2\n        /* \"#utility.yul\":4849:4889   */\n      add\n        /* \"#utility.yul\":4991:4997   */\n      dup2\n        /* \"#utility.yul\":4979:4989   */\n      dup2\n        /* \"#utility.yul\":4976:4998   */\n      lt\n        /* \"#utility.yul\":4955:4973   */\n      0xffffffffffffffff\n        /* \"#utility.yul\":4943:4953   */\n      dup3\n        /* \"#utility.yul\":4940:4974   */\n      gt\n        /* \"#utility.yul\":4937:4999   */\n      or\n        /* \"#utility.yul\":4934:5022   */\n      iszero\n      tag_150\n      jumpi\n        /* \"#utility.yul\":5002:5020   */\n      tag_151\n      tag_89\n      jump\t// in\n    tag_151:\n        /* \"#utility.yul\":4934:5022   */\n    tag_150:\n        /* \"#utility.yul\":5042:5052   */\n      dup1\n        /* \"#utility.yul\":5038:5040   */\n      0x40\n        /* \"#utility.yul\":5031:5053   */\n      mstore\n        /* \"#utility.yul\":4821:5059   */\n      pop\n        /* \"#utility.yul\":4778:5059   */\n      pop\n      pop\n      jump\t// out\n        /* \"#utility.yul\":5065:5194   */\n    tag_91:\n        /* \"#utility.yul\":5099:5105   */\n      0x00\n        /* \"#utility.yul\":5126:5146   */\n      tag_153\n      tag_70\n      jump\t// in\n    tag_153:\n        /* \"#utility.yul\":5116:5146   */\n      swap1\n      pop\n        /* \"#utility.yul\":5155:5188   */\n      tag_154\n        /* \"#utility.yul\":5183:5187   */\n      dup3\n        /* \"#utility.yul\":5175:5181   */\n      dup3\n        /* \"#utility.yul\":5155:5188   */\n      tag_90\n      jump\t// in\n    tag_154:\n        /* \"#utility.yul\":5065:5194   */\n      swap2\n      swap1\n      pop\n      jump\t// out\n        /* \"#utility.yul\":5200:5508   */\n    tag_92:\n        /* \"#utility.yul\":5262:5266   */\n      0x00\n        /* \"#utility.yul\":5352:5370   */\n      0xffffffffffffffff\n        /* \"#utility.yul\":5344:5350   */\n      dup3\n        /* \"#utility.yul\":5341:5371   */\n      gt\n        /* \"#utility.yul\":5338:5394   */\n      iszero\n      tag_156\n      jumpi\n        /* \"#utility.yul\":5374:5392   */\n      tag_157\n      tag_89\n      jump\t// in\n    tag_157:\n        /* \"#utility.yul\":5338:5394   */\n    tag_156:\n        /* \"#utility.yul\":5412:5441   */\n      tag_158\n        /* \"#utility.yul\":5434:5440   */\n      dup3\n        /* \"#utility.yul\":5412:5441   */\n      tag_80\n      jump\t// in\n    tag_158:\n        /* \"#utility.yul\":5404:5441   */\n      swap1\n      pop\n        /* \"#utility.yul\":5496:5500   */\n      0x20\n        /* \"#utility.yul\":5490:5494   */\n      dup2\n        /* \"#utility.yul\":5486:5501   */\n      add\n        /* \"#utility.yul\":5478:5501   */\n      swap1\n      pop\n        /* \"#utility.yul\":5200:5508   */\n      swap2\n      swap1\n      pop\n      jump\t// out\n        /* \"#utility.yul\":5514:5662   */\n    tag_93:\n        /* \"#utility.yul\":5612:5618   */\n      dup3\n        /* \"#utility.yul\":5607:5610   */\n      dup2\n        /* \"#utility.yul\":5602:5605   */\n      dup4\n        /* \"#utility.yul\":5589:5619   */\n      calldatacopy\n        /* \"#utility.yul\":5653:5654   */\n      0x00\n        /* \"#utility.yul\":5644:5650   */\n      dup4\n        /* \"#utility.yul\":5639:5642   */\n      dup4\n        /* \"#utility.yul\":5635:5651   */\n      add\n        /* \"#utility.yul\":5628:5655   */\n      mstore\n        /* \"#utility.yul\":5514:5662   */\n      pop\n      pop\n      pop\n      jump\t// out\n        /* \"#utility.yul\":5668:6093   */\n    tag_94:\n        /* \"#utility.yul\":5746:5751   */\n      0x00\n        /* \"#utility.yul\":5771:5837   */\n      tag_161\n        /* \"#utility.yul\":5787:5836   */\n      tag_162\n        /* \"#utility.yul\":5829:5835   */\n      dup5\n        /* \"#utility.yul\":5787:5836   */\n      tag_92\n      jump\t// in\n    tag_162:\n        /* \"#utility.yul\":5771:5837   */\n      tag_91\n      jump\t// in\n    tag_161:\n        /* \"#utility.yul\":5762:5837   */\n      swap1\n      pop\n        /* \"#utility.yul\":5860:5866   */\n      dup3\n        /* \"#utility.yul\":5853:5858   */\n      dup2\n        /* \"#utility.yul\":5846:5867   */\n      mstore\n        /* \"#utility.yul\":5898:5902   */\n      0x20\n        /* \"#utility.yul\":5891:5896   */\n      dup2\n        /* \"#utility.yul\":5887:5903   */\n      add\n        /* \"#utility.yul\":5936:5939   */\n      dup5\n        /* \"#utility.yul\":5927:5933   */\n      dup5\n        /* \"#utility.yul\":5922:5925   */\n      dup5\n        /* \"#utility.yul\":5918:5934   */\n      add\n        /* \"#utility.yul\":5915:5940   */\n      gt\n        /* \"#utility.yul\":5912:6024   */\n      iszero\n      tag_163\n      jumpi\n        /* \"#utility.yul\":5943:6022   */\n      tag_164\n      tag_88\n      jump\t// in\n    tag_164:\n        /* \"#utility.yul\":5912:6024   */\n    tag_163:\n        /* \"#utility.yul\":6033:6087   */\n      tag_165\n        /* \"#utility.yul\":6080:6086   */\n      dup5\n        /* \"#utility.yul\":6075:6078   */\n      dup3\n        /* \"#utility.yul\":6070:6073   */\n      dup6\n        /* \"#utility.yul\":6033:6087   */\n      tag_93\n      jump\t// in\n    tag_165:\n        /* \"#utility.yul\":5752:6093   */\n      pop\n        /* \"#utility.yul\":5668:6093   */\n      swap4\n      swap3\n      pop\n      pop\n      pop\n      jump\t// out\n        /* \"#utility.yul\":6113:6453   */\n    tag_95:\n        /* \"#utility.yul\":6169:6174   */\n      0x00\n        /* \"#utility.yul\":6218:6221   */\n      dup3\n        /* \"#utility.yul\":6211:6215   */\n      0x1f\n        /* \"#utility.yul\":6203:6209   */\n      dup4\n        /* \"#utility.yul\":6199:6216   */\n      add\n        /* \"#utility.yul\":6195:6222   */\n      slt\n        /* \"#utility.yul\":6185:6307   */\n      tag_167\n      jumpi\n        /* \"#utility.yul\":6226:6305   */\n      tag_168\n      tag_87\n      jump\t// in\n    tag_168:\n        /* \"#utility.yul\":6185:6307   */\n    tag_167:\n        /* \"#utility.yul\":6343:6349   */\n      dup2\n        /* \"#utility.yul\":6330:6350   */\n      calldataload\n        /* \"#utility.yul\":6368:6447   */\n      tag_169\n        /* \"#utility.yul\":6443:6446   */\n      dup5\n        /* \"#utility.yul\":6435:6441   */\n      dup3\n        /* \"#utility.yul\":6428:6432   */\n      0x20\n        /* \"#utility.yul\":6420:6426   */\n      dup7\n        /* \"#utility.yul\":6416:6433   */\n      add\n        /* \"#utility.yul\":6368:6447   */\n      tag_94\n      jump\t// in\n    tag_169:\n        /* \"#utility.yul\":6359:6447   */\n      swap2\n      pop\n        /* \"#utility.yul\":6175:6453   */\n      pop\n        /* \"#utility.yul\":6113:6453   */\n      swap3\n      swap2\n      pop\n      pop\n      jump\t// out\n        /* \"#utility.yul\":6459:7293   */\n    tag_17:\n        /* \"#utility.yul\":6547:6553   */\n      0x00\n        /* \"#utility.yul\":6555:6561   */\n      dup1\n        /* \"#utility.yul\":6604:6606   */\n      0x40\n        /* \"#utility.yul\":6592:6601   */\n      dup4\n        /* \"#utility.yul\":6583:6590   */\n      dup6\n        /* \"#utility.yul\":6579:6602   */\n      sub\n        /* \"#utility.yul\":6575:6607   */\n      slt\n        /* \"#utility.yul\":6572:6691   */\n      iszero\n      tag_171\n      jumpi\n        /* \"#utility.yul\":6610:6689   */\n      tag_172\n      tag_71\n      jump\t// in\n    tag_172:\n        /* \"#utility.yul\":6572:6691   */\n    tag_171:\n        /* \"#utility.yul\":6758:6759   */\n      0x00\n        /* \"#utility.yul\":6747:6756   */\n      dup4\n        /* \"#utility.yul\":6743:6760   */\n      add\n        /* \"#utility.yul\":6730:6761   */\n      calldataload\n        /* \"#utility.yul\":6788:6806   */\n      0xffffffffffffffff\n        /* \"#utility.yul\":6780:6786   */\n      dup2\n        /* \"#utility.yul\":6777:6807   */\n      gt\n        /* \"#utility.yul\":6774:6891   */\n      iszero\n      tag_173\n      jumpi\n        /* \"#utility.yul\":6810:6889   */\n      tag_174\n      tag_72\n      jump\t// in\n    tag_174:\n        /* \"#utility.yul\":6774:6891   */\n    tag_173:\n        /* \"#utility.yul\":6915:6978   */\n      tag_175\n        /* \"#utility.yul\":6970:6977   */\n      dup6\n        /* \"#utility.yul\":6961:6967   */\n      dup3\n        /* \"#utility.yul\":6950:6959   */\n      dup7\n        /* \"#utility.yul\":6946:6968   */\n      add\n        /* \"#utility.yul\":6915:6978   */\n      tag_95\n      jump\t// in\n    tag_175:\n        /* \"#utility.yul\":6905:6978   */\n      swap3\n      pop\n        /* \"#utility.yul\":6701:6988   */\n      pop\n        /* \"#utility.yul\":7055:7057   */\n      0x20\n        /* \"#utility.yul\":7044:7053   */\n      dup4\n        /* \"#utility.yul\":7040:7058   */\n      add\n        /* \"#utility.yul\":7027:7059   */\n      calldataload\n        /* \"#utility.yul\":7086:7104   */\n      0xffffffffffffffff\n        /* \"#utility.yul\":7078:7084   */\n      dup2\n        /* \"#utility.yul\":7075:7105   */\n      gt\n        /* \"#utility.yul\":7072:7189   */\n      iszero\n      tag_176\n      jumpi\n        /* \"#utility.yul\":7108:7187   */\n      tag_177\n      tag_72\n      jump\t// in\n    tag_177:\n        /* \"#utility.yul\":7072:7189   */\n    tag_176:\n        /* \"#utility.yul\":7213:7276   */\n      tag_178\n        /* \"#utility.yul\":7268:7275   */\n      dup6\n        /* \"#utility.yul\":7259:7265   */\n      dup3\n        /* \"#utility.yul\":7248:7257   */\n      dup7\n        /* \"#utility.yul\":7244:7266   */\n      add\n        /* \"#utility.yul\":7213:7276   */\n      tag_95\n      jump\t// in\n    tag_178:\n        /* \"#utility.yul\":7203:7276   */\n      swap2\n      pop\n        /* \"#utility.yul\":6998:7286   */\n      pop\n        /* \"#utility.yul\":6459:7293   */\n      swap3\n      pop\n      swap3\n      swap1\n      pop\n      jump\t// out\n        /* \"#utility.yul\":7299:7521   */\n    tag_20:\n        /* \"#utility.yul\":7392:7396   */\n      0x00\n        /* \"#utility.yul\":7430:7432   */\n      0x20\n        /* \"#utility.yul\":7419:7428   */\n      dup3\n        /* \"#utility.yul\":7415:7433   */\n      add\n        /* \"#utility.yul\":7407:7433   */\n      swap1\n      pop\n        /* \"#utility.yul\":7443:7514   */\n      tag_180\n        /* \"#utility.yul\":7511:7512   */\n      0x00\n        /* \"#utility.yul\":7500:7509   */\n      dup4\n        /* \"#utility.yul\":7496:7513   */\n      add\n        /* \"#utility.yul\":7487:7493   */\n      dup5\n        /* \"#utility.yul\":7443:7514   */\n      tag_84\n      jump\t// in\n    tag_180:\n        /* \"#utility.yul\":7299:7521   */\n      swap3\n      swap2\n      pop\n      pop\n      jump\t// out\n        /* \"#utility.yul\":7527:7749   */\n    tag_24:\n        /* \"#utility.yul\":7620:7624   */\n      0x00\n        /* \"#utility.yul\":7658:7660   */\n      0x20\n        /* \"#utility.yul\":7647:7656   */\n      dup3\n        /* \"#utility.yul\":7643:7661   */\n      add\n        /* \"#utility.yul\":7635:7661   */\n      swap1\n      pop\n        /* \"#utility.yul\":7671:7742   */\n      tag_182\n        /* \"#utility.yul\":7739:7740   */\n      0x00\n        /* \"#utility.yul\":7728:7737   */\n      dup4\n        /* \"#utility.yul\":7724:7741   */\n      add\n        /* \"#utility.yul\":7715:7721   */\n      dup5\n        /* \"#utility.yul\":7671:7742   */\n      tag_76\n      jump\t// in\n    tag_182:\n        /* \"#utility.yul\":7527:7749   */\n      swap3\n      swap2\n      pop\n      pop\n      jump\t// out\n        /* \"#utility.yul\":7755:7877   */\n    tag_96:\n        /* \"#utility.yul\":7828:7852   */\n      tag_184\n        /* \"#utility.yul\":7846:7851   */\n      dup2\n        /* \"#utility.yul\":7828:7852   */\n      tag_83\n      jump\t// in\n    tag_184:\n        /* \"#utility.yul\":7821:7826   */\n      dup2\n        /* \"#utility.yul\":7818:7853   */\n      eq\n        /* \"#utility.yul\":7808:7871   */\n      tag_185\n      jumpi\n        /* \"#utility.yul\":7867:7868   */\n      0x00\n        /* \"#utility.yul\":7864:7865   */\n      dup1\n        /* \"#utility.yul\":7857:7869   */\n      revert\n        /* \"#utility.yul\":7808:7871   */\n    tag_185:\n        /* \"#utility.yul\":7755:7877   */\n      pop\n      jump\t// out\n        /* \"#utility.yul\":7883:8022   */\n    tag_97:\n        /* \"#utility.yul\":7929:7934   */\n      0x00\n        /* \"#utility.yul\":7967:7973   */\n      dup2\n        /* \"#utility.yul\":7954:7974   */\n      calldataload\n        /* \"#utility.yul\":7945:7974   */\n      swap1\n      pop\n        /* \"#utility.yul\":7983:8016   */\n      tag_187\n        /* \"#utility.yul\":8010:8015   */\n      dup2\n        /* \"#utility.yul\":7983:8016   */\n      tag_96\n      jump\t// in\n    tag_187:\n        /* \"#utility.yul\":7883:8022   */\n      swap3\n      swap2\n      pop\n      pop\n      jump\t// out\n        /* \"#utility.yul\":8028:8357   */\n    tag_27:\n        /* \"#utility.yul\":8087:8093   */\n      0x00\n        /* \"#utility.yul\":8136:8138   */\n      0x20\n        /* \"#utility.yul\":8124:8133   */\n      dup3\n        /* \"#utility.yul\":8115:8122   */\n      dup5\n        /* \"#utility.yul\":8111:8134   */\n      sub\n        /* \"#utility.yul\":8107:8139   */\n      slt\n        /* \"#utility.yul\":8104:8223   */\n      iszero\n      tag_189\n      jumpi\n        /* \"#utility.yul\":8142:8221   */\n      tag_190\n      tag_71\n      jump\t// in\n    tag_190:\n        /* \"#utility.yul\":8104:8223   */\n    tag_189:\n        /* \"#utility.yul\":8262:8263   */\n      0x00\n        /* \"#utility.yul\":8287:8340   */\n      tag_191\n        /* \"#utility.yul\":8332:8339   */\n      dup5\n        /* \"#utility.yul\":8323:8329   */\n      dup3\n        /* \"#utility.yul\":8312:8321   */\n      dup6\n        /* \"#utility.yul\":8308:8330   */\n      add\n        /* \"#utility.yul\":8287:8340   */\n      tag_97\n      jump\t// in\n    tag_191:\n        /* \"#utility.yul\":8277:8340   */\n      swap2\n      pop\n        /* \"#utility.yul\":8233:8350   */\n      pop\n        /* \"#utility.yul\":8028:8357   */\n      swap3\n      swap2\n      pop\n      pop\n      jump\t// out\n        /* \"#utility.yul\":8363:8573   */\n    tag_30:\n        /* \"#utility.yul\":8450:8454   */\n      0x00\n        /* \"#utility.yul\":8488:8490   */\n      0x20\n        /* \"#utility.yul\":8477:8486   */\n      dup3\n        /* \"#utility.yul\":8473:8491   */\n      add\n        /* \"#utility.yul\":8465:8491   */\n      swap1\n      pop\n        /* \"#utility.yul\":8501:8566   */\n      tag_193\n        /* \"#utility.yul\":8563:8564   */\n      0x00\n        /* \"#utility.yul\":8552:8561   */\n      dup4\n        /* \"#utility.yul\":8548:8565   */\n      add\n        /* \"#utility.yul\":8539:8545   */\n      dup5\n        /* \"#utility.yul\":8501:8566   */\n      tag_86\n      jump\t// in\n    tag_193:\n        /* \"#utility.yul\":8363:8573   */\n      swap3\n      swap2\n      pop\n      pop\n      jump\t// out\n        /* \"#utility.yul\":8579:9603   */\n    tag_38:\n        /* \"#utility.yul\":8860:8864   */\n      0x00\n        /* \"#utility.yul\":8898:8901   */\n      0xc0\n        /* \"#utility.yul\":8887:8896   */\n      dup3\n        /* \"#utility.yul\":8883:8902   */\n      add\n        /* \"#utility.yul\":8875:8902   */\n      swap1\n      pop\n        /* \"#utility.yul\":8912:8983   */\n      tag_195\n        /* \"#utility.yul\":8980:8981   */\n      0x00\n        /* \"#utility.yul\":8969:8978   */\n      dup4\n        /* \"#utility.yul\":8965:8982   */\n      add\n        /* \"#utility.yul\":8956:8962   */\n      dup10\n        /* \"#utility.yul\":8912:8983   */\n      tag_76\n      jump\t// in\n    tag_195:\n        /* \"#utility.yul\":9030:9039   */\n      dup2\n        /* \"#utility.yul\":9024:9028   */\n      dup2\n        /* \"#utility.yul\":9020:9040   */\n      sub\n        /* \"#utility.yul\":9015:9017   */\n      0x20\n        /* \"#utility.yul\":9004:9013   */\n      dup4\n        /* \"#utility.yul\":9000:9018   */\n      add\n        /* \"#utility.yul\":8993:9041   */\n      mstore\n        /* \"#utility.yul\":9058:9136   */\n      tag_196\n        /* \"#utility.yul\":9131:9135   */\n      dup2\n        /* \"#utility.yul\":9122:9128   */\n      dup9\n        /* \"#utility.yul\":9058:9136   */\n      tag_81\n      jump\t// in\n    tag_196:\n        /* \"#utility.yul\":9050:9136   */\n      swap1\n      pop\n        /* \"#utility.yul\":9183:9192   */\n      dup2\n        /* \"#utility.yul\":9177:9181   */\n      dup2\n        /* \"#utility.yul\":9173:9193   */\n      sub\n        /* \"#utility.yul\":9168:9170   */\n      0x40\n        /* \"#utility.yul\":9157:9166   */\n      dup4\n        /* \"#utility.yul\":9153:9171   */\n      add\n        /* \"#utility.yul\":9146:9194   */\n      mstore\n        /* \"#utility.yul\":9211:9289   */\n      tag_197\n        /* \"#utility.yul\":9284:9288   */\n      dup2\n        /* \"#utility.yul\":9275:9281   */\n      dup8\n        /* \"#utility.yul\":9211:9289   */\n      tag_81\n      jump\t// in\n    tag_197:\n        /* \"#utility.yul\":9203:9289   */\n      swap1\n      pop\n        /* \"#utility.yul\":9336:9345   */\n      dup2\n        /* \"#utility.yul\":9330:9334   */\n      dup2\n        /* \"#utility.yul\":9326:9346   */\n      sub\n        /* \"#utility.yul\":9321:9323   */\n      0x60\n        /* \"#utility.yul\":9310:9319   */\n      dup4\n        /* \"#utility.yul\":9306:9324   */\n      add\n        /* \"#utility.yul\":9299:9347   */\n      mstore\n        /* \"#utility.yul\":9364:9442   */\n      tag_198\n        /* \"#utility.yul\":9437:9441   */\n      dup2\n        /* \"#utility.yul\":9428:9434   */\n      dup7\n        /* \"#utility.yul\":9364:9442   */\n      tag_81\n      jump\t// in\n    tag_198:\n        /* \"#utility.yul\":9356:9442   */\n      swap1\n      pop\n        /* \"#utility.yul\":9452:9519   */\n      tag_199\n        /* \"#utility.yul\":9514:9517   */\n      0x80\n        /* \"#utility.yul\":9503:9512   */\n      dup4\n        /* \"#utility.yul\":9499:9518   */\n      add\n        /* \"#utility.yul\":9490:9496   */\n      dup6\n        /* \"#utility.yul\":9452:9519   */\n      tag_86\n      jump\t// in\n    tag_199:\n        /* \"#utility.yul\":9529:9596   */\n      tag_200\n        /* \"#utility.yul\":9591:9594   */\n      0xa0\n        /* \"#utility.yul\":9580:9589   */\n      dup4\n        /* \"#utility.yul\":9576:9595   */\n      add\n        /* \"#utility.yul\":9567:9573   */\n      dup5\n        /* \"#utility.yul\":9529:9596   */\n      tag_86\n      jump\t// in\n    tag_200:\n        /* \"#utility.yul\":8579:9603   */\n      swap8\n      swap7\n      pop\n      pop\n      pop\n      pop\n      pop\n      pop\n      pop\n      jump\t// out\n        /* \"#utility.yul\":9609:9789   */\n    tag_98:\n        /* \"#utility.yul\":9657:9734   */\n      0x4e487b7100000000000000000000000000000000000000000000000000000000\n        /* \"#utility.yul\":9654:9655   */\n      0x00\n        /* \"#utility.yul\":9647:9735   */\n      mstore\n        /* \"#utility.yul\":9754:9758   */\n      0x22\n        /* \"#utility.yul\":9751:9752   */\n      0x04\n        /* \"#utility.yul\":9744:9759   */\n      mstore\n        /* \"#utility.yul\":9778:9782   */\n      0x24\n        /* \"#utility.yul\":9775:9776   */\n      0x00\n        /* \"#utility.yul\":9768:9783   */\n      revert\n        /* \"#utility.yul\":9795:10115   */\n    tag_40:\n        /* \"#utility.yul\":9839:9845   */\n      0x00\n        /* \"#utility.yul\":9876:9877   */\n      0x02\n        /* \"#utility.yul\":9870:9874   */\n      dup3\n        /* \"#utility.yul\":9866:9878   */\n      div\n        /* \"#utility.yul\":9856:9878   */\n      swap1\n      pop\n        /* \"#utility.yul\":9923:9924   */\n      0x01\n        /* \"#utility.yul\":9917:9921   */\n      dup3\n        /* \"#utility.yul\":9913:9925   */\n      and\n        /* \"#utility.yul\":9944:9962   */\n      dup1\n        /* \"#utility.yul\":9934:10015   */\n      tag_203\n      jumpi\n        /* \"#utility.yul\":10000:10004   */\n      0x7f\n        /* \"#utility.yul\":9992:9998   */\n      dup3\n        /* \"#utility.yul\":9988:10005   */\n      and\n        /* \"#utility.yul\":9978:10005   */\n      swap2\n      pop\n        /* \"#utility.yul\":9934:10015   */\n    tag_203:\n        /* \"#utility.yul\":10062:10064   */\n      0x20\n        /* \"#utility.yul\":10054:10060   */\n      dup3\n        /* \"#utility.yul\":10051:10065   */\n      lt\n        /* \"#utility.yul\":10031:10049   */\n      dup2\n        /* \"#utility.yul\":10028:10066   */\n      sub\n        /* \"#utility.yul\":10025:10109   */\n      tag_204\n      jumpi\n        /* \"#utility.yul\":10081:10099   */\n      tag_205\n      tag_98\n      jump\t// in\n    tag_205:\n        /* \"#utility.yul\":10025:10109   */\n    tag_204:\n        /* \"#utility.yul\":9846:10115   */\n      pop\n        /* \"#utility.yul\":9795:10115   */\n      swap2\n      swap1\n      pop\n      jump\t// out\n\n    auxdata: 0xa2646970667358221220a344f5c13dc0ac06d9007adb938846bc9450c76fb07cc557ddaafc6532be446964736f6c634300081a0033\n}\n",
				"bytecode": {
					"linkReferences": {},
					"object": "60806040525f6005555f6006553480156016575f80fd5b50610b84806100245f395ff3fe608060405234801561000f575f80fd5b5060043610610060575f3560e01c80631e9598e21461006457806342ed37061461009f57806346817041146100cf57806393109ff3146100ed5780639f91e6bf1461011d578063f544be401461013b575b5f80fd5b61007e6004803603810190610079919061066b565b610170565b6040516100969c9b9a9998979695949392919061076e565b60405180910390f35b6100b960048036038101906100b49190610967565b6103a8565b6040516100c691906109dd565b60405180910390f35b6100d761041c565b6040516100e491906109f6565b60405180910390f35b61010760048036038101906101029190610a39565b610422565b6040516101149190610a64565b60405180910390f35b61012561043e565b60405161013291906109f6565b60405180910390f35b61015560048036038101906101509190610a39565b610444565b60405161016796959493929190610a7d565b60405180910390f35b6004602052805f5260405f205f91509050805f01549080600101805461019590610b1e565b80601f01602080910402602001604051908101604052809291908181526020018280546101c190610b1e565b801561020c5780601f106101e35761010080835404028352916020019161020c565b820191905f5260205f20905b8154815290600101906020018083116101ef57829003601f168201915b505050505090806002015f9054906101000a900473ffffffffffffffffffffffffffffffffffffffff1690806003015f9054906101000a900473ffffffffffffffffffffffffffffffffffffffff169080600401549080600501549080600601805461027790610b1e565b80601f01602080910402602001604051908101604052809291908181526020018280546102a390610b1e565b80156102ee5780601f106102c5576101008083540402835291602001916102ee565b820191905f5260205f20905b8154815290600101906020018083116102d157829003601f168201915b50505050509080600701805461030390610b1e565b80601f016020809104026020016040519081016040528092919081815260200182805461032f90610b1e565b801561037a5780601f106103515761010080835404028352916020019161037a565b820191905f5260205f20905b81548152906001019060200180831161035d57829003601f168201915b505050505090806008015490806009015f9054906101000a900460ff169080600a01549080600b015490508c565b600382805160208101820180518482526020830160208501208183528095505050505050818051602081018201805184825260208301602085012081835280955050505050505f9150915050805f015f9054906101000a900473ffffffffffffffffffffffffffffffffffffffff16905081565b60065481565b5f602052805f5260405f205f915054906101000a900460ff1681565b60055481565b6001602052805f5260405f205f91509050805f01549080600101805461046990610b1e565b80601f016020809104026020016040519081016040528092919081815260200182805461049590610b1e565b80156104e05780601f106104b7576101008083540402835291602001916104e0565b820191905f5260205f20905b8154815290600101906020018083116104c357829003601f168201915b5050505050908060020180546104f590610b1e565b80601f016020809104026020016040519081016040528092919081815260200182805461052190610b1e565b801561056c5780601f106105435761010080835404028352916020019161056c565b820191905f5260205f20905b81548152906001019060200180831161054f57829003601f168201915b50505050509080600301805461058190610b1e565b80601f01602080910402602001604051908101604052809291908181526020018280546105ad90610b1e565b80156105f85780601f106105cf576101008083540402835291602001916105f8565b820191905f5260205f20905b8154815290600101906020018083116105db57829003601f168201915b505050505090806004015f9054906101000a900460ff16908060040160019054906101000a900460ff16905086565b5f604051905090565b5f80fd5b5f80fd5b5f819050919050565b61064a81610638565b8114610654575f80fd5b50565b5f8135905061066581610641565b92915050565b5f602082840312156106805761067f610630565b5b5f61068d84828501610657565b91505092915050565b61069f81610638565b82525050565b5f81519050919050565b5f82825260208201905092915050565b8281835e5f83830152505050565b5f601f19601f8301169050919050565b5f6106e7826106a5565b6106f181856106af565b93506107018185602086016106bf565b61070a816106cd565b840191505092915050565b5f73ffffffffffffffffffffffffffffffffffffffff82169050919050565b5f61073e82610715565b9050919050565b61074e81610734565b82525050565b5f8115159050919050565b61076881610754565b82525050565b5f610180820190506107825f83018f610696565b8181036020830152610794818e6106dd565b90506107a3604083018d610745565b6107b0606083018c610745565b6107bd608083018b610696565b6107ca60a083018a610696565b81810360c08301526107dc81896106dd565b905081810360e08301526107f081886106dd565b9050610800610100830187610696565b61080e61012083018661075f565b61081c610140830185610696565b61082a610160830184610696565b9d9c50505050505050505050505050565b5f80fd5b5f80fd5b7f4e487b71000000000000000000000000000000000000000000000000000000005f52604160045260245ffd5b610879826106cd565b810181811067ffffffffffffffff8211171561089857610897610843565b5b80604052505050565b5f6108aa610627565b90506108b68282610870565b919050565b5f67ffffffffffffffff8211156108d5576108d4610843565b5b6108de826106cd565b9050602081019050919050565b828183375f83830152505050565b5f61090b610906846108bb565b6108a1565b9050828152602081018484840111156109275761092661083f565b5b6109328482856108eb565b509392505050565b5f82601f83011261094e5761094d61083b565b5b813561095e8482602086016108f9565b91505092915050565b5f806040838503121561097d5761097c610630565b5b5f83013567ffffffffffffffff81111561099a57610999610634565b5b6109a68582860161093a565b925050602083013567ffffffffffffffff8111156109c7576109c6610634565b5b6109d38582860161093a565b9150509250929050565b5f6020820190506109f05f830184610745565b92915050565b5f602082019050610a095f830184610696565b92915050565b610a1881610734565b8114610a22575f80fd5b50565b5f81359050610a3381610a0f565b92915050565b5f60208284031215610a4e57610a4d610630565b5b5f610a5b84828501610a25565b91505092915050565b5f602082019050610a775f83018461075f565b92915050565b5f60c082019050610a905f830189610696565b8181036020830152610aa281886106dd565b90508181036040830152610ab681876106dd565b90508181036060830152610aca81866106dd565b9050610ad9608083018561075f565b610ae660a083018461075f565b979650505050505050565b7f4e487b71000000000000000000000000000000000000000000000000000000005f52602260045260245ffd5b5f6002820490506001821680610b3557607f821691505b602082108103610b4857610b47610af1565b5b5091905056fea2646970667358221220a344f5c13dc0ac06d9007adb938846bc9450c76fb07cc557ddaafc6532be446964736f6c634300081a0033",
					"opcodes": "PUSH1 0x80 PUSH1 0x40 MSTORE PUSH0 PUSH1 0x5 SSTORE PUSH0 PUSH1 0x6 SSTORE CALLVALUE DUP1 ISZERO PUSH1 0x16 JUMPI PUSH0 DUP1 REVERT JUMPDEST POP PUSH2 0xB84 DUP1 PUSH2 0x24 PUSH0 CODECOPY PUSH0 RETURN INVALID PUSH1 0x80 PUSH1 0x40 MSTORE CALLVALUE DUP1 ISZERO PUSH2 0xF JUMPI PUSH0 DUP1 REVERT JUMPDEST POP PUSH1 0x4 CALLDATASIZE LT PUSH2 0x60 JUMPI PUSH0 CALLDATALOAD PUSH1 0xE0 SHR DUP1 PUSH4 0x1E9598E2 EQ PUSH2 0x64 JUMPI DUP1 PUSH4 0x42ED3706 EQ PUSH2 0x9F JUMPI DUP1 PUSH4 0x46817041 EQ PUSH2 0xCF JUMPI DUP1 PUSH4 0x93109FF3 EQ PUSH2 0xED JUMPI DUP1 PUSH4 0x9F91E6BF EQ PUSH2 0x11D JUMPI DUP1 PUSH4 0xF544BE40 EQ PUSH2 0x13B JUMPI JUMPDEST PUSH0 DUP1 REVERT JUMPDEST PUSH2 0x7E PUSH1 0x4 DUP1 CALLDATASIZE SUB DUP2 ADD SWAP1 PUSH2 0x79 SWAP2 SWAP1 PUSH2 0x66B JUMP JUMPDEST PUSH2 0x170 JUMP JUMPDEST PUSH1 0x40 MLOAD PUSH2 0x96 SWAP13 SWAP12 SWAP11 SWAP10 SWAP9 SWAP8 SWAP7 SWAP6 SWAP5 SWAP4 SWAP3 SWAP2 SWAP1 PUSH2 0x76E JUMP JUMPDEST PUSH1 0x40 MLOAD DUP1 SWAP2 SUB SWAP1 RETURN JUMPDEST PUSH2 0xB9 PUSH1 0x4 DUP1 CALLDATASIZE SUB DUP2 ADD SWAP1 PUSH2 0xB4 SWAP2 SWAP1 PUSH2 0x967 JUMP JUMPDEST PUSH2 0x3A8 JUMP JUMPDEST PUSH1 0x40 MLOAD PUSH2 0xC6 SWAP2 SWAP1 PUSH2 0x9DD JUMP JUMPDEST PUSH1 0x40 MLOAD DUP1 SWAP2 SUB SWAP1 RETURN JUMPDEST PUSH2 0xD7 PUSH2 0x41C JUMP JUMPDEST PUSH1 0x40 MLOAD PUSH2 0xE4 SWAP2 SWAP1 PUSH2 0x9F6 JUMP JUMPDEST PUSH1 0x40 MLOAD DUP1 SWAP2 SUB SWAP1 RETURN JUMPDEST PUSH2 0x107 PUSH1 0x4 DUP1 CALLDATASIZE SUB DUP2 ADD SWAP1 PUSH2 0x102 SWAP2 SWAP1 PUSH2 0xA39 JUMP JUMPDEST PUSH2 0x422 JUMP JUMPDEST PUSH1 0x40 MLOAD PUSH2 0x114 SWAP2 SWAP1 PUSH2 0xA64 JUMP JUMPDEST PUSH1 0x40 MLOAD DUP1 SWAP2 SUB SWAP1 RETURN JUMPDEST PUSH2 0x125 PUSH2 0x43E JUMP JUMPDEST PUSH1 0x40 MLOAD PUSH2 0x132 SWAP2 SWAP1 PUSH2 0x9F6 JUMP JUMPDEST PUSH1 0x40 MLOAD DUP1 SWAP2 SUB SWAP1 RETURN JUMPDEST PUSH2 0x155 PUSH1 0x4 DUP1 CALLDATASIZE SUB DUP2 ADD SWAP1 PUSH2 0x150 SWAP2 SWAP1 PUSH2 0xA39 JUMP JUMPDEST PUSH2 0x444 JUMP JUMPDEST PUSH1 0x40 MLOAD PUSH2 0x167 SWAP7 SWAP6 SWAP5 SWAP4 SWAP3 SWAP2 SWAP1 PUSH2 0xA7D JUMP JUMPDEST PUSH1 0x40 MLOAD DUP1 SWAP2 SUB SWAP1 RETURN JUMPDEST PUSH1 0x4 PUSH1 0x20 MSTORE DUP1 PUSH0 MSTORE PUSH1 0x40 PUSH0 KECCAK256 PUSH0 SWAP2 POP SWAP1 POP DUP1 PUSH0 ADD SLOAD SWAP1 DUP1 PUSH1 0x1 ADD DUP1 SLOAD PUSH2 0x195 SWAP1 PUSH2 0xB1E JUMP JUMPDEST DUP1 PUSH1 0x1F ADD PUSH1 0x20 DUP1 SWAP2 DIV MUL PUSH1 0x20 ADD PUSH1 0x40 MLOAD SWAP1 DUP2 ADD PUSH1 0x40 MSTORE DUP1 SWAP3 SWAP2 SWAP1 DUP2 DUP2 MSTORE PUSH1 0x20 ADD DUP3 DUP1 SLOAD PUSH2 0x1C1 SWAP1 PUSH2 0xB1E JUMP JUMPDEST DUP1 ISZERO PUSH2 0x20C JUMPI DUP1 PUSH1 0x1F LT PUSH2 0x1E3 JUMPI PUSH2 0x100 DUP1 DUP4 SLOAD DIV MUL DUP4 MSTORE SWAP2 PUSH1 0x20 ADD SWAP2 PUSH2 0x20C JUMP JUMPDEST DUP3 ADD SWAP2 SWAP1 PUSH0 MSTORE PUSH1 0x20 PUSH0 KECCAK256 SWAP1 JUMPDEST DUP2 SLOAD DUP2 MSTORE SWAP1 PUSH1 0x1 ADD SWAP1 PUSH1 0x20 ADD DUP1 DUP4 GT PUSH2 0x1EF JUMPI DUP3 SWAP1 SUB PUSH1 0x1F AND DUP3 ADD SWAP2 JUMPDEST POP POP POP POP POP SWAP1 DUP1 PUSH1 0x2 ADD PUSH0 SWAP1 SLOAD SWAP1 PUSH2 0x100 EXP SWAP1 DIV PUSH20 0xFFFFFFFFFFFFFFFFFFFFFFFFFFFFFFFFFFFFFFFF AND SWAP1 DUP1 PUSH1 0x3 ADD PUSH0 SWAP1 SLOAD SWAP1 PUSH2 0x100 EXP SWAP1 DIV PUSH20 0xFFFFFFFFFFFFFFFFFFFFFFFFFFFFFFFFFFFFFFFF AND SWAP1 DUP1 PUSH1 0x4 ADD SLOAD SWAP1 DUP1 PUSH1 0x5 ADD SLOAD SWAP1 DUP1 PUSH1 0x6 ADD DUP1 SLOAD PUSH2 0x277 SWAP1 PUSH2 0xB1E JUMP JUMPDEST DUP1 PUSH1 0x1F ADD PUSH1 0x20 DUP1 SWAP2 DIV MUL PUSH1 0x20 ADD PUSH1 0x40 MLOAD SWAP1 DUP2 ADD PUSH1 0x40 MSTORE DUP1 SWAP3 SWAP2 SWAP1 DUP2 DUP2 MSTORE PUSH1 0x20 ADD DUP3 DUP1 SLOAD PUSH2 0x2A3 SWAP1 PUSH2 0xB1E JUMP JUMPDEST DUP1 ISZERO PUSH2 0x2EE JUMPI DUP1 PUSH1 0x1F LT PUSH2 0x2C5 JUMPI PUSH2 0x100 DUP1 DUP4 SLOAD DIV MUL DUP4 MSTORE SWAP2 PUSH1 0x20 ADD SWAP2 PUSH2 0x2EE JUMP JUMPDEST DUP3 ADD SWAP2 SWAP1 PUSH0 MSTORE PUSH1 0x20 PUSH0 KECCAK256 SWAP1 JUMPDEST DUP2 SLOAD DUP2 MSTORE SWAP1 PUSH1 0x1 ADD SWAP1 PUSH1 0x20 ADD DUP1 DUP4 GT PUSH2 0x2D1 JUMPI DUP3 SWAP1 SUB PUSH1 0x1F AND DUP3 ADD SWAP2 JUMPDEST POP POP POP POP POP SWAP1 DUP1 PUSH1 0x7 ADD DUP1 SLOAD PUSH2 0x303 SWAP1 PUSH2 0xB1E JUMP JUMPDEST DUP1 PUSH1 0x1F ADD PUSH1 0x20 DUP1 SWAP2 DIV MUL PUSH1 0x20 ADD PUSH1 0x40 MLOAD SWAP1 DUP2 ADD PUSH1 0x40 MSTORE DUP1 SWAP3 SWAP2 SWAP1 DUP2 DUP2 MSTORE PUSH1 0x20 ADD DUP3 DUP1 SLOAD PUSH2 0x32F SWAP1 PUSH2 0xB1E JUMP JUMPDEST DUP1 ISZERO PUSH2 0x37A JUMPI DUP1 PUSH1 0x1F LT PUSH2 0x351 JUMPI PUSH2 0x100 DUP1 DUP4 SLOAD DIV MUL DUP4 MSTORE SWAP2 PUSH1 0x20 ADD SWAP2 PUSH2 0x37A JUMP JUMPDEST DUP3 ADD SWAP2 SWAP1 PUSH0 MSTORE PUSH1 0x20 PUSH0 KECCAK256 SWAP1 JUMPDEST DUP2 SLOAD DUP2 MSTORE SWAP1 PUSH1 0x1 ADD SWAP1 PUSH1 0x20 ADD DUP1 DUP4 GT PUSH2 0x35D JUMPI DUP3 SWAP1 SUB PUSH1 0x1F AND DUP3 ADD SWAP2 JUMPDEST POP POP POP POP POP SWAP1 DUP1 PUSH1 0x8 ADD SLOAD SWAP1 DUP1 PUSH1 0x9 ADD PUSH0 SWAP1 SLOAD SWAP1 PUSH2 0x100 EXP SWAP1 DIV PUSH1 0xFF AND SWAP1 DUP1 PUSH1 0xA ADD SLOAD SWAP1 DUP1 PUSH1 0xB ADD SLOAD SWAP1 POP DUP13 JUMP JUMPDEST PUSH1 0x3 DUP3 DUP1 MLOAD PUSH1 0x20 DUP2 ADD DUP3 ADD DUP1 MLOAD DUP5 DUP3 MSTORE PUSH1 0x20 DUP4 ADD PUSH1 0x20 DUP6 ADD KECCAK256 DUP2 DUP4 MSTORE DUP1 SWAP6 POP POP POP POP POP POP DUP2 DUP1 MLOAD PUSH1 0x20 DUP2 ADD DUP3 ADD DUP1 MLOAD DUP5 DUP3 MSTORE PUSH1 0x20 DUP4 ADD PUSH1 0x20 DUP6 ADD KECCAK256 DUP2 DUP4 MSTORE DUP1 SWAP6 POP POP POP POP POP POP PUSH0 SWAP2 POP SWAP2 POP POP DUP1 PUSH0 ADD PUSH0 SWAP1 SLOAD SWAP1 PUSH2 0x100 EXP SWAP1 DIV PUSH20 0xFFFFFFFFFFFFFFFFFFFFFFFFFFFFFFFFFFFFFFFF AND SWAP1 POP DUP2 JUMP JUMPDEST PUSH1 0x6 SLOAD DUP2 JUMP JUMPDEST PUSH0 PUSH1 0x20 MSTORE DUP1 PUSH0 MSTORE PUSH1 0x40 PUSH0 KECCAK256 PUSH0 SWAP2 POP SLOAD SWAP1 PUSH2 0x100 EXP SWAP1 DIV PUSH1 0xFF AND DUP2 JUMP JUMPDEST PUSH1 0x5 SLOAD DUP2 JUMP JUMPDEST PUSH1 0x1 PUSH1 0x20 MSTORE DUP1 PUSH0 MSTORE PUSH1 0x40 PUSH0 KECCAK256 PUSH0 SWAP2 POP SWAP1 POP DUP1 PUSH0 ADD SLOAD SWAP1 DUP1 PUSH1 0x1 ADD DUP1 SLOAD PUSH2 0x469 SWAP1 PUSH2 0xB1E JUMP JUMPDEST DUP1 PUSH1 0x1F ADD PUSH1 0x20 DUP1 SWAP2 DIV MUL PUSH1 0x20 ADD PUSH1 0x40 MLOAD SWAP1 DUP2 ADD PUSH1 0x40 MSTORE DUP1 SWAP3 SWAP2 SWAP1 DUP2 DUP2 MSTORE PUSH1 0x20 ADD DUP3 DUP1 SLOAD PUSH2 0x495 SWAP1 PUSH2 0xB1E JUMP JUMPDEST DUP1 ISZERO PUSH2 0x4E0 JUMPI DUP1 PUSH1 0x1F LT PUSH2 0x4B7 JUMPI PUSH2 0x100 DUP1 DUP4 SLOAD DIV MUL DUP4 MSTORE SWAP2 PUSH1 0x20 ADD SWAP2 PUSH2 0x4E0 JUMP JUMPDEST DUP3 ADD SWAP2 SWAP1 PUSH0 MSTORE PUSH1 0x20 PUSH0 KECCAK256 SWAP1 JUMPDEST DUP2 SLOAD DUP2 MSTORE SWAP1 PUSH1 0x1 ADD SWAP1 PUSH1 0x20 ADD DUP1 DUP4 GT PUSH2 0x4C3 JUMPI DUP3 SWAP1 SUB PUSH1 0x1F AND DUP3 ADD SWAP2 JUMPDEST POP POP POP POP POP SWAP1 DUP1 PUSH1 0x2 ADD DUP1 SLOAD PUSH2 0x4F5 SWAP1 PUSH2 0xB1E JUMP JUMPDEST DUP1 PUSH1 0x1F ADD PUSH1 0x20 DUP1 SWAP2 DIV MUL PUSH1 0x20 ADD PUSH1 0x40 MLOAD SWAP1 DUP2 ADD PUSH1 0x40 MSTORE DUP1 SWAP3 SWAP2 SWAP1 DUP2 DUP2 MSTORE PUSH1 0x20 ADD DUP3 DUP1 SLOAD PUSH2 0x521 SWAP1 PUSH2 0xB1E JUMP JUMPDEST DUP1 ISZERO PUSH2 0x56C JUMPI DUP1 PUSH1 0x1F LT PUSH2 0x543 JUMPI PUSH2 0x100 DUP1 DUP4 SLOAD DIV MUL DUP4 MSTORE SWAP2 PUSH1 0x20 ADD SWAP2 PUSH2 0x56C JUMP JUMPDEST DUP3 ADD SWAP2 SWAP1 PUSH0 MSTORE PUSH1 0x20 PUSH0 KECCAK256 SWAP1 JUMPDEST DUP2 SLOAD DUP2 MSTORE SWAP1 PUSH1 0x1 ADD SWAP1 PUSH1 0x20 ADD DUP1 DUP4 GT PUSH2 0x54F JUMPI DUP3 SWAP1 SUB PUSH1 0x1F AND DUP3 ADD SWAP2 JUMPDEST POP POP POP POP POP SWAP1 DUP1 PUSH1 0x3 ADD DUP1 SLOAD PUSH2 0x581 SWAP1 PUSH2 0xB1E JUMP JUMPDEST DUP1 PUSH1 0x1F ADD PUSH1 0x20 DUP1 SWAP2 DIV MUL PUSH1 0x20 ADD PUSH1 0x40 MLOAD SWAP1 DUP2 ADD PUSH1 0x40 MSTORE DUP1 SWAP3 SWAP2 SWAP1 DUP2 DUP2 MSTORE PUSH1 0x20 ADD DUP3 DUP1 SLOAD PUSH2 0x5AD SWAP1 PUSH2 0xB1E JUMP JUMPDEST DUP1 ISZERO PUSH2 0x5F8 JUMPI DUP1 PUSH1 0x1F LT PUSH2 0x5CF JUMPI PUSH2 0x100 DUP1 DUP4 SLOAD DIV MUL DUP4 MSTORE SWAP2 PUSH1 0x20 ADD SWAP2 PUSH2 0x5F8 JUMP JUMPDEST DUP3 ADD SWAP2 SWAP1 PUSH0 MSTORE PUSH1 0x20 PUSH0 KECCAK256 SWAP1 JUMPDEST DUP2 SLOAD DUP2 MSTORE SWAP1 PUSH1 0x1 ADD SWAP1 PUSH1 0x20 ADD DUP1 DUP4 GT PUSH2 0x5DB JUMPI DUP3 SWAP1 SUB PUSH1 0x1F AND DUP3 ADD SWAP2 JUMPDEST POP POP POP POP POP SWAP1 DUP1 PUSH1 0x4 ADD PUSH0 SWAP1 SLOAD SWAP1 PUSH2 0x100 EXP SWAP1 DIV PUSH1 0xFF AND SWAP1 DUP1 PUSH1 0x4 ADD PUSH1 0x1 SWAP1 SLOAD SWAP1 PUSH2 0x100 EXP SWAP1 DIV PUSH1 0xFF AND SWAP1 POP DUP7 JUMP JUMPDEST PUSH0 PUSH1 0x40 MLOAD SWAP1 POP SWAP1 JUMP JUMPDEST PUSH0 DUP1 REVERT JUMPDEST PUSH0 DUP1 REVERT JUMPDEST PUSH0 DUP2 SWAP1 POP SWAP2 SWAP1 POP JUMP JUMPDEST PUSH2 0x64A DUP2 PUSH2 0x638 JUMP JUMPDEST DUP2 EQ PUSH2 0x654 JUMPI PUSH0 DUP1 REVERT JUMPDEST POP JUMP JUMPDEST PUSH0 DUP2 CALLDATALOAD SWAP1 POP PUSH2 0x665 DUP2 PUSH2 0x641 JUMP JUMPDEST SWAP3 SWAP2 POP POP JUMP JUMPDEST PUSH0 PUSH1 0x20 DUP3 DUP5 SUB SLT ISZERO PUSH2 0x680 JUMPI PUSH2 0x67F PUSH2 0x630 JUMP JUMPDEST JUMPDEST PUSH0 PUSH2 0x68D DUP5 DUP3 DUP6 ADD PUSH2 0x657 JUMP JUMPDEST SWAP2 POP POP SWAP3 SWAP2 POP POP JUMP JUMPDEST PUSH2 0x69F DUP2 PUSH2 0x638 JUMP JUMPDEST DUP3 MSTORE POP POP JUMP JUMPDEST PUSH0 DUP2 MLOAD SWAP1 POP SWAP2 SWAP1 POP JUMP JUMPDEST PUSH0 DUP3 DUP3 MSTORE PUSH1 0x20 DUP3 ADD SWAP1 POP SWAP3 SWAP2 POP POP JUMP JUMPDEST DUP3 DUP2 DUP4 MCOPY PUSH0 DUP4 DUP4 ADD MSTORE POP POP POP JUMP JUMPDEST PUSH0 PUSH1 0x1F NOT PUSH1 0x1F DUP4 ADD AND SWAP1 POP SWAP2 SWAP1 POP JUMP JUMPDEST PUSH0 PUSH2 0x6E7 DUP3 PUSH2 0x6A5 JUMP JUMPDEST PUSH2 0x6F1 DUP2 DUP6 PUSH2 0x6AF JUMP JUMPDEST SWAP4 POP PUSH2 0x701 DUP2 DUP6 PUSH1 0x20 DUP7 ADD PUSH2 0x6BF JUMP JUMPDEST PUSH2 0x70A DUP2 PUSH2 0x6CD JUMP JUMPDEST DUP5 ADD SWAP2 POP POP SWAP3 SWAP2 POP POP JUMP JUMPDEST PUSH0 PUSH20 0xFFFFFFFFFFFFFFFFFFFFFFFFFFFFFFFFFFFFFFFF DUP3 AND SWAP1 POP SWAP2 SWAP1 POP JUMP JUMPDEST PUSH0 PUSH2 0x73E DUP3 PUSH2 0x715 JUMP JUMPDEST SWAP1 POP SWAP2 SWAP1 POP JUMP JUMPDEST PUSH2 0x74E DUP2 PUSH2 0x734 JUMP JUMPDEST DUP3 MSTORE POP POP JUMP JUMPDEST PUSH0 DUP2 ISZERO ISZERO SWAP1 POP SWAP2 SWAP1 POP JUMP JUMPDEST PUSH2 0x768 DUP2 PUSH2 0x754 JUMP JUMPDEST DUP3 MSTORE POP POP JUMP JUMPDEST PUSH0 PUSH2 0x180 DUP3 ADD SWAP1 POP PUSH2 0x782 PUSH0 DUP4 ADD DUP16 PUSH2 0x696 JUMP JUMPDEST DUP2 DUP2 SUB PUSH1 0x20 DUP4 ADD MSTORE PUSH2 0x794 DUP2 DUP15 PUSH2 0x6DD JUMP JUMPDEST SWAP1 POP PUSH2 0x7A3 PUSH1 0x40 DUP4 ADD DUP14 PUSH2 0x745 JUMP JUMPDEST PUSH2 0x7B0 PUSH1 0x60 DUP4 ADD DUP13 PUSH2 0x745 JUMP JUMPDEST PUSH2 0x7BD PUSH1 0x80 DUP4 ADD DUP12 PUSH2 0x696 JUMP JUMPDEST PUSH2 0x7CA PUSH1 0xA0 DUP4 ADD DUP11 PUSH2 0x696 JUMP JUMPDEST DUP2 DUP2 SUB PUSH1 0xC0 DUP4 ADD MSTORE PUSH2 0x7DC DUP2 DUP10 PUSH2 0x6DD JUMP JUMPDEST SWAP1 POP DUP2 DUP2 SUB PUSH1 0xE0 DUP4 ADD MSTORE PUSH2 0x7F0 DUP2 DUP9 PUSH2 0x6DD JUMP JUMPDEST SWAP1 POP PUSH2 0x800 PUSH2 0x100 DUP4 ADD DUP8 PUSH2 0x696 JUMP JUMPDEST PUSH2 0x80E PUSH2 0x120 DUP4 ADD DUP7 PUSH2 0x75F JUMP JUMPDEST PUSH2 0x81C PUSH2 0x140 DUP4 ADD DUP6 PUSH2 0x696 JUMP JUMPDEST PUSH2 0x82A PUSH2 0x160 DUP4 ADD DUP5 PUSH2 0x696 JUMP JUMPDEST SWAP14 SWAP13 POP POP POP POP POP POP POP POP POP POP POP POP POP JUMP JUMPDEST PUSH0 DUP1 REVERT JUMPDEST PUSH0 DUP1 REVERT JUMPDEST PUSH32 0x4E487B7100000000000000000000000000000000000000000000000000000000 PUSH0 MSTORE PUSH1 0x41 PUSH1 0x4 MSTORE PUSH1 0x24 PUSH0 REVERT JUMPDEST PUSH2 0x879 DUP3 PUSH2 0x6CD JUMP JUMPDEST DUP2 ADD DUP2 DUP2 LT PUSH8 0xFFFFFFFFFFFFFFFF DUP3 GT OR ISZERO PUSH2 0x898 JUMPI PUSH2 0x897 PUSH2 0x843 JUMP JUMPDEST JUMPDEST DUP1 PUSH1 0x40 MSTORE POP POP POP JUMP JUMPDEST PUSH0 PUSH2 0x8AA PUSH2 0x627 JUMP JUMPDEST SWAP1 POP PUSH2 0x8B6 DUP3 DUP3 PUSH2 0x870 JUMP JUMPDEST SWAP2 SWAP1 POP JUMP JUMPDEST PUSH0 PUSH8 0xFFFFFFFFFFFFFFFF DUP3 GT ISZERO PUSH2 0x8D5 JUMPI PUSH2 0x8D4 PUSH2 0x843 JUMP JUMPDEST JUMPDEST PUSH2 0x8DE DUP3 PUSH2 0x6CD JUMP JUMPDEST SWAP1 POP PUSH1 0x20 DUP2 ADD SWAP1 POP SWAP2 SWAP1 POP JUMP JUMPDEST DUP3 DUP2 DUP4 CALLDATACOPY PUSH0 DUP4 DUP4 ADD MSTORE POP POP POP JUMP JUMPDEST PUSH0 PUSH2 0x90B PUSH2 0x906 DUP5 PUSH2 0x8BB JUMP JUMPDEST PUSH2 0x8A1 JUMP JUMPDEST SWAP1 POP DUP3 DUP2 MSTORE PUSH1 0x20 DUP2 ADD DUP5 DUP5 DUP5 ADD GT ISZERO PUSH2 0x927 JUMPI PUSH2 0x926 PUSH2 0x83F JUMP JUMPDEST JUMPDEST PUSH2 0x932 DUP5 DUP3 DUP6 PUSH2 0x8EB JUMP JUMPDEST POP SWAP4 SWAP3 POP POP POP JUMP JUMPDEST PUSH0 DUP3 PUSH1 0x1F DUP4 ADD SLT PUSH2 0x94E JUMPI PUSH2 0x94D PUSH2 0x83B JUMP JUMPDEST JUMPDEST DUP2 CALLDATALOAD PUSH2 0x95E DUP5 DUP3 PUSH1 0x20 DUP7 ADD PUSH2 0x8F9 JUMP JUMPDEST SWAP2 POP POP SWAP3 SWAP2 POP POP JUMP JUMPDEST PUSH0 DUP1 PUSH1 0x40 DUP4 DUP6 SUB SLT ISZERO PUSH2 0x97D JUMPI PUSH2 0x97C PUSH2 0x630 JUMP JUMPDEST JUMPDEST PUSH0 DUP4 ADD CALLDATALOAD PUSH8 0xFFFFFFFFFFFFFFFF DUP2 GT ISZERO PUSH2 0x99A JUMPI PUSH2 0x999 PUSH2 0x634 JUMP JUMPDEST JUMPDEST PUSH2 0x9A6 DUP6 DUP3 DUP7 ADD PUSH2 0x93A JUMP JUMPDEST SWAP3 POP POP PUSH1 0x20 DUP4 ADD CALLDATALOAD PUSH8 0xFFFFFFFFFFFFFFFF DUP2 GT ISZERO PUSH2 0x9C7 JUMPI PUSH2 0x9C6 PUSH2 0x634 JUMP JUMPDEST JUMPDEST PUSH2 0x9D3 DUP6 DUP3 DUP7 ADD PUSH2 0x93A JUMP JUMPDEST SWAP2 POP POP SWAP3 POP SWAP3 SWAP1 POP JUMP JUMPDEST PUSH0 PUSH1 0x20 DUP3 ADD SWAP1 POP PUSH2 0x9F0 PUSH0 DUP4 ADD DUP5 PUSH2 0x745 JUMP JUMPDEST SWAP3 SWAP2 POP POP JUMP JUMPDEST PUSH0 PUSH1 0x20 DUP3 ADD SWAP1 POP PUSH2 0xA09 PUSH0 DUP4 ADD DUP5 PUSH2 0x696 JUMP JUMPDEST SWAP3 SWAP2 POP POP JUMP JUMPDEST PUSH2 0xA18 DUP2 PUSH2 0x734 JUMP JUMPDEST DUP2 EQ PUSH2 0xA22 JUMPI PUSH0 DUP1 REVERT JUMPDEST POP JUMP JUMPDEST PUSH0 DUP2 CALLDATALOAD SWAP1 POP PUSH2 0xA33 DUP2 PUSH2 0xA0F JUMP JUMPDEST SWAP3 SWAP2 POP POP JUMP JUMPDEST PUSH0 PUSH1 0x20 DUP3 DUP5 SUB SLT ISZERO PUSH2 0xA4E JUMPI PUSH2 0xA4D PUSH2 0x630 JUMP JUMPDEST JUMPDEST PUSH0 PUSH2 0xA5B DUP5 DUP3 DUP6 ADD PUSH2 0xA25 JUMP JUMPDEST SWAP2 POP POP SWAP3 SWAP2 POP POP JUMP JUMPDEST PUSH0 PUSH1 0x20 DUP3 ADD SWAP1 POP PUSH2 0xA77 PUSH0 DUP4 ADD DUP5 PUSH2 0x75F JUMP JUMPDEST SWAP3 SWAP2 POP POP JUMP JUMPDEST PUSH0 PUSH1 0xC0 DUP3 ADD SWAP1 POP PUSH2 0xA90 PUSH0 DUP4 ADD DUP10 PUSH2 0x696 JUMP JUMPDEST DUP2 DUP2 SUB PUSH1 0x20 DUP4 ADD MSTORE PUSH2 0xAA2 DUP2 DUP9 PUSH2 0x6DD JUMP JUMPDEST SWAP1 POP DUP2 DUP2 SUB PUSH1 0x40 DUP4 ADD MSTORE PUSH2 0xAB6 DUP2 DUP8 PUSH2 0x6DD JUMP JUMPDEST SWAP1 POP DUP2 DUP2 SUB PUSH1 0x60 DUP4 ADD MSTORE PUSH2 0xACA DUP2 DUP7 PUSH2 0x6DD JUMP JUMPDEST SWAP1 POP PUSH2 0xAD9 PUSH1 0x80 DUP4 ADD DUP6 PUSH2 0x75F JUMP JUMPDEST PUSH2 0xAE6 PUSH1 0xA0 DUP4 ADD DUP5 PUSH2 0x75F JUMP JUMPDEST SWAP8 SWAP7 POP POP POP POP POP POP POP JUMP JUMPDEST PUSH32 0x4E487B7100000000000000000000000000000000000000000000000000000000 PUSH0 MSTORE PUSH1 0x22 PUSH1 0x4 MSTORE PUSH1 0x24 PUSH0 REVERT JUMPDEST PUSH0 PUSH1 0x2 DUP3 DIV SWAP1 POP PUSH1 0x1 DUP3 AND DUP1 PUSH2 0xB35 JUMPI PUSH1 0x7F DUP3 AND SWAP2 POP JUMPDEST PUSH1 0x20 DUP3 LT DUP2 SUB PUSH2 0xB48 JUMPI PUSH2 0xB47 PUSH2 0xAF1 JUMP JUMPDEST JUMPDEST POP SWAP2 SWAP1 POP JUMP INVALID LOG2 PUSH5 0x6970667358 0x22 SLT KECCAK256 LOG3 PREVRANDAO CREATE2 0xC1 RETURNDATASIZE 0xC0 0xAC MOD 0xD9 STOP PUSH27 0xDB938846BC9450C76FB07CC557DDAAFC6532BE446964736F6C6343 STOP ADDMOD BYTE STOP CALLER "
				},
				"gasEstimates": {
					"creation": {
						"codeDepositCost": "589600",
						"executionCost": "10633",
						"totalCost": "600233"
					},
					"external": {
						"Elections(uint256)": "infinite",
						"Moderators(address)": "2876",
						"Persons(address)": "infinite",
						"Positions(string,string)": "infinite",
						"candidateId()": "2491",
						"electionsCounter()": "2447"
					}
				},
				"methodIdentifiers": {
					"Elections(uint256)": "1e9598e2",
					"Moderators(address)": "93109ff3",
					"Persons(address)": "f544be40",
					"Positions(string,string)": "42ed3706",
					"candidateId()": "9f91e6bf",
					"electionsCounter()": "46817041"
				}
			},
			"storageLayout": {
				"storage": [
					{
						"astId": 31,
						"contract": "smartC/contracts/lib/storage.sol:Storage",
						"label": "Moderators",
						"offset": 0,
						"slot": "0",
						"type": "t_mapping(t_address,t_bool)"
					},
					{
						"astId": 49,
						"contract": "smartC/contracts/lib/storage.sol:Storage",
						"label": "Persons",
						"offset": 0,
						"slot": "1",
						"type": "t_mapping(t_address,t_struct(Person)44_storage)"
					},
					{
						"astId": 53,
						"contract": "smartC/contracts/lib/storage.sol:Storage",
						"label": "allPersons",
						"offset": 0,
						"slot": "2",
						"type": "t_array(t_struct(Person)44_storage)dyn_storage"
					},
					{
						"astId": 63,
						"contract": "smartC/contracts/lib/storage.sol:Storage",
						"label": "Positions",
						"offset": 0,
						"slot": "3",
						"type": "t_mapping(t_string_memory_ptr,t_mapping(t_string_memory_ptr,t_struct(Position)56_storage))"
					},
					{
						"astId": 97,
						"contract": "smartC/contracts/lib/storage.sol:Storage",
						"label": "Elections",
						"offset": 0,
						"slot": "4",
						"type": "t_mapping(t_uint256,t_struct(Election)92_storage)"
					},
					{
						"astId": 100,
						"contract": "smartC/contracts/lib/storage.sol:Storage",
						"label": "candidateId",
						"offset": 0,
						"slot": "5",
						"type": "t_uint256"
					},
					{
						"astId": 103,
						"contract": "smartC/contracts/lib/storage.sol:Storage",
						"label": "electionsCounter",
						"offset": 0,
						"slot": "6",
						"type": "t_uint256"
					}
				],
				"types": {
					"t_address": {
						"encoding": "inplace",
						"label": "address",
						"numberOfBytes": "20"
					},
					"t_array(t_struct(Person)44_storage)dyn_storage": {
						"base": "t_struct(Person)44_storage",
						"encoding": "dynamic_array",
						"label": "struct Storage.Person[]",
						"numberOfBytes": "32"
					},
					"t_bool": {
						"encoding": "inplace",
						"label": "bool",
						"numberOfBytes": "1"
					},
					"t_mapping(t_address,t_bool)": {
						"encoding": "mapping",
						"key": "t_address",
						"label": "mapping(address => bool)",
						"numberOfBytes": "32",
						"value": "t_bool"
					},
					"t_mapping(t_address,t_struct(Person)44_storage)": {
						"encoding": "mapping",
						"key": "t_address",
						"label": "mapping(address => struct Storage.Person)",
						"numberOfBytes": "32",
						"value": "t_struct(Person)44_storage"
					},
					"t_mapping(t_string_memory_ptr,t_mapping(t_string_memory_ptr,t_struct(Position)56_storage))": {
						"encoding": "mapping",
						"key": "t_string_memory_ptr",
						"label": "mapping(string => mapping(string => struct Storage.Position))",
						"numberOfBytes": "32",
						"value": "t_mapping(t_string_memory_ptr,t_struct(Position)56_storage)"
					},
					"t_mapping(t_string_memory_ptr,t_struct(Position)56_storage)": {
						"encoding": "mapping",
						"key": "t_string_memory_ptr",
						"label": "mapping(string => struct Storage.Position)",
						"numberOfBytes": "32",
						"value": "t_struct(Position)56_storage"
					},
					"t_mapping(t_uint256,t_bool)": {
						"encoding": "mapping",
						"key": "t_uint256",
						"label": "mapping(uint256 => bool)",
						"numberOfBytes": "32",
						"value": "t_bool"
					},
					"t_mapping(t_uint256,t_struct(Election)92_storage)": {
						"encoding": "mapping",
						"key": "t_uint256",
						"label": "mapping(uint256 => struct Storage.Election)",
						"numberOfBytes": "32",
						"value": "t_struct(Election)92_storage"
					},
					"t_string_memory_ptr": {
						"encoding": "bytes",
						"label": "string",
						"numberOfBytes": "32"
					},
					"t_string_storage": {
						"encoding": "bytes",
						"label": "string",
						"numberOfBytes": "32"
					},
					"t_struct(Election)92_storage": {
						"encoding": "inplace",
						"label": "struct Storage.Election",
						"members": [
							{
								"astId": 65,
								"contract": "smartC/contracts/lib/storage.sol:Storage",
								"label": "Id",
								"offset": 0,
								"slot": "0",
								"type": "t_uint256"
							},
							{
								"astId": 67,
								"contract": "smartC/contracts/lib/storage.sol:Storage",
								"label": "purpose",
								"offset": 0,
								"slot": "1",
								"type": "t_string_storage"
							},
							{
								"astId": 69,
								"contract": "smartC/contracts/lib/storage.sol:Storage",
								"label": "candidate1",
								"offset": 0,
								"slot": "2",
								"type": "t_address"
							},
							{
								"astId": 71,
								"contract": "smartC/contracts/lib/storage.sol:Storage",
								"label": "candidate2",
								"offset": 0,
								"slot": "3",
								"type": "t_address"
							},
							{
								"astId": 73,
								"contract": "smartC/contracts/lib/storage.sol:Storage",
								"label": "votes_of_candidate1",
								"offset": 0,
								"slot": "4",
								"type": "t_uint256"
							},
							{
								"astId": 75,
								"contract": "smartC/contracts/lib/storage.sol:Storage",
								"label": "votes_of_candidate2",
								"offset": 0,
								"slot": "5",
								"type": "t_uint256"
							},
							{
								"astId": 77,
								"contract": "smartC/contracts/lib/storage.sol:Storage",
								"label": "position",
								"offset": 0,
								"slot": "6",
								"type": "t_string_storage"
							},
							{
								"astId": 79,
								"contract": "smartC/contracts/lib/storage.sol:Storage",
								"label": "context",
								"offset": 0,
								"slot": "7",
								"type": "t_string_storage"
							},
							{
								"astId": 81,
								"contract": "smartC/contracts/lib/storage.sol:Storage",
								"label": "totalVotes",
								"offset": 0,
								"slot": "8",
								"type": "t_uint256"
							},
							{
								"astId": 83,
								"contract": "smartC/contracts/lib/storage.sol:Storage",
								"label": "concluded",
								"offset": 0,
								"slot": "9",
								"type": "t_bool"
							},
							{
								"astId": 85,
								"contract": "smartC/contracts/lib/storage.sol:Storage",
								"label": "startTime",
								"offset": 0,
								"slot": "10",
								"type": "t_uint256"
							},
							{
								"astId": 87,
								"contract": "smartC/contracts/lib/storage.sol:Storage",
								"label": "conclusionTime",
								"offset": 0,
								"slot": "11",
								"type": "t_uint256"
							},
							{
								"astId": 91,
								"contract": "smartC/contracts/lib/storage.sol:Storage",
								"label": "voted",
								"offset": 0,
								"slot": "12",
								"type": "t_mapping(t_uint256,t_bool)"
							}
						],
						"numberOfBytes": "416"
					},
					"t_struct(Person)44_storage": {
						"encoding": "inplace",
						"label": "struct Storage.Person",
						"members": [
							{
								"astId": 33,
								"contract": "smartC/contracts/lib/storage.sol:Storage",
								"label": "id",
								"offset": 0,
								"slot": "0",
								"type": "t_uint256"
							},
							{
								"astId": 35,
								"contract": "smartC/contracts/lib/storage.sol:Storage",
								"label": "callSign",
								"offset": 0,
								"slot": "1",
								"type": "t_string_storage"
							},
							{
								"astId": 37,
								"contract": "smartC/contracts/lib/storage.sol:Storage",
								"label": "position",
								"offset": 0,
								"slot": "2",
								"type": "t_string_storage"
							},
							{
								"astId": 39,
								"contract": "smartC/contracts/lib/storage.sol:Storage",
								"label": "elevatedIn",
								"offset": 0,
								"slot": "3",
								"type": "t_string_storage"
							},
							{
								"astId": 41,
								"contract": "smartC/contracts/lib/storage.sol:Storage",
								"label": "exists",
								"offset": 0,
								"slot": "4",
								"type": "t_bool"
							},
							{
								"astId": 43,
								"contract": "smartC/contracts/lib/storage.sol:Storage",
								"label": "qualified",
								"offset": 1,
								"slot": "4",
								"type": "t_bool"
							}
						],
						"numberOfBytes": "160"
					},
					"t_struct(Position)56_storage": {
						"encoding": "inplace",
						"label": "struct Storage.Position",
						"members": [
							{
								"astId": 55,
								"contract": "smartC/contracts/lib/storage.sol:Storage",
								"label": "holder",
								"offset": 0,
								"slot": "0",
								"type": "t_address"
							}
						],
						"numberOfBytes": "32"
					},
					"t_uint256": {
						"encoding": "inplace",
						"label": "uint256",
						"numberOfBytes": "32"
					}
				}
			},
			"userdoc": {
				"kind": "user",
				"methods": {},
				"version": 1
			}
		}
	}
}